:100000000C94F5020C941D030C941D030C941D0319
:100010000C941D030C941D030C941D030C941D03E0
:100020000C941D030C941D030C94A8220C943021F5
:100030000C941D030C941D030C941D030C941D03C0
:100040000C941D030C941D030C941D030C941D03B0
:100050000C941D030C941D030C941D030C94CB1BDA
:100060000C941D030C941D030C941D030C941D0390
:100070000C941D030C941D030C941D030C941D0380
:100080000C941D030C941D030C941D030C941D0370
:100090000C94890C0C941D030C941D030C941D03EB
:1000A0000C941D030C941D030C941D03EF12F3120A
:1000B000FC12011306130C130F131213736B6574E8
:1000C00063683A76312E31333B6C69623A76312E71
:1000D0003133004B6579626F617264696F204D6FD7
:1000E00064656C203031202D204B616C6569646F34
:1000F00073636F70652000FFFF1E001F002000214A
:100100000022000049E000E40002602300240025F2
:1001100000260027000060350014001A00080015B2
:100120000017002B002A002C0028001C0018000CCF
:1001300000120013002E004B0004001600070009F7
:10014000000A002900E300E200E6000B000D000EAB
:10015000000F00330034004E001D001B0006001984
:100160000005002B44E100E5002B4411001000368F
:1001700000370038002D00FFFF3A003B003C003DF7
:10018000003E000000E000E400B6523F00400041A5
:10019000004200430044002B00FFFF0150FFFF42DC
:1001A00050605029504C002800CD52B5522F0830D5
:1001B000082F00300045004A00045002500850410A
:1001C0005025502A50E300E60065005000510052CF
:1001D000004F00FFFFFFFF4D0046004900FFFF44B6
:1001E000502650FFFFE100E500FFFF7F00EA56E9DF
:1001F00056FFFF31003108FFFFFFFFFFFFFFFFFF4A
:10020000FFFFFFFFFFFFFFFFFF0160FFFF5F0060D9
:100210000061005600FFFFFFFFFFFFFFFFFFFFFF32
:10022000FFFFFFFFFFFFFFFFFFFFFFFFFF5C005D22
:10023000005E005700FFFFFFFFFFFFFFFFFFFFFF14
:10024000FFFFFFFFFFFFFFFFFFFFFFFFFF59005A08
:10025000005B002E003400FFFFFFFFFFFFFFFFFFEA
:10026000FFFFFF2B44FFFFFFFF2B44FFFF620063F4
:1002700000550054002800000000000000000000AD
:10028000000000000000000000000000000000006E
:100290000000000101010101010101010101010151
:1002A0000202020202020202030303030303030425
:1002B00004040404050505050606060607070707E6
:1002C0000808080909090A0A0A0B0B0B0C0C0D0D8A
:1002D0000D0E0E0F0F10101111121213131414150E
:1002E00015161617181819191A1B1B1C1D1D1E1F71
:1002F000202021222323242526272728292A2B2CA6
:100300002D2E2F303132323334363738393A3B3CA8
:100310003D3E3F40424344454648494A4B4D4E4F7F
:10032000515253555657595A5C5D5F60626365661A
:1003300068696B6D6E7072737577787A7C7E7F8179
:10034000838587898A8C8E90929496989A9C9EA099
:10035000A2A4A7A9ABADAFB1B4B6B8BABDBFC1C472
:10036000C6C8CBCDD0D2D5D7DADCDFE1E4E7E9EC03
:10037000EFF1F4F7F9FCFF05010906A101050719E2
:10038000E029E715002501750195088102050C9506
:10039000017508150026FF00190029FF81000508D6
:1003A0001901290895087501910205079506750838
:1003B000150026E700190029E78100C0050C090196
:1003C000A1018504150026FF0319002AFF039504E7
:1003D00075108100C005010906A1018508050719EE
:1003E000E029E7150025017501950881027504953E
:1003F00001810119042931150025017501952E810E
:10040000027501950181011933299B15002501759C
:100410000195698102750195018101199D29DD15FB
:10042000002501750195418102750295018101C088
:1004300005010902A1018501050919012908150015
:100440002501950875018102050109300931093836
:100450001581257F750895038106C005010980A1D6
:10046000018505150026FF00190029FF9501750873
:100470008100C005010902A101050919012908151A
:100480000025019508750181020501093009311621
:10049000000026FF7F75109502810209381581251D
:1004A0007F750895018106C01E08340820082108C0
:1004B0002208240834002608270825082E083600BC
:1004C0002D003700380027003308330036082E008F
:1004D000370838081F082F003100300023082D0886
:1004E00035002F0831083008350805005300009FFB
:1004F0009FDFFB1FF197793FF11F1717F9F9996FEC
:10050000F68F6939D311F1FD9BB99D9FF99F1F9F0C
:10051000FD9FD73FFC6F6699F99969D9DF6996F914
:1005200066CFF356F496B4CFF8F9881FFE16FF8F06
:1005300024D7EB9F8F96692E00080B000202020160
:10054000000904000001020200000524001001055A
:100550002401010104240206052406000107058187
:100560000310004009040100020A00000007050210
:10057000024000000705830240000012010002EF64
:1005800002014009120123000101020301120100CE
:100590000200000040091201230001010203014B87
:1005A0006579626F617264696F004D6F64656C207C
:1005B00030310004030904005F0358050C09B50B32
:1005C000C80E270FE60F5110AE106A11AD130815B3
:1005D000121544169916B416FF169F17A018A219E3
:1005E000181A071B4D1BC81DBF0B11241FBECFEFD0
:1005F000DAE0DEBFCDBF12E0A0E0B1E0EEEBF7E461
:1006000002C005900D92A836B107D9F727E0A8E6F9
:10061000B2E001C01D92AD3AB207E1F712E0C4EFBB
:10062000D2E004C02197FE010E94B823CC3DD1073F
:10063000C9F70E945A230C94D2230C940000DC01C9
:10064000ED91FC910190F081E02D0994811106C09B
:1006500061FF2EC060FD2CC00C942316813089F4FC
:1006600061FF26C060FD24C063ED70E08FE496E07A
:100670000E9480136CEB70E08FE496E00E94801380
:1006800017C08230A9F461FF13C060FD0BC00E9447
:10069000151C24E230E040E050E00E9496236C5F9D
:1006A00060936A0280916A0290916B020E948C09A9
:1006B00080E090E0089582EB92E00C94720620E0D6
:1006C00040E060EA82E992E00E94A61620E046E45B
:1006D0006CE88DE892E00E94A61620E044E662E80D
:1006E00088E892E00E94A61620E040EA60E083E8F5
:1006F00092E00E94A61622E846E460E08EE792E0CF
:100700000E94A6162AEA40E060E089E792E00E9493
:10071000A61628E740E062E884E792E00C94A6166B
:1007200082EB92E00E9461068CE895E00E94BE0E8A
:1007300083E996E00E941F038DE097E00E941F036B
:1007400083E596E00E941F038BE896E00E941F035A
:1007500089EA96E00E941F038EE996E00E941F033B
:1007600088E996E00E941F0382E992E00E941F033D
:100770008DE892E00E941F0388E892E00E941F0328
:1007800083E892E00E941F038EE792E00E941F031D
:1007900089E792E00E941F0384E792E00E941F0312
:1007A00086E996E00E941F038CEF96E00E941F03EB
:1007B00084EB96E00E941F038DE896E00E941F03E1
:1007C0008FE496E00E941F0387E992E00E941F03D6
:1007D00082E0809392068FEF80931F011092200198
:1007E0001092210166E989EA96E00E94851766E980
:1007F0008EE996E00E949C1780916C02811107C0DF
:1008000088E692E00E949A1881E080936C0288E664
:1008100092E09093BB068093BA068BE896E00C9426
:1008200010140E945F0589ED94E00E94B2068BE1EE
:1008300094E00C94DC060F931F93882319F0109218
:10084000A50278C08091A502811113C01092A80260
:1008500010929D0210929E0210929F021092A0028E
:100860001092A1021092A2021092A3021092A4026E
:1008700061C00E94151C00919D0210919E02209162
:100880009F023091A002601771078207930708F456
:1008900051C00E94151C20910C0130910D01DC010A
:1008A000CB01820F931FA11DB11D80939D029093D8
:1008B0009E02A0939F02B093A0020E94151C00917B
:1008C000A1021091A2022091A3023091A40260170C
:1008D00071078207930780F08091A80290910B0125
:1008E000482F50E02FEF30E0291B31094217530702
:1008F0001CF4890F8093A8028091A50280FF04C098
:1009000060910E01619506C081FF03C060910E01E8
:1009100001C060E082FF04C080910E01819506C095
:1009200083FF03C080910E0101C080E01F910F91F1
:100930000C94FA051F910F9108950F931F93CF9375
:10094000C82F0E94151C0091990210919A022091C3
:100950009B0230919C02601771078207930728F170
:100960000E94151C2091060130910701DC01CB018A
:10097000820F931FA11DB11D8093990290939A023B
:10098000A0939B02B0939C02C0FF03C0409108015A
:1009900005C0C1FF0AC040910801419560E080E0B8
:1009A000CF911F910F910C94CD09CF911F910F9171
:1009B0000895CF93903509F079C0C82F8072922F97
:1009C00092703C2F3074C6FF14C0811112C08C2F5E
:1009D0008F7B2170992329F0211103C00E946305A8
:1009E00056C0222309F453C0911151C00E946805DA
:1009F0004EC0811136C0992309F449C020FD4AC078
:100A00000E94151C20910C0130910D01DC01CB01DD
:100A1000820F931FA11DB11D80939D0290939E0292
:100A2000A0939F02B093A0020E94151C209109017F
:100A300030910A01DC01CB01820F931FA11DB11D72
:100A40008093A1029093A202A093A302B093A40268
:100A50001092990210929A0210929B0210929C029C
:100A600019C09923A1F020FD12C0C1FD02C090E081
:100A700001C094E081E0311101C080E0892BC3FD09
:100A800002C090E001C090E1892B0E948B0580E0BC
:100A900090E00CC0C4FF04C08C2F0E949D04F7CFCF
:100AA0008091A502C82BC093A502F1CFCF910895E4
:100AB00089E391E0909398028093970208950E94B1
:100AC000C9090C94DE090E94D4091092A902089564
:100AD0000C94D90956954795640F751F369527953F
:100AE00040E0820F931F0C94EA091092AB0210921F
:100AF000AA021092AD021092AC028FEF9FE7909382
:100B0000B1028093B0029093AF028093AE0281E075
:100B10008093A9020895CF93DF931F92CDB7DEB7DC
:100B20009091A902911104C089830E947505898161
:100B300080FF06C01092A9020F90DF91CF91089517
:100B40002091B0023091B102369527953093B102D1
:100B50002093B0024091AE025091AF025695479556
:100B60005093AF024093AE0281FD0CC082FF0AC0D9
:100B70006091AC027091AD02640F751F7093AD026D
:100B80006093AC0283FD0CC084FF0AC08091AA026E
:100B90009091AB02820F931F9093AB028093AA02B5
:100BA0006091AC027091AD028091AA029091AB026B
:100BB0000F90DF91CF910C946A05889F90011124CA
:100BC000232F3327829FA001839F500D1124452F8F
:100BD0005527440F551FC901880F991F820F931F76
:100BE0000196841B950B8F3F910519F010F08FEF44
:100BF00090E008950F931F93CF93DF93182FC62F84
:100C00008823F1F08091A8020E94DD052091A702BF
:100C1000382F1303C0011124820F911D27FD9A95CF
:100C200000910F0110E00817190764F022273327FD
:100C3000201B310B8C018217930724F4890102C019
:100C400000E010E0CC23F9F08091A8020E94DD05BD
:100C50002091A602482F3C2F3403C0011124820F9B
:100C6000911D27FD9A95C0910F01D0E0C817D907B3
:100C700064F0222733272C1B3D0BEC0182179307CE
:100C800024F4E90102C0C0E0D0E01092A902BE0144
:100C900084E0759567958A95E1F7C80124E09595FC
:100CA00087952A95E1F740E00E94CD090F700093E7
:100CB000A702CF70C093A602DF91CF911F910F9131
:100CC000089589E794E00E94F90982EC95E00E947A
:100CD000DC0F20E04FEF6FEF80E090E00E94EA062B
:100CE0000C94E9070F931F93CF93DF9389E794E068
:100CF0000E94690BC3EBD2E08E01D801ED91FD910A
:100D00008D01309719F080E00995F7CF0E9477099F
:100D10000E944609E991F991309719F081E009950F
:100D2000F9CFDF91CF911F910F910895E3E3F3E0A5
:100D300020E030E0419151914817590741F4220FCA
:100D4000331FF901ED5CFC4F7183608308952F5FC1
:100D50003F4F2034310571F70895BC0180E090E0E9
:100D60000C949606E3E3F3E02191319128173907BB
:100D700031F023E0E33BF207B9F70C94AD06089598
:100D8000E3EBF2E020E030E0419151914817590740
:100D900041F4220F331FF901ED54FD4F718360833D
:100DA00008952F5F3F4F2034310571F70895BC013E
:100DB00080E090E00C94C006E3EBF2E021913191E9
:100DC0002817390731F023E0E333F207B9F70C9421
:100DD000D70608958F929F92AF92BF92DF92EF92C3
:100DE000FF920F931F93CF93DF93C62FD42F122F11
:100DF0005C01022F0170822F8270D82E21FF02C069
:100E0000002321F0002331F0D11004C06D2F8C2F6E
:100E10000E9495074D2F6C2F89E794E00E94930B59
:100E2000882359F0002309F45FC0D1105DC04D2F15
:100E30006C2F89E794E00E94730B17FD0CC090E1C2
:100E4000C99FF0011124ED0FF11DEE0FFF1FED50B2
:100E5000FC4FA080B18083E3882E83E0982ED401DC
:100E6000ED91FD914D01212F4D2F6C2FC501309734
:100E700041F009955C01E12CF12C8E159F0579F765
:100E800033C00E94BB08EC01892B71F1D6FF1FC053
:100E9000D7FD2AC0D3FD28C0D1FF0CC0D11024C07B
:100EA000002311F18C2F9D2F0E94B409CE010E94C6
:100EB000BA091AC0D0FF18C0D11016C00023A1F083
:100EC000CE010E94C009CE010E94C5090DC0DD20DF
:100ED00021F0CE010E948C0907C0002329F017FFE2
:100EE00003C0CE010E944A09DF91CF911F910F915B
:100EF000FF90EF90DF90BF90AF909F908F900895FC
:100F000070E0FB0194E0899FE00DF11D112484E065
:100F1000EE0FFF1F8A95E1F7E40FF11DEE0FFF1FA3
:100F2000E950FF4F859194910895CF93DF93462F19
:100F300090E1899F90011124260F311DE901CC0F0A
:100F4000DD1FCD50DC4FD901AD54BC4FE0911001F5
:100F5000F0911101682F8C91099599838883DF9115
:100F6000CF9108950F931F9340917404509175048D
:100F700060917604709177048FE190E08A019B0183
:100F8000082E04C036952795179507950A94D2F731
:100F900000FD03C0019790F780E01F910F91089525
:100FA0000F931F93409174045091750460917604DF
:100FB000709177048A019B0104C036952795179597
:100FC00007958A95D2F7D901C80181701F910F91B9
:100FD0000895DF92EF92FF920F931F93CF93DF93C9
:100FE0006091780470E040E450E083EB93E00E946D
:100FF000CB2383EBE82E83E0F82ED0E000E010E076
:10100000D02EC09173048091780490E02C2F0C2E88
:10101000000C330B82179307B4F48C2F0E94D00777
:10102000882379F0E0911001F09111014D2D6D2F81
:101030008C2F0995019629F0F701E00FF11FC0836D
:1010400002C0C150E0CF0F5F1F4F00311105C1F644
:10105000DF5F80E1E80EF11CD43081F6DF91CF91A3
:101060001F910F91FF90EF90DF9008950F931F93C2
:10107000CF93C82F0E94D00741E050E060E070E0BD
:101080000C2E04C0440F551F661F771F0A94D2F719
:1010900000917404109175042091760430917704C6
:1010A000402B512B622B732B409374045093750487
:1010B0006093760470937704909173049C1710F4F6
:1010C000C0937304811105C0CF911F910F910C94AF
:1010D000E907CF911F910F91089510927404109217
:1010E000750410927604109277040C943608CF930E
:1010F000DF93C82F0E94D007D82F41E050E060E076
:1011000070E00C2E04C0440F551F661F771F0A9411
:10111000D2F74095509560957095809174049091A8
:101120007504A0917604B0917704482359236A236B
:101130007B234093740450937504609376047093FA
:10114000770480917304C81304C00E94B20780938F
:101150007304DD2321F0DF91CF910C94E907DF9137
:10116000CF9108950E94B2078F5F0C9436080E94B9
:10117000B2070C947708CF93943409F043C0C82F7A
:10118000822F8270CA3248F1CA52C13289F0C2320B
:10119000C9F42170882329F0211103C00E94B208EC
:1011A0002AC0222341F1811126C00E94B70823C022
:1011B0002170882311F02223C1F32223E1F0811151
:1011C0001AC0ECCF882331F08C2F0E94D0078111F8
:1011D00012C014C020FD0CC00EC0882361F020FD99
:1011E0000AC08C2F0E94D007882341F0CC2331F015
:1011F0008C2F0E94770880E090E004C08C2F0E9422
:101200003608F9CFCF910895CF93C82F0E946D086B
:10121000C0937804CF91089580E00C940409CF9393
:10122000DF9300D000D000D0CDB7DEB7DC0113963D
:101230007C936E93129715965C934E931497169623
:101240003C91169739837B836A835D834C832E831D
:10125000ED91FC910190F081E02D46E050E0BE015F
:101260006F5F7F4F099526960FB6F894DEBF0FBECD
:10127000CDBFDF91CF910895682F82EC95E00C945B
:10128000860F682F82EC95E00C94AD0F82EC95E010
:101290000C94D60FCF93DF93D82FC92F93FF04C0A0
:1012A00081EE90E00E944109C0FF04C080EE90E012
:1012B0000E944109C1FF04C082EE90E00E944109F2
:1012C000C2FF04C086EE90E00E944109C4FF04C042
:1012D00083EE90E00E9441098D2F9C2FDF91CF91EA
:1012E0000C944109682F82EC95E00C94770F82EC06
:1012F00095E00C94550FCF93DF93EC010E943C09CD
:10130000CE010E947209811104C0DF91CF910C942B
:101310007709DF91CF910895CF93DF93D82FC92F0D
:1013200093FF04C081EE90E00E947B09C0FF04C0DF
:1013300080EE90E00E947B09C1FF04C082EE90E045
:101340000E947B09C2FF04C086EE90E00E947B09E8
:10135000C4FF04C083EE90E00E947B098D2F9C2F78
:10136000DF91CF910C943C09682F70E08CEA95E0F6
:101370000C94FA0E682F70E08CEA95E00C94130F31
:10138000682F89E196E00C94961089E196E00C9420
:1013900094108AE096E00C943910242F462F682F81
:1013A0008AE096E00C941810682F8AE096E00C947E
:1013B0004610682F8AE096E00C944B10E2E2F6E0CB
:1013C000108A468557856485758520E08CE296E015
:1013D0000C940F09242FAB01BC018CE296E00C9415
:1013E0000F093F9A479A08956E9A769824982C98F8
:1013F0000895CF93DF93EC010FB6F894A8958091F0
:101400006000886180936000109260000FBE64E607
:1014100070E080E090E00E94461CCE010E94F1093D
:10142000CE010E94F409188219821A821B821C8242
:101430001D821E821F828CE08093B800DF91CF91C5
:101440000895603250F470E0FB01EE0FFF1F6E0F45
:101450007F1FFB01E550FB4F0CC0603470F470E05F
:1014600060527109FB01EE0FFF1FE60FF71FEF56E9
:10147000FB4F608171818281089560E070E080E0BF
:1014800008950F931F93CF93DF93C62F8901D42F15
:101490006032D8F40E94210A90911201D81307C03B
:1014A00081E0171305C0061303C080E001C081E08E
:1014B000892B809312016C2F70E0FB01EE0FFF1F50
:1014C000E60FF71FE550FB4F1DC06034F0F40E949B
:1014D000210A90911201D81307C081E0171305C0AB
:1014E000061303C080E001C081E0892B80931201C4
:1014F000EC2FF0E0B097CF01880F991FE80FF91F8C
:10150000EF56FB4F00831183D283DF91CF911F9160
:101510000F9108950F931F93542F422F980170E15C
:10152000679FF0011124E50FF11DE55CFE4F60811E
:101530001F910F910C94410A80911201882311F19F
:101540008BEF94E00E94B30D81E994E00E94B30D0B
:101550008BEF94E00E94B30D81E994E00E94B30DFB
:101560008BEF94E00E94B30D81E994E00E94B30DEB
:101570008BEF94E00E94B30D81E994E00E94B30DDB
:10158000109212010895CF93DF93EC018881998125
:10159000AA81BB8188879987AA87BB878C819D8117
:1015A000AE81BF818C879D87AE87BF878BEF94E02C
:1015B0000E943C0D882341F08BEF94E00E946F0D58
:1015C000688379838A839B8381E994E00E943C0D40
:1015D000882341F081E994E00E946F0D6C837D8344
:1015E0008E839F83DF91CF910895AF92BF92DF9258
:1015F000EF92FF920F931F93CF93DF931F92CDB77C
:10160000DEB75C0130E0F12C87E0E82E0FE010E05F
:10161000D12ED30EF50180819181A281B3810D2C51
:1016200004C0B695A795979587950A94D2F78170CF
:10163000282F220F80859185A285B3850D2C04C0AB
:10164000B695A795979587950A94D2F78170282B20
:101650004E2D411B6F2D80E090E039830E94EA06F9
:10166000F50144815581668177810D2C04C0769502
:101670006795579547950A94D2F74170242F220F0A
:10168000448555856685778504C076956795579519
:101690004795DA94D2F74170242B402F411B6F2DD0
:1016A00080E090E00E94EA061F5F3981183009F05F
:1016B000AFCFF394385FF4E0FF12A9CF0F90DF9122
:1016C000CF911F910F91FF90EF90DF90BF90AF905F
:1016D0000895CF93DF93EC010E94C30ACE01DF91FE
:1016E000CF910C94F50A6430E8F44031D8F4E62F39
:1016F000F0E0842F90E0483028F0E757FB4F2FE0D0
:1017000030E004C0E357FB4F27E030E0281B390BE3
:1017100081E090E001C0880F2A95EAF780959081DA
:101720008923808308956430F0F44031E0F470E060
:10173000E42FF0E0DB01483038F0A757BB4F8C9125
:1017400090E02FE030E006C0A357BB4F8C9190E0B3
:1017500027E030E02E1B3F0B02C0959587952A9518
:10176000E2F78170089580E0089560E08BEF94E0E7
:101770000E94220D63E081E994E00C94220D81E93E
:1017800094E00E94210D8BEF94E00C94210D1092B7
:101790008B0581E08093890510928805589A599AA3
:1017A000E9EBF0E080818E7F808380818D7F808374
:1017B00088E48093B80085E48093BC0008954132AA
:1017C00008F043C090918B059111FCCF91E090936C
:1017D0008B05209389052FEF2093650510926705EF
:1017E000240F2093660590938A0590918A05880FAF
:1017F000892B80938A0580918805813061F410924D
:10180000880580918A058093BB008091BC0083FD90
:10181000F8CF85EC01C085EE8093BC0080918B05EC
:101820008130E1F380916705841710F440916705DA
:1018300028E635E0FB01D9018A2F821B841718F4B2
:101840008D918193F9CF842F089580E008950F93AF
:10185000413208F04AC090918B059111FCCF32E0E3
:1018600030938B05009389053FEF30936505109207
:10187000670540936605FB0168E675E0DB013A2FDA
:10188000361B341718F431913D93F9CF10928A0525
:1018900030918A05880F832B80938A058091880573
:1018A000813061F41092880580918A058093BB0095
:1018B0008091BC0083FDF8CF85EC01C085EE80935C
:1018C000BC00222321F080918B058230D1F38091DE
:1018D0006505803331F08F3F49F0803221F492E08A
:1018E00005C093E003C094E001C091E0892F0F91FF
:1018F000089585ED8093BC008091BC0084FDFCCFF1
:1019000010928B05089585EC8093BC0010928B0596
:1019100008951F920F920FB60F9211242F933F93A9
:101920004F935F936F937F938F939F93AF93BF93E7
:10193000EF93FF938091B900887F883239F170F47A
:10194000803109F130F4882309F466C08830D9F079
:1019500067C08831D9F0803279F162C08034D9F122
:1019600050F4803349F1883309F05AC080936505FB
:101970000E94830C55C0803511F18835A1F188345F
:1019800009F04EC04BC080918A0510C09091670548
:1019900080916605981798F5E091670581E08E0FB4
:1019A00080936705F0E0E859FA4F80818093BB008F
:1019B00085EC8093BC0034C0809365052FC0E09116
:1019C000670581E08E0F809367058091BB00F0E092
:1019D000E859FA4F808390916705809166059817C2
:1019E00038F385E8E6CFE091670581E08E0F8093BC
:1019F00067058091BB00F0E0E859FA4F8083809141
:101A0000890581110BC081E08093880584EA809369
:101A1000BC0010928B0504C0109265050E94790CE1
:101A2000FF91EF91BF91AF919F918F917F916F91B6
:101A30005F914F913F912F910F900FBE0F901F908C
:101A400018950895FC01E859FF4F108231961082D5
:101A50003797262F30E0318320833297686570E016
:101A600071836083809113019FEF980F909313010E
:101A700081110C94C70B08950F931F93CF93DF939D
:101A800000D000D01F92CDB7DEB78C01FC01E05A28
:101A9000FF4F21E045E0BE016F5F7F4F80810E94D4
:101AA000DF0B8981813081F4F801EC59FF4F8A8185
:101AB000808331968B81808331968C8180833196AF
:101AC0008D81808381E001C080E00F900F900F90A6
:101AD0000F900F90DF91CF911F910F910895FC010E
:101AE000EC59FF4F608171818281938108950F933A
:101AF000CF93DF93CDB7DEB769970FB6F894DEBF0B
:101B00000FBECDBF20E8260F2983DE01129628E103
:101B1000629FB001112420E030E0F901E60FF71FC9
:101B2000E80FF91FE081F0E0E958FD4FE491ED93F3
:101B30002F5F3F4F2831310581F7FC01E05AFF4FFD
:101B400000E021E049E1BE016F5F7F4F80810E948C
:101B5000270C69960FB6F894DEBF0FBECDBFDF919C
:101B6000CF910F910895CF93DF93EC01C759DF4FC9
:101B7000688121E0260F28830E94770D88818430B8
:101B800009F41882DF91CF910895FC0182818F5B67
:101B9000FB01808381E00895CF93DF93CDB7DEB75B
:101BA00069970FB6F894DEBF0FBECDBFFC01DB0115
:101BB0009C919F5F9C93BE016F5F7F4F89E1DB012A
:101BC0001D928A95E9F729E0298384E08A8391E0D0
:101BD0009D8383E08E839F8398872A8721E22B87CA
:101BE0009C879D879F8722E2288B25E4298B27E00D
:101BF0002B8B25E02C8B8E8B20E430E0388F2F8BC5
:101C0000998F82818B83838180688D8B49E150E03D
:101C100080E00E94DE2069960FB6F894DEBF0FBE0A
:101C2000CDBFDF91CF910895FB0120812138B9F418
:101C300023812232A1F4DC0112962C91129730E01C
:101C4000448155814217530751F421E053962C9358
:101C500045E450E067E773E080E80C94DE2080E024
:101C600090E00895CF93DF93EC01FB018A8190E02F
:101C7000248135818217930709F04AC081819081C0
:101C8000913A69F4813009F441C0833011F48B89B1
:101C900003C08230E9F58C898093F10037C091321E
:101CA000B9F58B3019F482818B8B30C08A3019F4EE
:101CB00082818C8B2BC0893059F566817781838135
:101CC000833079F4888D998D6817790709F58E89A5
:101CD0009F890E940521888D998D9068998F888FA2
:101CE00015C0823041F46130710591F461E070E01B
:101CF000CE01459609C0813059F46830710541F430
:101D000068E070E0CE010A960E94052181E001C0E2
:101D100080E0DF91CF910895CF93DF93EC0181E0D4
:101D20008C838D839E012E5E3F4F3F832E831986C9
:101D300018862FE731E0398328838B8B8C8B1D8AA3
:101D40001F8A1E8A198E188E81EC8A8B0E94A91E0A
:101D5000BE01DF91CF910C94621EBC01665F7F4F84
:101D6000FC01838148E050E080640C943E200A9698
:101D700028E0FC0111922A95E9F70895CF93DF93AB
:101D8000EC010E94B70ECE01DF91CF910C94AD0E05
:101D90008CE895E00C948C0E8091B405811113C0F1
:101DA0001092A7051092A6058CEB93E09093A905DD
:101DB0008093A80589E190E09093AB058093AA05F4
:101DC00081E08093B4050E949D1266EA75E00C9450
:101DD0002C120F931F93CF93DF93EB018A010E9484
:101DE0009D129801AE0164E0DF91CF911F910F9198
:101DF0000C944912FC0120E030E041915191452BB7
:101E000041F4220F331FFC01E20FF31F7183608343
:101E100005C02F5F3F4F2430310579F748E050E08F
:101E2000BC010C94E90EFC019C01285F3F4F4081EE
:101E300051814617570711F4118210823296E2172A
:101E4000F307A9F748E050E0BC010C94E90E8CEAD6
:101E500095E00C94CC0E8091FC05811113C010927A
:101E6000BD051092BC0585ED93E09093BF0580936E
:101E7000BE058BE590E09093C1058093C00581E09D
:101E80008093FC050E949D126CEB75E00C942C1263
:101E9000CF93DF93EC010E949D122DE130E0AE0163
:101EA00068E0DF91CF910C9449120F931F93CF9369
:101EB000DF93EC018C01035E1F4F4DE150E0BC014C
:101EC000C8010E94BE23892B59F0CE010E94480F01
:101ED0002DE1FE01D80101900D922A95E1F702C093
:101EE0008FEF9FEFDF91CF911F910F910895605E6B
:101EF000683050F4FC01858D90E002C0959587957F
:101F00006A95E2F78170089580E008956E3D90F43F
:101F1000262F269526952695FC01E20FF11D677068
:101F200081E090E001C0880F6A95EAF79181892BE2
:101F300081830DC0605E683068F421E030E001C04C
:101F4000220F6A95EAF7FC013081232B208381E080
:101F500090E0089580E090E008956E3D98F4262F7B
:101F6000269526952695FC01E20FF11D677081E00C
:101F700090E001C0880F6A95EAF7809591818923E6
:101F800081830EC0605E683070F421E030E001C0F3
:101F9000220F6A95EAF72095FC01308123232083E4
:101FA00081E090E0089580E090E008952DE1FC014B
:101FB00011922A95E9F70895CF93DF93EC010E94DF
:101FC000D60FCE01DF91CF910C94480F82EC95E0B3
:101FD0000C942B0F80910B06811113C010920506F3
:101FE0001092040680E394E090930706809306061F
:101FF0008BE290E0909309068093080681E080933D
:102000000B060E949D1264E076E00C942C120F9354
:102010001F93CF93DF93EB018A010E949D129801D9
:10202000AE0161E0DF91CF911F910F910C944912A5
:10203000CF93DF9300D000D0CDB7DEB7FC01308165
:1020400039836A834B832C8344E050E0BE016F5F89
:102050007F4F0E9407100F900F900F900F90DF910D
:10206000CF910895FC01108220E040E060E00C94E4
:1020700018100C943210FC012081621731F060833B
:1020800020E040E060E00C9418100895FC012081ED
:10209000622B0C943B106095FC01208162230C9410
:1020A0003B108AE096E00C94EA0F80911A068111A9
:1020B00013C010921406109213068BE594E09093CF
:1020C00016068093150688E190E090931806809399
:1020D000170681E080931A060E949D1263E176E064
:1020E0000C942C120F931F93CF93DF93EB018A0173
:1020F0000E949D129801AE0165E0DF91CF911F9182
:102100000F910C944912CF93DF931F92CDB7DEB796
:10211000198241E050E0BE016F5F7F4F0E94721054
:102120000F90DF91CF9108950C948310CF93DF939C
:102130001F92CDB7DEB76983633829F482EA97E04E
:102140000E943D2307C041E050E0BE016F5F7F4F1A
:102150000E9472100F90DF91CF91089589E196E06F
:102160000C945510CF93DF93CDB7DEB769970FB6B8
:10217000F894DEBF0FBECDBFFC01DB019C919F5FD9
:102180009C93BE016F5F7F4F89E1DB011D928A95B1
:10219000E9F729E0298384E08A8391E09D8383E045
:1021A0008E832A8721E22B879C879D879F8722E247
:1021B000288B25E3298B27E02B8B25E02C8B8E8B1E
:1021C00020E430E0388F2F8B998F82818B8383813D
:1021D00080688D8B49E150E080E00E94DE206996A6
:1021E0000FB6F894DEBF0FBECDBFDF91CF9108953B
:1021F000FC01838180640C943E200A970C94F810B3
:10220000DC01FB0112968C91129790E024813581BC
:1022100082179307D1F491818081813A31F481E072
:10222000913091F0933089F411C0813271F49B3078
:1022300021F4828152968C9305C09A3031F48281C8
:1022400053968C9381E00895089580E00895FB01F2
:1022500020812138B9F423812232A1F4DC011296C5
:102260002C91129730E0448155814217530751F465
:1022700021E052962C9345E350E063E774E080E858
:102280000C94DE2080E090E00895CF93DF93EC0182
:1022900081E08C838D839E012F5E3F4F3F832E8391
:1022A000198618861D861C861F861E86188A2BE8AE
:1022B00031E03983288329E931E03B872A878A8BFB
:1022C0008B8B81EC898B0E94A91EBE01DF91CF917F
:1022D0000C94621E82E296E00C944511FB018BE6A1
:1022E000808382E6818389E682838FE6838380E32D
:1022F000848381E3858386E00895CF93DF93CDB710
:10230000DEB769970FB6F894DEBF0FBECDBFFC01F4
:10231000DB018C918F5F8C93BE016F5F7F4F89E1F2
:10232000DB011D928A95E9F729E0298384E08A83FD
:1023300091E09D8383E08E832A8721E22B879C870F
:102340009D879F8722E2288B27E02B8B25E02C8B13
:102350008E8B20E430E0388F2F8B998F82818B8396
:1023600095858685998B8A8B838180688D8B49E1E1
:1023700050E080E00E94DE2069960FB6F894DEBF40
:102380000FBECDBFDF91CF910895DC01FB01129606
:102390008C91129790E02481358182179307D1F4B4
:1023A00091818081813A31F481E0913091F09330D4
:1023B00089F411C0813271F49B3021F482811F961F
:1023C0008C9305C09A3031F4828150968C9381E0D1
:1023D0000895089580E00895EF92FF920F931F9360
:1023E000CF93DF93FB012081213851F523812232E5
:1023F00039F5DC0112962C9130E044815581421769
:102400005307F1F4EC010B851C85E12CF12C01152F
:10241000110591F0F801448155816281738180E852
:102420000E94DE208F3FFFEF9F0769F0E80EF91E44
:10243000D8010D911C91EBCF81E08F87C70105C0BA
:1024400080E090E002C08FEF9FEFDF91CF911F916E
:102450000F91FF90EF900895FC01A385B48510972C
:1024600019F47487638709C08D919C911197009727
:1024700011F0DC01F9CF6D937C9325853685DB0166
:1024800014968D919C911597820F931F968785873F
:102490000895AF92BF92CF92DF92EF92FF920F9387
:1024A0001F93CF93DF931F92CDB7DEB77C01698373
:1024B0006A01590141E050E0BE016F5F7F4FFC01AE
:1024C00083810E943E208C0197FD0BC0F701838120
:1024D000A501B60180640E943E2097FD02C0800FD6
:1024E000911F0F90DF91CF911F910F91FF90EF906F
:1024F000DF90CF90BF90AF900895CF93DF93EC0122
:1025000081E08C838D839E01265F3F4F3F832E8326
:10251000198618862FE931E0398328831C861B86AB
:102520001E861D868F87888B81EC8A870E94A91E54
:10253000BE01DF91CF910C94621E809147068111FC
:1025400007C086E396E00E947D1281E080934706F3
:1025500086E396E0089582E293E10C94B206262F7A
:1025600020684FEF6FEF0E94EA060C9477090F93F3
:102570001F93CF93DF931F92CDB7DEB7162FFC01C9
:10258000049141FF06C062E0C80149830E94AF1276
:10259000498140FF04C061E0C8010E94AF120F9062
:1025A000DF91CF911F910F9108951F93CF93DF93E8
:1025B000EB01209709F442C010E0CE010196FE0124
:1025C000449150E0FA013197E830F10508F036C047
:1025D000EA5AFF4F9E012E5F3F4F0C94B823E9014A
:1025E000FC01149124C0E901FC01649170E080E0D9
:1025F00090E00E94461C1BC0FC016491239642E0BF
:1026000009C0FC016491239641E004C0FC0164917F
:10261000239643E0C90109C0E90142E005C0E90190
:1026200041E002C0E90143E060E00E94B712612F7F
:1026300070E080E090E00E94461CBFCFDF91CF9118
:102640001F910895903671F460935206409351069D
:10265000622F0E942603BC018FE496E00E94D512EF
:1026600080E090E0089580E090E06134B8F46A334F
:1026700070F5603239F148F46A3001F118F46830CD
:10268000D8F408956B31E1F008956133E8F4E62F52
:10269000F0E0EE0FFF1FEA59FB4F2FC0603628F421
:1026A0006B35E0F498E083EC10C0613640F16B3795
:1026B000E0F06F37E0F0089582E207C088E2089505
:1026C00089E208958CE208958DEE860F0895E62F35
:1026D000F0E0EE0FFF1FEC5AFB4F0FC0E62FF0E0CB
:1026E000EE0FFF1FE05EFB4F08C083EAEECFE62F40
:1026F000F0E0EE0FFF1FE451FC4F85919491089597
:10270000CF92DF92EF92FF920F931F93CF93DF93BD
:102710006C018B01F80164916623A1F0C6010E944F
:102720003313EC01E12CF12C8E159F0519F40F5F8A
:102730001F4FF0CF62E00E94AF1261E0CE010E9415
:10274000AF12F5CF80E090E0DF91CF911F910F9114
:10275000FF90EF90DF90CF9008958BEA91E09093F7
:10276000500680934F06089508950895089521EB2B
:1027700031E0DC012D933C9310925A0610925906D9
:1027800080E3EBE5F6E0DF011D928A95E9F7089515
:10279000E0915906EF5FE0935906E83118F0109286
:1027A00059060895F0E0EE0FFF1FE55AF94F8081BA
:1027B0009181892BA1F30895993439F421FF03C045
:1027C00020FF0E94C81380E090E00895E091590630
:1027D000F0E0EE0FFF1FE55AF94F808191810097DD
:1027E00039F0DC01ED91FC910480F581E02D099434
:1027F0000895883110F48093590608958091590600
:1028000008959C01EBE5F6E080E04191519142177B
:10281000530711F40C94F9138F5F8831B1F70895C1
:102820000C940114EBE5F6E020E030E04191519189
:10283000452B49F4F901EE0FFF1FE55AF94F91833B
:102840008083822F08952F5F3F4F2831310571F724
:102850008FEF0895CF93DF93EC01E0915306F09151
:1028600054060190F081E02D83E596E00995CE01B4
:10287000DF91CF910C9412149A01462F682F89E7AB
:1028800094E00C94410ACF92DF92EF92CF936B01C8
:10289000E82EC0E06E2DA6018C2F0E943C14CF5F65
:1028A000C034C1F7CF91EF90DF90CF900895909111
:1028B0005A06809159069817B9F060E070E080E000
:1028C0000E944314E0915906F0E0EE0FFF1FE55A15
:1028D000F94F80819181009739F0DC01ED91FC91F5
:1028E0000480F581E02D0995E0915906F0E0EE0FA6
:1028F000FF1FE55AF94F80819181009739F0DC0183
:10290000ED91FC910680F781E02D099580915906A3
:1029100080935A060895762F642F0E9443140895D9
:10292000CF93DF9360E070E080E00E944314CBE53A
:10293000D6E089919991009739F0DC01ED91FC91F5
:102940000280F381E02D0995B6E0CB38DB0789F7EB
:102950008CED93E10E94B20688ED94E10E94DC06C2
:102960000E94151C2091140130911501DC01CB014E
:10297000820F931FA11DB11D80935506909356069B
:10298000A0935706B0935806DF91CF9108950F9307
:102990001F938901242F462F682F89E794E00E9416
:1029A0008A0A1F910F91089589E794E00C949C0A7C
:1029B0000F931F93811129C00E94151C0091550689
:1029C00010915606209157063091580606171707A2
:1029D00028073907B0F40E94D4140E94151C2091D6
:1029E000140130911501DC01CB01820F931FA11D51
:1029F000B11D8093550690935606A0935706B09349
:102A000058061F910F910C9457141F910F91089520
:102A100083E596E00C94B71360E070E080E00E94DC
:102A20004314089587EB91E090938C0680938B0676
:102A300008950E94151CCB016CE070E00E946E238B
:102A4000862F67FD8095880F889FA0011124452F50
:102A50005527BA01660F771F640F751F849F900179
:102A6000859F300D1124832F9927880F991F681B8C
:102A7000790B76956795605B24E0629FC001112415
:102A8000792F80E008950F931F93CF93DF93611503
:102A9000710521F4642F742F842F61C026E0289FD4
:102AA000D001299FB00D11248B2F9927AE7FBB2712
:102AB000EFEFF0E0EF01C61BD70BC49F9001C59F5D
:102AC000300DD49F300D1124A69FE001A79FD00D9B
:102AD000B69FD00D1124CD2FDD278F010C1B1D0BB0
:102AE000049FE001059FD00D149FD00D11248F018C
:102AF0000A1B1B0B069FD001079FB00D169FB00D40
:102B000011246B2F7727E61BF70BE49FD001E59F7D
:102B1000B00DF49FB00D112482309105A1F038F46E
:102B2000009769F00197B1F49D2F742F0AC083308C
:102B3000910569F0049771F49B2F732F0EC0942FA9
:102B40007B2F432F0AC0932F742F4B2F06C0932F38
:102B50007D2F03C0942F732F4D2F642F892FDF916A
:102B6000CF911F910F91089588EB95E10C94DC06AD
:102B7000CF92DF92EF92FF920F931F93CF93DF9349
:102B8000882309F457C0809192060E94D0078823B9
:102B900009F450C083EBE82E83E0F82E10E0C0E08B
:102BA000D0E00C2FE0911001F09111014C2F612F1A
:102BB000D701AC0FBD1F8C9109956C01E0911001FC
:102BC000F09111014C2F612F809192060995C81642
:102BD000D90611F4DD2041F020918F063091900646
:102BE00040919106602F07C0209116013091170186
:102BF000409118016C2F812F0E94C7142196C0317B
:102C0000D10579F61F5F80E1E80EF11C143039F62A
:102C100080911A01853070F480911901813150F44E
:102C20000E9419159B01482F6091190180911A018A
:102C30000E94C714DF91CF911F910F91FF90EF90E9
:102C4000DF90CF9008958091520680931A01809171
:102C5000510680931901809192060E94D007882323
:102C600061F0809192060E94770860E070E080E059
:102C70000E9443140E94E61304C0809192060E94B1
:102C800036088AEE94E0089585EC91E090938E06E4
:102C900080938D0608958FE496E10C94DC06CF9224
:102CA000DF92EF92FF921F93CF93DF938823C9F1B6
:102CB00080919506811135C00E94151C613F7342B9
:102CC0008105910558F533EBE32E33E0F32E10E048
:102CD000C0E0D0E0E0911001F09111014C2F612F84
:102CE000D701AC0FBD1F8C910995C12C29E4D22EC0
:102CF0008C159D0541F40E9419159B01482F6C2FDE
:102D0000812F0E94C7142196C031D10519F71F5F8A
:102D100080E1E80EF11C1430D9F603C081E0809305
:102D20009506DF91CF911F91FF90EF90DF90CF90AC
:102D300008958BEC91E09093940680939306089508
:102D4000FC014481638182810C948B14FC0181ED30
:102D500091E09183808362834383248308950E945A
:102D600019150E94431408958FED91E090939706F2
:102D7000809396060895CF93DF93EC019D81943163
:102D800018F49F5F9D832CC01D822B819C818A81BA
:102D900040E050E060E0299F801911240E943C141B
:102DA00040E050E060E08A810E943C149B818A816F
:102DB000890F8A832FEF280F2F3310F091959B8373
:102DC00040E050E06FEF0E943C142B819C818A818F
:102DD0004FEF50E060E0299F801911240E943C14BD
:102DE000DF91CF910895FC018DEE91E09183808376
:102DF000128281E0838385E084831582089588E9C7
:102E000096E00C94F316CF93DF93EC018D819E81B5
:102E10009C012F5F3F4F3E832D832F813885821782
:102E20009307E0F01E821D824A8550E0698570E0BC
:102E30008A819B810E9443159B01482F5C818A8176
:102E40009B81850F911D8F3F910510F08F5F910938
:102E50009B838A83842FB9010E944314DF91CF9111
:102E600008951F93CF93DF93EC018D819E819C0188
:102E70002F5F3F4F3E832D832F8138858217930725
:102E800060F11E821D8210E08A819B81212F269590
:102E9000269530E1239F800D911D11248F3F9105D0
:102EA00010F08F5F91094A8550E0698570E00E94BB
:102EB0004315AB01682F812F0E943C141F5F103413
:102EC00019F72C818A819B81820F911D8F3F91057B
:102ED00010F08F5F91099B838A83DF91CF911F91BF
:102EE0000895FC018BEF91E091838083138212821D
:102EF00081E08483168215828AE090E09087878340
:102F00008FEF818782E382870895FC0162870895AD
:102F1000FC0189E092E0918380831382128281E038
:102F20008483168215828AE090E0908787838FEFF2
:102F3000818782E382870895FC016287089589EA88
:102F400096E00E9471178EE996E00C948817643021
:102F500070F4403160F421FF0AC020E1629FF0016B
:102F60001124E40FF11DE454F94F2FEF208308954D
:102F7000CF93DF93EC0187EA97E10E94B206CE017E
:102F8000DF91CF910C942A1480E4ECEBF6E0DF01A2
:102F90001D928A95E9F708959F92AF92BF92CF92C2
:102FA000DF92EF92FF920F931F93CF93DF931F92C5
:102FB000CDB7DEB78091BA069091BB06892B09F494
:102FC00068C00E94151CEE24E3940091B60610918F
:102FD000B7062091B8063091B906601771078207CD
:102FE000930708F4E12C8CEBC82E86E0D82EF12C48
:102FF00000E010E0902E5601A00EB11ED5018C917C
:1030000089838823A1F08091BA069091BB06DC01E8
:10301000ED91FC910190F081E02DBE016F5F7F4F3B
:1030200009959B01482F602F8F2D0E94C714EE2019
:1030300019F08981F5018083D5018C91811107C038
:1030400020E030E040E0692D8F2D0E94C7140F5F13
:103050001F4F0031110571F6F394B0E1CB0ED11C76
:10306000E4E0FE12C5CFEE20A1F00E94151C2091D5
:103070001B0130911C01DC01CB01820F931FA11DAC
:10308000B11D8093B6069093B706A093B806B0938F
:10309000B9060F90DF91CF911F910F91FF90EF90A4
:1030A000DF90CF90BF90AF909F9008950F931F93A4
:1030B000CF93DF93EB0198814FEF50E06FEF70E01B
:1030C000913E58F02FEF30E0F901E91BF109CF01F3
:1030D0000E944315E62F382F17C08EE190E00E9422
:1030E0004315E62F272F4881489FC00111240FEF79
:1030F00010E0B8010E948223362F429FC0011124A4
:10310000B8010E948223762F9881923D10F0915051
:1031100003C0903418F09051988305C0903210F09D
:103120009052FACF18826E2F832FDF91CF911F918B
:103130000F91089525E232E0FC0131832083089548
:1031400087E192E09093B5068093B4060895CF93FB
:10315000DF93EC0183E299E10E94B206E09153060D
:10316000F09154060190F081E02D83E596E00995F9
:10317000CE010E9412148093FE06DF91CF91089534
:103180000F931F938091070790910807A09109075B
:10319000B0910A07892B8A2B8B2B79F00E94151C82
:1031A00000910707109108072091090730910A073D
:1031B000061717072807390778F1809103079091C0
:1031C0000407A0910507B0910607892B8A2B8B2B4A
:1031D000B9F10E94151C009103071091040720917A
:1031E000050730910607061717072807390740F526
:1031F00000E010E020E04AE060E08091FF0690915E
:1032000000070E94EB191092030710920407109216
:1032100005071092060714C000E010E020E042E02D
:1032200060E080910107909102070E94EB191092D3
:103230000707109208071092090710920A07BDCFDE
:103240001F910F910895CF92DF92EF92FF920F930B
:103250001F93CF93DF9300D0CDB7DEB76C012A83E5
:1032600049830E94FE139091FE062A8149818913A9
:103270005DC027FD5BC084E0C816D10408F456C0C9
:1032800088E2C816D10408F051C021FF4FC0E09079
:103290000107F09002074830D0F4D0920207C092A4
:1032A00001070E94151C20911D0130911E01DC01B7
:1032B000CB01820F931FA11DB11D8093070790932F
:1032C0000807A0930907B0930A0732E01DC0E090F9
:1032D000FF06F0900007D0920007C092FF060E9400
:1032E000151C20911D0130911E01DC01CB01820FC4
:1032F000931FA11DB11D8093030790930407A09312
:103300000507B09306073AE0EC14FD0451F000E025
:1033100010E020E0432F60E0C70139830E94EB19E1
:103320003981432F60E0C6010E940B1AC6010F903D
:103330000F90DF91CF911F910F91FF90EF90DF9051
:10334000CF9008958BE292E09093FD068093FC0667
:10335000089508956F927F928F92BF92CF92DF92DD
:10336000EF92FF920F931F93CF93DF936C01B42ED4
:103370003801822E162FE12CF12CC0E0D0E0CE01D6
:103380008E0D9F1D960102C0369527958A95E2F70E
:1033900020FF07C0482D93016C2F6B0D812F0E94D9
:1033A000C7142196C430D10551F734E0E30EF11C67
:1033B0001F5F80E1E816F10401F7DF91CF911F91C3
:1033C0000F91FF90EF90DF90CF90BF908F907F9004
:1033D0006F900C94D414CF92DF92EF920F931F93BF
:1033E0006801E22E8430910580F08832910568F4FE
:1033F0002E2D8601E82FE450F0E0EE0FFF1FE15183
:10340000FB4F859194910E94AA191F910F91EF9003
:10341000DF90CF9008950F931F9300911F0110919B
:103420002001209121010E94EB191F910F91089515
:1034300089E392E090930C0780930B07089589EC41
:1034400080931707809312078093100787E39BE10F
:103450000C94DC0669E170E080E090E00E94461C7C
:1034600089E794E00E94C30A8091790490917A04DC
:10347000A0917B04B0917C040097A105B24081F734
:103480008091810490918204A0918304B09184047E
:10349000892B8A2B8B2B21F708950E948B140E9475
:1034A000D4140C942A1ADF92EF92FF920F931F9379
:1034B000CF93DF9340E060E088EC0E948B1489E7B3
:1034C00094E00E94C30A8091790490917A04A091BB
:1034D0007B04B0917C0482389105A105B24009F4C7
:1034E0008BC0D0E0E12CC7E087E0F82EFD0EDF2C8A
:1034F000DC1A8091790490917A04A0917B04B091B8
:103500007C040D2C04C0B695A795979587950A94D1
:10351000D2F78170282F220F80918104909182042C
:10352000A0918304B09184040D2C04C0B695A79596
:10353000979587950A94D2F78170822B833039F45E
:1035400000910F07109110072091110708C08130DA
:1035500061F40091120710911307209114074C2F6A
:103560006E2D89E794E00E948A0A80917D049091F3
:103570007E04A0917F04B09180040D2C04C0B69508
:10358000A795979587950A94D2F78170282F220FD7
:103590008091850490918604A0918704B09188045D
:1035A00004C0B695A79597958795DA94D2F7817060
:1035B000822B833039F400910F071091100720916E
:1035C000110708C0813069F40091120710911307A8
:1035D0002091140748E04C0F6E2D89E794E00E947B
:1035E0008A0AC15008F083CFE394D85F84E0E812E0
:1035F0007ACF0E94D41463CFDF91CF911F910F91A6
:10360000FF90EF90DF9008955D9A289A08958FE3D8
:1036100092E090930E0780930D070895CF93DF9368
:1036200040E060E088EC0E944D1A40E068EC80E0E9
:103630000E944D1A48EC60E080E00E944D1A40EA7A
:1036400060EA80EA0E944D1AC8EED3E089EA96E06B
:103650000E9403170E94D4142197C1F7DF91CF91E4
:1036600008950E94041B0E940E1B0C94531A811192
:103670000FC08091790490917A04A0917B04B0915D
:103680007C0482389105A105B24011F40C94311BE1
:10369000089587E69BE10C94DC0685E492E0909324
:1036A000190780931807089585E497E00E94021D8A
:1036B000892B09F4089585E497E00E94EE1C0A978F
:1036C00029F085E497E00E94121DF5CF0895EF924E
:1036D000FF920F931F93CF93DF93811155C085E421
:1036E00097E00E94021D892B09F44EC00CE117E0FF
:1036F000C0E0CF5F85E497E00E94121D7801F801D9
:10370000808385E497E00E94EE1C0A9741F00F5FEA
:103710001F4FF7018081803211F0C03251F78C2F9A
:1037200090E0FC01E55EF84F2081203219F0FC01A9
:10373000E45EF84F1082C0911A07D0911B072097C2
:1037400039F0E881F9818CE197E009958823C1F08F
:1037500067E375E085E497E00E94FA1E0E94541B1F
:1037600085E497E00E94EE1C0A9771F485E497E0E7
:10377000DF91CF911F910F91FF90EF900C94121D4C
:103780000C80DD81C02DDBCFDF91CF911F910F9198
:10379000FF90EF9008951F920F920FB60F92112491
:1037A0002F933F938F939F93AF93BF9380913D0748
:1037B00090913E07A0913F07B091400730913C07A0
:1037C00023E0230F2D3720F40196A11DB11D05C064
:1037D00026E8230F0296A11DB11D20933C0780937C
:1037E0003D0790933E07A0933F07B0934007809119
:1037F000410790914207A0914307B0914407019679
:10380000A11DB11D8093410790934207A0934307E8
:10381000B0934407BF91AF919F918F913F912F91AA
:103820000F900FBE0F901F9018952FB7F8946091CE
:103830003D0770913E0780913F07909140072FBF51
:1038400008953FB7F8948091410790914207A09165
:103850004307B091440726B5A89B05C02F3F19F038
:103860000196A11DB11D3FBFBA2FA92F982F882700
:10387000820F911DA11DB11DBC01CD0142E0660F5B
:10388000771F881F991F4A95D1F708958F929F92AD
:10389000AF92BF92CF92DF92EF92FF926B017C01C9
:1038A0000E94211C4B015C01C114D104E104F1040C
:1038B00001F10E946D230E94211CDC01CB018819BB
:1038C0009909AA09BB09883E9340A105B10560F397
:1038D00021E0C21AD108E108F10888EE880E83E0E1
:1038E000981EA11CB11CC114D104E104F10419F704
:1038F000DBCFFF90EF90DF90CF90BF90AF909F9085
:103900008F900895789484B5826084BD84B5816079
:1039100084BD85B5826085BD85B5816085BDEEE6D7
:10392000F0E0808181608083E1E8F0E010828081B6
:1039300082608083808181608083E0E8F0E0808124
:1039400081608083E1E9F0E0808182608083808112
:1039500081608083E0E9F0E0808181608083E1EC38
:10396000F0E08081846080838081826080838081B8
:1039700081608083E3ECF0E0808181608083E0EC13
:10398000F0E0808182608083E2ECF0E08081816001
:103990008083EAE7F0E080818460808380818260B8
:1039A00080838081816080838081806880830895A6
:1039B000CF93DF931F92CDB7DEB76983DC01ED9122
:1039C000FC910280F381E02D41E050E0BE016F5F89
:1039D0007F4F09950F90DF91CF910895CF93DF939B
:1039E000EC018C859D8597FF05C082E00E940D202B
:1039F0009D878C878C859D85DF91CF91089583E08D
:103A00000C949E22FC018485958597FD06C082E07A
:103A10000E94B81F90E00196089582E00E94B81FAE
:103A200090E00895FC018485958597FD05C02FEFF2
:103A30003FEF35872487089582E00C940D20CF93C3
:103A4000DF93EC0180912D01882331F083E00E9407
:103A50003E201816190634F081E090E09B838A839B
:103A600080E090E0DF91CF910895FC0190819E5F0E
:103A7000908342E450E069E375E080E80C94DE2036
:103A8000FC0181819081913A59F4813209F048C05A
:103A900047E050E066E271E080E00E94DE2076C000
:103AA0009132F1F5833291F49381892F90E0982F30
:103AB00088272281822BA0E0B0E08093220190939E
:103AC0002301A0932401B093250160C0803239F412
:103AD00067E070E086E291E00E94052106C0823234
:103AE00009F054C0828180932D018091950788232D
:103AF00019F0EEEFFAE002C0E0E0F8E08091260174
:103B000090912701A0912801B0912901803B944018
:103B1000A105B10539F480912D0180FF1FC002C0BD
:103B200080E008950FB6F894A895809160008861B0
:103B300080936000109260000FBEA895EE3F8AE06F
:103B4000F80739F08091FE0A9091FF0A91838083F3
:103B50001DC01092FF0A1092FE0A18C0EE3F2AE024
:103B6000F20731F0808191819093FF0A8093FE0AE1
:103B700087E797E7918380839BE088E10FB6F8940D
:103B8000A895809360000FBE9093600081E0089537
:103B9000E5E4F7E01382128288EE93E0A0E0B0E063
:103BA00084839583A683B7838BE492E0918380839B
:103BB0008FEF9FEF958784870895EF92FF920F9381
:103BC0001F93CF93DF937B01FC01C281D38100E07F
:103BD00010E0209781F0E881F9810280F381E02DE7
:103BE000B701CE01099597FD08C0080F191F088479
:103BF000D985C02DEECFC80102C08FEF9FEFDF91B6
:103C0000CF911F910F91FF90EF9008950F931F9305
:103C1000CF93DF938B01FC01C281D381209771F098
:103C2000E881F9810480F581E02DB801CE01099584
:103C3000009731F40884D985C02DF0CF80E090E062
:103C4000DF91CF911F910F9108950F931F93CF9301
:103C5000DF938B01FC01C281D381209771F0E88151
:103C6000F9810680F781E02DB801CE010995080F92
:103C7000111D0884D985C02DF0CFF8011082DF9185
:103C8000CF911F910F9108950F931F93CF93DF93BF
:103C90008B01FC01C281D381209771F0E881F98109
:103CA0000190F081E02DB801CE010995811105C088
:103CB0000884D985C02DF0CF80E0DF91CF911F918E
:103CC0000F910895CF93DF93FC01DB0121811496BE
:103CD0008C91149790E0820F911D0897B4F5C281E2
:103CE000D381209719F47383628308C088859985EE
:103CF000009711F0EC01FACFB987A887808112965E
:103D00008C931297818113968C93139790811596BB
:103D10008C911597890F808380E014969C9114975D
:103D2000891788F41696CD91DC911797C80FD11D8D
:103D30009881C181D0E0C25DDE4F988391819F5F01
:103D400091838F5FEACF81E001C080E0DF91CF9166
:103D5000089580919A0781110DC082E080939607A3
:103D600084E080939707109299071092980781E05A
:103D700080939A0786E997E008956115710579F0B7
:103D8000FB0101900020E9F73197AF01461B570B6B
:103D9000DC01ED91FC910280F381E02D099480E03B
:103DA00090E00895EF92FF920F931F93CF93DF93CC
:103DB0008C017B01C0E0D0E0F701EC0FFD1F6491A6
:103DC000662361F0D801ED91FC910190F081E02D26
:103DD000C8010995892B11F02196EECFCE01DF9114
:103DE000CF911F910F91FF90EF90089567E572E0DA
:103DF0000C94BD1E0F931F93CF93DF93EC010E9491
:103E0000D21E8C01CE010E94F61E800F911FDF9101
:103E1000CF911F910F9108954091A6075091A70748
:103E20002091A4073091A50742175307B4F490914D
:103E3000E8009570E1F39091E80092FD19C080933D
:103E4000F1008091A6079091A70701968F7399279B
:103E5000892B19F48EEF8093E8008091A60790914A
:103E6000A70701969093A7078093A60781E008957E
:103E700080E00895CF92DF92EF92FF920F931F930D
:103E8000CF93DF931F92CDB7DEB7182F062FE42E06
:103E9000862F880F8E5F99830E940C1F83E00E94FB
:103EA0000C1FF12EC12E9981D92E8C2D8F198017C0
:103EB00098F4F601E7FE02C0849101C080810E945F
:103EC0000C1F182F80E00E940C1F8123FFEFCF1AD8
:103ED000DF0A8111EACF01C081E00F90DF91CF911D
:103EE0001F910F91FF90EF90DF90CF9008958091F8
:103EF000D70081608093D70080EA8093D80089B58D
:103F0000806189BD89B5826089BD09B400FEFDCF9D
:103F100061E070E080E090E00E94461C8091D80053
:103F20008F7C80618093D8008091E000807F8093B7
:103F3000E0000895CF93DF931F92CDB7DEB71982CB
:103F4000CE0101960E94351D0E94A91EBE016F5F21
:103F50007F4F0E94DD1D89810F90DF91CF910895E1
:103F60002FB7FC012083F89467706093E9000895EF
:103F7000CF93DF931F92CDB7DEB7682FCE010196A6
:103F80000E94B01F8091F20099819FBF0F90DF9136
:103F9000CF910895EF92FF920F931F93CF93DF93EA
:103FA0001F92CDB7DEB79091AA07992311F057FF62
:103FB00003C08FEF9FEF29C08A017B01682FCE01DC
:103FC00001960E94B01F8091F20090E0A801801736
:103FD00091070CF4AC01842FF70194E6815030F086
:103FE0009093AB072091F1002193F8CF4115510533
:103FF00021F08091F200882321F089818FBFCA01CE
:1040000004C08BE68093E800F8CF0F90DF91CF914A
:104010001F910F91FF90EF900895CF93DF931F9220
:10402000CDB7DEB741E050E0BE016F5F7F4F0E9429
:10403000CA1F019719F4898190E002C08FEF9FEFAA
:104040000F90DF91CF910895CF93DF931F92CDB75B
:10405000DEB7682FCE0101960E94B01F9091E80054
:10406000892F807295FF04C09091F2008FE3891B25
:1040700099819FBF0F90DF91CF9108956F927F92AA
:104080008F929F92AF92BF92CF92DF92EF92FF9268
:104090000F931F93CF93DF931F92CDB7DEB7A82E58
:1040A0006B01B42E052F8091AA07811103C08FEFF9
:1040B0009FEF69C08091A80780FF05C08091E00054
:1040C00082608093E000EB2CF02E8AEF982E8A2DF0
:1040D0008072782E9AE3892E8A2D8074682EE114DE
:1040E000F10409F447C08A2D0E942420182F811161
:1040F0000AC09A949920D9F261E070E080E090E0E3
:104100000E94461CECCF90E0E816F9060CF41E2D38
:104110006A2DCE0101960E94B01F8091E80085FFB4
:1041200026C0812F90E0E81AF90A772029F0115073
:10413000A8F01092F100FBCFF601A7FE07C01150C6
:1041400058F024912093F1003196F9CF115020F0CE
:1041500021912093F100FACFC80ED91E8091E8007A
:1041600085FF0EC0E114F10411F4611009C08981CA
:104170008FBFB5CF84E68093AC078B2D902F03C003
:104180008092E800F4CF0F90DF91CF911F910F91B3
:10419000FF90EF90DF90CF90BF90AF909F908F9067
:1041A0007F906F9008951092E9001092A7071092E7
:1041B000A6079093A5078093A4070895DF92EF9236
:1041C000FF920F931F93CF93DF93D82E8A017B0129
:1041D000E40EF51EEB01CE15DF0571F0D7FE03C02E
:1041E000FE01849101C088810E940C1F21968111DB
:1041F000F2CF8FEF9FEF01C0C801DF91CF911F91E8
:104200000F91FF90EF90DF900895CF93DF93DC0143
:104210009B0184E6CBEF21153105F1F0A901213492
:10422000310514F040E450E09091E80092FFFCCF9B
:10423000942FFB01E21BF30BEA0FFB1F915028F0B8
:10424000D091F100D0833196F9CF8093AB07C09322
:10425000E800241B350BDFCFCB01DF91CF91089510
:104260001F920F920FB60F921124CF92DF92EF920E
:10427000FF920F931F932F933F934F935F936F93EF
:104280007F938F939F93AF93BF93EF93FF93CF93BE
:10429000DF93CDB7DEB76C97DEBFCDBF1092E900DC
:1042A0008091E80083FF2BC1FE017596FE2E0F2F33
:1042B00088E08E0F8E1729F09091F100908331964F
:1042C000F9CF84E68093AB0782EF8093E8002D89D5
:1042D00027FF05C08091E80080FFFCCF03C08EEF70
:1042E0008093E800822F807609F0EEC03E894F89E6
:1042F000188D31110CC0203829F48091A9078093C2
:10430000F10002C01092F1001092F100F1C0E42F10
:10431000F0E0F12B313049F42111EAC0319709F076
:10432000E7C08091A9078D7F0AC0333059F421116D
:10433000DFC0319709F0DCC08091A90782608093CB
:10434000A907D6C0353041F48091E80080FFFCCF4A
:1043500040684093E300CCC0363009F08BC0CB8C72
:10436000DC8C123069F580E090E00E94D3200E943E
:104370009A1F99E09E012F5F3F4F7901F901292F84
:1043800011922A95E9F799831A8391E09E8390EA26
:1043900098879AEF99872091A6073091A707275F02
:1043A0003F4F3C832B838D83C6010E94D32049E07D
:1043B00050E0B70180E00E94DE200E949A1F98C062
:1043C000C6010E94D3200E94A91E6F2D702F0E944B
:1043D000061E009719F00CF08BC08EC0113071F4DE
:1043E0008B8D9C8D089719F481E08093A3078091B1
:1043F000A30781112FC06DE875E031C0133009F0BB
:104400007BC08F89882349F1823029F440E868E035
:104410008AEA95E01CC0813029F440E86AE08FE91F
:1044200095E015C0833009F067C00E94A91E8E0177
:104430000F5F1F4FB8010E94251EF8010190002058
:10444000E9F73197BF01601B710B40E0C8010E9482
:104450003A1F4CC06BE775E002C063EB75E0611575
:10446000710509F449C0FB01449150E080E80E94C5
:10447000DE203EC0373009F43FC0383021F481E0FF
:104480008093F10035C0393099F52370A9F5EFE23A
:10449000F1E081E021E036E39081992361F080939F
:1044A000E9002093EB0091919093EC003093ED00A4
:1044B0008F5F873089F78EE78093EA001092EA00D9
:1044C0008F898093AA0714C08B8D9C8D0E94D32066
:1044D000898D811105C08F2D902F0E94401D06C02F
:1044E0000E94A91E6F2D702F0E94441E882321F068
:1044F0008EEF8093E80003C081E28093EB006C961E
:104500000FB6F894DEBF0FBECDBFDF91CF91FF9104
:10451000EF91BF91AF919F918F917F916F915F913B
:104520004F913F912F911F910F91FF90EF90DF904E
:10453000CF900F900FBE0F901F9018958093E900B9
:104540008091F200882319F08AE38093E8000895AF
:104550001F920F920FB60F9211242F933F934F93F8
:104560005F936F937F938F939F93AF93BF93CF93FB
:10457000EF93FF93C091E1008091E100837F8093EE
:10458000E100C3FF0FC01092E90081E08093EB00CF
:104590001092EC0082E38093ED001092AA0788E06D
:1045A0008093F000C2FF15C083E00E949E2280919C
:1045B000AC07882329F08091AC0781508093AC0729
:1045C0008091AB07882329F08091AB0781508093BD
:1045D000AB07C4FF10C08091E2008E7E81608093A3
:1045E000E2008091E1008F7E8093E1008091A80736
:1045F0008E7E806111C0C0FF11C08091E2008E7E6E
:1046000080618093E2008091E1008E7E8093E100E2
:104610008091A8078E7E81608093A807FF91EF911B
:10462000CF91BF91AF919F918F917F916F915F914A
:104630004F913F912F910F900FBE0F901F901895A3
:104640001092AA071092A9071092A8070E94771F3C
:104650008091E1008E7E8093E1008DE08093E20006
:10466000559A209AEEEFFFE7859194918B3F9C4DF0
:1046700019F481E08093950708958091E0008D7F83
:104680008093E0008091E00081FD08C08091A80740
:1046900080FF04C08091A90781FD02C080E00895D9
:1046A0000E94771F8091E00082608093E00081E0AB
:1046B000089508950E94821C0E94592382EA97E07F
:1046C0000E9420230E949003C0E0D0E00E945B0380
:1046D0002097E1F30E940000F9CF0895AA1BBB1BAD
:1046E00051E107C0AA1FBB1FA617B70710F0A61BF2
:1046F000B70B881F991F5A95A9F780959095BC0113
:10470000CD01089597FB072E16F4009407D077FD8E
:1047100009D00E946E2307FC05D03EF49095819548
:104720009F4F0895709561957F4F0895A1E21A2ECD
:10473000AA1BBB1BFD010DC0AA1FBB1FEE1FFF1F45
:10474000A217B307E407F50720F0A21BB30BE40B95
:10475000F50B661F771F881F991F1A9469F76095DC
:104760007095809590959B01AC01BD01CF01089596
:10477000EE0FFF1F0590F491E02D0994FB01DC0181
:1047800004C08D910190801921F441505040C8F728
:10479000881B990B0895DC0101C06D934150504076
:1047A000E0F7089512E0C4EFD2E004C0FE010E94D9
:0E47B000B8232196C53FD107C9F7F894FFCF73
:1047BE000000AD0780003200014000010100017FC2
:1047CE008007010110000000FFFFFF3200E80380A8
:1047DE008080FFFFFFFF00E100000000000000C12D
:1047EE00808100000000000000110403040B0C1374
:1047FE00141A1B24252B2C33343B3C02050A0D12B4
:10480E0015191C23262A2D32353A3D0106090E11A3
:10481E0016181D2227292E3136393E0007080F1093
:10482E00171F1E2120282F3037383F00000000327E
:10483E000ECC0D140EC50D000000000011B2102795
:10484E0011C50DF810F6FF0000FD1000000000C5A8
:10485E00117D11EC116E1100000000AB1200000072
:10486E00009014000000002A14B413B5130C151098
:10487E001400000000B415000000004B16000000EC
:10488E00002A14B413A016B6131014000000002A48
:10489E0014B413B513AF161014000000002A14B48C
:1048AE0013B513BB161014000000002A14B413B570
:1048BE001303171014000000002A14B413B513319B
:1048CE0017101400000000B817B413C417CC17103B
:1048DE001400000000561800000000A718B413B50D
:1048EE0013C018101400000000A919000000001FCA
:1048FE001A00000000491B00000000D81C1F1D02FA
:10490E001D121DEE1CFF1C0D0A006E616E00696EFD
:08491E0066006F7666002E00B2
:107000005FC0000078C0000076C0000074C00000BF
:1070100072C0000070C000006EC000006CC00000B4
:107020006AC0000068C0000007C5000064C000001E
:1070300062C0000060C000005EC000005CC00000D4
:107040005AC00000E6C0000056C0000054C0000056
:1070500052C0000050C000004EC000004CC00000F4
:107060004AC0000048C0000046C0000044C0000004
:1070700042C0000040C000003EC000003CC0000014
:107080003AC0000038C0000036C0000034C0000024
:1070900032C0000030C000002EC000002CC0000034
:1070A0002AC0000028C0000026C000008B3EA43E7D
:1070B0004B3FA43E4B3FDC3EFE3E4B3F1E3F303F2E
:1070C00011241FBECFEFDAE0DEBFCDBF11E0A0E09C
:1070D000B1E0E0E2FFE702C005900D92AC3AB107E3
:1070E000D9F721E0ACEAB1E001C01D92AC3BB20798
:1070F000E1F740D313C784CF84E08093E900809107
:10710000E80085FD0DC08091E8008B778093E80052
:107110008091E80082FDF3CF8EB38111F9CF02C0D8
:107120008091F100089593E09093E9009091E80038
:1071300095FF03C08093F10008959091E8009E7739
:107140009093E8009091E80090FDF4CF9EB39111E8
:10715000F9CF089544E063E071E080EB6EC3CF9314
:10716000DF9300D000D01F92CDB7DEB784E08983D3
:10717000809102018695869586958A831B821C8262
:107180008FEF8D8345E0BE016F5F7F4F80EB55D35E
:107190000F900F900F900F900F90DF91CF91089567
:1071A000F89410926F001092810010928500109256
:1071B000840081E085BF15BE0C940000089584B75B
:1071C000877F84BF0FB6F894A8958091600088618E
:1071D00080936000109260000FBE90E880E00FB6D0
:1071E000F89490936100809361000FBE81E085BFA9
:1071F00082E085BFE1E6F0E0908310821092890082
:107200009AEF9093880080936F0083E080938100D1
:10721000FBC31F920F920FB60F9211242F938F93DF
:107220009F93EF93FF931092850010928400E0E00B
:10723000F0E085919491019649F08091AC01909194
:10724000AD0101969093AD018093AC01FF91EF9158
:107250009F918F912F910F900FBE0F901F901895B7
:1072600042E061EC82E065D342E161E883E061D312
:1072700042E160E884E05DC38091B401982F9F777C
:10728000913239F59091B501903291F0913209F532
:10729000813AF9F48091E800877F8093E80067E005
:1072A00070E087E091E079D48091E8008B770FC09F
:1072B000813279F48091E800877F8093E80067E06D
:1072C00070E087E091E0C6D48091E8008E778093EB
:1072D000E80008956F927F928F929F92AF92BF9233
:1072E000CF92DF92EF92FF920F931F93CF93DF9392
:1072F00084E08093E9008091E80082FF2CC2FCDEEC
:10730000C82F28DF2CDF809102018F5F809302015C
:10731000C53481F48CE49DE19093AD018093AC0180
:1073200007B600FCFDCFF999FECF81E180935700AD
:10733000E89503C0C43521F4DFDE8DE0F4DEE2C160
:10734000CC34D9F3C035C9F3C43721F484E4EBDE7F
:1073500080E0F4CFC13611F489E5F0CFC13491F467
:10736000CBDEC82FC9DE90E0880F991F2C2F30E0AC
:10737000322F2227330F822B932B092E000CAA0BBE
:10738000BB0B94C1C03711F483E5D8CFC33549F4A2
:10739000C2EAD1E01C2F195F8991C5DE1C13FCCF16
:1073A000B1C1C63521F481E3BEDE80E3C7CFC33768
:1073B00031F487E8B8DE85E9B6DE8EE1BFCFC536A9
:1073C000B9F4E0E0F0E083E095E080935700E895C1
:1073D00007B600FCFDCF90935700E89507B600FC78
:1073E000FDCFE058FF4FE11520E7F20771F7A5CF79
:1073F000C23719F4E1E0F0E00EC0C63419F4E0E061
:10740000F0E009C0CE3419F4E3E0F0E004C0C13587
:1074100039F4E2E0F0E089E08093570084918ECF68
:10742000C23631F489E57FDE80E07DDE80E886CFFC
:10743000C23419F0C73609F0D1C01092AD011092D4
:10744000AC015ADE082F58DED82F56DE182F8BEBF2
:10745000810F823010F08FE371CF2D2F30E0302B71
:1074600010926F00C73609F043C081E18093570046
:10747000E895E90100E0BB24B394209709F4AAC081
:10748000C090AE01D090AF01E090B001F090B1019A
:107490001634B9F4E02FF0E0EC29FD29849143DEA5
:1074A000002369F082E0C80ED11CE11CF11CC092DF
:1074B000AE01D092AF01E092B001F092B1010B2584
:1074C00015C0D701C601B695A7959795879510D594
:1074D0002ADEE2E0CE0ED11CE11CF11CC092AE010E
:1074E000D092AF01E092B001F092B1012197C5CFE7
:1074F0008090AE019090AF01A090B001B090B1012A
:10750000163441F483E0F40180935700E89507B600
:1075100000FCFDCFE901712C00E066246394209704
:1075200009F44CC0163431F5002301F1C090AE01CE
:10753000D090AF01E090B001F090B101DDDD272DDA
:1075400030E0382BF601090160925700E8951124CC
:10755000F2E0CF0ED11CE11CF11CC092AE01D09222
:10756000AF01E092B001F092B10102C0C5DD782E0A
:10757000062522C0C1DD682F8091AE019091AF0138
:10758000A091B001B091B101B695A7959795879557
:10759000B7D48091AE019091AF01A091B001B091AC
:1075A000B1010296A11DB11D8093AE019093AF0170
:1075B000A093B001B093B1012197B1CF163441F43B
:1075C00085E0F40180935700E89507B600FCFDCFF5
:1075D0008DE0A9DD82E080936F0094C0C33471F424
:1075E000C091AE01D091AF0187DD90E021E0FE01B6
:1075F0000C0120935700E89511249FCEC33601F566
:10760000C090AE01D090AF01E090B001F090B10118
:1076100073DDF601E16090E021E00C01209357005A
:10762000E8951124F2E0CF0ED11CE11CF11CC092B0
:10763000AE01D092AF01E092B001F092B1017DCEE7
:10764000CD3661F4E091AE01F091AF0185E0809319
:107650005700E89507B600FCFDCF6FCEC23551F458
:10766000E091AE01F091AF01C591D4918D2F5BDD1A
:107670008C2F64CEC43419F53FDD682F8091AE01A4
:107680009091AF01A091B001B091B101B695A795CD
:107690009795879535D48091AE019091AF01A091D7
:1076A000B001B091B1010296A11DB11D8093AE0150
:1076B0009093AF01A093B001B093B1013ECEC43618
:1076C000F1F4C090AE01D090AF01E090B001F09025
:1076D000B101D701C601B695A7959795879508D4AE
:1076E00022DD22E0C20ED11CE11CF11CC092AE01D1
:1076F000D092AF01E092B001F092B10103C0CB3162
:1077000009F0A9CE83E08093E9009091E800809190
:10771000E8008E778093E80095FD11C08091E80025
:1077200080FD04C08EB38111F9CF15C08091E800AF
:107730008E778093E80003C08EB3882361F0809138
:10774000E80080FFF9CF84E08093E9008091E800B1
:107750008B778093E800DF91CF911F910F91FF907D
:10776000EF90DF90CF90BF90AF909F908F907F90E1
:107770006F900895CF938091000890910108109226
:10778000010810920008C4B714BE0FB6F894A8956B
:1077900080916000886180936000109260000FBE4D
:1077A00045D0D8DCE0E0F0E0859194910196D9F0E5
:1077B000C230C9F03E9A46988198809A899A8898F2
:1077C0008FE19EE40197F1F700C00000799B0AC0A9
:1077D0008FE39CE90197F1F700C00000799B02C09C
:1077E000469ADEDC469AEBDC78941092AD0110925A
:1077F000AC013F9A479A8091AC019091AD018034E1
:107800009F4120F4ACDC66DD5CD3F5CF8FE99FE0CF
:107810000197F1F700C000008091E0008160809343
:10782000E000BEDC80E090E0CF91089584E080939A
:10783000BC0080E18093B8000895EFE9FFE0319744
:10784000F1F700C0000094EA9093BC009091BC0056
:1078500097FFFCCF9091B900983071F58E7F80939F
:10786000BB0084E88093BC008091BC0087FFFCCF04
:107870008091B900883101F54150FB0184E844232F
:1078800079F091919093BB008093BC009091BC00E3
:1078900097FFFCCF9091B900983271F44150EFCF2F
:1078A00080818093BB0084E88093BC008091BC0001
:1078B00087FFFCCF8091B90084E98093BC000895D4
:1078C000292F30E02230310559F02330310569F09D
:1078D0002130310531F582E190E020E931E025C029
:1078E0008EE390E022E531E020C0882359F081301A
:1078F00071F0823089F08330A1F48EE090E02EE0C8
:1079000031E013C084E090E02EE431E00EC084E169
:1079100090E028E331E009C088E190E02EE131E019
:1079200004C080E090E020E030E0FA013183208361
:1079300008958093E900EBEEF0E080818160808320
:10794000EDEEF0E010826093EC0040838091EE0059
:10795000881F8827881F08958091B40187FF0FC072
:107960008091E80082FD04C08EB38111F9CF10C070
:107970008091E8008B770AC08EB3882349F080910C
:10798000E80080FFF9CF8091E8008E778093E800CF
:1079900008950F931F93CF93DF9341D048D0C8ED44
:1079A000D0E088818F778883888180688883888108
:1079B0008F7D888319BC1EBA1092B20100EE10E0D0
:1079C000F80180818B7F808388818160888342E099
:1079D00060E080E0AEDFE1EEF0E080818E7F8083CA
:1079E000E2EEF0E080818160808380818860808326
:1079F000F80180818E7F8083888180618883DF9118
:107A0000CF911F910F910895E7EDF0E080818160A3
:107A100080838AE482BF81E08093B301BACFE8ED2E
:107A2000F0E080818E7F80831092E20008951092B2
:107A3000DA001092E10008951F920F920FB60F9294
:107A400011242F933F934F935F936F937F938F9363
:107A50009F93AF93BF93EF93FF938091DA0080FFE2
:107A60001BC08091D80080FF17C08091DA008E7F04
:107A70008093DA008091D90080FF0BC080E189BD3E
:107A800082E189BD09B400FEFDCF81E08EBB18D232
:107A900003C019BC1EBA14D28091E10080FF17C048
:107AA0008091E20080FF13C08091E2008E7F80937E
:107AB000E2008091E20080618093E2008091D80032
:107AC00080628093D80019BC85E08EBBF9D180918B
:107AD000E10084FF2CC08091E20084FF28C080E197
:107AE00089BD82E189BD09B400FEFDCF8091D80037
:107AF0008F7D8093D8008091E1008F7E8093E1009C
:107B00008091E2008F7E8093E2008091E2008160AC
:107B10008093E2008091B201811106C08091E30060
:107B200087FD02C081E001C084E08EBBC9D1809195
:107B3000E10083FF21C08091E20083FF1DC080919E
:107B4000E100877F8093E10082E08EBB1092B2015A
:107B50008091E1008E7F8093E1008091E2008E7F32
:107B60008093E2008091E20080618093E20042E035
:107B700060E080E0DEDEA4D1FF91EF91BF91AF9194
:107B80009F918F917F916F915F914F913F912F9135
:107B90000F900FBE0F901F9018952091BA01309151
:107BA000BB012617370748F06115710539F420919C
:107BB000E8002E772093E80001C0B90140E061158C
:107BC0007105A1F12EB3222309F440C0253009F438
:107BD0003FC02091E80023FD37C02091E80022FD3E
:107BE0002DC02091E80020FFEACF4091F3002091C2
:107BF000F20030E0342BFC01CF016115710559F022
:107C00002830310540F481918093F1006150710971
:107C10002F5F3F4FF1CF41E02830310509F040E0C0
:107C20002091E8002E772093E800C9CF4111CACFF8
:107C300005C08EB3882351F0853051F08091E80063
:107C400082FFF7CF80E0089581E0089582E00895F3
:107C500083E008956115710529F42091E8002B77E0
:107C60002093E800FC016115710531F18EB3882382
:107C700059F1853059F18091E80083FD23C080914E
:107C8000E80082FFF0CF2091F3008091F20090E0B5
:107C9000922B892B31F08091F10081936150710911
:107CA00091F78091E8008B778093E800DCCF8EB36A
:107CB000882351F0853051F08091E80080FFF7CFA4
:107CC00080E0089581E0089582E0089583E00895BA
:107CD0000F931F93CF93DF9300D0CDB7DEB7E4EBC4
:107CE000F1E088E08E0F9091F10091938E13FBCF1D
:107CF000C3DA8091E80083FFCEC08091B4019091F7
:107D0000B501492F50E04A30510508F0C4C0FA01CE
:107D1000EA5AF74CE7C0823809F0BDC08091B8013B
:107D200087708093E9008091EB001092E9009091B8
:107D3000E800977F9093E80085FB882780F980937F
:107D4000F1001092F10085C0282F2D7F09F0A3C00B
:107D5000823009F0A0C08091B601811127C08091C6
:107D6000B801877009F497C08093E9002091EB0077
:107D700020FF1CC0933021F48091EB00806214C07E
:107D80009091EB0090619093EB0021E030E0A9012D
:107D900002C0440F551F8A95E2F74093EA00109203
:107DA000EA008091EB0088608093EB001092E9007C
:107DB0008091E800877F50C081116DC01091B6019D
:107DC0001F770FB7F8948091E800877F8093E800D1
:107DD000C3DD8091E80080FFFCCF8091E3008078D4
:107DE000812B8093E30080688093E300111102C02F
:107DF00082E001C083E08EBB0FBF4DC0805882304F
:107E000008F049C0AE014F5F5F4F6091B8018091AB
:107E1000B6019091B70154DDBC01892B09F43BC038
:107E20009091E800977F9093E80089819A81B5DE70
:107E30008091E8008B778093E8002DC0803859F559
:107E40008091E800877F8093E8008091B201809361
:107E5000F1008091E8008E778093E8007DDD1BC003
:107E6000811119C09091B6019230A8F48091E80078
:107E7000877F8093E8009093B2016EDD8091B2011C
:107E8000811106C08091E30087FD02C081E001C03E
:107E900084E08EBBE5D98091E80083FF0AC0809121
:107EA000EB0080628093EB008091E800877F8093F5
:107EB000E8000F900F90DF91CF911F910F910895DF
:107EC0000895CF938EB3882359F0C091E900C7700D
:107ED0001092E9008091E80083FDFADEC093E9008A
:107EE000CF910895EE0FFF1F0590F491E02D0994B6
:107EF000F999FECF92BD81BDF89A992780B5089572
:107F0000262FF999FECF1FBA92BD81BD20BD0FB6B5
:107F1000F894FA9AF99A0FBE01960895F894FFCF53
:107F200077771803000000000000000000080E032F
:107F30006B00620069006F00300031000000180320
:107F40004B006500790062006F0061007200640000
:107F500069006F002000000014034D006F006400F2
:107F600065006C0020003000310020000000040398
:107F7000090409023E0002010080320904000001E8
:107F80000202010005240010010424020405240655
:107F90000001070582030800FF09040100020A002E
:107FA000000007050402100001070583021000010C
:107FB0001201100102000008091200230100020151
:0C7FC00003014341544552494E4100006A
:040000030000700089
:00000001FF
