:10000000ffcd2dc02cc02bc02ac029c028c027c0be
:1000100026c045c224c023c022c021c020c0acc11c
:100020001ec01dc01cc041c211241fbecfefd2e0b4
:10003000debfcdbf11e0a0e0b1e0eee7fbe002c023
:1000400005900d92a035b107d9f722e0a0e5b1e007
:1000500001c01d92a839b207e1f7d0d225c5d0cf93
:100060000f931f93cf93df93dc01fb0180818823e3
:1000700069f091e09083009134020230a1f058f0d1
:100080000630d9f00f3009f5f4e0fc93df91cf9101
:100090001f910f9108950111f7cf2091f3012111c4
:1000a0001ac01c92f3cf80918800909189008c93a4
:1000b000df91cf911f910f910895109100011c9332
:1000c000df91cf911f910f9108959c93df91cf9174
:1000d0001f910f9108959c933091f201ad014d5ff6
:1000e0005f4f213009f43fc02230d1f18d010c5f08
:1000f0001f4f233089f1632f70e06e507e4feb016c
:100100006a8111966c9311973f5f3f73632f70e084
:100110006e507e4feb017a8112967c933f5f3f7366
:10012000a32fb0e0ae50be4f1296dc91da01dc9303
:100130003f5f3f73a32fb0e0ae50be4f12965c916d
:10014000e801588324502093f3013f5f3f733093bd
:10015000f201b5e0b0839acf14961c921497cbcfde
:1001600013961c9213978d010c5f1f4fc4cfcf9332
:10017000df93fc018081982f907f9038b9f58f70c4
:10018000bcb5bf77bcbd282f30e0d901aa0fbb1f7b
:10019000a20fb31faa0fbb1faa0fbb1faa0fbb1f23
:1001a000ab5cbd4f3196c8e101900d92ca95e1f765
:1001b000833099f0df91cf910895873009f44cc0d6
:1001c0008830c1f79cb59f779cbd3196a5e3b2e01e
:1001d00030e601900d923a95e1f7e1e0e0930301fa
:1001e000fcb5f068fcbddf91cf910895623078f1e5
:1001f00010923402863009f48cc08730f0f68330d8
:10020000e9f18430b9f46530a9f681815cb55f7796
:100210005cbd90e0dc01aa0fbb1fa80fb91fab5c4f
:10022000bd4f4281538111965c934e93d4811296b7
:10023000dc93d3cf823009f0bdcf623009f0bacf62
:10024000818190e09093890080938800b3cf809360
:100250003402863091f6aecfe1812a98f2e5febdf8
:100260000db407fefdcf81e08ebd0db407fefdcfbe
:10027000eebd0db407fefdcf2a9a9ccf643009f085
:1002800099cf31962cb52f772cbda2e9b2e045e38a
:1002900052e06081718111967c936e937281129607
:1002a0007c931297ed0123978081918199838883b4
:1002b00092819a83239720813181398328833281e7
:1002c0003a832397608171817983688372817a830d
:1002d0002397808191819983888392819a83239740
:1002e000208131813983288332813a832397608149
:1002f00071817983688372817a8323978081918168
:100300009983888392819a8358974c175d0709f6e1
:1003100064cf623009f04ecf31813093000120e587
:100320002cbd383068f441e0542f032e01c0550f26
:100330000a94eaf7652f6c7a79f07db571607dbd1e
:10034000333031f078f43323a9f0ccb5c160ccbda3
:10035000dcb5d260dcbd2ecf527591f3adb54a2726
:100360004dbdeecf3450323008f024cfbcb5b16073
:10037000bcbd20cf1cbc1ecf0f920fb60f921f9298
:1003800011248f939f93ef93ff9380919702813075
:1003900069f0823071f1882319f1ff91ef919f91fb
:1003a0008f911f900f900fbe0f9018958ebd82e019
:1003b0008093970280910201853208f46cc01092fc
:1003c000970291e090930201809103018111e5cfa2
:1003d0000db407fefdcf8cb58f778cbd2a9addcf8b
:1003e000109203012a98e1e5eebd81e08093970227
:1003f000d4cfe09102018091950290919602e80f8e
:10040000f92ff11de0818e2f90e0fc01ee0fff1f10
:10041000e80ff91feb5cfd4f80818ebd0db407fe28
:10042000fdcfe09102018091950290919602e80f34
:10043000f92ff11de0818e2f90e0fc01ee0fff1fe0
:10044000e80ff91feb5cfd4f81818ebd0db407fef7
:10045000fdcfe09102018091950290919602e80f04
:10046000f92ff11de0818e2f90e0fc01ee0fff1fb0
:10047000e80ff91feb5cfd4f82818ebd80919702e2
:10048000823009f497cf811188cf809102018130a9
:1004900009f083cf99cf8f5f809302017ecf8f9336
:1004a00081e0809301018f9118951f920f920fb6f2
:1004b0000f9211242f933f934f935f936f937f93ea
:1004c0008f939f93af93bf93ef93ff93e091b90006
:1004d000e93c58f4e03608f45ec0e056e93608f02e
:1004e0005ac0f0e0ea5afa4f0994e83f09f053c0c5
:1004f000ff91ef91bf91af919f918f917f916f91fc
:100500005f914f913f912f910f900fbe0f901f90d1
:10051000189575ed7093bc00a091bc00a4fdfccfb4
:10052000e0916c01f0916d01309729f06091f1013b
:100530008ee691e00995b5ecb093bc00d9cf10924e
:10054000f101e091ef01f091f001309709f449c019
:1005500020e82093ee016eee71e08ee691e00995c1
:100560003091ee01e091f101332309f443c081e0c1
:100570008e0ff0e08093f101e259fe4f40814093ed
:10058000bb005091f1016091ee015617a0f2f5e821
:10059000f093bc00adcf45ed4093bc005091bc0042
:1005a00054fdfccfa5cf1092f10195ec9093bc00c7
:1005b0009fcfe091f101e7fdeacf81e08e0f8093bc
:1005c000f1012091bb00f0e0e259fe4f208335ecb1
:1005d0003093bc008dcfe091f10181e08e0ff0e00f
:1005e000c9cff0e0e0e081e091e09093ee0110925d
:1005f0006e01c0cf81e08e0ff0e0f6cf00d000d0ca
:100600000f92cdb7deb783b193b181709270892b11
:1006100009f443c22ae231e0309396022093950216
:100620001cea14b935b1337d35b92f9a47e04093b0
:10063000000150e55cbd6db561606dbd7cb57f7737
:100640007cbd2a98a1e5aebd0db407fefdcfb1e09b
:10065000bebd0db407fefdcfece61ebc0db407fe1b
:10066000fdcfe150d1f72a9a2a98f2e5febd0db4ec
:1006700007fefdcf81e08ebd0db407fefdcf9fefdd
:100680009ebd0db407fefdcf2a9a2a9800e50ebd47
:100690000db407fefdcf21e02ebd0db407fefdcf4a
:1006a000ace6b0e01fef1ebd0db407fefdcf119705
:1006b000d1f72a9a2a9832e53ebd0db407fefdcf48
:1006c0001ebc0db407fefdcf4fe54ebd0db407feb9
:1006d000fdcf2a9a2a9852e55ebd0db407fefdcfe4
:1006e00061e06ebd0db407fefdcf7fef7ebd0db4a2
:1006f00007fefdcf2a9a2a98b2e5bebd0db407fecb
:10070000fdcfe2e0eebd0db407fefdcf1ebc0db483
:1007100007fefdcf2a9af4e0f093000180e58cbd3e
:100720002db491e029262dbc0cb501600cbd2cb573
:1007300020682cbda7b1af60a7b918b11f6018b968
:100740008ab11ab88bb13fef3bb94ce1a0e5b1e0fb
:10075000fd0111924a95e9f7509181005c60509338
:10076000810010928500109284006ee070e070931a
:1007700089006093880070916f00726070936f00c1
:100780007894479a3f9a87eb90e090936d0180931d
:100790006c0100e310e01093f0010093ef01b3b19e
:1007a000f3b1b170f270bf2bbb0fb06bb093ba0056
:1007b0003093bb009091b9009e7f9093b900209137
:1007c000b9002d7f2093b90015ec1093bc007894ec
:1007d00040905601e091550180905101f0905201f6
:1007e000009153018091540150905d0170915c0122
:1007f00090905701a09058011091590130905a01e2
:100800003b8260915b016090640140916301b09014
:100810005e01c0905f01709060017a82b0916101c9
:100820003091620170906b0190916a01d0906501e6
:10083000e0906601a0916701f09168012090690144
:100840002982509101015523e1f31092010139b041
:10085000409a419834243e2a232d2095209050011f
:100860002328209420925001e22de0958e268222aa
:10087000809251012828f224f328f094f09252013a
:100880002f2802250329009500935301202a822551
:100890008329809580935401e8215f2d5095e523ad
:1008a000302e3094e321e823e223e09355014e26d5
:1008b0004092560139b0419a42983524372a232d67
:1008c00020959328909490925701792d7095a726a2
:1008d000a222a0925801592d5a29152713291095a3
:1008e00010935901512b2b802526232820942b82ed
:1008f00020925a01522965276329609560935b0114
:100900007a21312e30947321209472217623722320
:1009100070935c01572650925d012e2f272b2d835b
:1009200039b0429a43983624342a532d5095b3282f
:10093000b094b0925e014b2d4095c426c522c09262
:100940005f012b2c2c282a812225232920952a83fc
:1009500020936001222ab225b329b095b09361019a
:100960002b2a322533293095309362014c21209572
:1009700042233b2e3094432143234523409363017c
:100980006426609264015d81542b5d8329b0439a93
:1009900040982724292a522d5095d228d094d092bd
:1009a00065019d2d9095e926e522e09266013d2c9a
:1009b0003e28a325a229a095a09367013a2af325f2
:1009c000f229f095f09368013f2a298132263228d6
:1009d00030943982309269019e212a2e20949221ee
:1009e0003f2e3094932129819223952390936a017d
:1009f000792670926b015d81592b09f422cf9fb744
:100a0000f8948091f301803408f045c0409056017d
:100a10008090f201282d30e051e0580f5983509317
:100a2000f301f901e80ff11def73ff27ee50fe4fc0
:100a3000428240915d01503471f1a2e0a80fa09371
:100a4000f301652f620f732f711d6f7377276e503f
:100a50007e4ffb01428340916401a034e1f0e3e06a
:100a6000e80fe093f301a20fb32fb11daf73bb27c3
:100a7000ae50be4f12964c9340916b01e03459f04a
:100a80008c5f8093f301e20ff32ff11def73ff27cb
:100a9000ee50fe4f42839fbf9bce04e011e01093c7
:100aa000960200939502bccdf894ffcf7ccd73cd18
:100ab00072cd71cd70cd6fcd6ecd6dcd74cd6bcd52
:100ac0006acd69cd68cd67cd66cd65cd6ccd63cd82
:100ad00062cd61cd60cd5fcd5ecd5dcd64cd5bcdb2
:100ae0005acd59cd58cd57cd56cd55cd62cd53cddc
:100af00052cd51cd50cd4fcd4ecd4dcd48cd4bcd1e
:100b00004acd49cd48cd47cd46cd45cd52cd43cd3b
:100b100042cd41cd40cd3fcd3ecd3dcd38cd3bcd7d
:100b20003acd39cd38cd37cd36cd35cdf2cc33cdec
:100b300032cd31cd30cd2fcd2ecd2dcd00cd2bcd05
:100b40002acd29cd28cd27cd26cd25cdf8cc23cd36
:100b500022cd21cd20cd1fcd1ecd1dcd3ccd1bcd19
:100b60001acd19cd18cd17cd16cd15cde4cc13cd9a
:0e0b700012cd11cd10cd0fcd0ecd0dcddccca4
:100b7e000401010100000302011b00000405061c14
:100b8e0000070b0a091d00080c0d0e1e180f13127c
:100b9e00111f1910141516001a1700001c1d1e0423
:100bae00001f1b1a19030018141516020017131232
:100bbe00110107100c0d0e00060f0b0a0900050897
:101c000013c022c021c020c01fc01ec01dc01cc0e8
:101c10001bc01ac019c018c017c016c015c014c008
:101c200013c012c011c010c011241fbecfefd2e0ec
:101c3000debfcdbf21e0a0e0b1e001c01d92a33422
:101c4000b207e1f7f4d0ccc1dbcfe0e0f1e08feff9
:101c5000819391e0e034f907d9f70895e3e0f0e0eb
:101c6000e491a0e0b1e01396ec931397e2e0f0e08a
:101c7000e4911296ec931297e1e0f0e0e491119672
:101c8000ec931197f0e0e0e0e491ec9308959c016f
:101c9000a0e0b1e090e080e061e011965c911197e6
:101ca0004c9107b600fcfdcff901e80ff91f0a01be
:101cb00060935700e895112402961296803491059e
:101cc00061f707b600fcfdcf85e0f901809357006e
:101cd000e895089584e98093bc000895803849f020
:101ce00084e88093bc008091bc0087fffccfa8955e
:101cf000089584ecf6cf0f931f93cf938c01c62fda
:101d0000862fecdf8091b9008c1731f0e3df80e0a3
:101d1000cf911f910f9108959091bb00f80190838e
:101d2000883819f484e88093bc0081e0f1cfcf9328
:101d3000df9300d0cdb7deb760e8ce010196dbdfe0
:101d400060e8ce010296d7df9a8189810f900f90cb
:101d5000df91cf9108958093bb0080e8bfdf809131
:101d6000b900883b09f0b6cf089583b193b1817073
:101d70009270892b880f806a8093ba0084e48093e4
:101d8000bc0008958627682f62956827062e669501
:101d900066956025062e669560256770082e892f4a
:101da000669507946795902d8627069467959025ec
:101db00086270895df92ef92ff920f931f93cf93a0
:101dc000df9387b7982f9170e92e80ff0bc082dfd9
:101dd000e12c8e2ddf91cf911f910f91ff90ef900d
:101de000df900895f0904001cf2dd0e084e0cc0f3b
:101df000dd1f8a95e1f7c050df4f0fef1fefdc2e9c
:101e000080e1d80e60e8ce0176df882311f3699176
:101e1000c801b8df8c01dc12f5cf89df801791078c
:101e2000c1f6f394f0924001ee24e394d2cf00d0b7
:101e3000cdb7deb788e199e20fb6f894a895809304
:101e400060000fbe909360003b9a43981ab88fefe2
:101e50008bb98de08a95f1f700004899b4c04f998d
:101e6000b2c083df88e1982e99e2792e23e0822e9a
:101e7000f12ce12c38e0632ecc24ca94dc2c80e8d1
:101e80002ddf0fb6f894a895909260000fbe709267
:101e900060008091b900803629f0883a09f489c041
:101ea00019dfedcf60e8ce01029625df882339f3f4
:101eb0008a81833009f456c0e8f4813009f440c0c7
:101ec000823071f781e491e075df60e8882309f4de
:101ed00045c080914001843009f03fc0009141012c
:101ee00010914201007c0115110599f5b7dec8017a
:101ef000cede33c0843009f43ec0863089f617df69
:101f00008c0115df5801a80eb91ea114e0e2be062f
:101f100008f0b5cfd0924201c09241010a151b05cd
:101f200008f0adcff8016491809141019091420198
:101f300029df90934201809341010f5f1f4feecf45
:101f40001092400182def3de9093420180934101c2
:101f500096cf0115ece11e0750f268e8ce0101961c
:101f6000cade8dcf0fb6f894a895909260000fbe90
:101f700060926000ffcf69de71de07b600fcfdcf26
:101f8000f70180925700e89590e080e080de80e4e1
:101f900090e07ddee0e4f0e007b600fcfdcf80924b
:101fa0005700e895e05cff4fe1158ce1f807a1f7d9
:101fb00066cf81e0d0de80914101cdde809142018b
:101fc000caded3de5ccf0fb6f894a895809160008e
:101fd000886180936000109260000fbe25c0ffcf23
:041fe000f894ffcfa3
:00000001ff
