:020000040800F2
:100000000080012027160008E3060008E10600082A
:10001000E1060008E1060008E10600080000000013
:10002000000000000000000000000000E3060008DF
:10003000E306000800000000E3060008E3060008ED
:10004000E1060008E1060008E1060008E1060008F4
:10005000E1060008E1060008E1060008E1060008E4
:10006000E1060008E1060008E1060008E1060008D4
:10007000E1060008E1060008E1060008E1060008C4
:10008000E1060008E1060008E1060008E1060008B4
:10009000E1060008E1060008E1060008E1060008A4
:1000A000E1060008E1060008E1060008E106000894
:1000B000E1060008E1060008E1060008E106000884
:1000C000E1060008E1060008E1060008E106000874
:1000D000E1060008E1060008E1060008E106000864
:1000E000E1060008E1060008E1060008E106000854
:1000F000E1060008E1060008E1060008E106000844
:10010000E1060008E1060008E1060008E106000833
:10011000E1060008E1060008E1060008E106000823
:10012000E1060008E1060008E1060008E106000813
:10013000E1060008E1060008E1060008E106000803
:10014000E1060008E1060008E1060008E1060008F3
:100150000138FDD17047012838B571F1000305461B
:100160000C461BDB0322002301F07CFC511E1943CB
:1001700009D0023A1A4308D0042D74F1000407DBB9
:10018000BDE83840E4E700BFF6E700BF00BFF3E793
:1001900000BF00BF00BF00BF00BF00BF38BD044BA1
:1001A00004481B68184000F16043584258417047AA
:1001B000002000080000FE2F38B5054D04462B78BE
:1001C000834202D06B6803B198472C7038BD00BFE2
:1001D0001800002038B5094D04462B7A834202D01E
:1001E000EB6803B198473CB92B780A2B02D1022067
:1001F000FFF7E2FF2C7238BD0A20F9E71800002053
:100200000620D9E74FF0E023014AC3F80C2DFEE7A2
:100210000400FA0510B5084C236933B198472075DE
:1002200028B9BDE810400A20D4E701232375062031
:10023000BDE81040C0E700BF18000020044B5B7D04
:100240002BB14FF0E023034AC3F80C2DFEE77047B3
:10025000180000200400FA0510B5487801280AD1DA
:100260008C88022C09D14988012906D104491160E2
:1002700037221A8010BD0220FCE70020FAE700BFF9
:10028000001E00084878212810D1087810F01F00BF
:100290000ED1898804290CD1064911601A88282AB0
:1002A00001D80120704728221A80FAE702207047FF
:1002B00000207047381E0008074B084AB3F8E017C3
:1002C000B1F5007FD36884BFD06C034303F03503DE
:1002D000DB07F5D4704700BF00F0FF1F002002408D
:1002E0002DE9F04300264FF00F089C46036847684D
:1002F0004CFA06F414F0010F06F1010E1DD0072E82
:1003000094BF9946B946B4B24FEA84048ABF203CF0
:10031000A4B2A4B208FA04F529EA0509A51C02FA58
:1003200005F501FA04F42C43072E44EA090405D824
:10033000234676463C462746DAE73C467646102E6C
:10034000F9D103604460BDE8F083D0F8E0301B6968
:10035000184710B5012200210446FFF7F6FF0023DD
:1003600084F8303010BDF8B50368B0F84020458FF0
:10037000DB79AD1A9D42A8BF1D46C16BD0F8E030B5
:10038000AEB21F6A0A44334600210446B84786428B
:1003900005D02046FFF7DDFF4FF0FF30F8BDB4F881
:1003A0004030A8B21E44A4F84060F7E708B5898839
:1003B0000022C9B2FFF7C9FF012008BD08B589882E
:1003C0000122C9B2FFF7C1FF012008BD70B51C466C
:1003D0000D23C27E5A4343680D3A13441D798A881F
:1003E000954219D9D3F80950160105EB02124B8832
:1003F00012799A4210D9AA5952B11370D0F8DC3050
:1004000013B14A888988984700230120238070BD52
:10041000002BF3D01046FAE70020F8E730B50D25A1
:10042000C47E40686C430D3C20448D880479A5420D
:100430000CD201241C808B88D0F809001B011B58AA
:1004400003B11B7801201268137030BD0020FCE757
:100450002DE9F74F05460C46064600F1200900F14C
:100460003C0700F1400A00F14408D6F84CB023786C
:10047000BBF1000F05D1237813F0600018D00020E5
:1004800013E096F8511096F850200B409A4203D092
:1004900008364E45E9D1EEE753463A46214628460E
:1004A000CDF80080D8470128F2D803B0BDE8F08F1E
:1004B00003F01F03012B2FD0022B3AD0002BF4D1D5
:1004C0006378092BDBD801A252F823F0F504000869
:1004D0007F0400087F0400087F0400087F040008F0
:1004E00011050008150500087F040008090500082B
:1004F0000D050008184E53463A4621462846B44694
:1005000003B0BDE8F04F6047144EF4E7144EF2E735
:10051000144EF0E7144EEEE763780A2B05D00B2B50
:1005200005D0002BC1D1114EE5E7114EE3E7114E86
:10053000E1E76378012B05D0032B08D0002BB4D161
:100540000D4ED8E76388002BAFD10C4ED3E76388FC
:10055000002BAAD10A4ECEE7AF050008C705000858
:10056000E905000885050008FD1200086706000877
:100570001D040008CD0300087F060008AD03000835
:10058000BD03000808B50B787BB949887F2907D8D7
:10059000D0F8E030C9B2817693F8302012B9012347
:1005A000184608BD5B689847F9E70023F8E7198803
:1005B0000120022984BF02211980002311680B70D9
:1005C0001268537070471988012984BF012119806E
:1005D000C37E11682BB142680D2000FB032313F882
:1005E000083C01200B707047F8B50D464988044659
:1005F000E1B103680D26587C0023984201D8002001
:10060000F8BD626806FB0322577901338F42F4D1AB
:10061000E376002318461179994208D9D2F80910D7
:100620001E01715801B108700133F4E7C176D4F8A6
:10063000E0302046DB689847D4F8CC300BB9012075
:10064000DEE7002304F1C806E3646365E3656366DF
:1006500004F1D80756F8043F13B12046698898473B
:10066000BE42F7D1EBE719880120022984BF02219D
:100670001980002311680B7012685370704710B511
:1006800014461A88022A84BF02221A808988D0F868
:10069000E030C9B29B699847003818BF012000229A
:1006A00023681870236801205A7010BD094A0A484F
:1006B000D36943F40003D3610022084BC3F8402CF4
:1006C000C3F8502CC3F8442C4FF41C42C3F8402C00
:1006D000704700BF00100240300000200050004072
:1006E000FEE77047024B41F08001C3F84C1C704795
:1006F00000500040F7B54FF0C0644D4D0DF1080CAF
:10070000CDE9005401F07F05AC0004F1804404F50C
:10071000B84426680CEB420226F4E04626F07F0639
:100720002E43B6B22660266832F8082C26F4EC4632
:1007300026F07006164349B2B6B200292660089F1B
:100740004FEAC50613DB95B1DFF8E8C0818BDCF812
:10075000502CDFF8E4E092B2324452003E2B4EF8C7
:10076000021033D801335B085A0092B236E0314AA6
:10077000B0F81CC0D2F8502C92B23244520002F1B0
:10078000804202F5C042C2F800C01FB10C2202FB39
:100790000502D76622689C4422F4E04222F030022F
:1007A0001204120C22602268002922F4E04222F096
:1007B000400292B282F0200242F4004242F08002F3
:1007C0002260A0F81CC0BFDA03B0F0BD5A1EC2F30D
:1007D000441302F47872203243F02003DCF850CC4A
:1007E0009B021FFA8CFC6644DFF850C076009BB277
:1007F0004CF806301FB10C2303FB05052F67236857
:10080000114423F4415323F030031B041B0C2360D9
:10081000236823F4804323F070039BB283F4405396
:1008200043F4004343F0800323608183CCE700BF9F
:100830000002000400500040086000400C600040CE
:1008400048F2800170B50B4A0B4E0C4D0C4C1368EE
:1008500033400B439BB2136013682B400B439BB296
:1008600042F8043BA242F2D10368DB7920335B00FB
:10087000838370BD045C0040BF8FFFFF8FBFFFFF0D
:10088000205C004010B500293ED1334C48F2800076
:10089000D4F8003C23F4E04323F040039BB202BBB6
:1008A00083F020031843C4F8000C4FF44052890031
:1008B00001F1804101F5B8410B6823F4415323F065
:1008C00030031B041B0C0B600B6823F4804323F0E4
:1008D00070039BB2534043F4004343F080030B602A
:1008E00030E083F010031843C4F8000C890001F1D4
:1008F000804101F5B8410B684FF4805223F48043E6
:1009000023F070039BB2E5E70B0621D501F07F03CE
:100910009B0003F1804303F5B843196848F2800057
:1009200021F4E04121F0400189B262B981F0200157
:10093000084318601A6822F4E04222F030021204E0
:10094000120C1A6010BD81F0100108431860F9E71D
:10095000002ACBD1A9E700BF005000400B060ED5FE
:1009600001F07F01890001F1804101F5B84108687B
:1009700000F03000102814BF0020012070478900CB
:1009800001F1804101F5B841086800F44050B0F52C
:10099000805FF0E70B0614D40C4B0D480B44890024
:1009A00001F1804183F8202101F5B8410B68034033
:1009B0009BB23AB183F4005343F4004343F0800305
:1009C0000B60704783F44053F6E700BF1800002027
:1009D0008FBFFFFFF0B501F07F06B40004F1804443
:1009E00004F5B8441846236803F03003302B31D0A7
:1009F000194DF300D5F8501C89B201EBC60149002E
:100A000001F1804101F5C0410988461C490001F10E
:100A10008041761001F5C04102EB4606B24214D186
:100A2000D5F8502C92B213440C4A5B00D050226887
:100A300022F4E04222F0400292B282F0300242F40C
:100A4000004242F080022260F0BD32F8027B41F8A1
:100A5000047BE3E70020F7E700500040046000401B
:100A600018468B0003F1804303F5B843F0B51C68CA
:100A700004F44054B4F5405F4ED0284F284ED7F8C8
:100A8000504CCD00A4B204EBC10464003459C4F34B
:100A90000904844207DAD7F8500C80B22844400099
:100AA0003058C0F309001D4C00F00107D4F8504C39
:100AB000A4B225441B4C6D00645B4508640004F13E
:100AC000804404F5C044264602EB450C62451ED125
:100AD00017B114F8254014701A6822F0F0021205BC
:100AE000120D42F080021A600F4A0A4492F8202147
:100AF00062B91A6822F4804222F0700292B282F443
:100B0000405242F4004242F080021A60F0BD36F8D2
:100B100004EB22F802EBD9E70020F7E70050004091
:100B20000C6000400860004018000020434B73B583
:100B3000D3F8446C044671051DD54FF6FF32C3F857
:100B4000442C4023002583830368D0F8E0204583AC
:100B5000DB790095294696682A46B047D4F8E030FC
:100B600029465B6820469847236A002B4AD002B08A
:100B7000BDE87040184732041CD506F00F018D0007
:100B800005F1804505F5B84516F010022B683BD0FD
:100B90001B0541D500F134020823FFF761FF022253
:100BA00001EB4103134404EB8303DB6E002B35D0D0
:100BB00020469847320507D54FF2FF721F4BC3F806
:100BC000442C636A03B19847F30407D54EF6FF72CD
:100BD0001A4BC3F8442CA36A03B1984716F4007F5C
:100BE000E36A164D05D04FF6FF52C5F8442CF3B119
:100BF0009847E36ADBB1114AD2F8403C43F40073F2
:100C0000C2F8403C02B070BD23F0F0031B051B0D81
:100C100043F400432B60C3E70122C1E72B6823F0B4
:100C2000F0031B051B0D43F080032B60C2E7D5F8D2
:100C3000403C23F40073C5F8403CE3E7005000401B
:100C4000D0F8E0300A465B690021184740F20143C2
:100C500010B5254AD2F81844A40703D5013B9BB22E
:100C6000002BF7D1D2F8003443F48073C2F800347B
:100C700040F201431C4AD2F81444E40707D5D2F8E5
:100C80001844E40703D5D2F81844A40703D4013B61
:100C90009BB2002BEFD1B023134AC2F8103440F2BC
:100CA0000143D2F81444A40703D4013B9BB2002BA8
:100CB000F7D1D2F818340C4A014410F8013BC2F8BD
:100CC000103440F20143D2F81444640703D4013BCA
:100CD0009BB2002BF7D18842EFD1D2F8003443F415
:100CE0000073C2F8003410BD00500040032337B534
:100CF0000421054668460093FFF7A8FF002111482C
:100D0000FFF729FA0423104C8DF8003022788DF873
:100D100001209DB14FF47F43ADF80230002305213F
:100D200068468DF80430FFF791FF23780133DBB27A
:100D3000042B28BF0023237003B030BDFF23ADF880
:100D40000250ECE77A320200000000202DE9F84F53
:100D5000604E614C614BD6F82855636003F18833CF
:100D60006360D6F82C3505F1006505F5005523F0D4
:100D70000103DFF86CB15B4F03EB050906F5947ACC
:100D80004D4513D10120FFF7B1FF534A05201369E8
:100D900043F080031361D6F82835D6F82C25134488
:100DA000C6F82835BDE8F84FFFF706BAB5F1016F70
:100DB0000CD30020FFF79AFF474A0720136943F03E
:100DC00080031361BDE8F84FFFF704BAD6F8303559
:100DD0009D4203D2D6F834359D4226D205EA0B084F
:100DE00008F50063C6F83035C6F83485FFF764FAB5
:100DF000B7F8E037B3F5007F3ED93B4B98453BD978
:100E0000236D43F002032365C4F85480236D43F03F
:100E100040032365FFF750FAB7F8E037B3F5007FDA
:100E20003ED9236D23F002032365BAF80080FFF753
:100E300043FAB7F8E037B3F5007F36D92A4B9D4225
:100E400033D9236D43F001032365A5F80080FFF734
:100E500033FAB7F8E037B3F5007F36D9236D23F0C6
:100E600001032365BAF8003002354345C6F834550E
:100E70009FD10AF1020A83E7236943F00203236149
:100E8000C4F81480236943F040032361FFF714FA88
:100E9000B7F8E037B3F5007F02D9134B9845BFE7A9
:100EA000236923F002032361BFE7236943F00103B1
:100EB0002361A5F80080FFF7FFF9B7F8E037B3F535
:100EC000007F02D9084B9D42C7E7236923F0010345
:100ED0002361C7E718000020002002402301674576
:100EE00000F8FFFF00F0FF1FFFFF07081346D0F8D0
:100EF000E02010B4D4690A46A446002110BC604723
:100F000010B503680446DA79B0F84030C16B9A42F4
:100F10000FD2FFF7EBFF022384F830302368DA7931
:100F2000E36B1344E363B4F840309B1AA4F84030F9
:100F300010BD1A46FFF7DAFF94F84830C3F10303F7
:100F400084F83030002384F84830A4F84030E3635C
:100F5000EEE710B590F830300446032B06D0042B92
:100F60000BD0022B20D1BDE81040C9E7072380F841
:100F700030300021BDE8104062E6436C13B100F14F
:100F80003401984794F8343053B994F83530052B30
:100F900006D1E18ED4F8E03020465B68C9B29847AC
:100FA000002384F8303010BDBDE81040FFF7D1B900
:100FB00038B543690446C3638B79CA790D4643EA61
:100FC0000223A0F84030FFF743FAF8B1EA88AAB14B
:100FD000B4F8403021689A42C9790DD933B1B3FBD6
:100FE000F1F201FB1233B3FA83F35B09204684F874
:100FF0004830BDE8384083E70023F7E71146204634
:10100000FFF774FF042384F8303038BD2046BDE874
:101010003840FFF79EB970B50025044601214564AC
:1010200000F13406FFF70CFE628F22B931462046EC
:10103000BDE87040BCE794F93430002BF6DB238B1D
:10104000934204D22046BDE87040FFF782B963693D
:10105000A4F84050E36323682946DB792046934295
:101060002CBF0623052384F83030BDE87040E7E547
:1010700038B590F830300446062B13D0072B27D014
:10108000052B21D1FFF76FF900280ADBB4F84020C7
:10109000638F9B1A2268D279934202DC062384F87C
:1010A000303038BDFFF75FF90028FADB204604F145
:1010B0003401FFF7CDF930B1002220461146FFF789
:1010C00015FF0423EBE72046BDE83840FFF741B9A0
:1010D000D0F8E0301D6A00231A461946A8470023BD
:1010E00084F83030636C1BB1204604F1340198471A
:1010F00000236364D5E7002310B500F1C80252F85D
:10110000044F2CB18C4202D00133042BF7D110BD17
:1011100000EB8300C0F8CC10F9E770B5002400F1B3
:101120004C0555F834601EB10134042CF9D170BD62
:1011300000EBC40080F8501080F85120C364F6E73B
:101140007F2208B52121034BFFF7E7FF0122024B65
:101150005A7508BD75110008180000207F22402133
:10116000004BDAE75902000860224021004BD4E727
:10117000850200082DE9F0411F468B88064614467B
:10118000DDF81880002B40F0AC804B78062B00F285
:101190009E80DFE803F09A39760D35046B00524AE1
:1011A000236812781A7001233B800120BDE8F0818A
:1011B0004D4D24682B78032B03D0062B13D000232E
:1011C00006E00420FEF7F8FF484BC8F8003064231F
:1011D000637000232A7AA37022702A78E370637107
:1011E00022710623E0E72B7D1BB10220FEF7E4FF0E
:1011F000E5E70720FEF7E0FF3D4BC8F80030DEE7EB
:101200000020FEF7E7FFD0E7374D2B78022B0ED0FA
:10121000052BCAD1CA882AB3216805F59470C5F890
:101220002C2500F008FC0320FEF7C6FFBDE7CF88A1
:101230007FB100263A46216805F59470C5F8286507
:10124000C5F82C7500F0F7FB0320FEF7B5FF2E75EF
:10125000ABE70F20FEF7BEFF012239463046FFF70D
:1012600074F8A2E7234BC8F800309EE71E4B1A78AB
:10127000092A9AD84FF41B73D340DB0795D5022077
:10128000D2E7194E3378022B1BD0092B8DD1CD8894
:10129000D6F82835EA18B2F57E2F85BFC3F560432E
:1012A000022009209DB2FEF787FFD6F828253D8051
:1012B00002F1006303F5005315442360C6F8285576
:1012C00073E70023C6F82835E1E70B4BCBE70F2087
:1012D000FEF780FF304601220021FFF736F800209C
:1012E00064E7022062E700BF180000204D0D0008EF
:1012F0001502000801020008050200082DE9F04F60
:101300001D464B8817461A0A032A89B000F032811D
:1013100005D8012A28D0022A32D000202DE00F2A39
:10132000FBD18468002CF8D0D0F814902E88C7F830
:10133000009027784FF0000AB74228BF3746214671
:101340003A46484600F077FBF61B94F800B009EBEC
:101350000703B6B221791FFA8AF2914200F2EC80BB
:10136000A9F802B02F8007E003682A883B601B7849
:10137000934228BF13462B80012009B0BDE8F08FAF
:101380004269DBB23A6003920D2202FB03F7D0F808
:1013900004802C8818F8076008EB0703A64228BFD2
:1013A0002646194632460398059300F044FB002276
:1013B000039BA41B18F807703344A4B20292059A49
:1013C0001179BDF80820914203D8039B5F802E80DD
:1013D000D2E7029A029912010692059AD2F80920E0
:1013E00002EB0112D2F80890B9F1000F15D099F86C
:1013F00000801846A04528BFA0464946424600F056
:101400001AFB034699F80020A4EB080443443A442D
:10141000B044A4B21FFA88F697B200220492059A4B
:101420000699D2F809200A441079BDF810108842B4
:1014300002D8029A0132C1E715200499D2F80C9023
:1014400000FB01F819F808A009EB0802A24528BF23
:10145000A2461846019209EB0801524600F0EBFA49
:10146000034619F80820A4EB0A043A4497B2019AFB
:101470005344D2F80D10B244A4B21FFA8AF6B9B19F
:10148000D2F811901846A145A8BFA1461FFA89F8C5
:10149000424600F0D0FA0346019AA4EB0804D2F8C1
:1014A000112043443A44B044A4B21FFA88F697B2DC
:1014B0004FF00008019A11791FFA88F2914202D880
:1014C000049A0132AAE7019AC8EB081AD2F809B0C7
:1014D00018461BF80A200BEB0A09A24228BF224635
:1014E0004946079200F0A7FA0346079AD9F8071071
:1014F000A41A1344324496B21BF80A20A4B23A4408
:1015000097B2B1B1D9F80BB01846A345A8BFA3460E
:101510001FFA8BFA524600F08EFA0346D9F80B20D8
:10152000A4EB0A0453443A44B244A4B21FFA8AF624
:1015300097B208F10108BDE7D4F80520184652F823
:101540002A100AF1010A91F800800191B04528BFE4
:10155000B046424600F06FFA03460199A6EB080632
:101560000A7843445A44B844B6B21FFA88F71FFABF
:1015700082FBEFE613F0FF0346690DD10923B37038
:101580000423F37033702B88042B28BF04232B8093
:10159000032373703E60EFE6D0F8E4209A4219D13D
:1015A000D0F8E840204600F054FA01304000C0B2C4
:1015B00030702B88834228BF03462B8000232A8863
:1015C0005208013A9A42E3DDE15C06EB43025180A6
:1015D0000133F4E7C468013B002C3FF49EAE02697E
:1015E0009A427FF79AAE40F20942898891427FF48D
:1015F00094AE54F82340204600F02BFA013040000E
:10160000C0B230702B88834228BF03462B80002352
:101610002A885208013A9A42BADDE15C06EB43029D
:1016200051800133F4E780B5BE4BBF4ABF4990B04B
:101630008B42C0F06F810021BD4A9342C0F06F81A0
:101640004FF0E022D2F8143DBA4C43F40073BA4D87
:10165000C2F8143DAC42C0F09F81B84CB84DAC42CA
:10166000C0F09E81B74C236843F0010323602368D8
:101670009907FCD56368B44A23F003036360636889
:1016800023F0F0036360636843F44043636063687E
:1016900023F4E06343F480636360636823F460537E
:1016A0006360636843F480036360136823F0070397
:1016B00043F001031360636823F4701343F42013B1
:1016C0006360636823F480336360236843F080734E
:1016D000236023689A01FCD5002163689B4823F0AE
:1016E000030343F002036360A369022243F004038F
:1016F000A361A369964D43F00803A3614FF48043AF
:10170000FEF7EEFD0A464FF400430121FEF7E8FD27
:101710004FF40043C5F8103C4FF08043C5F8103C2F
:101720004FF08073A0F58060C5F810384FF48073D7
:10173000FEF7D6FD874900BF0139FCD1D5F8083C3A
:101740005B0404D4FEF72BFD002840F02D8100231C
:101750008DF82430804B04AA03F110061546186852
:101760005968083303C5B3422A46F7D11B7809A844
:101770002B707A4B0146D3F8F0270192D3F8EC276F
:1017800002920022D3F8E837039310AB03EB620315
:1017900013F83C3C10AD05EB131503F00F03403379
:1017A0006B4415F8305C13F8303C0232182A05708F
:1017B000437000F10200E8D10026694FDFF89091F4
:1017C00007F5A76000F024F987F850652369DFF872
:1017D000948143F4000323612369634923F40003E4
:1017E00023614FF48073C9F81038FEF75FFF08F1EA
:1017F0003403036008F14603436008F15303836038
:101800005A4B0546C3600423036107F252534361F8
:101810004FF480630383564BC0E933664367554BEF
:10182000C0E935660367544BC0F8E080C366534B8C
:10183000C0F8E8603B61524B7E600362FE60FFF7D8
:101840005AFC022328464F493B703E72FFF753FC77
:10185000EE23C5F8E43008F15C0328464A49C5F890
:10186000E830FFF748FC602240212846474BFFF74D
:1018700054FC01224FF4007311463448FEF730FD4A
:101880004FF0007300214248C9F8103CFEF763FC9A
:10189000E3692E4843F40013E361236943F4001322
:1018A0002361236923F4001323613A4BD3F8002406
:1018B00022F00102C3F80024D3F8042422F03F02EE
:1018C00092B242F03002C3F80424D3F81C2422F46C
:1018D0000042C3F81C24D3F81C2402F4704242F0E6
:1018E000F002C3F81C243122C3F82024D3F80024CA
:1018F00042F00102C3F800240322C0231146FEF780
:10190000EFFC3046FFF7F2F9D5F8E03028465B6A85
:101910009847F9E752F8040B43F8040B88E643F8BC
:10192000041B8AE600000020141F00081800002095
:101930006C0900200C1F00080C1F00080C1F000879
:101940000C1F00080010024000200240000C014063
:101950000000014000F91500C01D000800F0FF1F45
:1019600018000020601E000841110008040000203B
:101970001710000871100008530F00089F0100089D
:101980003D0200085D110008691100088502000889
:101990007A8D5B000050004054F8043B984759E6AC
:1019A00054F8043B98475AE64FF0E0234FF40052B6
:1019B000C3F8082D012213484FF48043FEF790FC32
:1019C0004FF40043FEF78CFC2368134323606268E6
:1019D0000D4B13406360236823F0847323F480333A
:1019E0002360236823F480232360636823F4FE03C9
:1019F0006360064BA1601A6882F308885B689847A9
:101A0000FEE700BF000C01400000FFF800200008C6
:101A1000034610B5013932B111F8014F013A03F80C
:101A2000014B002CF7D100211A44934200D110BD84
:101A300003F8011BF9E70A44914200F1FF3300D19A
:101A4000704710B511F8014B914203F8014FF9D1DD
:101A500010BD034613F8012B002AFBD1181A0138D8
:101A6000704700007BB972B90029BEBF00204FF05B
:101A7000004106E008BF00281CBF6FF000414FF096
:101A8000FF3000F09BB9ADF1080C6DE904CE0029E0
:101A900009DB002B1ADB00F035F8DDF804E0DDE9A6
:101AA000022304B07047404261EB4101002B1BDB75
:101AB00000F028F8DDF804E0DDE9022304B040423C
:101AC00061EB4101524263EB43037047524263EBC7
:101AD000430300F017F8DDF804E0DDE9022304B069
:101AE000404261EB41017047524263EB430300F017
:101AF00009F8DDF804E0DDE9022304B0524263EBAB
:101B0000430370472DE9F047089D0C46002B4ED14A
:101B100094468C458646B2FA82F262D94AB1C2F145
:101B20002003914020FA03F30CFA02FC194300FA57
:101B300002FE4FEA1C47B1FBF7F407FB14111FFA32
:101B40008CF64FEA1E4343EA014304FB06F1994237
:101B50000AD91CEB030304F1FF3080F01081994295
:101B600040F20D81023C6344591AB1FBF7F007FBC8
:101B7000101100FB06F61FFA8EF343EA01439E4262
:101B80000AD91CEB030300F1FF3180F0FA809E427A
:101B900040F2F7806344023800219B1B40EA044076
:101BA0001DB1D3400022C5E90032BDE8F0878B4269
:101BB00005D90DB1C5E9000100210846F5E7B3FAE2
:101BC00083F1002946D1A34202D39042C0F0EE80B7
:101BD000861A64EB03030120002DE6D0C5E90063FB
:101BE000E3E7002A40F08F80A1EB0C0401214FEACB
:101BF0001C481FFA8CF7B4FBF8F608FB164407FBE9
:101C000006F04FEA1E4343EA0443984208D91CEB0E
:101C1000030306F1FF3402D2984200F2CB8026463D
:101C20001C1AB4FBF8F008FB104400FB07F71FFA7E
:101C30008EF343EA04439F4208D91CEB030300F1EF
:101C4000FF3402D29F4200F2AE802046DB1B40EA06
:101C50000640A5E7C1F120078B4022FA07FC4CEAB9
:101C6000030C24FA07F64FEA1C49B6FBF9F81FFAF1
:101C70008CFE09FB186620FA07F38C4000FA01FA83
:101C800008FB0EF01C43230C43EA0643984202FA79
:101C900001F20AD91CEB030308F1FF3680F08180C2
:101CA00098427ED9A8F1020863441E1AB6FBF9F3E4
:101CB00009FB136603FB0EFEA4B244EA0644A645E4
:101CC00008D91CEB040403F1FF3066D2A64564D9A1
:101CD000023B644443EA0840A0FB0283A4EB0E04E9
:101CE0009C42C6461E4650D34DD055B1BAEB0E03AA
:101CF00064EB060404FA07F7CB401F43CC40C5E968
:101D00000074002151E70CFA02FCC2F12003D94013
:101D10004FEA1C4820FA03F300FA02FEB1FBF8F088
:101D200008FB101194401C431FFA8CF7230C43EA64
:101D3000014300FB07F1994208D91CEB030300F1B2
:101D4000FF362CD299422AD9023863445B1AB3FB7E
:101D5000F8F108FB1133A4B244EA034401FB07F392
:101D6000A34208D91CEB040401F1FF3613D2A342AD
:101D700011D902396444E41A41EA00413BE70446C0
:101D8000F2E6084608E7C245AFD2B8EB020E63EBB5
:101D90000C060138A9E73146EDE703469AE73046DD
:101DA000D4E7B04681E7634402384FE7064623464E
:101DB000084611E7023E634432E700BF704700BFA8
:101DC0003031323334353637383941424344454671
:101DD000004B6579626F617264696F004D6F646575
:101DE0006C203130302028426F6F746C6F616465F5
:101DF000722900444150426F6F74204446550000E0
:101E00003703016466752E6B6579626F6172642EAB
:101E1000696F3F7669643D3078333439363B706999
:101E2000643D3078303030353B76657273696F6E63
:101E30003D36666265376600280000000001040038
:101E40000100000000000000000157494E555342B8
:101E50000000000000000000000000000000000082
:101E6000AD060008E5060008F50600084108000870
:101E700085080008950900085D090008D5090008D3
:101E8000610A00082D0B000800000000000000009F
:101E9000000000001201100200000040963405000E
:101EA00011010102030109020000010100C032FC1E
:101EB0001E0008050F1D0001140000204D5346545C
:101EC0003130302100092107FF00000410011810F3
:101ED000050038B60834A909A0478BFDA0768815FF
:101EE000B665000101010904000000FE01020400C2
:101EF000000000C51E000809000000006A0900205B
:0C1F00000100000000000000E61E0008C8
:081F0C0046FBFF7F010000000D
:101F140003000000D11D0008DC1D0008500500204E
:081F2400F31D0008CE1E0008A9
:020000040800F2
:1020000000800120F57802083D7902083D79020838
:102010003D7902083D7902083D7902080000000080
:102020000000000000000000000000003D790208F0
:102030003D790208000000003D790208B1800208E5
:102040003D7902083D7902083D7902083D79020890
:102050003D7902083D7902083D7902083D79020880
:102060003D7902083D7902083D7902083D79020870
:102070003D7902083D7902083D7902083D79020860
:102080003D7902083D7902083D7902084D7D02083C
:10209000597D02083D7902083D7902083D79020820
:1020A0003D7902083D7902083D7902083D79020830
:1020B0003D7902083D7902083D7902085125020860
:1020C000692502082D260208452602083D790208E6
:1020D0003D790208000000003D7902083D790208C0
:1020E0003D7902083D790208657D02083D790208C4
:1020F0003D7902083D7902083D7902083D790208E0
:102100003D7902083D7902083D7902083D790208CF
:102110003D7902083D7902083D7902083D790208BF
:102120003D7902083D7902083D7902083D790208AF
:1021300010F8012B11F8013B012A28BF9A42F7D071
:10214000D01A7047034613F8012B002AFBD1181A46
:10215000013870470000000000000000000000008F
:1021600001F0FF01102A2BDB10F0070F08D010F848
:10217000013B013A8B422DD010F0070F42B3F6D14C
:10218000F0B441EA012141EA014122F007047FF065
:1021900000070023F0E80256083C85EA010586EABC
:1021A000010685FA47F5A3FA87F586FA47F6A5FAF8
:1021B00087F68EB9EED1F0BC01F0FF0102F0070204
:1021C00032B110F8013B013A83EA010313B1F8D1AF
:1021D0000020704701387047002D06BF3546033890
:1021E000073815F0010F07D1013015F4807F02BFC9
:1021F000013015F4C03F0130F0BC0138704700BF1A
:1022000081F0004102E000BF83F0004330B54FEAA7
:1022100041044FEA430594EA050F08BF90EA020F14
:102220001FBF54EA000C55EA020C7FEA645C7FEAA7
:10223000655C00F0E2804FEA5454D4EB5555B8BFCA
:102240006D420CDD2C4480EA020281EA030382EA3B
:10225000000083EA010180EA020281EA0303362DCD
:1022600088BF30BD11F0004F4FEA01314FF4801CA0
:102270004CEA113102D0404261EB410113F0004FB2
:102280004FEA03334CEA133302D0524263EB430369
:1022900094EA050F00F0A780A4F10104D5F1200E07
:1022A0000DDB02FA0EFC22FA05F2801841F1000162
:1022B00003FA0EF2801843FA05F359410EE0A5F136
:1022C00020050EF1200E012A03FA0EFC28BF4CF067
:1022D000020C43FA05F3C01851EBE37101F000451D
:1022E00007D54FF0000EDCF1000C7EEB00006EEB2A
:1022F0000101B1F5801F1BD3B1F5001F0CD34908B4
:102300005FEA30004FEA3C0C04F101044FEA44520A
:1023100012F5800F80F09A80BCF1004F08BF5FEA91
:10232000500C50F1000041EB045141EA050130BD71
:102330005FEA4C0C404141EB0101013C28BFB1F583
:10234000801FE9D291F0000F04BF01460020B1FACE
:1023500081F308BF2033A3F10B03B3F120020CDAA1
:102360000C3208DD02F1140CC2F10C0201FA0CF07F
:1023700021FA02F10CE002F11402D8BFC2F1200CE4
:1023800001FA02F120FA0CFCDCBF41EA0C0190409A
:10239000E41AA2BF01EB0451294330BD6FEA0404E3
:1023A0001F3C1CDA0C340EDC04F11404C4F12002CE
:1023B00020FA04F001FA02F340EA030021FA04F3E0
:1023C00045EA030130BDC4F10C04C4F1200220FA37
:1023D00002F001FA04F340EA0300294630BD21FA75
:1023E00004F0294630BD94F0000F83F4801306BF3B
:1023F00081F480110134013D4EE77FEA645C18BF2F
:102400007FEA655C29D094EA050F08BF90EA020FC5
:1024100005D054EA000C04BF1946104630BD91EABD
:10242000030F1EBF0021002030BD5FEA545C05D1C0
:102430004000494128BF41F0004130BD14F58004FF
:102440003CBF01F5801130BD01F0004545F0FE4173
:1024500041F470014FF0000030BD7FEA645C1ABFA8
:10246000194610467FEA655C1CBF0B46024650EADF
:10247000013406BF52EA033591EA030F41F400210B
:1024800030BD00BF90F0000F04BF0021704730B591
:102490004FF4806404F132044FF000054FF0000166
:1024A00050E700BF90F0000F04BF0021704730B527
:1024B0004FF4806404F1320410F0004548BF4042FC
:1024C0004FF000013EE700BF42004FEAE2014FEA51
:1024D00031014FEA02701FBF12F07F4393F07F4F2C
:1024E00081F06051704732F07F4208BF704793F02F
:1024F0007F4F04BF41F40021704730B54FF4607442
:1025000001F0004521F000411CE700BF50EA010244
:1025100008BF704730B54FF000050AE050EA0102ED
:1025200008BF704730B511F0004502D5404261EB5D
:1025300041014FF4806404F132045FEA915C3FF49E
:10254000D8AE4FF003025FEADC0C18BF03325FEA3B
:10255000DC0C18BF033202EBDC02C2F1200300FAEC
:1025600003FC20FA02F001FA03FE40EA0E0021FA11
:1025700002F11444BDE600BF70B54FF0FF0C4CF4FF
:10258000E06C1CEA11541DBF1CEA135594EA0C0FB1
:1025900095EA0C0F00F0DEF82C4481EA030621EAEC
:1025A0004C5123EA4C5350EA013518BF52EA033527
:1025B00041F4801143F4801338D0A0FB02CE4FF0D9
:1025C0000005E1FB02E506F00042E0FB03E54FF009
:1025D0000006E1FB03569CF0000F18BF4EF0010E01
:1025E000A4F1FF04B6F5007F64F5407404D25FEAFD
:1025F0004E0E6D4146EB060642EAC62141EA5551B0
:102600004FEAC52040EA5E504FEACE2EB4F1FD0CF1
:1026100088BFBCF5E06F1ED8BEF1004F08BF5FEA6F
:10262000500E50F1000041EB045170BD06F0004621
:1026300046EA010140EA020081EA0301B4EB5C04CE
:10264000C2BFD4EB0C0541EA045170BD41F48011C6
:102650004FF0000E013C00F3AB8014F1360FDEBFEB
:10266000002001F0004170BDC4F10004203C35DAC7
:102670000C341BDC04F11404C4F1200500FA05F34A
:1026800020FA04F001FA05F240EA020001F00042EB
:1026900021F0004110EBD37021FA04F642EB060161
:1026A0005EEA430E08BF20EAD37070BDC4F10C048B
:1026B000C4F1200500FA04F320FA05F001FA04F24F
:1026C00040EA020001F0004110EBD37041F100013B
:1026D0005EEA430E08BF20EAD37070BDC4F1200546
:1026E00000FA05F24EEA020E20FA04F301FA05F2AE
:1026F00043EA020321FA04F001F0004121FA04F256
:1027000020EA020000EBD3705EEA430E08BF20EA25
:10271000D37070BD94F0000F0FD101F0004640005F
:1027200041EB010111F4801F08BF013CF7D041EAE1
:10273000060195F0000F18BF704703F000465200E5
:1027400043EB030313F4801F08BF013DF7D043EAB6
:102750000603704794EA0C0F0CEA135518BF95EA6C
:102760000C0F0CD050EA410618BF52EA4306D1D1F3
:1027700081EA030101F000414FF0000070BD50EA12
:10278000410606BF1046194652EA430619D094EA9C
:102790000C0F02D150EA013613D195EA0C0F05D186
:1027A00052EA03361CBF104619460AD181EA0301DA
:1027B00001F0004141F0FE4141F470014FF0000092
:1027C00070BD41F0FE4141F4780170BD70B54FF02D
:1027D000FF0C4CF4E06C1CEA11541DBF1CEA1355AD
:1027E00094EA0C0F95EA0C0F00F0A7F8A4EB05048F
:1027F00081EA030E52EA03354FEA013100F0888086
:102800004FEA03334FF0805545EA131343EA12634E
:102810004FEA022245EA111545EA10654FEA002603
:102820000EF000419D4208BF964244F1FD0404F5BC
:10283000407402D25B084FEA3202B61A65EB030518
:102840005B084FEA32024FF480104FF4002CB6EBD5
:10285000020E75EB030E22BFB61A754640EA0C0055
:102860005B084FEA3202B6EB020E75EB030E22BF95
:10287000B61A754640EA5C005B084FEA3202B6EBD6
:10288000020E75EB030E22BFB61A754640EA9C0095
:102890005B084FEA3202B6EB020E75EB030E22BF65
:1028A000B61A754640EADC0055EA060E18D04FEA23
:1028B000051545EA16754FEA06164FEAC30343EAC3
:1028C00052734FEAC2025FEA1C1CC0D111F4801F90
:1028D0000BD141EA00014FF000004FF0004CB6E789
:1028E00011F4801F04BF01430020B4F1FD0C88BF28
:1028F000BCF5E06F3FF6AFAEB5EB030C04BFB6EB33
:10290000020C5FEA500C50F1000041EB045170BD25
:102910000EF0004E4EEA113114EB5C04C2BFD4EB52
:102920000C0541EA045170BD41F480114FF0000ED6
:10293000013C90E645EA060E8DE60CEA135594EA52
:102940000C0F08BF95EA0C0F3FF43BAF94EA0C0F55
:102950000AD150EA01347FF434AF95EA0C0F7FF4CA
:1029600025AF104619462CE795EA0C0F06D152EA1E
:1029700003353FF4FDAE1046194622E750EA410602
:1029800018BF52EA43067FF4C5AE50EA41047FF413
:102990000DAF52EA43057FF4EBAE12E74FF0FF3C78
:1029A00006E000BF4FF0010C02E000BF4FF0010C49
:1029B0004DF804CD4FEA410C7FEA6C5C4FEA430CC2
:1029C00018BF7FEA6C5C1BD001B050EA410C0CBF11
:1029D00052EA430C91EA030F02BF90EA020F002073
:1029E000704710F1000F91EA030F58BF994208BFDA
:1029F00090422CBFD8176FEAE37040F00100704797
:102A00004FEA410C7FEA6C5C02D150EA013C07D1ED
:102A10004FEA430C7FEA6C5CD6D152EA033CD3D038
:102A20005DF8040B704700BF8446104662468C4632
:102A30001946634600E000BF01B5FFF7B7FF002865
:102A400048BF10F1000F01BD4DF808EDFFF7F4FF8E
:102A50000CBF012000205DF808FB00BF4DF808ED19
:102A6000FFF7EAFF34BF012000205DF808FB00BF3C
:102A70004DF808EDFFF7E0FF94BF012000205DF85E
:102A800008FB00BF4DF808EDFFF7CEFF94BF012013
:102A900000205DF808FB00BF4DF808EDFFF7C4FF0C
:102AA00034BF012000205DF808FB00BF4FEA410C55
:102AB0007FEA6C5C02D150EA013C0AD14FEA430C38
:102AC0007FEA6C5C02D152EA033C02D14FF0000075
:102AD00070474FF0010070474FEA410212F50012B3
:102AE00015D211D56FF47873B3EB625212D94FEA55
:102AF000C12343F0004343EA505311F0004F23FA3F
:102B000002F018BF404270474FF00000704750EA93
:102B1000013005D111F0004008BF6FF00040704750
:102B20004FF00000704700BF10B5054C237833B953
:102B3000044B13B10448AFF300800123237010BD90
:102B40005004002000000000C4AD020808B5034B8B
:102B50001BB103490348AFF3008008BD000000002B
:102B600054040020C4AD020880B483B000AF786084
:102B70000B46FB701346BB707B68FA781A707B6853
:102B8000BA785A707B6818460C37BD4680BC7047CF
:102B900080B483B000AF78600B46FB707B68FA7836
:102BA0005A7000BF0C37BD4680BC704780B483B0FC
:102BB00000AF78600B46FB707B68FA781A7000BF34
:102BC0000C37BD4680BC704780B483B000AF7860DE
:102BD0007B6818460C37BD4680BC704780B582B014
:102BE00000AF786020F016F8034618460837BD4657
:102BF00080BD80B483B000AF78600B46FB707B680B
:102C0000FA781A7000BF0C37BD4680BC704780B49C
:102C100083B000AF78607B6800221A607B6818463A
:102C20000C37BD4680BC704780B582B000AF78607D
:102C300039607B681B68002B03D13B6806489847C6
:102C400004E07B681A683B681046984700231846E2
:102C50000837BD4680BD00BFE0AD020880B483B038
:102C600000AF786000BF0C37BD4680BC704780B4B1
:102C700083B000AF786000BF0C37BD4680BC7047A2
:102C800080B483B000AF786000BF0C37BD4680BC15
:102C9000704780B483B000AF7860397000BF0C37E4
:102CA000BD4680BC704780B582B000AF78607B685D
:102CB0001B681B6878689847002318460837BD468C
:102CC00080BD80B483B000AF786039603B6818463F
:102CD0000C37BD4680BC704780B582B000AF7860CD
:102CE0007B681B681B687868984700BF0837BD463B
:102CF00080BD80B483B000AF786000BF0C37BD46A4
:102D000080BC704780B400AF024B1846BD4680BC03
:102D1000704700BF0806002080B582B000AF786021
:102D2000FFF7F0FF03461846FFF758FF0346184623
:102D30000837BD4680BD000080B400AF024B1B6861
:102D40001846BD4680BC70478805002080B483B01B
:102D500000AF78607B681B79C3F30603DBB21846CB
:102D60000C37BD4680BC704780B483B000AF78603C
:102D7000002318460C37BD4680BC704780B582B032
:102D800000AF7860642025F0E3F800BF0837BD4647
:102D900080BD000080B584B000AF78603960124B10
:102DA000FB603968114816F089F90346002B05D0FD
:102DB000F9680E4800F080FC034611E0FA683968B3
:102DC0000A4816F08DF9034683F00103DBB2002BAD
:102DD00001D0002304E00649044800F087FC0023EA
:102DE00018461037BD4680BDF4AD020800480020EB
:102DF000FCAD020880B582B000AF786039603968F8
:102E0000034818F00DF8034618460837BD4680BD44
:102E10003848002080B582B000AF78607B6804330A
:102E20001846FFF7F4FE044A7B681A607B68184670
:102E30000837BD4680BD00BFE0B8020880B582B04B
:102E400000AF7860084611461A460346FB700B46F1
:102E5000BB7013467B707B681846FFF7D8FE7B6813
:102E6000FA781A717B68BA785A717B687A789A71A5
:102E70007B68034A1A607B6818460837BD4680BDE8
:102E800008AE020880B582B000AF786039607B6818
:102E90001846FFF7BFFF054A7B681A607B683A68EF
:102EA0009A607B6818460837BD4680BD54BC02084E
:102EB00080B582B000AF786039607B681846FFF754
:102EC000A9FF074A7B681A607B683A689A607B684A
:102ED00000221A737B6818460837BD4680BD00BFC4
:102EE0006CBC020880B582B000AF786039607B6846
:102EF0001846FFF78FFF0B4A7B681A607B683A68B9
:102F00009A607B6800221A737B6801225A73FFF76C
:102F100013FF03469AB27B68DA817B68184608374C
:102F2000BD4680BD84BC020880B582B000AF786029
:102F300039607B681846FFF76DFF0B4A7B681A60A3
:102F40007B683A689A607B6800229A817B680122DC
:102F50009A737B680022DA737B68FF221A747B689D
:102F600018460837BD4680BDB4BC020880B582B0A3
:102F700000AF786039607B681846FFF74BFF0B4A5B
:102F80007B681A607B683A689A607B6800229A8145
:102F90007B6801229A737B680022DA737B68FF22C8
:102FA0001A747B6818460837BD4680BD9CBC020871
:102FB00080B582B000AF786039607B681846FFF753
:102FC00029FF054A7B681A607B683A689A607B68CB
:102FD00018460837BD4680BD5CBD020880B582B08A
:102FE00000AF786039603968034817F019FF03466D
:102FF00018460837BD4680BD3848002080B500AF70
:1030000000F096FB00BF80BD80B582B000AF786055
:103010003960FFF777FE386800F092FB03461846E8
:103020000837BD4680BD000080B582B000AF0346C2
:10303000FB71FB7903F00203002B0CD0FB7903F04A
:103040000103002B07D10649064817F043FB064948
:10305000044817F03FFB00BF0837BD4680BD00BFE6
:1030600014AE020834480020FCAD0208B0B584B0AC
:1030700000AF78607B685B7803F00203002B2ED0F2
:103080007B685B7803F00103002B28D17B689D1CD3
:1030900007F10C03002204211846FFF765FD07F134
:1030A0000C031846FFF790FD03461C7824F030FF10
:1030B00001460D4BA3FB0123DA081346DB00134442
:1030C0009B00CA1AD3B22344DBB219462846FFF745
:1030D0006DFD7B68023300211846FFF759FD00BFE4
:1030E0001037BD46B0BD00BF398EE33880B582B021
:1030F00000AF03463960FB71FB79002B02D0012B36
:1031000006D009E03B685B781846FFF78DFF03E0C7
:103110003868FFF7ABFF00BF002318460837BD46ED
:1031200080BD80B582B000AF0346FB71FB79012BF7
:1031300002DC002B03DA08E0022B03D005E012F0DA
:1031400051FD02E012F06AFD00BF00BF0837BD4626
:1031500080BD80B582B000AF0346FB71FB79184695
:10316000FFF7DFFF00BF0837BD4680BD80B582B0E6
:1031700000AF0346FB7103481AF07EFC00BF08371E
:10318000BD4680BDC848002080B483B000AF034670
:10319000FB71084B1B68084A934203D1054B074A51
:1031A0001A6002E0034B044A1A6000BF0C37BD46A8
:1031B00080BC704708000020F5540108D989010837
:1031C00080B582B000AF0346FB711AF02FFA00BF42
:1031D0000837BD4680BD80B400AF00231846BD4609
:1031E00080BC704780B500AF00F0BAFA03461846BD
:1031F00080BD80B400AF00231846BD4680BC704738
:1032000080B582B000AF78603B1D184600F0A6FE86
:10321000034618460837BD4680BD80B400AF002382
:103220001846BD4680BC704780B500AF01F0C4FAB7
:103230000346184680BD80B400AF00231846BD4643
:1032400080BC704780B500AF01F0B4FE034618465D
:1032500080BD80B400AF01231846BD4680BC7047D6
:1032600080B582B000AF7860786802F0A1FA0346BA
:1032700018460837BD4680BD80B400AF012318460C
:10328000BD4680BC704780B582B000AF786078687A
:1032900002F0BCFE034618460837BD4680BD80B428
:1032A00000AF01231846BD4680BC704780B582B090
:1032B00000AFB8803B1D184603F0D6FA0346184607
:1032C0000837BD4680BD80B400AF01231846BD4617
:1032D00080BC704780B582B000AF78603B1D184657
:1032E00003F0F0FE034618460837BD4680BD80B4A3
:1032F00000AF00231846BD4680BC704780B500AFC4
:1033000004F00EFB0346184680BD80B400AF0023D6
:103310001846BD4680BC704780B500AF04F0FEFE85
:103320000346184680BD80B400AF00231846BD4652
:1033300080BC704780B500AF05F0EEFA0346184632
:1033400080BD80B400AF01231846BD4680BC7047E5
:1033500080B582B000AF7860786805F0DBFE034688
:1033600018460837BD4680BD80B400AF002318461C
:10337000BD4680BC704780B582B000AF7860786889
:1033800006F0F6FA034618460837BD4680BD80B4FD
:1033900000AF00231846BD4680BC704780B500AF23
:1033A00006F014FF0346184680BD000080B400AF4D
:1033B000024B1B781846BD4680BC7047D5B8020842
:1033C00080B582B000AF03463960FB71FB79DB004A
:1033D000054A134408221946386824F0EBFE00BF62
:1033E0000837BD4680BD00BF5CB8020880B500AF9D
:1033F0004548FFF77EFC4548FFF77BFC4448FFF754
:1034000078FC4448FFF775FC4348FFF772FC4348DB
:10341000FFF76FFC4248FFF76CFC4248FFF769FC7E
:103420004148FFF766FC4148FFF763FC4048FFF75F
:1034300060FC4048FFF75DFC3F48FFF75AFC3F48FF
:10344000FFF757FC3E48FFF754FC3E48FFF751FC9E
:103450003D48FFF74EFC3D48FFF74BFC3C48FFF76B
:1034600048FC3C48FFF745FC3B48FFF742FC3B4823
:10347000FFF73FFC3A48FFF73CFC3A48FFF739FCBE
:103480003948FFF729FC3948FFF733FC3848FFF784
:1034900030FC3848FFF72DFC3748FFF72AFC374847
:1034A000FFF727FC3648FFF724FC3648FFF721FCDE
:1034B0003548FFF71EFC3548FFF71BFC3448FFF783
:1034C00018FC3448FFF715FC3348FFF712FC33486B
:1034D000FFF70FFC3248FFF70CFC3248FFF709FCFE
:1034E0003148FFF706FC3148FFF703FC3048FFF78F
:1034F00000FC3048FFF7FDFB2F48FFF7FAFB2F4891
:10350000FFF7F7FB00BF80BDE4470020FC47002029
:1035100000480020EC470020F04700206C04002009
:1035200098490020B4480020BC480020CC48002026
:103530007449002094490020580000200C490020C4
:103540007800002010490020344800201449002051
:1035500014000020244800204C000020A84900202E
:1035600050480020EC050020F805002064480020A9
:103570006C4800205C480020700400207804002083
:10358000800400208804002090040020980400207B
:10359000A004002054480020844800207C480020DB
:1035A00090480020984800204C480020C448002043
:1035B000A8480020AC480020C8480020C04800208F
:1035C00080B500AF264B1B68184610F089FE254BCE
:1035D00055221A70244B01221A70244B00221A70B3
:1035E000224B00225A70214BFF229A70AA212048B8
:1035F00018F06CF8A0211F4818F006F9372019F0D0
:1036000049FE1D4B1B6803F00103002B05D11B482D
:1036100018F030FA184B01221A60194B174A1A6039
:10362000082015F07FF90821164819F0C5F94FF464
:10363000806115481DF054F81448FFF787FB0346D6
:10364000184611F0DDFF12481DF068FD8821114871
:103650001DF0AAFF1049114819F0B0FC00BF80BD51
:10366000F0B8020836000020484800203C00002046
:10367000644800206C480020FC040020F80400206E
:10368000744800209848002014490020E447002096
:103690009449002098490020FC050020B4480020EF
:1036A00080B500AF034B1B68184610F04BFE00BFFF
:1036B00080BD00BFF0B8020880B582B000AF78606E
:1036C00039600948FFF728FB03463968184620F09F
:1036D00018FF7868FFF752FB7868FFF745FB034651
:1036E00018460837BD4680BD8C05002080B582B0E5
:1036F00000AF786039600D48FFF70EFB034639686C
:10370000184620F04DFE7868FFF738FB0748FFF7B2
:1037100003FB03462021184620F05EFE7868FFF781
:103720002DFB00BF0837BD4680BD00BF8C050020C3
:1037300080B500AF07F050FA0346184680BD000080
:1037400080B582B000AF786007220449786824F021
:1037500031FD072318460837BD4680BD40AE02083C
:1037600080B582B000AFB44807F034FE0346FB7169
:10377000FFF731FD0346002B04D0FB79002B01D06D
:10378000012300E00023002B01D0FB79CDE3AB48FF
:1037900007F030FE0346FB71FFF71DFD0346002BCB
:1037A00004D0FB79002B01D0012300E00023002B83
:1037B00001D0FB79B9E3A24807F02CFE0346FB7168
:1037C000FFF709FD0346002B04D0FB79002B01D045
:1037D000012300E00023002B01D0FB79A5E39948E9
:1037E00007F028FE0346FB71FFF7F5FC0346002BAC
:1037F00004D0FB79002B01D0012300E00023002B33
:1038000001D0FB7991E3904807F024FE0346FB7159
:10381000FFF7E1FC0346002B04D0FB79002B01D01D
:10382000012300E00023002B01D0FB797DE38748D2
:1038300007F020FE0346FB71FFF7CDFC0346002B8B
:1038400004D0FB79002B01D0012300E00023002BE2
:1038500001D0FB7969E37E4807F01CFE0346FB714B
:10386000FFF7B9FC0346002B04D0FB79002B01D0F5
:10387000012300E00023002B01D0FB7955E37548BC
:1038800007F018FE0346FB71FFF7A5FC0346002B6B
:1038900004D0FB79002B01D0012300E00023002B92
:1038A00001D0FB7941E36C4807F014FE0346FB713D
:1038B000FFF791FC0346002B04D0FB79002B01D0CD
:1038C000012300E00023002B01D0FB792DE36348A6
:1038D00007F010FE0346FB71FFF77DFC0346002B4B
:1038E00004D0FB79002B01D0012300E00023002B42
:1038F00001D0FB7919E35A4807F00CFE0346FB712F
:10390000FFF769FC0346002B04D0FB79002B01D0A4
:10391000012300E00023002B01D0FB7905E351488F
:1039200007F008FE0346FB71FFF755FC0346002B2A
:1039300004D0FB79002B01D0012300E00023002BF1
:1039400001D0FB79F1E2484807F004FE0346FB7121
:10395000FFF741FC0346002B04D0FB79002B01D07C
:10396000012300E00023002B01D0FB79DDE23F487A
:1039700007F000FE0346FB71FFF72DFC0346002B0A
:1039800004D0FB79002B01D0012300E00023002BA1
:1039900001D0FB79C9E2364807F0FCFD0346FB7114
:1039A000FFF719FC0346002B04D0FB79002B01D054
:1039B000012300E00023002B01D0FB79B5E22D4864
:1039C00007F0F8FD0346FB71FFF705FC0346002BEB
:1039D00004D0FB79002B01D0012300E00023002B51
:1039E00001D0FB79A1E2244807F0F4FD0346FB7106
:1039F000FFF7F1FB0346002B04D0FB79002B01D02D
:103A0000012300E00023002B01D0FB798DE21B484D
:103A100007F0F0FD0346FB71FFF7DDFB0346002BCB
:103A200004D0FB79002B01D0012300E00023002B00
:103A300026D0FB7979E200BFE4470020FC47002054
:103A400000480020EC470020F04700206C040020D4
:103A500098490020B4480020BC480020CC480020F1
:103A60007449002094490020580000200C4900208F
:103A7000780000201049002034480020144900201C
:103A8000B34807F0C7FD0346FB71FFF7A4FB0346ED
:103A9000002B04D0FB79002B01D0012300E0002390
:103AA000002B01D0FB7940E2AA4807F0C3FD034692
:103AB000FB71FFF790FB0346002B04D0FB79002B32
:103AC00001D0012300E00023002B01D0FB792CE280
:103AD000A14807F0BFFD0346FB71FFF77CFB0346DF
:103AE000002B04D0FB79002B01D0012300E0002340
:103AF000002B01D0FB7918E2984807F0BBFD034684
:103B0000FB71FFF768FB0346002B04D0FB79002B09
:103B100001D0012300E00023002B01D0FB7904E257
:103B20008F4807F0B7FD0346FB71FFF754FB0346D0
:103B3000002B04D0FB79002B01D0012300E00023EF
:103B4000002B01D0FB79F0E1864807F0B3FD034676
:103B5000FB71FFF740FB0346002B04D0FB79002BE1
:103B600001D0012300E00023002B01D0FB79DCE130
:103B70007D4807F0AFFD0346FB71FFF72CFB0346C2
:103B8000002B04D0FB79002B01D0012300E000239F
:103B9000002B01D0FB79C8E1744807F0ABFD034668
:103BA000FB71FFF718FB0346002B04D0FB79002BB9
:103BB00001D0012300E00023002B01D0FB79B4E108
:103BC0006B4807F0A7FD0346FB71FFF704FB0346B4
:103BD000002B04D0FB79002B01D0012300E000234F
:103BE000002B01D0FB79A0E1624807F0A3FD03465A
:103BF000FB71FFF7F0FA0346002B04D0FB79002B92
:103C000001D0012300E00023002B01D0FB798CE1DF
:103C1000594807F09FFD0346FB71FFF7DCFA0346A6
:103C2000002B04D0FB79002B01D0012300E00023FE
:103C3000002B01D0FB7978E1504807F08BFD03465B
:103C4000FB71FFF7C8FA0346002B04D0FB79002B69
:103C500001D0012300E00023002B01D0FB7964E1B7
:103C6000474807F077FD0346FB71FFF7B4FA0346B8
:103C7000002B04D0FB79002B01D0012300E00023AE
:103C8000002B01D0FB7950E13E4807F063FD03466D
:103C9000FB71FFF7A0FA0346002B04D0FB79002B41
:103CA00001D0012300E00023002B01D0FB793CE18F
:103CB000354807F04FFD0346FB71FFF78CFA0346CA
:103CC000002B04D0FB79002B01D0012300E000235E
:103CD000002B01D0FB7928E12C4807F03BFD03467F
:103CE000FB71FFF778FA0346002B04D0FB79002B19
:103CF00001D0012300E00023002B01D0FB7914E167
:103D0000234807F027FD0346FB71FFF764FA0346DB
:103D1000002B04D0FB79002B01D0012300E000230D
:103D2000002B01D0FB7900E11A4807F023FD034680
:103D3000FB71FFF750FA0346002B04D0FB79002BF0
:103D400001D0012300E00023002B25D0FB79ECE01B
:103D500014000020244800204C000020A849002026
:103D600050480020EC050020F805002064480020A1
:103D70006C4800205C48002070040020780400207B
:103D80008004002088040020900400209804002073
:103D9000A004002054480020664807F0FBFC0346BE
:103DA000FB71FFF718FA0346002B04D0FB79002BB8
:103DB00001D0012300E00023002B01D0FB79B4E007
:103DC0005D4807F0F7FC0346FB71FFF704FA034672
:103DD000002B04D0FB79002B01D0012300E000234D
:103DE000002B01D0FB79A0E0544807F0F3FC034618
:103DF000FB71FFF7F0F90346002B04D0FB79002B91
:103E000001D0012300E00023002B01D0FB798CE0DE
:103E10004B4807F0EFFC0346FB71FFF7DCF9034664
:103E2000002B04D0FB79002B01D0012300E00023FC
:103E3000002B01D0FB7978E0424807F0EBFC034609
:103E4000FB71FFF7C8F90346002B04D0FB79002B68
:103E500001D0012300E00023002B01D0FB7964E0B6
:103E6000394807F0E7FC0346FB71FFF7B4F9034656
:103E7000002B04D0FB79002B01D0012300E00023AC
:103E8000002B01D0FB7950E0304807F0E3FC0346FB
:103E9000FB71FFF7A0F90346002B04D0FB79002B40
:103EA00001D0012300E00023002B01D0FB793CE08E
:103EB000274807F0DFFC0346FB71FFF78CF9034648
:103EC000002B04D0FB79002B01D0012300E000235C
:103ED000002B01D0FB7928E01E4807F0DBFC0346ED
:103EE000FB71FFF778F90346002B04D0FB79002B18
:103EF00001D0012300E00023002B01D0FB7914E066
:103F0000154807F0D7FC0346FB71FFF764F9034639
:103F1000002B04D0FB79002B01D0012300E000230B
:103F2000002B01D0FB7900E0FB7918460837BD462D
:103F300080BD00BF844800207C48002090480020BD
:103F4000984800204C480020C4480020A848002081
:103F5000AC480020C8480020C048002080B584B08C
:103F600000AF78607968B24807F0B4FC0346FB7391
:103F7000FFF73FF90346002B04D0FB7B002B01D059
:103F8000012300E00023002B01D0FB7BF7E37968DD
:103F9000A84807F0B1FC0346FB73FFF72AF9034674
:103FA000002B04D0FB7B002B01D0012300E0002379
:103FB000002B01D0FB7BE2E379689F4807F0AEFC61
:103FC0000346FB73FFF715F90346002B04D0FB7B78
:103FD000002B01D0012300E00023002B01D0FB7B4C
:103FE000CDE37968954807F0ABFC0346FB73FFF718
:103FF00000F90346002B04D0FB7B002B01D00123EA
:1040000000E00023002B01D0FB7BB8E379688C48EB
:1040100007F0A8FC0346FB73FFF7EBF80346002B01
:1040200004D0FB7B002B01D0012300E00023002BF8
:1040300001D0FB7BA3E37968824807F0A5FC034627
:10404000FB73FFF7D6F80346002B04D0FB7B002B55
:1040500001D0012300E00023002B01D0FB7B8EE385
:104060007968794807F0A2FC0346FB73FFF7C1F8B3
:104070000346002B04D0FB7B002B01D0012300E082
:104080000023002B01D0FB7B79E379686F4807F0B0
:104090009FFC0346FB73FFF7ACF80346002B04D0EC
:1040A000FB7B002B01D0012300E00023002B01D07B
:1040B000FB7B64E37968664807F09CFC0346FB736E
:1040C000FFF797F80346002B04D0FB7B002B01D0B1
:1040D000012300E00023002B01D0FB7B4FE3796834
:1040E0005C4807F099FC0346FB73FFF782F8034630
:1040F000002B04D0FB7B002B01D0012300E0002328
:10410000002B01D0FB7B3AE37968534807F096FC1B
:104110000346FB73FFF76DF80346002B04D0FB7BCF
:10412000002B01D0012300E00023002B01D0FB7BFA
:1041300025E37968494807F093FC0346FB73FFF7D2
:1041400058F80346002B04D0FB7B002B01D0012341
:1041500000E00023002B01D0FB7B10E3796840488E
:1041600007F090FC0346FB73FFF743F80346002B70
:1041700004D0FB7B002B01D0012300E00023002BA7
:1041800001D0FB7BFBE27968364807F08DFC0346E3
:10419000FB73FFF72EF80346002B04D0FB7B002BAC
:1041A00001D0012300E00023002B01D0FB7BE6E2DD
:1041B00079682D4807F08AFC0346FB73FFF719F86E
:1041C0000346002B04D0FB7B002B01D0012300E031
:1041D0000023002B01D0FB7BD1E27968234807F054
:1041E00087FC0346FB73FFF704F80346002B04D05B
:1041F000FB7B002B01D0012300E00023002B01D02A
:10420000FB7BBCE279681A4807F084FC0346FB7329
:10421000FEF7EFFF0346002B04D0FB7B002B01D001
:10422000012300E00023002B24D0FB7BA7E200BF8A
:10423000E4470020FC47002000480020EC47002015
:10424000F04700206C04002098490020B44800206A
:10425000BC480020CC48002074490020944900202C
:10426000580000200C490020780000201049002050
:10427000344800207968B24807F05EFC0346FB73BF
:10428000FEF7B7FF0346002B04D0FB7B002B01D0C9
:10429000012300E00023002B01D0FB7B6FE2796853
:1042A000A84807F05BFC0346FB73FEF7A2FF03463A
:1042B000002B04D0FB7B002B01D0012300E0002366
:1042C000002B01D0FB7B5AE279689F4807F058FC2D
:1042D0000346FB73FEF78DFF0346002B04D0FB7BE8
:1042E000002B01D0012300E00023002B01D0FB7B39
:1042F00045E27968954807F055FC0346FB73FEF7E5
:1043000078FF0346002B04D0FB7B002B01D0012358
:1043100000E00023002B01D0FB7B30E279688C4861
:1043200007F052FC0346FB73FEF763FF0346002BC6
:1043300004D0FB7B002B01D0012300E00023002BE5
:1043400001D0FB7B1BE27968824807F04FFC0346F3
:10435000FB73FEF74EFF0346002B04D0FB7B002BC4
:1043600001D0012300E00023002B01D0FB7B06E2FB
:104370007968794807F04CFC0346FB73FEF739FF78
:104380000346002B04D0FB7B002B01D0012300E06F
:104390000023002B01D0FB7BF1E179686F4807F027
:1043A00049FC0346FB73FEF724FF0346002B04D0B1
:1043B000FB7B002B01D0012300E00023002B01D068
:1043C000FB7BDCE17968664807F046FC0346FB733B
:1043D000FEF70FFF0346002B04D0FB7B002B01D020
:1043E000012300E00023002B01D0FB7BC7E17968AB
:1043F0005C4807F043FC0346FB73FEF7FAFE0346F6
:10440000002B04D0FB7B002B01D0012300E0002314
:10441000002B01D0FB7BB2E17968534807F040FCE8
:104420000346FB73FEF7E5FE0346002B04D0FB7B3F
:10443000002B01D0012300E00023002B01D0FB7BE7
:104440009DE17968494807F03DFC0346FB73FEF7A0
:10445000D0FE0346002B04D0FB7B002B01D00123B0
:1044600000E00023002B01D0FB7B88E17968404805
:1044700007F028FC0346FB73FEF7BBFE0346002B48
:1044800004D0FB7B002B01D0012300E00023002B94
:1044900001D0FB7B73E17968364807F013FC0346D3
:1044A000FB73FEF7A6FE0346002B04D0FB7B002B1C
:1044B00001D0012300E00023002B01D0FB7B5EE153
:1044C00079682D4807F0FEFB0346FB73FEF791FE6B
:1044D0000346002B04D0FB7B002B01D0012300E01E
:1044E0000023002B01D0FB7B49E17968234807F0CA
:1044F000E9FB0346FB73FEF77CFE0346002B04D06A
:10450000FB7B002B01D0012300E00023002B01D016
:10451000FB7B34E179681A4807F0D4FB0346FB7350
:10452000FEF767FE0346002B04D0FB7B002B01D077
:10453000012300E00023002B24D0FB7B1FE100BF00
:104540001449002014000020244800204C000020C2
:10455000A849002050480020EC050020F805002064
:10456000644800206C4800205C4800207004002053
:10457000780400208004002088040020900400209B
:10458000980400207968804807F09CFB0346FB7381
:10459000FEF72FFE0346002B04D0FB7B002B01D03F
:1045A000012300E00023002B01D0FB7BE7E07968CA
:1045B000764807F099FB0346FB73FEF71AFE0346A5
:1045C000002B04D0FB7B002B01D0012300E0002353
:1045D000002B01D0FB7BD2E079686D4807F096FB99
:1045E0000346FB73FEF705FE0346002B04D0FB7B5E
:1045F000002B01D0012300E00023002B01D0FB7B26
:10460000BDE07968634807F093FB0346FB73FEF750
:10461000F0FD0346002B04D0FB7B002B01D00123CF
:1046200000E00023002B01D0FB7BA8E079685A480A
:1046300007F090FB0346FB73FEF7DBFD0346002B00
:1046400004D0FB7B002B01D0012300E00023002BD2
:1046500001D0FB7B93E07968504807F08DFB03465F
:10466000FB73FEF7C6FD0346002B04D0FB7B002B3B
:1046700001D0012300E00023002B01D0FB7B7EE072
:104680007968474807F08AFB0346FB73FEF7B1FDE4
:104690000346002B04D0FB7B002B01D0012300E05C
:1046A0000023002B01D0FB7B69E079683D4807F0CF
:1046B00087FB0346FB73FEF79CFD0346002B04D0EB
:1046C000FB7B002B01D0012300E00023002B01D055
:1046D000FB7B54E07968344807F084FB0346FB73A6
:1046E000FEF787FD0346002B04D0FB7B002B01D097
:1046F000012300E00023002B01D0FB7B3FE0796821
:104700002A4807F081FB0346FB73FEF772FD034660
:10471000002B04D0FB7B002B01D0012300E0002301
:10472000002B01D0FB7B2AE07968214807F07EFB53
:104730000346FB73FEF75DFD0346002B04D0FB7BB5
:10474000002B01D0012300E00023002B01D0FB7BD4
:1047500015E07968174807F07BFB0346FB73FEF70B
:1047600048FD0346002B04D0FB7B002B01D0012326
:1047700000E00023002B01D0FB7B00E0FB7B184610
:104780001037BD4680BD00BFA00400205448002063
:10479000844800207C480020904800209848002051
:1047A0004C480020C4480020A8480020AC48002005
:1047B000C8480020C048002080B582B000AFB4488F
:1047C00007F058FB0346FB71FEF727FD0346002B5D
:1047D00004D0FB79002B01D0012300E00023002B43
:1047E00001D0FB79CDE3AB4807F054FB0346FB71E6
:1047F000FEF713FD0346002B04D0FB79002B01D0FC
:10480000012300E00023002B01D0FB79B9E3A2488B
:1048100007F050FB0346FB71FEF7FFFC0346002B3D
:1048200004D0FB79002B01D0012300E00023002BF2
:1048300001D0FB79A5E3994807F04CFB0346FB71D7
:10484000FEF7EBFC0346002B04D0FB79002B01D0D4
:10485000012300E00023002B01D0FB7991E3904875
:1048600007F048FB0346FB71FEF7D7FC0346002B1D
:1048700004D0FB79002B01D0012300E00023002BA2
:1048800001D0FB797DE3874807F044FB0346FB71C9
:10489000FEF7C3FC0346002B04D0FB79002B01D0AC
:1048A000012300E00023002B01D0FB7969E37E485F
:1048B00007F040FB0346FB71FEF7AFFC0346002BFD
:1048C00004D0FB79002B01D0012300E00023002B52
:1048D00001D0FB7955E3754807F03CFB0346FB71BB
:1048E000FEF79BFC0346002B04D0FB79002B01D084
:1048F000012300E00023002B01D0FB7941E36C4849
:1049000007F038FB0346FB71FEF787FC0346002BDC
:1049100004D0FB79002B01D0012300E00023002B01
:1049200001D0FB792DE3634807F034FB0346FB71AC
:10493000FEF773FC0346002B04D0FB79002B01D05B
:10494000012300E00023002B01D0FB7919E35A4832
:1049500007F030FB0346FB71FEF75FFC0346002BBC
:1049600004D0FB79002B01D0012300E00023002BB1
:1049700001D0FB7905E3514807F02CFB0346FB719E
:10498000FEF74BFC0346002B04D0FB79002B01D033
:10499000012300E00023002B01D0FB79F1E248481D
:1049A00007F028FB0346FB71FEF737FC0346002B9C
:1049B00004D0FB79002B01D0012300E00023002B61
:1049C00001D0FB79DDE23F4807F024FB0346FB7191
:1049D000FEF723FC0346002B04D0FB79002B01D00B
:1049E000012300E00023002B01D0FB79C9E2364807
:1049F00007F020FB0346FB71FEF70FFC0346002B7C
:104A000004D0FB79002B01D0012300E00023002B10
:104A100001D0FB79B5E22D4807F01CFB0346FB7182
:104A2000FEF7FBFB0346002B04D0FB79002B01D0E3
:104A3000012300E00023002B01D0FB79A1E22448F0
:104A400007F018FB0346FB71FEF7E7FB0346002B5C
:104A500004D0FB79002B01D0012300E00023002BC0
:104A600001D0FB798DE21B4807F014FB0346FB7174
:104A7000FEF7D3FB0346002B04D0FB79002B01D0BB
:104A8000012300E00023002B26D0FB7979E200BF50
:104A9000E4470020FC47002000480020EC470020AD
:104AA000F04700206C04002098490020B448002002
:104AB000BC480020CC4800207449002094490020C4
:104AC000580000200C4900207800002010490020E8
:104AD0003448002014490020B34807F0EBFA03469D
:104AE000FB71FEF79AFB0346002B04D0FB79002BE9
:104AF00001D0012300E00023002B01D0FB7940E22C
:104B0000AA4807F0E7FA0346FB71FEF786FB034667
:104B1000002B04D0FB79002B01D0012300E00023FF
:104B2000002B01D0FB792CE2A14807F0E3FA034601
:104B3000FB71FEF772FB0346002B04D0FB79002BC0
:104B400001D0012300E00023002B01D0FB7918E203
:104B5000984807F0DFFA0346FB71FEF75EFB034659
:104B6000002B04D0FB79002B01D0012300E00023AF
:104B7000002B01D0FB7904E28F4807F0DBFA0346F3
:104B8000FB71FEF74AFB0346002B04D0FB79002B98
:104B900001D0012300E00023002B01D0FB79F0E1DC
:104BA000864807F0D7FA0346FB71FEF736FB03464B
:104BB000002B04D0FB79002B01D0012300E000235F
:104BC000002B01D0FB79DCE17D4807F0D3FA0346E6
:104BD000FB71FEF722FB0346002B04D0FB79002B70
:104BE00001D0012300E00023002B01D0FB79C8E1B4
:104BF000744807F0CFFA0346FB71FEF70EFB03463D
:104C0000002B04D0FB79002B01D0012300E000230E
:104C1000002B01D0FB79B4E16B4807F0CBFA0346D7
:104C2000FB71FEF7FAFA0346002B04D0FB79002B48
:104C300001D0012300E00023002B01D0FB79A0E18B
:104C4000624807F0C7FA0346FB71FEF7E6FA03462F
:104C5000002B04D0FB79002B01D0012300E00023BE
:104C6000002B01D0FB798CE1594807F0C3FA0346C9
:104C7000FB71FEF7D2FA0346002B04D0FB79002B20
:104C800001D0012300E00023002B01D0FB7978E163
:104C9000504807F0AFFA0346FB71FEF7BEFA034631
:104CA000002B04D0FB79002B01D0012300E000236E
:104CB000002B01D0FB7964E1474807F09BFA0346DB
:104CC000FB71FEF7AAFA0346002B04D0FB79002BF8
:104CD00001D0012300E00023002B01D0FB7950E13B
:104CE0003E4807F087FA0346FB71FEF796FA034643
:104CF000002B04D0FB79002B01D0012300E000231E
:104D0000002B01D0FB793CE1354807F073FA0346EC
:104D1000FB71FEF782FA0346002B04D0FB79002BCF
:104D200001D0012300E00023002B01D0FB7928E112
:104D30002C4807F05FFA0346FB71FEF76EFA034654
:104D4000002B04D0FB79002B01D0012300E00023CD
:104D5000002B01D0FB7914E1234807F04BFA0346FE
:104D6000FB71FEF75AFA0346002B04D0FB79002BA7
:104D700001D0012300E00023002B01D0FB7900E1EA
:104D80001A4807F047FA0346FB71FEF746FA034656
:104D9000002B04D0FB79002B01D0012300E000237D
:104DA000002B25D0FB79ECE01400002024480020E3
:104DB0004C000020A849002050480020EC050020AD
:104DC000F8050020644800206C4800205C48002062
:104DD0007004002078040020800400208804002053
:104DE0009004002098040020A004002054480020D3
:104DF000664807F01FFA0346FB71FEF70EFA0346FA
:104E0000002B04D0FB79002B01D0012300E000230C
:104E1000002B01D0FB79B4E05D4807F01BFA034694
:104E2000FB71FEF7FAF90346002B04D0FB79002B47
:104E300001D0012300E00023002B01D0FB79A0E08A
:104E4000544807F017FA0346FB71FEF7E6F90346EC
:104E5000002B04D0FB79002B01D0012300E00023BC
:104E6000002B01D0FB798CE04B4807F013FA034686
:104E7000FB71FEF7D2F90346002B04D0FB79002B1F
:104E800001D0012300E00023002B01D0FB7978E062
:104E9000424807F00FFA0346FB71FEF7BEF90346DE
:104EA000002B04D0FB79002B01D0012300E000236C
:104EB000002B01D0FB7964E0394807F00BFA034678
:104EC000FB71FEF7AAF90346002B04D0FB79002BF7
:104ED00001D0012300E00023002B01D0FB7950E03A
:104EE000304807F007FA0346FB71FEF796F90346D0
:104EF000002B04D0FB79002B01D0012300E000231C
:104F0000002B01D0FB793CE0274807F003FA034669
:104F1000FB71FEF782F90346002B04D0FB79002BCE
:104F200001D0012300E00023002B01D0FB7928E011
:104F30001E4807F0FFF90346FB71FEF76EF90346C2
:104F4000002B04D0FB79002B01D0012300E00023CB
:104F5000002B01D0FB7914E0154807F0FBF903465C
:104F6000FB71FEF75AF90346002B04D0FB79002BA6
:104F700001D0012300E00023002B01D0FB7900E0E9
:104F8000FB7918460837BD4680BD00BF8448002025
:104F90007C48002090480020984800204C48002081
:104FA000C4480020A8480020AC480020C848002081
:104FB000C048002080B582B000AFB44807F0DAF9ED
:104FC0000346FB71FEF737F90346002B04D0FB794B
:104FD000002B01D0012300E00023002B01D0FB793E
:104FE000CDE3AB4807F0D6F90346FB71FEF723F992
:104FF0000346002B04D0FB79002B01D0012300E0F5
:105000000023002B01D0FB79B9E3A24807F0D2F9C5
:105010000346FB71FEF70FF90346002B04D0FB7922
:10502000002B01D0012300E00023002B01D0FB79ED
:10503000A5E3994807F0CEF90346FB71FEF7FBF8AC
:105040000346002B04D0FB79002B01D0012300E0A4
:105050000023002B01D0FB7991E3904807F0CAF9B7
:105060000346FB71FEF7E7F80346002B04D0FB79FB
:10507000002B01D0012300E00023002B01D0FB799D
:105080007DE3874807F0C6F90346FB71FEF7D3F8C6
:105090000346002B04D0FB79002B01D0012300E054
:1050A0000023002B01D0FB7969E37E4807F0C2F9A9
:1050B0000346FB71FEF7BFF80346002B04D0FB79D3
:1050C000002B01D0012300E00023002B01D0FB794D
:1050D00055E3754807F0BEF90346FB71FEF7ABF8E0
:1050E0000346002B04D0FB79002B01D0012300E004
:1050F0000023002B01D0FB7941E36C4807F0BAF99B
:105100000346FB71FEF797F80346002B04D0FB79AA
:10511000002B01D0012300E00023002B01D0FB79FC
:105120002DE3634807F0B6F90346FB71FEF783F8F9
:105130000346002B04D0FB79002B01D0012300E0B3
:105140000023002B01D0FB7919E35A4807F0B2F98C
:105150000346FB71FEF76FF80346002B04D0FB7982
:10516000002B01D0012300E00023002B01D0FB79AC
:1051700005E3514807F0AEF90346FB71FEF75BF813
:105180000346002B04D0FB79002B01D0012300E063
:105190000023002B01D0FB79F1E2484807F0AAF97F
:1051A0000346FB71FEF747F80346002B04D0FB795A
:1051B000002B01D0012300E00023002B01D0FB795C
:1051C000DDE23F4807F0A6F90346FB71FEF733F82E
:1051D0000346002B04D0FB79002B01D0012300E013
:1051E0000023002B01D0FB79C9E2364807F0A2F971
:1051F0000346FB71FEF71FF80346002B04D0FB7932
:10520000002B01D0012300E00023002B01D0FB790B
:10521000B5E22D4807F09EF90346FB71FEF70BF847
:105220000346002B04D0FB79002B01D0012300E0C2
:105230000023002B01D0FB79A1E2244807F09AF962
:105240000346FB71FDF7F7FF0346002B04D0FB7903
:10525000002B01D0012300E00023002B01D0FB79BB
:105260008DE21B4807F096F90346FB71FDF7E3FF5B
:105270000346002B04D0FB79002B01D0012300E072
:105280000023002B26D0FB7979E200BFE447002001
:10529000FC47002000480020EC470020F047002099
:1052A0006C04002098490020B4480020BC4800202D
:1052B000CC48002074490020944900205800002068
:1052C0000C490020780000201049002034480020BC
:1052D00014490020B34807F06DF90346FB71FDF750
:1052E000AAFF0346002B04D0FB79002B01D0012339
:1052F00000E00023002B01D0FB7940E2AA4807F030
:1053000069F90346FB71FDF796FF0346002B04D0B5
:10531000FB79002B01D0012300E00023002B01D0FA
:10532000FB792CE2A14807F065F90346FB71FDF714
:1053300082FF0346002B04D0FB79002B01D0012310
:1053400000E00023002B01D0FB7918E2984807F019
:1053500061F90346FB71FDF76EFF0346002B04D095
:10536000FB79002B01D0012300E00023002B01D0AA
:10537000FB7904E28F4807F05DF90346FB71FDF706
:105380005AFF0346002B04D0FB79002B01D00123E8
:1053900000E00023002B01D0FB79F0E1864807F004
:1053A00059F90346FB71FDF746FF0346002B04D075
:1053B000FB79002B01D0012300E00023002B01D05A
:1053C000FB79DCE17D4807F055F90346FB71FDF7F9
:1053D00032FF0346002B04D0FB79002B01D00123C0
:1053E00000E00023002B01D0FB79C8E1744807F0EE
:1053F00051F90346FB71FDF71EFF0346002B04D055
:10540000FB79002B01D0012300E00023002B01D009
:10541000FB79B4E16B4807F04DF90346FB71FDF7EA
:105420000AFF0346002B04D0FB79002B01D0012397
:1054300000E00023002B01D0FB79A0E1624807F0D7
:1054400049F90346FB71FDF7F6FE0346002B04D035
:10545000FB79002B01D0012300E00023002B01D0B9
:10546000FB798CE1594807F045F90346FB71FDF7DC
:10547000E2FE0346002B04D0FB79002B01D0012370
:1054800000E00023002B01D0FB7978E1504807F0C1
:1054900031F90346FB71FDF7CEFE0346002B04D025
:1054A000FB79002B01D0012300E00023002B01D069
:1054B000FB7964E1474807F01DF90346FB71FDF7EE
:1054C000BAFE0346002B04D0FB79002B01D0012348
:1054D00000E00023002B01D0FB7950E13E4807F0AB
:1054E00009F90346FB71FDF7A6FE0346002B04D025
:1054F000FB79002B01D0012300E00023002B01D019
:10550000FB793CE1354807F0F5F80346FB71FDF700
:1055100092FE0346002B04D0FB79002B01D001231F
:1055200000E00023002B01D0FB7928E12C4807F094
:10553000E1F80346FB71FDF77EFE0346002B04D025
:10554000FB79002B01D0012300E00023002B01D0C8
:10555000FB7914E1234807F0CDF80346FB71FDF712
:105560006AFE0346002B04D0FB79002B01D00123F7
:1055700000E00023002B01D0FB7900E11A4807F07E
:10558000C9F80346FB71FDF756FE0346002B04D015
:10559000FB79002B01D0012300E00023002B25D054
:1055A000FB79ECE014000020244800204C0000208F
:1055B000A849002050480020EC050020F8050020F4
:1055C000644800206C4800205C48002070040020E3
:1055D000780400208004002088040020900400202B
:1055E00098040020A004002054480020664807F0DA
:1055F000A1F80346FB71FDF71EFE0346002B04D005
:10560000FB79002B01D0012300E00023002B01D007
:10561000FB79B4E05D4807F09DF80346FB71FDF7A8
:105620000AFE0346002B04D0FB79002B01D0012396
:1056300000E00023002B01D0FB79A0E0544807F0E4
:1056400099F80346FB71FDF7F6FD0346002B04D0E5
:10565000FB79002B01D0012300E00023002B01D0B7
:10566000FB798CE04B4807F095F80346FB71FDF79A
:10567000E2FD0346002B04D0FB79002B01D001236F
:1056800000E00023002B01D0FB7978E0424807F0CE
:1056900091F80346FB71FDF7CEFD0346002B04D0C5
:1056A000FB79002B01D0012300E00023002B01D067
:1056B000FB7964E0394807F08DF80346FB71FDF78C
:1056C000BAFD0346002B04D0FB79002B01D0012347
:1056D00000E00023002B01D0FB7950E0304807F0B8
:1056E00089F80346FB71FDF7A6FD0346002B04D0A5
:1056F000FB79002B01D0012300E00023002B01D017
:10570000FB793CE0274807F085F80346FB71FDF77D
:1057100092FD0346002B04D0FB79002B01D001231E
:1057200000E00023002B01D0FB7928E01E4807F0A1
:1057300081F80346FB71FDF77EFD0346002B04D084
:10574000FB79002B01D0012300E00023002B01D0C6
:10575000FB7914E0154807F07DF80346FB71FDF76F
:105760006AFD0346002B04D0FB79002B01D00123F6
:1057700000E00023002B01D0FB7900E0FB79184604
:105780000837BD4680BD00BF844800207C4800200B
:1057900090480020984800204C480020C448002031
:1057A000A8480020AC480020C8480020C04800207D
:1057B00080B584B000AF78607968B24807F05AF8D5
:1057C0000346FB73FDF745FD0346002B04D0FB7B2E
:1057D000002B01D0012300E00023002B01D0FB7B34
:1057E000F7E37968A84807F057F80346FB73FDF71D
:1057F00030FD0346002B04D0FB7B002B01D001239E
:1058000000E00023002B01D0FB7BE2E379689F4896
:1058100007F054F80346FB73FDF71BFD0346002B0E
:1058200004D0FB7B002B01D0012300E00023002BE0
:1058300001D0FB7BCDE37968954807F051F803462A
:10584000FB73FDF706FD0346002B04D0FB7B002B0A
:1058500001D0012300E00023002B01D0FB7BB8E343
:1058600079688C4807F04EF80346FB73FDF7F1FCAE
:105870000346002B04D0FB7B002B01D0012300E06A
:105880000023002B01D0FB7BA3E37968824807F05B
:105890004BF80346FB73FDF7DCFC0346002B04D0FA
:1058A000FB7B002B01D0012300E00023002B01D063
:1058B000FB7B8EE37968794807F048F80346FB7371
:1058C000FDF7C7FC0346002B04D0FB7B002B01D067
:1058D000012300E00023002B01D0FB7B79E37968F2
:1058E0006F4807F045F80346FB73FDF7B2FC03462B
:1058F000002B04D0FB7B002B01D0012300E0002310
:10590000002B01D0FB7B64E37968664807F042F81E
:105910000346FB73FDF79DFC0346002B04D0FB7B85
:10592000002B01D0012300E00023002B01D0FB7BE2
:105930004FE379685C4807F03FF80346FB73FDF7D7
:1059400088FC0346002B04D0FB7B002B01D00123F5
:1059500000E00023002B01D0FB7B3AE37968534839
:1059600007F03CF80346FB73FDF773FC0346002B7E
:1059700004D0FB7B002B01D0012300E00023002B8F
:1059800001D0FB7B25E37968494807F039F80346E5
:10599000FB73FDF75EFC0346002B04D0FB7B002B62
:1059A00001D0012300E00023002B01D0FB7B10E39A
:1059B0007968404807F036F80346FB73FDF749FC69
:1059C0000346002B04D0FB7B002B01D0012300E019
:1059D0000023002B01D0FB7BFBE27968364807F0FF
:1059E00033F80346FB73FDF734FC0346002B04D069
:1059F000FB7B002B01D0012300E00023002B01D012
:105A0000FB7BE6E279682D4807F030F80346FB732C
:105A1000FDF71FFC0346002B04D0FB7B002B01D0BD
:105A2000012300E00023002B01D0FB7BD1E2796849
:105A3000234807F02DF80346FB73FDF70AFC0346E5
:105A4000002B04D0FB7B002B01D0012300E00023BE
:105A5000002B01D0FB7BBCE279681A4807F02AF8DA
:105A60000346FB73FDF7F5FB0346002B04D0FB7BDD
:105A7000002B01D0012300E00023002B24D0FB7B6E
:105A8000A7E200BFE4470020FC47002000480020B8
:105A9000EC470020F04700206C04002098490020CB
:105AA000B4480020BC480020CC48002074490020A5
:105AB00094490020580000200C4900207800002064
:105AC00010490020344800207968B24807F004F8F3
:105AD0000346FB73FDF7BDFB0346002B04D0FB7BA5
:105AE000002B01D0012300E00023002B01D0FB7B21
:105AF0006FE27968A84807F001F80346FB73FDF7E9
:105B0000A8FB0346002B04D0FB7B002B01D0012314
:105B100000E00023002B01D0FB7B5AE279689F480C
:105B200006F0FEFF0346FB73FDF793FB0346002BD5
:105B300004D0FB7B002B01D0012300E00023002BCD
:105B400001D0FB7B45E27968954806F0FBFF0346F0
:105B5000FB73FDF77EFB0346002B04D0FB7B002B81
:105B600001D0012300E00023002B01D0FB7B30E2B9
:105B700079688C4806F0F8FF0346FB73FDF769FB74
:105B80000346002B04D0FB7B002B01D0012300E057
:105B90000023002B01D0FB7B1BE27968824806F0D2
