:020000040800F2
:100000000080012027160008E3060008E10600082A
:10001000E1060008E1060008E10600080000000013
:10002000000000000000000000000000E3060008DF
:10003000E306000800000000E3060008E3060008ED
:10004000E1060008E1060008E1060008E1060008F4
:10005000E1060008E1060008E1060008E1060008E4
:10006000E1060008E1060008E1060008E1060008D4
:10007000E1060008E1060008E1060008E1060008C4
:10008000E1060008E1060008E1060008E1060008B4
:10009000E1060008E1060008E1060008E1060008A4
:1000A000E1060008E1060008E1060008E106000894
:1000B000E1060008E1060008E1060008E106000884
:1000C000E1060008E1060008E1060008E106000874
:1000D000E1060008E1060008E1060008E106000864
:1000E000E1060008E1060008E1060008E106000854
:1000F000E1060008E1060008E1060008E106000844
:10010000E1060008E1060008E1060008E106000833
:10011000E1060008E1060008E1060008E106000823
:10012000E1060008E1060008E1060008E106000813
:10013000E1060008E1060008E1060008E106000803
:10014000E1060008E1060008E1060008E1060008F3
:100150000138FDD17047012838B571F1000305461B
:100160000C461BDB0322002301F07CFC511E1943CB
:1001700009D0023A1A4308D0042D74F1000407DBB9
:10018000BDE83840E4E700BFF6E700BF00BFF3E793
:1001900000BF00BF00BF00BF00BF00BF38BD044BA1
:1001A00004481B68184000F16043584258417047AA
:1001B000002000080000FE2F38B5054D04462B78BE
:1001C000834202D06B6803B198472C7038BD00BFE2
:1001D0001800002038B5094D04462B7A834202D01E
:1001E000EB6803B198473CB92B780A2B02D1022067
:1001F000FFF7E2FF2C7238BD0A20F9E71800002053
:100200000620D9E74FF0E023014AC3F80C2DFEE7A2
:100210000400FA0510B5084C236933B198472075DE
:1002200028B9BDE810400A20D4E701232375062031
:10023000BDE81040C0E700BF18000020044B5B7D04
:100240002BB14FF0E023034AC3F80C2DFEE77047B3
:10025000180000200400FA0510B5487801280AD1DA
:100260008C88022C09D14988012906D104491160E2
:1002700037221A8010BD0220FCE70020FAE700BFF9
:10028000001E00084878212810D1087810F01F00BF
:100290000ED1898804290CD1064911601A88282AB0
:1002A00001D80120704728221A80FAE702207047FF
:1002B00000207047381E0008074B084AB3F8E017C3
:1002C000B1F5007FD36884BFD06C034303F03503DE
:1002D000DB07F5D4704700BF00F0FF1F002002408D
:1002E0002DE9F04300264FF00F089C46036847684D
:1002F0004CFA06F414F0010F06F1010E1DD0072E82
:1003000094BF9946B946B4B24FEA84048ABF203CF0
:10031000A4B2A4B208FA04F529EA0509A51C02FA58
:1003200005F501FA04F42C43072E44EA090405D824
:10033000234676463C462746DAE73C467646102E6C
:10034000F9D103604460BDE8F083D0F8E0301B6968
:10035000184710B5012200210446FFF7F6FF0023DD
:1003600084F8303010BDF8B50368B0F84020458FF0
:10037000DB79AD1A9D42A8BF1D46C16BD0F8E030B5
:10038000AEB21F6A0A44334600210446B84786428B
:1003900005D02046FFF7DDFF4FF0FF30F8BDB4F881
:1003A0004030A8B21E44A4F84060F7E708B5898839
:1003B0000022C9B2FFF7C9FF012008BD08B589882E
:1003C0000122C9B2FFF7C1FF012008BD70B51C466C
:1003D0000D23C27E5A4343680D3A13441D798A881F
:1003E000954219D9D3F80950160105EB02124B8832
:1003F00012799A4210D9AA5952B11370D0F8DC3050
:1004000013B14A888988984700230120238070BD52
:10041000002BF3D01046FAE70020F8E730B50D25A1
:10042000C47E40686C430D3C20448D880479A5420D
:100430000CD201241C808B88D0F809001B011B58AA
:1004400003B11B7801201268137030BD0020FCE757
:100450002DE9F74F05460C46064600F1200900F14C
:100460003C0700F1400A00F14408D6F84CB023786C
:10047000BBF1000F05D1237813F0600018D00020E5
:1004800013E096F8511096F850200B409A4203D092
:1004900008364E45E9D1EEE753463A46214628460E
:1004A000CDF80080D8470128F2D803B0BDE8F08F1E
:1004B00003F01F03012B2FD0022B3AD0002BF4D1D5
:1004C0006378092BDBD801A252F823F0F504000869
:1004D0007F0400087F0400087F0400087F040008F0
:1004E00011050008150500087F040008090500082B
:1004F0000D050008184E53463A4621462846B44694
:1005000003B0BDE8F04F6047144EF4E7144EF2E735
:10051000144EF0E7144EEEE763780A2B05D00B2B50
:1005200005D0002BC1D1114EE5E7114EE3E7114E86
:10053000E1E76378012B05D0032B08D0002BB4D161
:100540000D4ED8E76388002BAFD10C4ED3E76388FC
:10055000002BAAD10A4ECEE7AF050008C705000858
:10056000E905000885050008FD1200086706000877
:100570001D040008CD0300087F060008AD03000835
:10058000BD03000808B50B787BB949887F2907D8D7
:10059000D0F8E030C9B2817693F8302012B9012347
:1005A000184608BD5B689847F9E70023F8E7198803
:1005B0000120022984BF02211980002311680B70D9
:1005C0001268537070471988012984BF012119806E
:1005D000C37E11682BB142680D2000FB032313F882
:1005E000083C01200B707047F8B50D464988044659
:1005F000E1B103680D26587C0023984201D8002001
:10060000F8BD626806FB0322577901338F42F4D1AB
:10061000E376002318461179994208D9D2F80910D7
:100620001E01715801B108700133F4E7C176D4F8A6
:10063000E0302046DB689847D4F8CC300BB9012075
:10064000DEE7002304F1C806E3646365E3656366DF
:1006500004F1D80756F8043F13B12046698898473B
:10066000BE42F7D1EBE719880120022984BF02219D
:100670001980002311680B7012685370704710B511
:1006800014461A88022A84BF02221A808988D0F868
:10069000E030C9B29B699847003818BF012000229A
:1006A00023681870236801205A7010BD094A0A484F
:1006B000D36943F40003D3610022084BC3F8402CF4
:1006C000C3F8502CC3F8442C4FF41C42C3F8402C00
:1006D000704700BF00100240300000200050004072
:1006E000FEE77047024B41F08001C3F84C1C704795
:1006F00000500040F7B54FF0C0644D4D0DF1080CAF
:10070000CDE9005401F07F05AC0004F1804404F50C
:10071000B84426680CEB420226F4E04626F07F0639
:100720002E43B6B22660266832F8082C26F4EC4632
:1007300026F07006164349B2B6B200292660089F1B
:100740004FEAC50613DB95B1DFF8E8C0818BDCF812
:10075000502CDFF8E4E092B2324452003E2B4EF8C7
:10076000021033D801335B085A0092B236E0314AA6
:10077000B0F81CC0D2F8502C92B23244520002F1B0
:10078000804202F5C042C2F800C01FB10C2202FB39
:100790000502D76622689C4422F4E04222F030022F
:1007A0001204120C22602268002922F4E04222F096
:1007B000400292B282F0200242F4004242F08002F3
:1007C0002260A0F81CC0BFDA03B0F0BD5A1EC2F30D
:1007D000441302F47872203243F02003DCF850CC4A
:1007E0009B021FFA8CFC6644DFF850C076009BB277
:1007F0004CF806301FB10C2303FB05052F67236857
:10080000114423F4415323F030031B041B0C2360D9
:10081000236823F4804323F070039BB283F4405396
:1008200043F4004343F0800323608183CCE700BF9F
:100830000002000400500040086000400C600040CE
:1008400048F2800170B50B4A0B4E0C4D0C4C1368EE
:1008500033400B439BB2136013682B400B439BB296
:1008600042F8043BA242F2D10368DB7920335B00FB
:10087000838370BD045C0040BF8FFFFF8FBFFFFF0D
:10088000205C004010B500293ED1334C48F2800076
:10089000D4F8003C23F4E04323F040039BB202BBB6
:1008A00083F020031843C4F8000C4FF44052890031
:1008B00001F1804101F5B8410B6823F4415323F065
:1008C00030031B041B0C0B600B6823F4804323F0E4
:1008D00070039BB2534043F4004343F080030B602A
:1008E00030E083F010031843C4F8000C890001F1D4
:1008F000804101F5B8410B684FF4805223F48043E6
:1009000023F070039BB2E5E70B0621D501F07F03CE
:100910009B0003F1804303F5B843196848F2800057
:1009200021F4E04121F0400189B262B981F0200157
:10093000084318601A6822F4E04222F030021204E0
:10094000120C1A6010BD81F0100108431860F9E71D
:10095000002ACBD1A9E700BF005000400B060ED5FE
:1009600001F07F01890001F1804101F5B84108687B
:1009700000F03000102814BF0020012070478900CB
:1009800001F1804101F5B841086800F44050B0F52C
:10099000805FF0E70B0614D40C4B0D480B44890024
:1009A00001F1804183F8202101F5B8410B68034033
:1009B0009BB23AB183F4005343F4004343F0800305
:1009C0000B60704783F44053F6E700BF1800002027
:1009D0008FBFFFFFF0B501F07F06B40004F1804443
:1009E00004F5B8441846236803F03003302B31D0A7
:1009F000194DF300D5F8501C89B201EBC60149002E
:100A000001F1804101F5C0410988461C490001F10E
:100A10008041761001F5C04102EB4606B24214D186
:100A2000D5F8502C92B213440C4A5B00D050226887
:100A300022F4E04222F0400292B282F0300242F40C
:100A4000004242F080022260F0BD32F8027B41F8A1
:100A5000047BE3E70020F7E700500040046000401B
:100A600018468B0003F1804303F5B843F0B51C68CA
:100A700004F44054B4F5405F4ED0284F284ED7F8C8
:100A8000504CCD00A4B204EBC10464003459C4F34B
:100A90000904844207DAD7F8500C80B22844400099
:100AA0003058C0F309001D4C00F00107D4F8504C39
:100AB000A4B225441B4C6D00645B4508640004F13E
:100AC000804404F5C044264602EB450C62451ED125
:100AD00017B114F8254014701A6822F0F0021205BC
:100AE000120D42F080021A600F4A0A4492F8202147
:100AF00062B91A6822F4804222F0700292B282F443
:100B0000405242F4004242F080021A60F0BD36F8D2
:100B100004EB22F802EBD9E70020F7E70050004091
:100B20000C6000400860004018000020434B73B583
:100B3000D3F8446C044671051DD54FF6FF32C3F857
:100B4000442C4023002583830368D0F8E0204583AC
:100B5000DB790095294696682A46B047D4F8E030FC
:100B600029465B6820469847236A002B4AD002B08A
:100B7000BDE87040184732041CD506F00F018D0007
:100B800005F1804505F5B84516F010022B683BD0FD
:100B90001B0541D500F134020823FFF761FF022253
:100BA00001EB4103134404EB8303DB6E002B35D0D0
:100BB00020469847320507D54FF2FF721F4BC3F806
:100BC000442C636A03B19847F30407D54EF6FF72CD
:100BD0001A4BC3F8442CA36A03B1984716F4007F5C
:100BE000E36A164D05D04FF6FF52C5F8442CF3B119
:100BF0009847E36ADBB1114AD2F8403C43F40073F2
:100C0000C2F8403C02B070BD23F0F0031B051B0D81
:100C100043F400432B60C3E70122C1E72B6823F0B4
:100C2000F0031B051B0D43F080032B60C2E7D5F8D2
:100C3000403C23F40073C5F8403CE3E7005000401B
:100C4000D0F8E0300A465B690021184740F20143C2
:100C500010B5254AD2F81844A40703D5013B9BB22E
:100C6000002BF7D1D2F8003443F48073C2F800347B
:100C700040F201431C4AD2F81444E40707D5D2F8E5
:100C80001844E40703D5D2F81844A40703D4013B61
:100C90009BB2002BEFD1B023134AC2F8103440F2BC
:100CA0000143D2F81444A40703D4013B9BB2002BA8
:100CB000F7D1D2F818340C4A014410F8013BC2F8BD
:100CC000103440F20143D2F81444640703D4013BCA
:100CD0009BB2002BF7D18842EFD1D2F8003443F415
:100CE0000073C2F8003410BD00500040032337B534
:100CF0000421054668460093FFF7A8FF002111482C
:100D0000FFF729FA0423104C8DF8003022788DF873
:100D100001209DB14FF47F43ADF80230002305213F
:100D200068468DF80430FFF791FF23780133DBB27A
:100D3000042B28BF0023237003B030BDFF23ADF880
:100D40000250ECE77A320200000000202DE9F84F53
:100D5000604E614C614BD6F82855636003F18833CF
:100D60006360D6F82C3505F1006505F5005523F0D4
:100D70000103DFF86CB15B4F03EB050906F5947ACC
:100D80004D4513D10120FFF7B1FF534A05201369E8
:100D900043F080031361D6F82835D6F82C25134488
:100DA000C6F82835BDE8F84FFFF706BAB5F1016F70
:100DB0000CD30020FFF79AFF474A0720136943F03E
:100DC00080031361BDE8F84FFFF704BAD6F8303559
:100DD0009D4203D2D6F834359D4226D205EA0B084F
:100DE00008F50063C6F83035C6F83485FFF764FAB5
:100DF000B7F8E037B3F5007F3ED93B4B98453BD978
:100E0000236D43F002032365C4F85480236D43F03F
:100E100040032365FFF750FAB7F8E037B3F5007FDA
:100E20003ED9236D23F002032365BAF80080FFF753
:100E300043FAB7F8E037B3F5007F36D92A4B9D4225
:100E400033D9236D43F001032365A5F80080FFF734
:100E500033FAB7F8E037B3F5007F36D9236D23F0C6
:100E600001032365BAF8003002354345C6F834550E
:100E70009FD10AF1020A83E7236943F00203236149
:100E8000C4F81480236943F040032361FFF714FA88
:100E9000B7F8E037B3F5007F02D9134B9845BFE7A9
:100EA000236923F002032361BFE7236943F00103B1
:100EB0002361A5F80080FFF7FFF9B7F8E037B3F535
:100EC000007F02D9084B9D42C7E7236923F0010345
:100ED0002361C7E718000020002002402301674576
:100EE00000F8FFFF00F0FF1FFFFF07081346D0F8D0
:100EF000E02010B4D4690A46A446002110BC604723
:100F000010B503680446DA79B0F84030C16B9A42F4
:100F10000FD2FFF7EBFF022384F830302368DA7931
:100F2000E36B1344E363B4F840309B1AA4F84030F9
:100F300010BD1A46FFF7DAFF94F84830C3F10303F7
:100F400084F83030002384F84830A4F84030E3635C
:100F5000EEE710B590F830300446032B06D0042B92
:100F60000BD0022B20D1BDE81040C9E7072380F841
:100F700030300021BDE8104062E6436C13B100F14F
:100F80003401984794F8343053B994F83530052B30
:100F900006D1E18ED4F8E03020465B68C9B29847AC
:100FA000002384F8303010BDBDE81040FFF7D1B900
:100FB00038B543690446C3638B79CA790D4643EA61
:100FC0000223A0F84030FFF743FAF8B1EA88AAB14B
:100FD000B4F8403021689A42C9790DD933B1B3FBD6
:100FE000F1F201FB1233B3FA83F35B09204684F874
:100FF0004830BDE8384083E70023F7E71146204634
:10100000FFF774FF042384F8303038BD2046BDE874
:101010003840FFF79EB970B50025044601214564AC
:1010200000F13406FFF70CFE628F22B931462046EC
:10103000BDE87040BCE794F93430002BF6DB238B1D
:10104000934204D22046BDE87040FFF782B963693D
:10105000A4F84050E36323682946DB792046934295
:101060002CBF0623052384F83030BDE87040E7E547
:1010700038B590F830300446062B13D0072B27D014
:10108000052B21D1FFF76FF900280ADBB4F84020C7
:10109000638F9B1A2268D279934202DC062384F87C
:1010A000303038BDFFF75FF90028FADB204604F145
:1010B0003401FFF7CDF930B1002220461146FFF789
:1010C00015FF0423EBE72046BDE83840FFF741B9A0
:1010D000D0F8E0301D6A00231A461946A8470023BD
:1010E00084F83030636C1BB1204604F1340198471A
:1010F00000236364D5E7002310B500F1C80252F85D
:10110000044F2CB18C4202D00133042BF7D110BD17
:1011100000EB8300C0F8CC10F9E770B5002400F1B3
:101120004C0555F834601EB10134042CF9D170BD62
:1011300000EBC40080F8501080F85120C364F6E73B
:101140007F2208B52121034BFFF7E7FF0122024B65
:101150005A7508BD75110008180000207F22402133
:10116000004BDAE75902000860224021004BD4E727
:10117000850200082DE9F0411F468B88064614467B
:10118000DDF81880002B40F0AC804B78062B00F285
:101190009E80DFE803F09A39760D35046B00524AE1
:1011A000236812781A7001233B800120BDE8F0818A
:1011B0004D4D24682B78032B03D0062B13D000232E
:1011C00006E00420FEF7F8FF484BC8F8003064231F
:1011D000637000232A7AA37022702A78E370637107
:1011E00022710623E0E72B7D1BB10220FEF7E4FF0E
:1011F000E5E70720FEF7E0FF3D4BC8F80030DEE7EB
:101200000020FEF7E7FFD0E7374D2B78022B0ED0FA
:10121000052BCAD1CA882AB3216805F59470C5F890
:101220002C2500F008FC0320FEF7C6FFBDE7CF88A1
:101230007FB100263A46216805F59470C5F8286507
:10124000C5F82C7500F0F7FB0320FEF7B5FF2E75EF
:10125000ABE70F20FEF7BEFF012239463046FFF70D
:1012600074F8A2E7234BC8F800309EE71E4B1A78AB
:10127000092A9AD84FF41B73D340DB0795D5022077
:10128000D2E7194E3378022B1BD0092B8DD1CD8894
:10129000D6F82835EA18B2F57E2F85BFC3F560432E
:1012A000022009209DB2FEF787FFD6F828253D8051
:1012B00002F1006303F5005315442360C6F8285576
:1012C00073E70023C6F82835E1E70B4BCBE70F2087
:1012D000FEF780FF304601220021FFF736F800209C
:1012E00064E7022062E700BF180000204D0D0008EF
:1012F0001502000801020008050200082DE9F04F60
:101300001D464B8817461A0A032A89B000F032811D
:1013100005D8012A28D0022A32D000202DE00F2A39
:10132000FBD18468002CF8D0D0F814902E88C7F830
:10133000009027784FF0000AB74228BF3746214671
:101340003A46484600F077FBF61B94F800B009EBEC
:101350000703B6B221791FFA8AF2914200F2EC80BB
:10136000A9F802B02F8007E003682A883B601B7849
:10137000934228BF13462B80012009B0BDE8F08FAF
:101380004269DBB23A6003920D2202FB03F7D0F808
:1013900004802C8818F8076008EB0703A64228BFD2
:1013A0002646194632460398059300F044FB002276
:1013B000039BA41B18F807703344A4B20292059A49
:1013C0001179BDF80820914203D8039B5F802E80DD
:1013D000D2E7029A029912010692059AD2F80920E0
:1013E00002EB0112D2F80890B9F1000F15D099F86C
:1013F00000801846A04528BFA0464946424600F056
:101400001AFB034699F80020A4EB080443443A442D
:10141000B044A4B21FFA88F697B200220492059A4B
:101420000699D2F809200A441079BDF810108842B4
:1014300002D8029A0132C1E715200499D2F80C9023
:1014400000FB01F819F808A009EB0802A24528BF23
:10145000A2461846019209EB0801524600F0EBFA49
:10146000034619F80820A4EB0A043A4497B2019AFB
:101470005344D2F80D10B244A4B21FFA8AF6B9B19F
:10148000D2F811901846A145A8BFA1461FFA89F8C5
:10149000424600F0D0FA0346019AA4EB0804D2F8C1
:1014A000112043443A44B044A4B21FFA88F697B2DC
:1014B0004FF00008019A11791FFA88F2914202D880
:1014C000049A0132AAE7019AC8EB081AD2F809B0C7
:1014D00018461BF80A200BEB0A09A24228BF224635
:1014E0004946079200F0A7FA0346079AD9F8071071
:1014F000A41A1344324496B21BF80A20A4B23A4408
:1015000097B2B1B1D9F80BB01846A345A8BFA3460E
:101510001FFA8BFA524600F08EFA0346D9F80B20D8
:10152000A4EB0A0453443A44B244A4B21FFA8AF624
:1015300097B208F10108BDE7D4F80520184652F823
:101540002A100AF1010A91F800800191B04528BFE4
:10155000B046424600F06FFA03460199A6EB080632
:101560000A7843445A44B844B6B21FFA88F71FFABF
:1015700082FBEFE613F0FF0346690DD10923B37038
:101580000423F37033702B88042B28BF04232B8093
:10159000032373703E60EFE6D0F8E4209A4219D13D
:1015A000D0F8E840204600F054FA01304000C0B2C4
:1015B00030702B88834228BF03462B8000232A8863
:1015C0005208013A9A42E3DDE15C06EB43025180A6
:1015D0000133F4E7C468013B002C3FF49EAE02697E
:1015E0009A427FF79AAE40F20942898891427FF48D
:1015F00094AE54F82340204600F02BFA013040000E
:10160000C0B230702B88834228BF03462B80002352
:101610002A885208013A9A42BADDE15C06EB43029D
:1016200051800133F4E780B5BE4BBF4ABF4990B04B
:101630008B42C0F06F810021BD4A9342C0F06F81A0
:101640004FF0E022D2F8143DBA4C43F40073BA4D87
:10165000C2F8143DAC42C0F09F81B84CB84DAC42CA
:10166000C0F09E81B74C236843F0010323602368D8
:101670009907FCD56368B44A23F003036360636889
:1016800023F0F0036360636843F44043636063687E
:1016900023F4E06343F480636360636823F460537E
:1016A0006360636843F480036360136823F0070397
:1016B00043F001031360636823F4701343F42013B1
:1016C0006360636823F480336360236843F080734E
:1016D000236023689A01FCD5002163689B4823F0AE
:1016E000030343F002036360A369022243F004038F
:1016F000A361A369964D43F00803A3614FF48043AF
:10170000FEF7EEFD0A464FF400430121FEF7E8FD27
:101710004FF40043C5F8103C4FF08043C5F8103C2F
:101720004FF08073A0F58060C5F810384FF48073D7
:10173000FEF7D6FD874900BF0139FCD1D5F8083C3A
:101740005B0404D4FEF72BFD002840F02D8100231C
:101750008DF82430804B04AA03F110061546186852
:101760005968083303C5B3422A46F7D11B7809A844
:101770002B707A4B0146D3F8F0270192D3F8EC276F
:1017800002920022D3F8E837039310AB03EB620315
:1017900013F83C3C10AD05EB131503F00F03403379
:1017A0006B4415F8305C13F8303C0232182A05708F
:1017B000437000F10200E8D10026694FDFF89091F4
:1017C00007F5A76000F024F987F850652369DFF872
:1017D000948143F4000323612369634923F40003E4
:1017E00023614FF48073C9F81038FEF75FFF08F1EA
:1017F0003403036008F14603436008F15303836038
:101800005A4B0546C3600423036107F252534361F8
:101810004FF480630383564BC0E933664367554BEF
:10182000C0E935660367544BC0F8E080C366534B8C
:10183000C0F8E8603B61524B7E600362FE60FFF7D8
:101840005AFC022328464F493B703E72FFF753FC77
:10185000EE23C5F8E43008F15C0328464A49C5F890
:10186000E830FFF748FC602240212846474BFFF74D
:1018700054FC01224FF4007311463448FEF730FD4A
:101880004FF0007300214248C9F8103CFEF763FC9A
:10189000E3692E4843F40013E361236943F4001322
:1018A0002361236923F4001323613A4BD3F8002406
:1018B00022F00102C3F80024D3F8042422F03F02EE
:1018C00092B242F03002C3F80424D3F81C2422F46C
:1018D0000042C3F81C24D3F81C2402F4704242F0E6
:1018E000F002C3F81C243122C3F82024D3F80024CA
:1018F00042F00102C3F800240322C0231146FEF780
:10190000EFFC3046FFF7F2F9D5F8E03028465B6A85
:101910009847F9E752F8040B43F8040B88E643F8BC
:10192000041B8AE600000020141F00081800002095
:101930006C0900200C1F00080C1F00080C1F000879
:101940000C1F00080010024000200240000C014063
:101950000000014000F91500C01D000800F0FF1F45
:1019600018000020601E000841110008040000203B
:101970001710000871100008530F00089F0100089D
:101980003D0200085D110008691100088502000889
:101990007A8D5B000050004054F8043B984759E6AC
:1019A00054F8043B98475AE64FF0E0234FF40052B6
:1019B000C3F8082D012213484FF48043FEF790FC32
:1019C0004FF40043FEF78CFC2368134323606268E6
:1019D0000D4B13406360236823F0847323F480333A
:1019E0002360236823F480232360636823F4FE03C9
:1019F0006360064BA1601A6882F308885B689847A9
:101A0000FEE700BF000C01400000FFF800200008C6
:101A1000034610B5013932B111F8014F013A03F80C
:101A2000014B002CF7D100211A44934200D110BD84
:101A300003F8011BF9E70A44914200F1FF3300D19A
:101A4000704710B511F8014B914203F8014FF9D1DD
:101A500010BD034613F8012B002AFBD1181A0138D8
:101A6000704700007BB972B90029BEBF00204FF05B
:101A7000004106E008BF00281CBF6FF000414FF096
:101A8000FF3000F09BB9ADF1080C6DE904CE0029E0
:101A900009DB002B1ADB00F035F8DDF804E0DDE9A6
:101AA000022304B07047404261EB4101002B1BDB75
:101AB00000F028F8DDF804E0DDE9022304B040423C
:101AC00061EB4101524263EB43037047524263EBC7
:101AD000430300F017F8DDF804E0DDE9022304B069
:101AE000404261EB41017047524263EB430300F017
:101AF00009F8DDF804E0DDE9022304B0524263EBAB
:101B0000430370472DE9F047089D0C46002B4ED14A
:101B100094468C458646B2FA82F262D94AB1C2F145
:101B20002003914020FA03F30CFA02FC194300FA57
:101B300002FE4FEA1C47B1FBF7F407FB14111FFA32
:101B40008CF64FEA1E4343EA014304FB06F1994237
:101B50000AD91CEB030304F1FF3080F01081994295
:101B600040F20D81023C6344591AB1FBF7F007FBC8
:101B7000101100FB06F61FFA8EF343EA01439E4262
:101B80000AD91CEB030300F1FF3180F0FA809E427A
:101B900040F2F7806344023800219B1B40EA044076
:101BA0001DB1D3400022C5E90032BDE8F0878B4269
:101BB00005D90DB1C5E9000100210846F5E7B3FAE2
:101BC00083F1002946D1A34202D39042C0F0EE80B7
:101BD000861A64EB03030120002DE6D0C5E90063FB
:101BE000E3E7002A40F08F80A1EB0C0401214FEACB
:101BF0001C481FFA8CF7B4FBF8F608FB164407FBE9
:101C000006F04FEA1E4343EA0443984208D91CEB0E
:101C1000030306F1FF3402D2984200F2CB8026463D
:101C20001C1AB4FBF8F008FB104400FB07F71FFA7E
:101C30008EF343EA04439F4208D91CEB030300F1EF
:101C4000FF3402D29F4200F2AE802046DB1B40EA06
:101C50000640A5E7C1F120078B4022FA07FC4CEAB9
:101C6000030C24FA07F64FEA1C49B6FBF9F81FFAF1
:101C70008CFE09FB186620FA07F38C4000FA01FA83
:101C800008FB0EF01C43230C43EA0643984202FA79
:101C900001F20AD91CEB030308F1FF3680F08180C2
:101CA00098427ED9A8F1020863441E1AB6FBF9F3E4
:101CB00009FB136603FB0EFEA4B244EA0644A645E4
:101CC00008D91CEB040403F1FF3066D2A64564D9A1
:101CD000023B644443EA0840A0FB0283A4EB0E04E9
:101CE0009C42C6461E4650D34DD055B1BAEB0E03AA
:101CF00064EB060404FA07F7CB401F43CC40C5E968
:101D00000074002151E70CFA02FCC2F12003D94013
:101D10004FEA1C4820FA03F300FA02FEB1FBF8F088
:101D200008FB101194401C431FFA8CF7230C43EA64
:101D3000014300FB07F1994208D91CEB030300F1B2
:101D4000FF362CD299422AD9023863445B1AB3FB7E
:101D5000F8F108FB1133A4B244EA034401FB07F392
:101D6000A34208D91CEB040401F1FF3613D2A342AD
:101D700011D902396444E41A41EA00413BE70446C0
:101D8000F2E6084608E7C245AFD2B8EB020E63EBB5
:101D90000C060138A9E73146EDE703469AE73046DD
:101DA000D4E7B04681E7634402384FE7064623464E
:101DB000084611E7023E634432E700BF704700BFA8
:101DC0003031323334353637383941424344454671
:101DD000004B6579626F617264696F004D6F646575
:101DE0006C203130302028426F6F746C6F616465F5
:101DF000722900444150426F6F74204446550000E0
:101E00003703016466752E6B6579626F6172642EAB
:101E1000696F3F7669643D3078333439363B706999
:101E2000643D3078303030353B76657273696F6E63
:101E30003D36666265376600280000000001040038
:101E40000100000000000000000157494E555342B8
:101E50000000000000000000000000000000000082
:101E6000AD060008E5060008F50600084108000870
:101E700085080008950900085D090008D5090008D3
:101E8000610A00082D0B000800000000000000009F
:101E9000000000001201100200000040963405000E
:101EA00011010102030109020000010100C032FC1E
:101EB0001E0008050F1D0001140000204D5346545C
:101EC0003130302100092107FF00000410011810F3
:101ED000050038B60834A909A0478BFDA0768815FF
:101EE000B665000101010904000000FE01020400C2
:101EF000000000C51E000809000000006A0900205B
:0C1F00000100000000000000E61E0008C8
:081F0C0046FBFF7F010000000D
:101F140003000000D11D0008DC1D0008500500204E
:081F2400F31D0008CE1E0008A9
:0400000508001627B2
:00000001FF
