:101C000013C022C021C020C01FC01EC01DC01CC0E8
:101C10001BC01AC019C018C017C016C015C014C008
:101C200013C012C011C010C011241FBECFEFD2E0EC
:101C3000DEBFCDBF21E0A0E0B1E001C01D92A33422
:101C4000B207E1F7F4D0D5C1DBCFE0E0F1E08FEFF0
:101C5000819391E0E034F907D9F70895E3E0F0E0EB
:101C6000E491A0E0B1E01396EC931397E2E0F0E08A
:101C7000E4911296EC931297E1E0F0E0E491119672
:101C8000EC931197F0E0E0E0E491EC9308959C016F
:101C9000A0E0B1E090E080E061E011965C911197E6
:101CA0004C9107B600FCFDCFF901E80FF91F0A01BE
:101CB00060935700E895112402961296803491059E
:101CC00061F707B600FCFDCF85E0F901809357006E
:101CD000E895089584E98093BC000895803849F020
:101CE00084E88093BC008091BC0087FFFCCFA8955E
:101CF000089584ECF6CF0F931F93CF938C01C62FDA
:101D0000862FECDF8091B9008C1731F0E3DF80E0A3
:101D1000CF911F910F9108959091BB00F80190838E
:101D2000883819F484E88093BC0081E0F1CFCF9328
:101D3000DF9300D0CDB7DEB760E8CE010196DBDFE0
:101D400060E8CE010296D7DF9A8189810F900F90CB
:101D5000DF91CF9108958093BB0080E8BFDF809131
:101D6000B900883B09F0B6CF089583B193B1817073
:101D70009270892B880F806A8093BA0084E48093E4
:101D8000BC0008958627682F62956827062E669501
:101D900066956025062E669560256770082E892F4A
:101DA000669507946795902D8627069467959025EC
:101DB00086270895DF92EF92FF920F931F93CF93A0
:101DC000DF9387B7982F9170E92E80FF0BC082DFD9
:101DD000E12C8E2DDF91CF911F910F91FF90EF900D
:101DE000DF900895F0904001CF2DD0E084E0CC0F3B
:101DF000DD1F8A95E1F7C050DF4F0FEF1FEFDC2E9C
:101E000080E1D80E60E8CE0176DF882311F3699176
:101E1000C801B8DF8C01DC12F5CF89DF801791078C
:101E2000C1F6F394F0924001EE24E394D2CF00D0B7
:101E3000CDB7DEB787B1886887B980E888B91AB8A6
:101E40008FEF8BB984B714BEEFE0F7E23197F1F76B
:101E500000C0000083FDC0C04F9B02C04899BCC0B9
:101E600088E199E20FB6F894A895809360000FBEC0
:101E7000909360007ADF88E1982E99E2792E23E032
:101E8000822EF12CE12C38E0632ECC24CA94DC2C79
:101E900080E824DF0FB6F894A895909260000FBEFA
:101EA000709260008091B900803629F0883A09F478
:101EB00089C010DFEDCF60E8CE0102961CDF8823D9
:101EC00039F38A81833009F456C0E8F4813009F48B
:101ED00040C0823071F781E491E06CDF60E88823D4
:101EE00009F445C080914001843009F03FC0009161
:101EF000410110914201007C0115110599F5AEDEFA
:101F0000C801C5DE33C0843009F43EC0863089F68E
:101F10000EDF8C010CDF5801A80EB91EA114E0E2FF
:101F2000BE0608F0B5CFD0924201C09241010A1519
:101F30001B0508F0ADCFF8016491809141019091AB
:101F4000420120DF90934201809341010F5F1F4FB8
:101F5000EECF1092400179DEEADE90934201809349
:101F6000410196CF0115FCE11F0750F268E8CE0150
:101F70000196C1DE8DCF0FB6F894A89590926000BF
:101F80000FBE60926000FFCF60DE68DE07B600FC27
:101F9000FDCFF70180925700E89590E080E077DE72
:101FA00080E490E074DEE0E4F0E007B600FCFDCFF2
:101FB00080925700E895E05CFF4FE1158CE1F8074F
:101FC000A1F766CF81E0C7DE80914101C4DE809138
:101FD0004201C1DECADE5CCF0FB6F894A8958091AD
:101FE0006000886180936000109260000FBE1CC08A
:061FF000FFCFF894FFCFC3
:0400000300001C00DD
:02000000FFCD32
:02000200FFCD30
:02000400FFCD2E
:02000600FFCD2C
:02000800FFCD2A
:02000A00FFCD28
:02000C00FFCD26
:02000E00FFCD24
:02001000FFCD22
:02001200FFCD20
:02001400FFCD1E
:02001600FFCD1C
:02001800FFCD1A
:02001A00FFCD18
:02001C00FFCD16
:02001E00FFCD14
:02002000FFCD12
:02002200FFCD10
:02002400FFCD0E
:02002600FFCD0C
:02002800FFCD0A
:00000001FF
