:107000005FC0000078C0000076C0000074C00000BF
:1070100072C0000070C000006EC000006CC00000B4
:107020006AC0000068C0000007C5000064C000001E
:1070300062C0000060C000005EC000005CC00000D4
:107040005AC00000E6C0000056C0000054C0000056
:1070500052C0000050C000004EC000004CC00000F4
:107060004AC0000048C0000046C0000044C0000004
:1070700042C0000040C000003EC000003CC0000014
:107080003AC0000038C0000036C0000034C0000024
:1070900032C0000030C000002EC000002CC0000034
:1070A0002AC0000028C0000026C000008B3EA43E7D
:1070B0004B3FA43E4B3FDC3EFE3E4B3F1E3F303F2E
:1070C00011241FBECFEFDAE0DEBFCDBF11E0A0E09C
:1070D000B1E0E0E2FFE702C005900D92AC3AB107E3
:1070E000D9F721E0ACEAB1E001C01D92AC3BB20798
:1070F000E1F740D313C784CF84E08093E900809107
:10710000E80085FD0DC08091E8008B778093E80052
:107110008091E80082FDF3CF8EB38111F9CF02C0D8
:107120008091F100089593E09093E9009091E80038
:1071300095FF03C08093F10008959091E8009E7739
:107140009093E8009091E80090FDF4CF9EB39111E8
:10715000F9CF089544E063E071E080EB6EC3CF9314
:10716000DF9300D000D01F92CDB7DEB784E08983D3
:10717000809102018695869586958A831B821C8262
:107180008FEF8D8345E0BE016F5F7F4F80EB55D35E
:107190000F900F900F900F900F90DF91CF91089567
:1071A000F89410926F001092810010928500109256
:1071B000840081E085BF15BE0C940000089584B75B
:1071C000877F84BF0FB6F894A8958091600088618E
:1071D00080936000109260000FBE90E880E00FB6D0
:1071E000F89490936100809361000FBE81E085BFA9
:1071F00082E085BFE1E6F0E0908310821092890082
:107200009AEF9093880080936F0083E080938100D1
:10721000FBC31F920F920FB60F9211242F938F93DF
:107220009F93EF93FF931092850010928400E0E00B
:10723000F0E085919491019649F08091AC01909194
:10724000AD0101969093AD018093AC01FF91EF9158
:107250009F918F912F910F900FBE0F901F901895B7
:1072600042E061EC82E065D342E161E883E061D312
:1072700042E160E884E05DC38091B401982F9F777C
:10728000913239F59091B501903291F0913209F532
:10729000813AF9F48091E800877F8093E80067E005
:1072A00070E087E091E079D48091E8008B770FC09F
:1072B000813279F48091E800877F8093E80067E06D
:1072C00070E087E091E0C6D48091E8008E778093EB
:1072D000E80008956F927F928F929F92AF92BF9233
:1072E000CF92DF92EF92FF920F931F93CF93DF9392
:1072F00084E08093E9008091E80082FF2CC2FCDEEC
:10730000C82F28DF2CDF809102018F5F809302015C
:10731000C53481F48CE393E79093AD018093AC0185
:1073200007B600FCFDCFF999FECF81E180935700AD
:10733000E89503C0C43521F4DFDE8DE0F4DEE2C160
:10734000CC34D9F3C035C9F3C43721F484E4EBDE7F
:1073500080E0F4CFC13611F489E5F0CFC13491F467
:10736000CBDEC82FC9DE90E0880F991F2C2F30E0AC
:10737000322F2227330F822B932B092E000CAA0BBE
:10738000BB0B94C1C03711F483E5D8CFC33549F4A2
:10739000C2EAD1E01C2F195F8991C5DE1C13FCCF16
:1073A000B1C1C63521F481E3BEDE80E3C7CFC33768
:1073B00031F487E8B8DE85E9B6DE8EE1BFCFC536A9
:1073C000B9F4E0E0F0E083E095E080935700E895C1
:1073D00007B600FCFDCF90935700E89507B600FC78
:1073E000FDCFE058FF4FE11520E7F20771F7A5CF79
:1073F000C23719F4E1E0F0E00EC0C63419F4E0E061
:10740000F0E009C0CE3419F4E3E0F0E004C0C13587
:1074100039F4E2E0F0E089E08093570084918ECF68
:10742000C23631F489E57FDE80E07DDE80E886CFFC
:10743000C23419F0C73609F0D1C01092AD011092D4
:10744000AC015ADE082F58DED82F56DE182F8BEBF2
:10745000810F823010F08FE371CF2D2F30E0302B71
:1074600010926F00C73609F043C081E18093570046
:10747000E895E90100E0BB24B394209709F4AAC081
:10748000C090AE01D090AF01E090B001F090B1019A
:107490001634B9F4E02FF0E0EC29FD29849143DEA5
:1074A000002369F082E0C80ED11CE11CF11CC092DF
:1074B000AE01D092AF01E092B001F092B1010B2584
:1074C00015C0D701C601B695A7959795879510D594
:1074D0002ADEE2E0CE0ED11CE11CF11CC092AE010E
:1074E000D092AF01E092B001F092B1012197C5CFE7
:1074F0008090AE019090AF01A090B001B090B1012A
:10750000163441F483E0F40180935700E89507B600
:1075100000FCFDCFE901712C00E066246394209704
:1075200009F44CC0163431F5002301F1C090AE01CE
:10753000D090AF01E090B001F090B101DDDD272DDA
:1075400030E0382BF601090160925700E8951124CC
:10755000F2E0CF0ED11CE11CF11CC092AE01D09222
:10756000AF01E092B001F092B10102C0C5DD782E0A
:10757000062522C0C1DD682F8091AE019091AF0138
:10758000A091B001B091B101B695A7959795879557
:10759000B7D48091AE019091AF01A091B001B091AC
:1075A000B1010296A11DB11D8093AE019093AF0170
:1075B000A093B001B093B1012197B1CF163441F43B
:1075C00085E0F40180935700E89507B600FCFDCFF5
:1075D0008DE0A9DD82E080936F0094C0C33471F424
:1075E000C091AE01D091AF0187DD90E021E0FE01B6
:1075F0000C0120935700E89511249FCEC33601F566
:10760000C090AE01D090AF01E090B001F090B10118
:1076100073DDF601E16090E021E00C01209357005A
:10762000E8951124F2E0CF0ED11CE11CF11CC092B0
:10763000AE01D092AF01E092B001F092B1017DCEE7
:10764000CD3661F4E091AE01F091AF0185E0809319
:107650005700E89507B600FCFDCF6FCEC23551F458
:10766000E091AE01F091AF01C591D4918D2F5BDD1A
:107670008C2F64CEC43419F53FDD682F8091AE01A4
:107680009091AF01A091B001B091B101B695A795CD
:107690009795879535D48091AE019091AF01A091D7
:1076A000B001B091B1010296A11DB11D8093AE0150
:1076B0009093AF01A093B001B093B1013ECEC43618
:1076C000F1F4C090AE01D090AF01E090B001F09025
:1076D000B101D701C601B695A7959795879508D4AE
:1076E00022DD22E0C20ED11CE11CF11CC092AE01D1
:1076F000D092AF01E092B001F092B10103C0CB3162
:1077000009F0A9CE83E08093E9009091E800809190
:10771000E8008E778093E80095FD11C08091E80025
:1077200080FD04C08EB38111F9CF15C08091E800AF
:107730008E778093E80003C08EB3882361F0809138
:10774000E80080FFF9CF84E08093E9008091E800B1
:107750008B778093E800DF91CF911F910F91FF907D
:10776000EF90DF90CF90BF90AF909F908F907F90E1
:107770006F900895CF938091000890910108109226
:10778000010810920008C4B714BE0FB6F894A8956B
:1077900080916000886180936000109260000FBE4D
:1077A00045D0D8DCE0E0F0E0859194910196D9F0E5
:1077B000C230C9F03E9A46988198809A899A8898F2
:1077C0008FE19EE40197F1F700C00000799B0AC0A9
:1077D0008FE39CE90197F1F700C00000799B02C09C
:1077E000469ADEDC469AEBDC78941092AD0110925A
:1077F000AC013F9A479A8091AC019091AD018033E2
:10780000954720F4ACDC66DD5CD3F5CF8FE99FE0D3
:107810000197F1F700C000008091E0008160809343
:10782000E000BEDC80E090E0CF91089584E080939A
:10783000BC0080E18093B8000895EFE9FFE0319744
:10784000F1F700C0000094EA9093BC009091BC0056
:1078500097FFFCCF9091B900983071F58E7F80939F
:10786000BB0084E88093BC008091BC0087FFFCCF04
:107870008091B900883101F54150FB0184E844232F
:1078800079F091919093BB008093BC009091BC00E3
:1078900097FFFCCF9091B900983271F44150EFCF2F
:1078A00080818093BB0084E88093BC008091BC0001
:1078B00087FFFCCF8091B90084E98093BC000895D4
:1078C000292F30E02230310559F02330310569F09D
:1078D0002130310531F582E190E020E931E025C029
:1078E0008EE390E022E531E020C0882359F081301A
:1078F00071F0823089F08330A1F48EE090E02EE0C8
:1079000031E013C084E090E02EE431E00EC084E169
:1079100090E028E331E009C088E190E02EE131E019
:1079200004C080E090E020E030E0FA013183208361
:1079300008958093E900EBEEF0E080818160808320
:10794000EDEEF0E010826093EC0040838091EE0059
:10795000881F8827881F08958091B40187FF0FC072
:107960008091E80082FD04C08EB38111F9CF10C070
:107970008091E8008B770AC08EB3882349F080910C
:10798000E80080FFF9CF8091E8008E778093E800CF
:1079900008950F931F93CF93DF9341D048D0C8ED44
:1079A000D0E088818F778883888180688883888108
:1079B0008F7D888319BC1EBA1092B20100EE10E0D0
:1079C000F80180818B7F808388818160888342E099
:1079D00060E080E0AEDFE1EEF0E080818E7F8083CA
:1079E000E2EEF0E080818160808380818860808326
:1079F000F80180818E7F8083888180618883DF9118
:107A0000CF911F910F910895E7EDF0E080818160A3
:107A100080838AE482BF81E08093B301BACFE8ED2E
:107A2000F0E080818E7F80831092E20008951092B2
:107A3000DA001092E10008951F920F920FB60F9294
:107A400011242F933F934F935F936F937F938F9363
:107A50009F93AF93BF93EF93FF938091DA0080FFE2
:107A60001BC08091D80080FF17C08091DA008E7F04
:107A70008093DA008091D90080FF0BC080E189BD3E
:107A800082E189BD09B400FEFDCF81E08EBB18D232
:107A900003C019BC1EBA14D28091E10080FF17C048
:107AA0008091E20080FF13C08091E2008E7F80937E
:107AB000E2008091E20080618093E2008091D80032
:107AC00080628093D80019BC85E08EBBF9D180918B
:107AD000E10084FF2CC08091E20084FF28C080E197
:107AE00089BD82E189BD09B400FEFDCF8091D80037
:107AF0008F7D8093D8008091E1008F7E8093E1009C
:107B00008091E2008F7E8093E2008091E2008160AC
:107B10008093E2008091B201811106C08091E30060
:107B200087FD02C081E001C084E08EBBC9D1809195
:107B3000E10083FF21C08091E20083FF1DC080919E
:107B4000E100877F8093E10082E08EBB1092B2015A
:107B50008091E1008E7F8093E1008091E2008E7F32
:107B60008093E2008091E20080618093E20042E035
:107B700060E080E0DEDEA4D1FF91EF91BF91AF9194
:107B80009F918F917F916F915F914F913F912F9135
:107B90000F900FBE0F901F9018952091BA01309151
:107BA000BB012617370748F06115710539F420919C
:107BB000E8002E772093E80001C0B90140E061158C
:107BC0007105A1F12EB3222309F440C0253009F438
:107BD0003FC02091E80023FD37C02091E80022FD3E
:107BE0002DC02091E80020FFEACF4091F3002091C2
:107BF000F20030E0342BFC01CF016115710559F022
:107C00002830310540F481918093F1006150710971
:107C10002F5F3F4FF1CF41E02830310509F040E0C0
:107C20002091E8002E772093E800C9CF4111CACFF8
:107C300005C08EB3882351F0853051F08091E80063
:107C400082FFF7CF80E0089581E0089582E00895F3
:107C500083E008956115710529F42091E8002B77E0
:107C60002093E800FC016115710531F18EB3882382
:107C700059F1853059F18091E80083FD23C080914E
:107C8000E80082FFF0CF2091F3008091F20090E0B5
:107C9000922B892B31F08091F10081936150710911
:107CA00091F78091E8008B778093E800DCCF8EB36A
:107CB000882351F0853051F08091E80080FFF7CFA4
:107CC00080E0089581E0089582E0089583E00895BA
:107CD0000F931F93CF93DF9300D0CDB7DEB7E4EBC4
:107CE000F1E088E08E0F9091F10091938E13FBCF1D
:107CF000C3DA8091E80083FFCEC08091B4019091F7
:107D0000B501492F50E04A30510508F0C4C0FA01CE
:107D1000EA5AF74CE7C0823809F0BDC08091B8013B
:107D200087708093E9008091EB001092E9009091B8
:107D3000E800977F9093E80085FB882780F980937F
:107D4000F1001092F10085C0282F2D7F09F0A3C00B
:107D5000823009F0A0C08091B601811127C08091C6
:107D6000B801877009F497C08093E9002091EB0077
:107D700020FF1CC0933021F48091EB00806214C07E
:107D80009091EB0090619093EB0021E030E0A9012D
:107D900002C0440F551F8A95E2F74093EA00109203
:107DA000EA008091EB0088608093EB001092E9007C
:107DB0008091E800877F50C081116DC01091B6019D
:107DC0001F770FB7F8948091E800877F8093E800D1
:107DD000C3DD8091E80080FFFCCF8091E3008078D4
:107DE000812B8093E30080688093E300111102C02F
:107DF00082E001C083E08EBB0FBF4DC0805882304F
:107E000008F049C0AE014F5F5F4F6091B8018091AB
:107E1000B6019091B70154DDBC01892B09F43BC038
:107E20009091E800977F9093E80089819A81B5DE70
:107E30008091E8008B778093E8002DC0803859F559
:107E40008091E800877F8093E8008091B201809361
:107E5000F1008091E8008E778093E8007DDD1BC003
:107E6000811119C09091B6019230A8F48091E80078
:107E7000877F8093E8009093B2016EDD8091B2011C
:107E8000811106C08091E30087FD02C081E001C03E
:107E900084E08EBBE5D98091E80083FF0AC0809121
:107EA000EB0080628093EB008091E800877F8093F5
:107EB000E8000F900F90DF91CF911F910F910895DF
:107EC0000895CF938EB3882359F0C091E900C7700D
:107ED0001092E9008091E80083FDFADEC093E9008A
:107EE000CF910895EE0FFF1F0590F491E02D0994B6
:107EF000F999FECF92BD81BDF89A992780B5089572
:107F0000262FF999FECF1FBA92BD81BD20BD0FB6B5
:107F1000F894FA9AF99A0FBE01960895F894FFCF53
:107F200077771803000000000000000000080E032F
:107F30006B00620069006F00300031000000180320
:107F40004B006500790062006F0061007200640000
:107F500069006F002000000014034D006F006400F2
:107F600065006C0020003000310020000000040398
:107F7000090409023E0002010080320904000001E8
:107F80000202010005240010010424020405240655
:107F90000001070582030800FF09040100020A002E
:107FA000000007050402100001070583021000010C
:107FB0001201100102000008091200230100020151
:0C7FC00003014341544552494E4100006A
:040000030000700089
:00000001FF
