:100000000C94D6020C94FE020C94FE020C94FE0298
:100010000C94FE020C94FE020C94FE020C94FE0260
:100020000C94FE020C94FE020C9408230C94902174
:100030000C94FE020C94FE020C94FE020C94FE0240
:100040000C94FE020C94FE020C94FE020C94FE0230
:100050000C94FE020C94FE020C94FE020C942B1CD9
:100060000C94FE020C94FE020C94FE020C94FE0210
:100070000C94FE020C94FE020C94FE020C94FE0200
:100080000C94FE020C94FE020C94FE020C94FE02F0
:100090000C94500A0C94FE020C94FE020C94FE0286
:1000A0000C94FE020C94FE020C94FE0234123812E0
:1000B000411246124B12511254125712736B65744F
:1000C00063683A76312E32323B6C69623A76312E71
:1000D0003232004B6579626F617264696F204D6FD7
:1000E00064656C203031202D204B616C6569646F34
:1000F00073636F70652000FFFF1E001F002000214A
:100100000022000049E000E40001602300240025F3
:1001100000260027000144350014001A00080015CD
:100120000017002B002A002C0028001C0018000CCF
:1001300000120013002E004B0004001600070009F7
:10014000000A002900E300E200E6000B000D000EAB
:10015000000F00330034004E001D001B0006001984
:100160000005002C44E100E5002C4411001000368D
:1001700000370038002D00FFFFFFFFFFFFFFFFFFEC
:10018000FFFFFFFFFFFFFFFFFF0060FFFF5F00605B
:100190000061005600FFFFFFFFFFFFFFFFFFFFFFB3
:1001A000FFFFFFFFFFFFFFFFFFFFFFFFFF5C005DA3
:1001B000005E005700FFFFFFFFFFFFFFFFFFFFFF95
:1001C000FFFFFFFFFFFFFFFFFFFFFFFFFF59005A89
:1001D000005B002E003400FFFFFFFFFFFFFFFFFF6B
:1001E000FFFFFFFFFFFFFFFFFFFFFFFFFF62006357
:1001F00000550054002800FFFF3A003B003C003D42
:10020000003E000000FFFFFFFFB6523F00400041EC
:10021000004200430044002B00FFFF0150FFFF425B
:1002200050605029504C002800CD52B5522F083054
:10023000082F00300045004A000450025008504189
:100240005025502A50FFFFFFFF650050005100521B
:10025000004F00FFFFFFFF4D0046004900FFFF4435
:10026000502650FFFFFFFFFFFFFFFFE24EEA56E977
:1002700056FFFF31003108000000000000000000C0
:10028000000000000000000000000000000000006E
:100290000000000101010101010101010101010151
:1002A0000202020202020202030303030303030425
:1002B00004040404050505050606060607070707E6
:1002C0000808080909090A0A0A0B0B0B0C0C0D0D8A
:1002D0000D0E0E0F0F10101111121213131414150E
:1002E00015161617181819191A1B1B1C1D1D1E1F71
:1002F000202021222323242526272728292A2B2CA6
:100300002D2E2F303132323334363738393A3B3CA8
:100310003D3E3F40424344454648494A4B4D4E4F7F
:10032000515253555657595A5C5D5F60626365661A
:1003300068696B6D6E7072737577787A7C7E7F8179
:10034000838587898A8C8E90929496989A9C9EA099
:10035000A2A4A7A9ABADAFB1B4B6B8BABDBFC1C472
:10036000C6C8CBCDD0D2D5D7DADCDFE1E4E7E9EC03
:10037000EFF1F4F7F9FCFF050C0901A10185041563
:100380000026FF0319002AFF03950475108100C0A1
:1003900005010906A1018508050719E029E71500EF
:1003A000250175019508810205081901290895089C
:1003B0007501910205077504950181011904293120
:1003C000150025017501952E8102750195018101A8
:1003D0001933299B15002501750195698102750165
:1003E00095018101199D29DD1500250175019541B2
:1003F0008102750295018101C005010902A10185F3
:1004000001050919012908150025019508750181C3
:100410000205010930093109381581257F750895D4
:10042000038106C005010980A1018505150026FF8D
:1004300000190029FF950175088100C00501090216
:10044000A101050919012908150025019508750163
:10045000810205010930093116000026FF7F751061
:100460009502810209381581257F7508950181065D
:10047000C01E083408200821082208240834002659
:1004800008270825082E0836002D003700380027D9
:10049000003308330036082E00370838081F082FAD
:1004A000003100300023082D0835002F08310830B6
:1004B0000835089F9FDFFB1FF197793FF11F171742
:1004C000F9F9996FF68F6939D311F1FD9BB99D9FA9
:1004D000F99F1F9FFD9FD73FFC6F6699F99969D9D6
:1004E000DF6996F966CFF356F496B4CFF8F9881F12
:1004F000FE16FF8F24D7EB9F8F96692E00080B0006
:1005000002020201000904000001020200000524A9
:10051000001001052401010104240206052406003F
:10052000010705810310004009040100020A0000D0
:100530000007050202400000070583024000001288
:10054000010002EF02014009120123000101020330
:100550000112010002000000400912012300010104
:100560000203014B6579626F617264696F004D6FC0
:1005700064656C203031000403090400B703C2062F
:100580007C09020CC10C2C0D890D4C0EE710F212E7
:1005900043145514A5151A163E167D16FE1613188B
:1005A00000197619621BAD1B281E860911241FBE77
:1005B000CFEFDAE0DEBFCDBF12E0A0E0B1E0EEE7C2
:1005C000F8E402C005900D92AE35B107D9F728E0E6
:1005D000AEE5B2E001C01D92A339B207E1F712E027
:1005E000C5EDD2E004C02197FE010E941824CE3B45
:1005F000D107C9F70E94BA230C9432240C9400004E
:10060000DC01ED91FC910190F081E02D09948823AB
:1006100019F0813091F026C061FF24C060FD22C036
:1006200063ED70E08DE296E00E94C5126CEB70E025
:100630008DE296E00E94C51215C061FF13C060FDF7
:100640000BC00E94751C24E230E040E050E00E94A4
:10065000F6236C5F6093600280916002909161026A
:100660000E94470780E090E00895CF938DE892E0E4
:100670000E94E8038DE696E00E94000388EE96E073
:100680000E94000381E396E00E94000388E696E062
:100690000E94000385E896E00E9400038AE796E046
:1006A0000E94000384E796E00E94000388E892E03D
:1006B0000E94000383E892E00E9400038EE792E02C
:1006C0000E94000389E792E00E94000384E792E021
:1006D0000E9400038FE692E00E9400038AE692E007
:1006E0000E94000382E796E00E94000388ED96E0F6
:1006F0000E94000380E996E00E9400038AE696E0EB
:100700000E9400038DE296E00E94000382E196E0E1
:100710000E940003C1E0C0936C068FEF809320011C
:10072000109221011092220166E985E896E00E946C
:10073000F81666E98AE796E00E94FB16809162024D
:10074000811106C08EE592E00E940D18C0936202EE
:100750008EE592E0909397068093960688E696E061
:10076000CF910C9493138DE892E00C940A0420E04E
:1007700040E060EA88E892E00E94301620E046E41B
:100780006CE883E892E00E94301620E044E662E8DC
:100790008EE792E00E94301620E040EA60E089E7B0
:1007A00092E00E94301622E846E460E084E792E09E
:1007B0000E9430162AEA40E060E08FE692E00E9454
:1007C000301628E740E062E88AE692E00C943016A2
:1007D000CF93DF9384E594E00E94B40783E895E02B
:1007E0000E94B70C20E04FEF6FEF80E090E00E9496
:1007F00082040E948505D0E0C0E06C2F8D2F0E94FE
:100800002D05CF5FC031C9F7DF5FD430A9F7DF9185
:10081000CF9108950F931F93CF93DF9384E594E0D6
:100820000E942409CEE8D2E08E01D801ED91FD911D
:100830008D01309719F080E00995F7CF0E943207BB
:100840000E94FC06E991F991309719F081E0099531
:10085000F9CFDF91CF911F910F910895EEE0F3E072
:1008600020E030E0419151914817590741F4220F9F
:10087000331FF901E25FFC4F7183608308952F5F9E
:100880003F4F2034310571F70895BC0180E090E0BE
:100890000C942E04EEE0F3E02191319128173907F2
:1008A00031F023E0EE38F207B9F70C9445040895CF
:1008B000EEE8F2E020E030E041915191481759070D
:1008C00041F4220F331FF901E257FD4F718360831A
:1008D00008952F5F3F4F2034310571F70895BC0113
:1008E00080E090E00C945804EEE8F2E02191319120
:1008F0002817390731F023E0EE30F207B9F70C94EE
:100900006F040895AF92BF92CF92DF92EF92FF9261
:100910000F931F93CF93DF93C62FD42F122F6C0109
:100920006430A0F5403190F5022F0170822F827063
:10093000B82E21FF02C0002321F0002331F0B110B6
:1009400004C06D2F8C2F0E942D054D2F6C2F84E538
:1009500094E00E944E09882359F0002309F45DC0F9
:10096000B1105BC04D2F6C2F84E594E00E942E09DE
:1009700017FD0CC090E1C99FF0011124ED0FF11D8E
:10098000EE0FFF1FE253FC4FC080D1808EE0A82EF7
:1009900083E0B82ED501ED91FD915D01212F4D2F02
:1009A0006C2FC601309741F009956C01E12CF12CB8
:1009B0008E159F0579F731C00E947106EC01892BD5
:1009C00061F1D6FF1DC0D7FD28C0D1FF0CC011FDBD
:1009D00024C010FF22C08C2F9D2F0E946F07CE01D4
:1009E0000E9475071AC0D0FF18C011FD16C010FF75
:1009F00014C0CE010E947B07CE010E9480070DC06B
:100A000011FF04C0CE010E94470707C010FF05C0B8
:100A100017FF03C0CE010E940007DF91CF911F9105
:100A20000F91FF90EF90DF90CF90BF90AF9008951F
:100A300070E0FB0194E0899FE00DF11D112484E03A
:100A4000EE0FFF1F8A95E1F7E40FF11DEE0FFF1F78
:100A5000E950FF4F859194910895CF93DF93462FEE
:100A600090E1899F90011124260F311DE901CC0FDF
:100A7000DD1FC253DC4FD901A257BC4FE0910601E4
:100A8000F0910701682F8C91099599838883DF91F4
:100A9000CF9108950F931F9340914F0450915004AC
:100AA00060915104709152048FE190E08A019B01A2
:100AB000082E04C036952795179507950A94D2F706
:100AC00000FF03C080934E0404C0019778F7109292
:100AD0004E041F910F9108950F931F9340914F045F
:100AE0005091500460915104709152048A019B010D
:100AF00004C036952795179507958A95D2F7D901A1
:100B0000C80181701F910F910895DF92EF92FF92BB
:100B10000F931F93CF93DF936091530470E040E4F1
:100B200050E08EE893E00E942B248EE8E82E83E0CC
:100B3000F82ED0E000E010E0D02EC0914E0480915D
:100B4000530490E02C2F0C2E000C330B82179307CC
:100B5000B4F48C2F0E946C05882379F0E091060193
:100B6000F09107014D2D6D2F8C2F0995019629F0DD
:100B7000F701E00FF11FC08302C0C150E0CF0F5F4B
:100B80001F4F00311105C1F6DF5F80E1E80EF11C57
:100B9000D43081F6DF91CF911F910F91FF90EF90AC
:100BA000DF900895FF920F931F93CF93DF931F92CF
:100BB000CDB7DEB7F82E0E946C0541E050E060E052
:100BC00070E00F2C04C0440F551F661F771F0A9456
:100BD000D2F700914F0410915004209151043091AC
:100BE0005204402B512B622B732B40934F04509394
:100BF0005004609351047093520490914E049F15D9
:100C000020F489830E944A058981811108C00F90D0
:100C1000DF91CF911F910F91FF900C9485050F905C
:100C2000DF91CF911F910F91FF90089510924F0483
:100C30001092500410925104109252040C94D20558
:100C4000FF920F931F93CF93DF931F92CDB7DEB721
:100C5000F82E0E946C0541E050E060E070E00F2C3F
:100C600004C0440F551F661F771F0A94D2F74095A2
:100C700050956095709500914F041091500420910B
:100C80005104309152044023512362237323409333
:100C90004F04509350046093510470935204909108
:100CA0004E04F91204C089830E944A058981882371
:100CB00041F00F90DF91CF911F910F91FF900C9415
:100CC00085050F90DF91CF911F910F91FF900895AF
:100CD00080914E048F5F0C94D20580914E040C9449
:100CE0002006CF93943409F043C0C82F822F82701E
:100CF000CA3248F1CA52C13289F0C232C9F42170F5
:100D0000882329F0211103C00E9468062AC02223EB
:100D100041F1811126C00E946D0623C021708823F5
:100D200011F02223C1F32223E1F081111AC0ECCF8C
:100D3000882331F08C2F0E946C05811112C014C0E1
:100D400020FD0CC00EC0882361F020FD0AC08C2F4E
:100D50000E946C05882341F0CC2331F08C2F0E9437
:100D6000200680E090E004C08C2F0E94D205F9CFCD
:100D7000CF910895CF93C82F0E941606C0935304B5
:100D8000CF91089580E00C94BA06CF93DF9300D002
:100D900000D000D0CDB7DEB7DC0113967C936E9304
:100DA000129715965C934E93149716963C9116974E
:100DB00039837B836A835D834C832E83ED91FC9121
:100DC0000190F081E02D46E050E0BE016F5F7F4F63
:100DD000099526960FB6F894DEBF0FBECDBFDF9102
:100DE000CF910895682F83E895E00C94610C682FEB
:100DF00083E895E00C94880C83E895E00C94B10CA2
:100E0000CF93DF93D82FC92F93FF04C081EE90E0DA
:100E10000E94F706C0FF04C080EE90E00E94F70633
:100E2000C1FF04C082EE90E00E94F706C2FF04C03A
:100E300086EE90E00E94F706C4FF04C083EE90E0C7
:100E40000E94F7068D2F9C2FDF91CF910C94F7060F
:100E5000682F83E895E00C94520C0E94920FFC01DD
:100E60008289089583E895E00C94300CCF93DF934A
:100E7000EC010E94F206CE010E942807811104C0F5
:100E8000DF91CF910C943207DF91CF910895CF93EA
:100E9000DF93D82FC92F93FF04C081EE90E00E940A
:100EA0003607C0FF04C080EE90E00E943607C1FF05
:100EB00004C082EE90E00E943607C2FF04C086EEB6
:100EC00090E00E943607C4FF04C083EE90E00E94C9
:100ED00036078D2F9C2FDF91CF910C94F206682F4F
:100EE00070E08DE695E00C94D50B682F70E08DE6F0
:100EF00095E00C94EE0B682F8AED95E00C94710D43
:100F00008AED95E00C946F0D8BEC95E00C94140D2C
:100F1000242F462F682F8BEC95E00C94F30C682F50
:100F20008BEC95E00C94210D682F8BEC95E00C94E4
:100F3000260DE3EEF5E0108A4685578564857585B4
:100F400020E08DEE95E00C94C506242FAB01BC018A
:100F50008DEE95E00C94C5063F9A479A08956E9AD7
:100F6000769824982C980895CF93DF93EC010FB6D0
:100F7000F894A89580916000886180936000109239
:100F800060000FBE64E670E080E090E00E94A61C66
:100F9000CE010E94AC07CE010E94AF0718821982D1
:100FA0001A821B821C821D821E821F828CE080930B
:100FB000B800DF91CF910895603250F470E0FB01EA
:100FC000EE0FFF1F6E0F7F1FFB01EA52FB4F0CC09D
:100FD000603470F470E060527109FB01EE0FFF1F86
:100FE000E60FF71FE459FB4F6081718182810895FC
:100FF00060E070E080E008950F931F93CF93DF933C
:10100000C62F8901D42F6032D8F40E94DC0790915A
:101010000801D81307C081E0171305C0061303C0E9
:1010200080E001C081E0892B809308016C2F70E083
:10103000FB01EE0FFF1FE60FF71FEA52FB4F1DC02B
:101040006034F0F40E94DC0790910801D81307C0C7
:1010500081E0171305C0061303C080E001C081E0E2
:10106000892B80930801EC2FF0E0B097CF01880F17
:10107000991FE80FF91FE459FB4F00831183D283B6
:10108000DF91CF911F910F9108950F931F93542FCC
:10109000422F980170E1679FF0011124E50FF11DC7
:1010A000EA5CFE4F60811F910F910C94FC078091C8
:1010B0000801882311F186ED94E00E94950B8CE6DF
:1010C00094E00E94950B86ED94E00E94950B8CE6CF
:1010D00094E00E94950B86ED94E00E94950B8CE6BF
:1010E00094E00E94950B86ED94E00E94950B8CE6AF
:1010F00094E00E94950B109208010895CF93DF931E
:10110000EC0188819981AA81BB8188879987AA8708
:10111000BB878C819D81AE81BF818C879D87AE8787
:10112000BF8786ED94E00E941E0B882341F086ED78
:1011300094E00E94510B688379838A839B838CE6B9
:1011400094E00E941E0B882341F08CE694E00E94FC
:10115000510B6C837D838E839F83DF91CF910895A4
:10116000AF92BF92DF92EF92FF920F931F93CF93B4
:10117000DF931F92CDB7DEB75C0130E0F12C87E042
:10118000E82E0FE010E0D12ED30EF5018081918181
:10119000A281B3810D2C04C0B695A795979587952C
:1011A0000A94D2F78170282F220F80859185A2851D
:1011B000B3850D2C04C0B695A795979587950A948D
:1011C000D2F78170282B4E2D411B6F2D80E090E0CF
:1011D00039830E948204F5014481558166817781BB
:1011E0000D2C04C076956795579547950A94D2F7CC
:1011F0004170242F220F448555856685778504C06C
:101200007695679557954795DA94D2F74170242BD8
:10121000402F411B6F2D80E090E00E9482041F5FF1
:101220003981183009F0AFCFF394385FF4E0FF1242
:10123000A9CF0F90DF91CF911F910F91FF90EF9069
:10124000DF90BF90AF900895CF93DF93EC010E94A1
:101250007E08CE01DF91CF910C94B0086430E8F4A1
:101260004031D8F4E62FF0E0842F90E0483028F0A9
:10127000EC59FB4F2FE030E004C0E859FB4F27E06A
:1012800030E0281B390B81E090E001C0880F2A95DF
:10129000EAF7809590818923808308956430F0F483
:1012A0004031E0F470E0E42FF0E0DB01483038F04A
:1012B000AC59BB4F8C9190E02FE030E006C0A859AC
:1012C000BB4F8C9190E027E030E02E1B3F0B02C01B
:1012D000959587952A95E2F78170089580E00895A5
:1012E000CF93C62F86ED94E00E94030B6C2F8CE603
:1012F00094E0CF910C94030B60E086ED94E00E94A3
:10130000E90A63E08CE694E00C94E90A8CE694E048
:101310000E94E80A86ED94E00C94E80A10926605B3
:1013200081E08093640510926305589A599AE9EB1D
:10133000F0E080818E7F808380818D7F808388E450
:101340008093B80085E48093BC000895413208F092
:1013500043C0909166059111FCCF91E09093660592
:10136000209364052FEF2093400510924205240F2F
:10137000209341059093650590916505880F892B11
:101380008093650580916305813061F41092630557
:10139000809165058093BB008091BC0083FDF8CFF0
:1013A00085EC01C085EE8093BC008091660581309C
:1013B000E1F380914205841710F44091420523E443
:1013C00035E0FB01D9018A2F821B841718F48D9117
:1013D0008193F9CF842F089580E008950F934132CF
:1013E00008F04AC0909166059111FCCF32E030932D
:1013F0006605009364053FEF309340051092420567
:1014000040934105FB0163E475E0DB013A2F361B95
:10141000341718F431913D93F9CF1092650530914E
:101420006505880F832B8093650580916305813066
:1014300061F410926305809165058093BB008091F3
:10144000BC0083FDF8CF85EC01C085EE8093BC0025
:10145000222321F0809166058230D1F380914005EE
:10146000803331F08F3F49F0803221F492E005C0A3
:1014700093E003C094E001C091E0892F0F9108959B
:1014800085ED8093BC008091BC0084FDFCCF109260
:101490006605089585EC8093BC001092660508955A
:1014A0001F920F920FB60F9211242F933F934F93D9
:1014B0005F936F937F938F939F93AF93BF93EF93BC
:1014C000FF938091B900887F883239F170F48031C0
:1014D00009F130F4882309F466C08830D9F067C078
:1014E0008831D9F0803279F162C08034D9F150F47A
:1014F000803349F1883309F05AC0809340050E9437
:101500004A0A55C0803511F18835A1F1883409F0B7
:101510004EC04BC08091650510C0909142058091EE
:101520004105981798F5E091420581E08E0F809370
:101530004205F0E0ED5BFA4F80818093BB0085ECC3
:101540008093BC0034C0809340052FC0E0914205D9
:1015500081E08E0F809342058091BB00F0E0ED5B4F
:10156000FA4F80839091420580914105981738F396
:1015700085E8E6CFE091420581E08E0F8093420539
:101580008091BB00F0E0ED5BFA4F808380916405B1
:1015900081110BC081E08093630584EA8093BC00D5
:1015A0001092660504C0109240050E94400AFF9107
:1015B000EF91BF91AF919F918F917F916F915F91CB
:1015C0004F913F912F910F900FBE0F901F90189544
:1015D0000895FC01E859FF4F108231961082379729
:1015E000262F30E0318320833297686570E0718365
:1015F0006083809109019FEF980F909309018111F9
:101600000C948E0908950F93CF93DF9300D0CDB73C
:10161000DEB722E029836A83FC01E05AFF4F00E035
:1016200021E042E0BE016F5F7F4F80810E94EE09A2
:101630000F900F90DF91CF910F9108950F931F930B
:10164000CF93DF9300D000D01F92CDB7DEB78C01CF
:10165000FC01E05AFF4F21E045E0BE016F5F7F4F84
:1016600080810E94A6098981813081F4F801EC59BA
:10167000FF4F8A81808331968B81808331968C8164
:10168000808331968D81808381E001C080E00F905E
:101690000F900F900F900F90DF91CF911F910F91AE
:1016A0000895FC01EC59FF4F608171818281938123
:1016B00008950F93CF93DF93CDB7DEB769970FB639
:1016C000F894DEBF0FBECDBF20E8260F2983DE01D0
:1016D000129628E1629FB001112420E030E0F90168
:1016E000E60FF71FE80FF91FE081F0E0E958FD4F22
:1016F000E491ED932F5F3F4F2831310581F7FC01D5
:10170000E05AFF4F00E021E049E1BE016F5F7F4FEB
:1017100080810E94EE0969960FB6F894DEBF0FBE75
:10172000CDBFDF91CF910F910895CF93DF93EC015F
:10173000C759DF4F688121E0260F28830E94590B8B
:101740008881843009F41882DF91CF9108958091C7
:101750007505811113C0109268051092670587E71F
:1017600093E090936A058093690589E190E09093F6
:101770006C0580936B0581E0809375050E94920F44
:1017800067E675E00C941F0F0F931F93CF93DF93C1
:10179000EB018A010E94920F9801AE0164E0DF9193
:1017A000CF911F910F910C943C0FFC0120E030E091
:1017B00041915191452B41F4220F331FFC01E20F5F
:1017C000F31F7183608305C02F5F3F4F24303105C5
:1017D00079F748E050E0BC010C94C40BFC019C017B
:1017E000285F3F4F408151814617570711F41182FE
:1017F00010823296E217F307A9F748E050E0BC01E7
:101800000C94C40B8DE695E00C94A70B8091BD055C
:10181000811113C010927E0510927D0580E993E03E
:101820009093800580937F0589E690E090938205F0
:101830008093810581E08093BD050E94920F6DE742
:1018400075E00C941F0FCF93DF93EC010E94920F71
:101850002DE130E0AE0168E0DF91CF910C943C0FB8
:101860000F931F93CF93DF93EC018C01035E1F4F07
:101870004DE150E0BC01C8010E941E24892B59F0A3
:10188000CE010E94230C2DE1FE01D80101900D92A2
:101890002A95E1F702C08FEF9FEFDF91CF911F9163
:1018A0000F910895605E683050F4FC01858D90E0E2
:1018B00002C0959587956A95E2F78170089580E05A
:1018C00008956E3D90F4262F269526952695FC01C9
:1018D000E20FF11D677081E090E001C0880F6A950A
:1018E000EAF79181892B81830DC0605E683068F4CE
:1018F00021E030E001C0220F6A95EAF7FC01308157
:10190000232B208381E090E0089580E090E008950B
:101910006E3D98F4262F269526952695FC01E20F1C
:10192000F11D677081E090E001C0880F6A95EAF7C9
:1019300080959181892381830EC0605E683070F448
:1019400021E030E001C0220F6A95EAF72095FC0102
:1019500030812323208381E090E0089580E090E0AF
:1019600008952DE1FC0111922A95E9F70895CF938E
:10197000DF93EC010E94B10CCE01DF91CF910C946A
:10198000230C83E895E00C94060C8091CC05811122
:1019900013C01092C6051092C50589EF93E090938D
:1019A000C8058093C7058BE290E09093CA058093A9
:1019B000C90581E08093CC050E94920F65EC75E02B
:1019C0000C941F0F0F931F93CF93DF93EB018A01AA
:1019D0000E94920F9801AE0161E0DF91CF911F91BB
:1019E0000F910C943C0FCF93DF9300D000D0CDB774
:1019F000DEB7FC01308139836A834B832C8344E05A
:101A000050E0BE016F5F7F4F0E94E20C0F900F907D
:101A10000F900F90DF91CF910895FC01108220E08C
:101A200040E060E00C94F30C0C940D0DFC0120815F
:101A3000621731F0608320E040E060E00C94F30C2A
:101A40000895FC012081622B0C94160D6095FC0119
:101A5000208162230C94160D8BEC95E00C94C50C40
:101A60008091DB05811113C01092D5051092D40529
:101A700084E294E09093D7058093D60588E190E0C6
:101A80009093D9058093D80581E08093DB050E946F
:101A9000920F64ED75E00C941F0F0F931F93CF937B
:101AA000DF93EB018A010E94920F9801AE0165E07D
:101AB000DF91CF911F910F910C943C0FCF93DF9347
:101AC0001F92CDB7DEB7198241E050E0BE016F5FD3
:101AD0007F4F0E944D0D0F90DF91CF9108950C9490
:101AE0005E0DCF93DF931F92CDB7DEB76983633866
:101AF00029F488E898E00E949D2307C041E050E067
:101B0000BE016F5F7F4F0E944D0D0F90DF91CF910F
:101B100008958AED95E00C94300DFC0182818F5B75
:101B2000FB01808381E00895CF93DF93CDB7DEB7CB
:101B300069970FB6F894DEBF0FBECDBFFC01DB0185
:101B40009C919F5F9C93BE016F5F7F4F89E1DB019A
:101B50001D928A95E9F729E0298384E08A8391E040
:101B60009D8383E08E832A8721E22B879C879D8734
:101B70009F8722E2288B25E3298B27E02B8B25E00A
:101B80002C8B8E8B20E430E0388F2F8B998F8281C5
:101B90008B83838180688D8B49E150E080E00E94D7
:101BA0003E2169960FB6F894DEBF0FBECDBFDF9120
:101BB000CF910895FC01838180640C949E200A9744
:101BC0000C94DA0DDC01FB0112968C91129790E0D7
:101BD0002481358182179307D1F491818081813AE4
:101BE00031F481E0913091F0933089F411C0813269
:101BF00071F49B3021F4828152968C9305C09A3007
:101C000031F4828153968C9381E00895089580E0A9
:101C10000895FB0120812138B9F423812232A1F4F7
:101C2000DC0112962C91129730E0448155814217C5
:101C3000530751F421E052962C9345E350E06CE3B6
:101C400074E080E80C943E2180E090E00895CF930A
:101C5000DF93EC0181E08C838D839E012F5E3F4FEB
:101C60003F832E83198618861D861C861F861E8636
:101C7000188A2AE731E03983288328E831E03B8756
:101C80002A878A8B8B8B81EC898B0E94091FBE016E
:101C9000DF91CF910C94C21E83EE95E00C94270E39
:101CA000FB018BE6808382E6818389E682838FE66F
:101CB000838380E3848381E3858386E00895CF93E3
:101CC000DF93CDB7DEB769970FB6F894DEBF0FBECE
:101CD000CDBFFC01DB018C918F5F8C93BE016F5FE8
:101CE0007F4F89E1DB011D928A95E9F729E029837D
:101CF00084E08A8391E09D8383E08E832A8721E2BA
:101D00002B879C879D879F8722E2288B27E02B8B40
:101D100025E02C8B8E8B20E430E0388F2F8B998F31
:101D200082818B8395858685998B8A8B8381806858
:101D30008D8B49E150E080E00E943E2169960FB60C
:101D4000F894DEBF0FBECDBFDF91CF910895EF9223
:101D5000FF920F931F93CF93DF93FB0120812138D4
:101D600051F52381223239F5DC0112962C9130E0B5
:101D70004481558142175307F1F4EC010B851C8512
:101D8000E12CF12C0115110591F0F80144815581E8
:101D90006281738180E80E943E218F3FFFEF9F07A1
:101DA00069F0E80EF91ED8010D911C91EBCF81E08E
:101DB0008F87C70105C080E090E002C08FEF9FEFE2
:101DC000DF91CF911F910F91FF90EF900895FC014B
:101DD000DB01828190E014962D913C91159782173A
:101DE000930759F511969C9111978C91813A31F492
:101DF00081E0913009F1933001F520C08132E9F49E
:101E00009B3021F412968C91878705C09A3029F473
:101E100012968C91808B81E00895993071F416961A
:101E20008D919C911797029741F4CF0162E070E089
:101E300041960E94652101C0089580E00895FC014B
:101E4000A385B485109719F47487638709C08D91B1
:101E50009C911197009711F0DC01F9CF6D937C9361
:101E600025853685DB0114968D919C911597820FFF
:101E7000931F968785870895AF92BF92CF92DF9286
:101E8000EF92FF920F931F93CF93DF931F92CDB7E3
:101E9000DEB77C0169836A01590141E050E0BE016F
:101EA0006F5F7F4FFC0183810E949E208C0197FD14
:101EB0000BC0F7018381A501B60180640E949E20BA
:101EC00097FD02C0800F911F0F90DF91CF911F915E
:101ED0000F91FF90EF90DF90CF90BF90AF9008955B
:101EE000CF93DF93EC0181E08C838D839E01265F8D
:101EF0003F4F3F832E83198618862EE831E03983C1
:101F000028831C861B861E861D868F87888B198AD0
:101F10001A8A81EC8A870E94091FBE01DF91CF9146
:101F20000C94C21E80910A06811107C087EF95E0CC
:101F30000E94700F81E080930A0687EF95E0089574
:101F40000E94EE1088E690E10E944A048AEA9FE02F
:101F50000C9474040F931F93882319F01092200699
:101F600078C080912006811113C010922306109230
:101F700018061092190610921A0610921B0610925B
:101F80001C0610921D0610921E0610921F0661C0BC
:101F90000E94751C009118061091190620911A06CE
:101FA00030911B06601771078207930708F451C030
:101FB0000E94751C2091100130911101DC01CB01B0
:101FC000820F931FA11DB11D8093180690931906CF
:101FD000A0931A06B0931B060E94751C00911C0664
:101FE00010911D0620911E0630911F066017710783
:101FF0008207930780F08091230690910F01482F6C
:1020000050E02FEF30E0291B3109421753071CF431
:10201000890F809323068091200680FF04C0609181
:102020001201619506C081FF03C06091120101C0D9
:1020300060E082FF04C080911201819506C083FF99
:1020400003C08091120101C080E01F910F910C9498
:1020500089111F910F9108950F931F93CF93C82F4C
:102060000E94751C00911406109115062091160609
:1020700030911706601771078207930728F10E94B5
:10208000751C20910A0130910B01DC01CB01820FFC
:10209000931FA11DB11D8093140690931506A09364
:1020A0001606B0931706C0FF03C040910C0105C08F
:1020B000C1FF0AC040910C01419560E080E0CF91E2
:1020C0001F910F910C948807CF911F910F91089544
:1020D000CF93903509F079C0C82F8072922F9270FB
:1020E0003C2F3074C6FF14C0811112C08C2F8F7B1F
:1020F0002170992329F0211103C00E94F21056C0CB
:10210000222309F453C0911151C00E94F7104EC010
:10211000811136C0992309F449C020FD4AC00E94AC
:10212000751C2091100130911101DC01CB01820F4F
:10213000931FA11DB11D8093180690931906A093BB
:102140001A06B0931B060E94751C20910D01309158
:102150000E01DC01CB01820F931FA11DB11D8093E5
:102160001C0690931D06A0931E06B0931F061092A6
:10217000140610921506109216061092170619C032
:102180009923A1F020FD12C0C1FD02C090E001C062
:1021900094E081E0311101C080E0892BC3FD02C0D1
:1021A00090E001C090E1892B0E941A1180E090E03C
:1021B0000CC0C4FF04C08C2F0E942C10F7CF80915C
:1021C0002006C82BC0932006F1CFCF9108958AE94D
:1021D00091E0909313068093120608950E9484075D
:1021E0000C9499070E948F071092240608950C946E
:1021F000940756954795640F751F3695279540E0CF
:10220000820F931F0C94A5071092260610922506A4
:1022100010922806109227068FEF9FE790932C06C6
:1022200080932B0690932A068093290681E0809361
:1022300024060895CF93DF931F92CDB7DEB7909118
:102240002406911104C089830E940411898180FFB2
:1022500006C0109224060F90DF91CF91089520912F
:102260002B0630912C063695279530932C0620931B
:102270002B064091290650912A0656954795509372
:102280002A064093290681FD0CC082FF0AC0609196
:10229000270670912806640F751F709328066093B7
:1022A000270683FD0CC084FF0AC08091250690910B
:1022B0002606820F931F9093260680932506609131
:1022C00027067091280680912506909126060F908A
:1022D000DF91CF910C94F910889F90011124232F46
:1022E0003327829FA001839F500D1124452F55272E
:1022F000440F551FC901880F991F820F931F019624
:10230000841B950B8F3F910519F010F08FEF90E033
:1023100008950F931F93CF93DF93182FC62F882311
:10232000F1F0809123060E946C1120912206382F33
:102330001303C0011124820F911D27FD9A9500916E
:10234000130110E00817190764F022273327201B18
:10235000310B8C018217930724F4890102C000E03D
:1023600010E0CC23F9F0809123060E946C1120919B
:102370002106482F3C2F3403C0011124820F911DE8
:1023800027FD9A95C0911301D0E0C817D90764F0D2
:10239000222733272C1B3D0BEC018217930724F4D3
:1023A000E90102C0C0E0D0E010922406BE0184E042
:1023B000759567958A95E1F7C80124E0959587950D
:1023C0002A95E1F740E00E9488070F7000932206EB
:1023D000CF70C0932106DF91CF911F910F91089587
:1023E00087E692E10C944A04262F20684FEF6FEFA6
:1023F0000E9482040C9432070F931F93CF93DF93B4
:102400001F92CDB7DEB7162FFC01049141FF06C025
:1024100062E0C80149830E94F411498140FF04C071
:1024200061E0C8010E94F4110F90DF91CF911F91DC
:102430000F9108951F93CF93DF93EB01209709F439
:1024400042C010E0CE010196FE01449150E0FA0135
:102450003197E830F10508F036C0EA5AFF4F9E0187
:102460002E5F3F4F0C941824E901FC01149124C005
:10247000E901FC01649170E080E090E00E94A61CFC
:102480001BC0FC016491239642E009C0FC016491E9
:10249000239641E004C0FC016491239643E0C90106
:1024A00009C0E90142E005C0E90141E002C0E901DB
:1024B00043E060E00E94FC11612F70E080E090E05A
:1024C0000E94A61CBFCFDF91CF911F910895903637
:1024D00071F46093300640932F06622F0E94070329
:1024E000BC018DE296E00E941A1280E090E008950F
:1024F00080E090E06134B8F46A3370F5603239F10D
:1025000048F46A3001F118F46830D8F408956B315A
:10251000E1F008956133E8F4E62FF0E0EE0FFF1FDD
:10252000E15DFB4F2FC0603628F46B35E0F498E096
:1025300083EC10C0613640F16B37E0F06F37E0F0AC
:10254000089582E207C088E2089589E208958CE246
:1025500008958DEE860F0895E62FF0E0EE0FFF1F31
:10256000E35EFB4F0FC0E62FF0E0EE0FFF1FE751D9
:10257000FC4F08C083EAEECFE62FF0E0EE0FFF1F1E
:10258000EB54FC4F859194910895CF92DF92EF9296
:10259000FF920F931F93CF93DF936C018B01F80190
:1025A00064916623A1F0C6010E947812EC01E12C2F
:1025B000F12C8E159F0519F40F5F1F4FF0CF62E0CD
:1025C0000E94F41161E0CE010E94F411F5CF80E089
:1025D00090E0DF91CF911F910F91FF90EF90DF90EE
:1025E000CF90089580EA91E090932E0680932D0677
:1025F0000895089508950895089526EA31E0DC01CC
:102600002D933C931092370680E3E8E3F6E0DF0178
:102610001D928A95E9F70895809137060895E09113
:102620003706F0E0EE0FFF1FE85CF94F80819181E3
:102630000895E8E3F6E020E030E041915191452B28
:1026400049F4F901EE0FFF1FE85CF94F9183808395
:10265000822F08952F5F3F4F2831310571F78FEF9B
:102660000895CF93DF93EC01E0913106F0913206AB
:102670000190F081E02D81E396E00995CE010E9462
:102680001913E881F9810280F381E02DCE01DF91F9
:10269000CF9109949A01462F682F84E594E00C9419
:1026A000FC07CF92DF92EF92CF936B01E82EC0E050
:1026B0006E2DA6018C2F0E944A13CF5FC034C1F744
:1026C000CF91EF90DF90CF90089560E070E080E0D0
:1026D0000E945113E0913706F0E0EE0FFF1FE85C17
:1026E000F94F80819181009739F0DC01ED91FC91E7
:1026F0000480F581E02D09940895883120F48093B9
:1027000037060C94651308959C01E8E3F6E080E039
:10271000419151914217530711F40C947D138F5F2F
:102720008831B1F708950C948413809137068F5F38
:1027300080933706883150F4E82FF0E0EE0FFF1F4A
:10274000E85CF94F20813181232B21F41092370668
:102750000C9465130C947D13993439F421FF03C054
:1027600020FF0E94951380E090E00895762F642F5B
:102770000E9451130895CF93DF9360E070E080E0F2
:102780000E945113C8E3D6E089919991009739F0DE
:10279000DC01ED91FC910280F381E02D0995B6E01A
:1027A000C836DB0789F78CEA93E10E944A0483E08C
:1027B00094E10E9474040E94751C209114013091D0
:1027C0001501DC01CB01820F931FA11DB11D809368
:1027D000330690933406A0933506B0933606DF9106
:1027E000CF9108950F931F938901242F462F682FAF
:1027F00084E594E00E9445081F910F91089584E5B7
:1028000094E00C9457080F931F93811139C00E94D4
:10281000751C0091330610913406209135063091D5
:1028200036060617170728073907B0F40E94FF136A
:102830000E94751C2091140130911501DC01CB011F
:10284000820F931FA11DB11D809333069093340610
:10285000A0933506B0933606E0913706F0E0EE0F10
:10286000FF1FE85CF94F80819181009749F0DC01FE
:10287000ED91FC910680F781E02D1F910F91099455
:102880001F910F91089581E396E00C94FD1260E092
:1028900070E080E00E9451130895862F642F20E09D
:1028A00030E040E00E94F21308958CEA91E09093AA
:1028B00069068093680608950E94751CCB016CE040
:1028C00070E00E94CE23862F67FD8095880F889F39
:1028D000A0011124452F5527BA01660F771F640FF9
:1028E000751F849F9001859F300D1124832F992798
:1028F000880F991F681B790B76956795605B24E0BC
:10290000629FC0011124792F80E008950F931F93D7
:10291000CF93DF936115710521F4642F742F842FF9
:1029200061C026E0289FD001299FB00D11248B2F74
:102930009927AE7FBB27EFEFF0E0EF01C61BD70B67
:10294000C49F9001C59F300DD49F300D1124A69FC8
:10295000E001A79FD00DB69FD00D1124CD2FDD270C
:102960008F010C1B1D0B049FE001059FD00D149FD0
:10297000D00D11248F010A1B1B0B069FD001079F4E
:10298000B00D169FB00D11246B2F7727E61BF70BA8
:10299000E49FD001E59FB00DF49FB00D112482306B
:1029A0009105A1F038F4009769F00197B1F49D2FDB
:1029B000742F0AC08330910569F0049771F49B2F3E
:1029C000732F0EC0942F7B2F432F0AC0932F742F89
:1029D0004B2F06C0932F7D2F03C0942F732F4D2FA5
:1029E000642F892FDF91CF911F910F9108958BEF65
:1029F00094E10C9474049F92AF92BF92CF92DF92B5
:102A0000EF92FF920F931F93CF93DF93882309F4E4
:102A100090C080916C060E946C0581110CC0809161
:102A20001901811186C00E940C130E947D1381E060
:102A3000809319017EC0109219010E942D0780FD1C
:102A400004C083E590E00E9447070E940C130E9497
:102A50007D133EE8E32E33E0F32EC0E000E010E00B
:102A6000D02FE0910601F0910701402F6C2FD70184
:102A7000A00FB11F8C910995982EB92EA92EE09127
:102A80000601F0910701402F6C2F80916C0609958B
:102A9000C0906C0624E4D22E292D3B2D2C153D052B
:102AA00021F4C0931B0100931A012817390711F470
:102AB000AA20A1F1E0913706F0E0EE0FFF1FE85CDD
:102AC000F94F80819181009749F0DC01ED91FC91F3
:102AD0000084F185E02D4D2F6C2F09950F5F1F4F5E
:102AE0000031110509F0BCCFCF5FB0E1EB0EF11C56
:102AF000C43009F0B3CF80911B018530D0F48091B0
:102B00001A018131B0F40E945C149B01482F60913E
:102B10001A0180911B010E94F2130BC02091160133
:102B200030911701409118016D2F8C2F0E94F213E4
:102B3000D5CFDF91CF911F910F91FF90EF90DF9054
:102B4000CF90BF90AF909F9008958AEB91E09093C3
:102B50006B0680936A060895CF92DF92EF92FF9200
:102B60001F93CF93DF9389EE95E10E9474043EE8B2
:102B7000E32E33E0F32E10E0C0E0D0E0E091060158
:102B8000F09107014C2F612FD701AC0FBD1F8C9125
:102B90000995C12C29E4D22E8C159D0529F410939A
:102BA0007006C0936F060DC02196C031D10531F774
:102BB0001F5F80E1E80EF11C1430F1F681E0809394
:102BC0007106DF91CF911F91FF90EF90DF90CF9032
:102BD0000895882371F18091710681112AC00E94A5
:102BE000751C613F734281059105C8F081E08093B7
:102BF000710640916F0660917006E0913706F0E033
:102C0000EE0FFF1FE85CF94F80819181009789F0FA
:102C1000DC01ED91FC910084F185E02D09940E9486
:102C20005C149B01482F60916F06809170060E9492
:102C3000F213089580EC91E090936E0680936D06F8
:102C40000895FC014481638182810C94B613FC01D8
:102C5000862F642F2481338142810E94F2130895CC
:102C6000FC0186EC91E0918380836283438324831B
:102C700008950E945C140E945113089584ED91E020
:102C800090937306809372060895CF93DF93EC01BF
:102C90009D81943118F49F5F9D832CC01D822B81F0
:102CA0009C818A8140E050E060E0299F80191124D6
:102CB0000E944A1340E050E060E08A810E944A137B
:102CC0009B818A81890F8A832FEF280F2F3310F081
:102CD00091959B8340E050E06FEF0E944A132B8157
:102CE0009C818A814FEF50E060E0299F8019112478
:102CF0000E944A13DF91CF910895E4E7F6E082EE57
:102D000091E091838083128281E0838385E08483D4
:102D100015820895CF93DF93EC018D819E819C01F4
:102D20002F5F3F4F3E832D832F8138858217930776
:102D3000E0F01E821D824A8550E0698570E08A813C
:102D40009B810E9486149B01482F5C818A819B8114
:102D5000850F911D8F3F910510F08F5F91099B8327
:102D60008A83842FB9010E945113DF91CF91089576
:102D70001F93CF93DF93EC018D819E819C012F5F88
:102D80003F4F3E832D832F8138858217930760F153
:102D90001E821D8210E08A819B81212F2695269517
:102DA00030E1239F800D911D11248F3F910510F07C
:102DB0008F5F91094A8550E0698570E00E94861412
:102DC000AB01682F812F0E944A131F5F103419F73F
:102DD0002C818A819B81820F911D8F3F910510F07C
:102DE0008F5F91099B838A83DF91CF911F91089513
:102DF000FC0162870895FC0162870895E5E8F6E02A
:102E000080EF91E0918380831382128241E04483BA
:102E1000168215822AE030E0308727839FEF918762
:102E200082E38287EAE7F6E06EEF71E07183608308
:102E300013821282448316821582308727839187FA
:102E400082870895643070F4403160F421FF0AC035
:102E500020E1629FF0011124E40FF11DE856F94FC3
:102E60002FEF2083089582E297E10C944A0480E4D6
:102E7000E8E9F6E0DF011D928A95E9F708959F924F
:102E8000AF92BF92CF92DF92EF92FF920F931F9378
:102E9000CF93DF931F92CDB7DEB7809196069091C6
:102EA0009706892B09F468C00E94751CEE24E394F0
:102EB0000091920610919306209194063091950608
:102EC000601771078207930708F4E12C88E9C82E80
:102ED00086E0D82EF12C00E010E0902E5601A00ED6
:102EE000B11ED5018C9189838823A1F0809196062B
:102EF00090919706DC01ED91FC910190F081E02D1D
:102F0000BE016F5F7F4F09959B01482F602F8F2D6A
:102F10000E94F213EE2019F08981F5018083D5011A
:102F20008C91811107C020E030E040E0692D8F2DA9
:102F30000E94F2130F5F1F4F0031110571F6F394D9
:102F4000B0E1CB0ED11CE4E0FE12C5CFEE20A1F023
:102F50000E94751C20911C0130911D01DC01CB01E8
:102F6000820F931FA11DB11D80939206909393062B
:102F7000A0939406B09395060F90DF91CF911F9187
:102F80000F91FF90EF90DF90CF90BF90AF909F9008
:102F900008950F931F93CF93DF93EB0198814FEF29
:102FA00050E06FEF70E0913E58F02FEF30E0F90104
:102FB000E91BF109CF010E948614E62F382F17C0B4
:102FC0008EE190E00E948614E62F272F4881489FCB
:102FD000C00111240FEF10E0B8010E94E223362F48
:102FE000429FC0011124B8010E94E223762F9881EC
:102FF000923D10F0915003C0903418F09051988396
:1030000005C0903210F09052FACF18826E2F832FA5
:10301000DF91CF911F910F9108952AE132E0FC01D9
:103020003183208308958CE092E090939106809301
:103030009006089581E898E10C944A040F931F9339
:103040008091E2069091E306A091E406B091E50636
:10305000892B8A2B8B2B79F00E94751C0091E2063C
:103060001091E3062091E4063091E5060617170754
:103070002807390778F18091DE069091DF06A0914C
:10308000E006B091E106892B8A2B8B2BB9F10E94C7
:10309000751C0091DE061091DF062091E00630914C
:1030A000E106061717072807390740F500E010E08A
:1030B00020E04AE060E08091DA069091DB060E9411
:1030C00049191092DE061092DF061092E006109267
:1030D000E10614C000E010E020E042E060E08091F2
:1030E000DC069091DD060E9449191092E2061092CA
:1030F000E3061092E4061092E506BDCF1F910F91F2
:103100000895CF92DF92EF92FF920F931F93CF9388
:10311000DF9300D0CDB7DEB76C012A8349830E94CC
:103120000F132A814981885D964009F05DC027FD13
:103130005BC084E0C816D10408F456C038E2C31658
:10314000D10408F051C021FF4FC0E090DC06F090A0
:10315000DD064830D0F4D092DD06C092DC060E9435
:10316000751C20911E0130911F01DC01CB01820FE3
:10317000931FA11DB11D8093E2069093E306A093D7
:10318000E406B093E50632E01DC0E090DA06F09068
:10319000DB06D092DB06C092DA060E94751C2091F5
:1031A0001E0130911F01DC01CB01820F931FA11D75
:1031B000B11D8093DE069093DF06A093E006B093E6
:1031C000E1063AE0EC14FD0451F000E010E020E0EC
:1031D000432F60E0C70139830E9449193981432F89
:1031E00060E0C6010E946919C6010F900F90DF913F
:1031F000CF911F910F91FF90EF90DF90CF900895A6
:1032000080E292E09093D9068093D80608950895BD
:103210006F927F928F92BF92CF92DF92EF92FF9246
:103220000F931F93CF93DF936C01B42E3801822E3E
:10323000162FE12CF12CC0E0D0E0CE018E0D9F1DA9
:10324000960102C0369527958A95E2F720FF07C0C0
:10325000482D93016C2F6B0D812F0E94F213219644
:10326000C430D10551F734E0E30EF11C1F5F80E15B
:10327000E816F10401F7DF91CF911F910F91FF90B4
:10328000EF90DF90CF90BF908F907F906F900C94D5
:10329000FF13CF92DF92EF920F931F936801E22EFC
:1032A0008430910580F08832910568F42E2D8601D6
:1032B000E82FE450F0E0EE0FFF1FED54FB4F859137
:1032C00094910E9408191F910F91EF90DF90CF9079
:1032D00008950F931F9300912001109121012091D7
:1032E00022010E9449191F910F9108958EE292E0E8
:1032F0009093E7068093E606089589EC8093FD0796
:103300008093F8078093F607E2EFF7E082E3828389
:103310008183808387E99BE10C947404CF93DF93CE
:10332000C0E1D0E084E594E00E947E082197D1F7C7
:1033300062E070E080E090E00E94A61C84E594E0EA
:103340000E947E088091540490915504A0915604E7
:10335000B09157040097A105B24081F780915C04B9
:1033600090915D04A0915E04B0915F04892B8A2B3B
:103370008B2B21F7DF91CF9108950E94B6130E9405
:10338000FF130C948E194F925F926F927F929F92CF
:10339000AF92BF92CF92DF92EF92FF920F931F9363
:1033A000CF93DF9340E060E088EC0E94B613C0E169
:1033B000D0E084E594E00E947E082197D1F7412C6B
:1033C000512C3201439484E594E00E947E08809160
:1033D000540490915504A0915604B091570482383A
:1033E0009105A105B24009F45AC1C12CF12C8FE01E
:1033F000D82E97E0E92E27E0B22EBC0CAB2CAE18ED
:10340000CA2DD0E080915C0490915D04A0915E048F
:10341000B0915F040A2C04C0B695A795979587953F
:103420000A94D2F78170880F40915404509155044A
:1034300060915604709157040A2C04C076956795E4
:10344000579547950A94D2F74170982E942ACE0149
:10345000880F991F880F991F21E0FC01E651F94F51
:1034600092122FC040815181628173814E3151058A
:1034700061057105F0F40091EE071091EF072091BE
:10348000F0073091F107B301A2010A2C04C0440FE8
:10349000551F661F771F0A94D2F7402B512B622BC2
:1034A000732B4093EE075093EF076093F0077093F0
:1034B000F107FC01E651F94F10821182128213824A
:1034C0001AC080819181A281B3818F319105A105BC
:1034D000B10538F40196A11DB11D80839183A283AB
:1034E000B38383E0981207C00091F5071091F607A7
:1034F0002091F70722C08091EE079091EF07A091ED
:10350000F007B091F1070A2C04C0B695A7959795DE
:1035100087950A94D2F780FF07C00091FB071091AE
:10352000FC072091FD0709C022E092120CC0009117
:10353000F8071091F9072091FA074E2D6F2D84E5B9
:1035400094E00E9445088091600490916104A091EC
:103550006204B09163040A2C04C0B695A7959795B0
:1035600087950A94D2F78170880F40915804509142
:10357000590460915A0470915B040A2C04C076953A
:103580006795579547950A94D2F74170842BA0967A
:10359000CC0FDD1FCC0FDD1F813089F5FE01E65118
:1035A000F94F40815181628173814E31510561052E
:1035B0007105F0F40091EA071091EB072091EC07F8
:1035C0003091ED07B301A2010A2C04C0440F551F2E
:1035D000661F771F0A94D2F7402B512B622B732B57
:1035E0004093EA075093EB076093EC077093ED0765
:1035F000C651D94F188219821A821B821CC0C6512B
:10360000D94F488159816A817B814F3151056105CC
:10361000710540F44F5F5F4F6F4F7F4F4883598371
:103620006A837B83833039F40091F5071091F607A4
:103630002091F70720C04091EA075091EB07609175
:10364000EC077091ED0704C07695679557954795FF
:10365000AA94D2F740FF07C00091FB071091FC0726
:103660002091FD0708C0823061F40091F8071091A5
:10367000F9072091FA074D2D6F2D84E594E00E9403
:103680004508EA94DA948FEFE812B8CEF39428E074
:10369000C20E84E0F812ABCE0E94FF1394CEDF91ED
:1036A000CF911F910F91FF90EF90DF90CF90BF903F
:1036B000AF909F907F906F905F904F9008955D9A2C
:1036C000289A089584E392E09093E9068093E806AF
:1036D0000895CF93DF9340E060E088EC0E94BD192D
:1036E00040E068EC80E00E94BD1948EC60E080E0BA
:1036F0000E94BD1940EA60EA80EA0E94BD19C8EE46
:10370000D3E085E896E00E948A160E94FF13219775
:10371000C1F7DF91CF9108950E945F1B62E084E5BD
:1037200094E00E9470090E94691B0C94C3198111D6
:103730000FC08091540490915504A0915604B0910B
:10374000570482389105A105B24011F40C948C1BEA
:10375000089587EC9BE10C9474048AE392E09093C3
:10376000FF078093FE0708958BE298E00E94621D98
:10377000892B09F408958BE298E00E944E1D0A9768
:1037800029F08BE298E00E94721DF5CF0895EF9228
:10379000FF920F931F93CF93DF93811155C08BE25C
:1037A00098E00E94621D892B09F44EC002E018E0E7
:1037B000C0E0CF5F8BE298E00E94721D7801F801B3
:1037C00080838BE298E00E944E1D0A9741F00F5FC4
:1037D0001F4FF7018081803211F0C03251F78C2FDA
:1037E00090E0FC01EF5FF74F2081203219F0FC01DF
:1037F000EE5FF74F1082C0910008D091010820972A
:1038000039F0E881F98182E098E009958823C1F0D8
:103810006BEF74E08BE298E00E945A1F0E94B41B89
:103820008BE298E00E944E1D0A9771F48BE298E0BB
:10383000DF91CF911F910F91FF90EF900C94721D2B
:103840000C80DD81C02DDBCFDF91CF911F910F91D7
:10385000FF90EF9008951F920F920FB60F921124D0
:103860002F933F938F939F93AF93BF9380912308A0
:1038700090912408A0912508B09126083091220843
:1038800023E0230F2D3720F40196A11DB11D05C0A3
:1038900026E8230F0296A11DB11D209322088093D4
:1038A000230890932408A0932508B09326088091BC
:1038B000270890912808A0912908B0912A0801961C
:1038C000A11DB11D8093270890932808A093290873
:1038D000B0932A08BF91AF919F918F913F912F9103
:1038E0000F900FBE0F901F9018952FB7F89460910E
:1038F00023087091240880912508909126082FBFF5
:1039000008953FB7F8948091270890912808A091D6
:103910002908B0912A0826B5A89B05C02F3F19F0A9
:103920000196A11DB11D3FBFBA2FA92F982F88273F
:10393000820F911DA11DB11DBC01CD0142E0660F9A
:10394000771F881F991F4A95D1F708958F929F92EC
:10395000AF92BF92CF92DF92EF92FF926B017C0108
:103960000E94811C4B015C01C114D104E104F104EB
:1039700001F10E94CD230E94811CDC01CB0188193A
:103980009909AA09BB09883E9340A105B10560F3D6
:1039900021E0C21AD108E108F10888EE880E83E020
:1039A000981EA11CB11CC114D104E104F10419F743
:1039B000DBCFFF90EF90DF90CF90BF90AF909F90C4
:1039C0008F900895789484B5826084BD84B58160B9
:1039D00084BD85B5826085BD85B5816085BDEEE617
:1039E000F0E0808181608083E1E8F0E010828081F6
:1039F00082608083808181608083E0E8F0E0808164
:103A000081608083E1E9F0E0808182608083808151
:103A100081608083E0E9F0E0808181608083E1EC77
:103A2000F0E08081846080838081826080838081F7
:103A300081608083E3ECF0E0808181608083E0EC52
:103A4000F0E0808182608083E2ECF0E08081816040
:103A50008083EAE7F0E080818460808380818260F7
:103A600080838081816080838081806880830895E5
:103A7000CF93DF931F92CDB7DEB76983DC01ED9161
:103A8000FC910280F381E02D41E050E0BE016F5FC8
:103A90007F4F09950F90DF91CF910895CF93DF93DA
:103AA000EC018C859D8597FF05C082E00E946D200A
:103AB0009D878C878C859D85DF91CF91089583E0CC
:103AC0000C94FE22FC018485958597FD06C082E05A
:103AD0000E94182090E00196089582E00E9418202C
:103AE00090E00895FC018485958597FD05C02FEF32
:103AF0003FEF35872487089582E00C946D20CF93A3
:103B0000DF93EC0180912E01882331F083E00E9445
:103B10009E201816190634F081E090E09B838A837A
:103B200080E090E0DF91CF910895FC0190819E5F4D
:103B3000908342E450E06DEF74E080E80C943E2105
:103B4000FC0181819081913A59F4813209F048C099
:103B500047E050E067E271E080E00E943E2176C0DD
:103B60009132F1F5833291F49381892F90E0982F6F
:103B700088272281822BA0E0B0E0809323019093DC
:103B80002401A0932501B093260160C0803239F44E
:103B900067E070E087E291E00E94652106C0823212
:103BA00009F054C0828180932E0180917B08882384
:103BB00019F0EEEFFAE002C0E0E0F8E080912701B2
:103BC00090912801A0912901B0912A01803B944055
:103BD000A105B10539F480912E0180FF1FC002C0FC
:103BE00080E008950FB6F894A895809160008861F0
:103BF00080936000109260000FBEA895EE3F8AE0AF
:103C0000F80739F08091FE0A9091FF0A9183808332
:103C10001DC01092FF0A1092FE0A18C0EE3F2AE063
:103C2000F20731F0808191819093FF0A8093FE0A20
:103C300087E797E7918380839BE088E10FB6F8944C
:103C4000A895809360000FBE9093600081E0089576
:103C5000EBE2F8E01382128288EE93E0A0E0B0E09D
:103C600084839583A683B78380E492E091838083E5
:103C70008FEF9FEF958784870895EF92FF920F93C0
:103C80001F93CF93DF937B01FC01C281D38100E0BE
:103C900010E0209781F0E881F9810280F381E02D26
:103CA000B701CE01099597FD08C0080F191F0884B8
:103CB000D985C02DEECFC80102C08FEF9FEFDF91F5
:103CC000CF911F910F91FF90EF9008950F931F9345
:103CD000CF93DF938B01FC01C281D381209771F0D8
:103CE000E881F9810480F581E02DB801CE010995C4
:103CF000009731F40884D985C02DF0CF80E090E0A2
:103D0000DF91CF911F910F9108950F931F93CF9340
:103D1000DF938B01FC01C281D381209771F0E88190
:103D2000F9810680F781E02DB801CE010995080FD1
:103D3000111D0884D985C02DF0CFF8011082DF91C4
:103D4000CF911F910F9108950F931F93CF93DF93FE
:103D50008B01FC01C281D381209771F0E881F98148
:103D60000190F081E02DB801CE010995811105C0C7
:103D70000884D985C02DF0CF80E0DF91CF911F91CD
:103D80000F910895CF93DF93FC01DB0121811496FD
:103D90008C91149790E0820F911D0897B4F5C28121
:103DA000D381209719F47383628308C0888599852D
:103DB000009711F0EC01FACFB987A887808112969D
:103DC0008C931297818113968C93139790811596FB
:103DD0008C911597890F808380E014969C9114979D
:103DE000891788F41696CD91DC911797C80FD11DCD
:103DF0009881C181D0E0C15DDE4F988391819F5F42
:103E000091838F5FEACF81E001C080E0DF91CF91A5
:103E100008958091800881110DC082E080937C0814
:103E200084E080937D0810927F0810927E0881E0E4
:103E3000809380088CE798E008956115710579F00A
:103E4000FB0101900020E9F73197AF01461B570BAA
:103E5000DC01ED91FC910280F381E02D099480E07A
:103E600090E00895EF92FF920F931F93CF93DF930B
:103E70008C017B01C0E0D0E0F701EC0FFD1F6491E5
:103E8000662361F0D801ED91FC910190F081E02D65
:103E9000C8010995892B11F02196EECFCE01DF9153
:103EA000CF911F910F91FF90EF9008956CE472E015
:103EB0000C941D1F0F931F93CF93DF93EC010E946F
:103EC000321F8C01CE010E94561F800F911FDF917F
:103ED000CF911F910F91089540918C0850918D08BA
:103EE00020918A0830918B0842175307B4F49091BF
:103EF000E8009570E1F39091E80092FD19C080937D
:103F0000F10080918C0890918D0801968F7399270C
:103F1000892B19F48EEF8093E80080918C089091A2
:103F20008D08019690938D0880938C0881E0089508
:103F300080E00895CF92DF92EF92FF920F931F934C
:103F4000CF93DF931F92CDB7DEB7182F062FE42E45
:103F5000862F880F8E5F99830E946C1F83E00E94DA
:103F60006C1FF12EC12E9981D92E8C2D8F1980179F
:103F700098F4F601E7FE02C0849101C080810E949E
:103F80006C1F182F80E00E946C1F8123FFEFCF1A57
:103F9000DF0A8111EACF01C081E00F90DF91CF915C
:103FA0001F910F91FF90EF90DF90CF900895809137
:103FB000D70081608093D70080EA8093D80089B5CC
:103FC000806189BD89B5826089BD09B400FEFDCFDD
:103FD00061E070E080E090E00E94A61C8091D80033
:103FE0008F7C80618093D8008091E000807F8093F7
:103FF000E0000895CF93DF931F92CDB7DEB719820B
:10400000CE0101960E94951D0E94091FBE016F5F9F
:104010007F4F0E943D1E89810F90DF91CF910895BF
:104020002FB7FC012083F89467706093E90008952E
:10403000CF93DF931F92CDB7DEB7682FCE010196E5
:104040000E9410208091F20099819FBF0F90DF9114
:10405000CF910895EF92FF920F931F93CF93DF9329
:104060001F92CDB7DEB790919008992311F057FFBA
:1040700003C08FEF9FEF29C08A017B01682FCE011B
:1040800001960E9410208091F20090E0A801801714
:1040900091070CF4AC01842FF70194E6815030F0C5
:1040A000909391082091F1002193F8CF411551058B
:1040B00021F08091F200882321F089818FBFCA010D
:1040C00004C08BE68093E800F8CF0F90DF91CF918A
:1040D0001F910F91FF90EF900895CF93DF931F9260
:1040E000CDB7DEB741E050E0BE016F5F7F4F0E9469
:1040F0002A20019719F4898190E002C08FEF9FEF89
:104100000F90DF91CF910895CF93DF931F92CDB79A
:10411000DEB7682FCE0101960E9410209091E80032
:10412000892F807295FF04C09091F2008FE3891B64
:1041300099819FBF0F90DF91CF9108956F927F92E9
:104140008F929F92AF92BF92CF92DF92EF92FF92A7
:104150000F931F93CF93DF931F92CDB7DEB7A82E97
:104160006B01B42E052F80919008811103C08FEF51
:104170009FEF69C080918E0880FF05C08091E000AC
:1041800082608093E000EB2CF02E8AEF982E8A2D2F
:104190008072782E9AE3892E8A2D8074682EE1141D
:1041A000F10409F447C08A2D0E948420182F811140
:1041B0000AC09A949920D9F261E070E080E090E022
:1041C0000E94A61CECCF90E0E816F9060CF41E2D18
:1041D0006A2DCE0101960E9410208091E80085FF93
:1041E00026C0812F90E0E81AF90A772029F01150B3
:1041F000A8F01092F100FBCFF601A7FE07C0115006
:1042000058F024912093F1003196F9CF115020F00D
:1042100021912093F100FACFC80ED91E8091E800B9
:1042200085FF0EC0E114F10411F4611009C0898109
:104230008FBFB5CF84E6809392088B2D902F03C05B
:104240008092E800F4CF0F90DF91CF911F910F91F2
:10425000FF90EF90DF90CF90BF90AF909F908F90A6
:104260007F906F9008951092E90010928D0810923F
:104270008C0890938B0880938A080895DF92EF92C0
:10428000FF920F931F93CF93DF93D82E8A017B0168
:10429000E40EF51EEB01CE15DF0571F0D7FE03C06D
:1042A000FE01849101C088810E946C1F21968111BA
:1042B000F2CF8FEF9FEF01C0C801DF91CF911F9127
:1042C0000F91FF90EF90DF900895CF93DF93DC0183
:1042D0009B0184E6CBEF21153105F1F0A9012134D2
:1042E000310514F040E450E09091E80092FFFCCFDB
:1042F000942FFB01E21BF30BEA0FFB1F915028F0F8
:10430000D091F100D0833196F9CF80939108C0937A
:10431000E800241B350BDFCFCB01DF91CF9108954F
:104320001F920F920FB60F921124CF92DF92EF924D
:10433000FF920F931F932F933F934F935F936F932E
:104340007F938F939F93AF93BF93EF93FF93CF93FD
:10435000DF93CDB7DEB76C97DEBFCDBF1092E9001B
:104360008091E80083FF2BC1FE017596FE2E0F2F72
:1043700088E08E0F8E1729F09091F100908331968E
:10438000F9CF84E68093910882EF8093E8002D892D
:1043900027FF05C08091E80080FFFCCF03C08EEFAF
:1043A0008093E800822F807609F0EEC03E894F8925
:1043B000188D31110CC0203829F480918F0880931A
:1043C000F10002C01092F1001092F100F1C0E42F50
:1043D000F0E0F12B313049F42111EAC0319709F0B6
:1043E000E7C080918F088D7F0AC0333059F42111C6
:1043F000DFC0319709F0DCC080918F088260809324
:104400008F08D6C0353041F48091E80080FFFCCFA2
:1044100040684093E300CCC0363009F08BC0CB8CB1
:10442000DC8C123069F580E090E00E9433210E941C
:10443000FA1F99E09E012F5F3F4F7901F901292F63
:1044400011922A95E9F799831A8391E09E8390EA65
:1044500098879AEF998720918C0830918D08275F73
:104460003F4F3C832B838D83C6010E94332149E05B
:1044700050E0B70180E00E943E210E94FA1F98C0E0
:10448000C6010E9433210E94091F6F2D702F0E94C8
:10449000661E009719F00CF08BC08EC0113071F4BD
:1044A0008B8D9C8D089719F481E080938908809109
:1044B000890881112FC061E575E031C0133009F022
:1044C0007BC08F89882349F1823029F440E868E075
:1044D0008EE695E01CC0813029F440E86AE083E66E
:1044E00095E015C0833009F067C00E94091F8E0156
:1044F0000F5F1F4FB8010E94851EF8010190002038
:10450000E9F73197BF01601B710B40E0C8010E94C1
:104510009A1F4CC06FE375E002C067E775E0611554
:10452000710509F449C0FB01449150E080E80E9404
:104530003E213EC0373009F43FC0383021F481E0DD
:104540008093F10035C0393099F52370A9F5E0E387
:10455000F1E081E021E036E39081992361F08093DE
:10456000E9002093EB0091919093EC003093ED00E3
:104570008F5F873089F78EE78093EA001092EA0018
:104580008F898093900814C08B8D9C8D0E9433215D
:10459000898D811105C08F2D902F0E94A01D06C00E
:1045A0000E94091F6F2D702F0E94A41E882321F0E6
:1045B0008EEF8093E80003C081E28093EB006C965D
:1045C0000FB6F894DEBF0FBECDBFDF91CF91FF9144
:1045D000EF91BF91AF919F918F917F916F915F917B
:1045E0004F913F912F911F910F91FF90EF90DF908E
:1045F000CF900F900FBE0F901F9018958093E900F9
:104600008091F200882319F08AE38093E8000895EE
:104610001F920F920FB60F9211242F933F934F9337
:104620005F936F937F938F939F93AF93BF93CF933A
:10463000EF93FF93C091E1008091E100837F80932D
:10464000E100C3FF0FC01092E90081E08093EB000E
:104650001092EC0082E38093ED001092900888E0C5
:104660008093F000C2FF15C083E00E94FE2280917B
:104670009208882329F080919208815080939208B3
:1046800080919108882329F080919108815080932E
:104690009108C4FF10C08091E2008E7E81608093FB
:1046A000E2008091E1008F7E8093E10080918E088E
:1046B0008E7E806111C0C0FF11C08091E2008E7EAD
:1046C00080618093E2008091E1008E7E8093E10022
:1046D00080918E088E7E816080938E08FF91EF918D
:1046E000CF91BF91AF919F918F917F916F915F918A
:1046F0004F913F912F910F900FBE0F901F901895E3
:104700001092900810928F0810928E080E94D71F66
:104710008091E1008E7E8093E1008DE08093E20045
:10472000559A209AEEEFFFE7859194918B3F9C4D2F
:1047300019F481E080937B0808958091E0008D7FDB
:104740008093E0008091E00081FD08C080918E0898
:1047500080FF04C080918F0881FD02C080E0089531
:104760000E94D71F8091E00082608093E00081E08A
:10477000089508950E94E21C0E94B92388E898E0F9
:104780000E9480230E943503C0E0D0E00E94B30362
:104790002097E1F30E940000F9CF0895AA1BBB1BEC
:1047A00051E107C0AA1FBB1FA617B70710F0A61B31
:1047B000B70B881F991F5A95A9F780959095BC0152
:1047C000CD01089597FB072E16F4009407D077FDCE
:1047D00009D00E94CE2307FC05D03EF49095819528
:1047E0009F4F0895709561957F4F0895A1E21A2E0D
:1047F000AA1BBB1BFD010DC0AA1FBB1FEE1FFF1F85
:10480000A217B307E407F50720F0A21BB30BE40BD4
:10481000F50B661F771F881F991F1A9469F760951B
:104820007095809590959B01AC01BD01CF010895D5
:10483000EE0FFF1F0590F491E02D0994FB01DC01C0
:1048400004C08D910190801921F441505040C8F767
:10485000881B990B0895DC0101C06D9341505040B5
:10486000E0F7089512E0C5EDD2E004C0FE010E9419
:0E48700018242196C63DD107C9F7F894FFCF52
:10487E00000093088000180501013200014000017C
:10488E000100017F10000000FF01FFFF3200E8036E
:10489E00808080FFFFFFFF00E100000000000000AD
:1048AE00C1808100000003040B0C13141A1B242575
:1048BE002B2C33343B3C02050A0D1215191C2326F2
:1048CE002A2D32353A3D0106090E1116181D2227E2
:1048DE00292E3136393E0007080F10171F1E2120D2
:1048EE00282F3037383F00000000E20D940D090EDE
:1048FE008D0DDA0DF6FF0000DF0D00000000E70E53
:10490E005F0EA70E500E00000000A00F000000006A
:10491E00F01100000000BB13000000003113F9126B
:10492E004714FB124D1400000000F71400000000A5
:10493E00AC15000000003113F9122116FB122716D8
:10494E00000000003113F912FA123916FC120000A1
:10495E0000003113F912FA124516FC120000000085
:10496E003113F912FA128A16FC12000000003113EC
:10497E00F912FA12B816FC120000000031133317A8
:10498E0037173F17FC1200000000C9170000000087
:10499E0031131A18FA121E18FC1200000000071923
:1049AE00000000007D1900000000A91B000000009F
:1049BE00381D7F1D621D721D4E1D5F1D0D0A006E7E
:0E49CE00616E00696E66006F7666002E000056
:107000005FC0000078C0000076C0000074C00000BF
:1070100072C0000070C000006EC000006CC00000B4
:107020006AC0000068C0000007C5000064C000001E
:1070300062C0000060C000005EC000005CC00000D4
:107040005AC00000E6C0000056C0000054C0000056
:1070500052C0000050C000004EC000004CC00000F4
:107060004AC0000048C0000046C0000044C0000004
:1070700042C0000040C000003EC000003CC0000014
:107080003AC0000038C0000036C0000034C0000024
:1070900032C0000030C000002EC000002CC0000034
:1070A0002AC0000028C0000026C000008B3EA43E7D
:1070B0004B3FA43E4B3FDC3EFE3E4B3F1E3F303F2E
:1070C00011241FBECFEFDAE0DEBFCDBF11E0A0E09C
:1070D000B1E0E0E2FFE702C005900D92AC3AB107E3
:1070E000D9F721E0ACEAB1E001C01D92AC3BB20798
:1070F000E1F740D313C784CF84E08093E900809107
:10710000E80085FD0DC08091E8008B778093E80052
:107110008091E80082FDF3CF8EB38111F9CF02C0D8
:107120008091F100089593E09093E9009091E80038
:1071300095FF03C08093F10008959091E8009E7739
:107140009093E8009091E80090FDF4CF9EB39111E8
:10715000F9CF089544E063E071E080EB6EC3CF9314
:10716000DF9300D000D01F92CDB7DEB784E08983D3
:10717000809102018695869586958A831B821C8262
:107180008FEF8D8345E0BE016F5F7F4F80EB55D35E
:107190000F900F900F900F900F90DF91CF91089567
:1071A000F89410926F001092810010928500109256
:1071B000840081E085BF15BE0C940000089584B75B
:1071C000877F84BF0FB6F894A8958091600088618E
:1071D00080936000109260000FBE90E880E00FB6D0
:1071E000F89490936100809361000FBE81E085BFA9
:1071F00082E085BFE1E6F0E0908310821092890082
:107200009AEF9093880080936F0083E080938100D1
:10721000FBC31F920F920FB60F9211242F938F93DF
:107220009F93EF93FF931092850010928400E0E00B
:10723000F0E085919491019649F08091AC01909194
:10724000AD0101969093AD018093AC01FF91EF9158
:107250009F918F912F910F900FBE0F901F901895B7
:1072600042E061EC82E065D342E161E883E061D312
:1072700042E160E884E05DC38091B401982F9F777C
:10728000913239F59091B501903291F0913209F532
:10729000813AF9F48091E800877F8093E80067E005
:1072A00070E087E091E079D48091E8008B770FC09F
:1072B000813279F48091E800877F8093E80067E06D
:1072C00070E087E091E0C6D48091E8008E778093EB
:1072D000E80008956F927F928F929F92AF92BF9233
:1072E000CF92DF92EF92FF920F931F93CF93DF9392
:1072F00084E08093E9008091E80082FF2CC2FCDEEC
:10730000C82F28DF2CDF809102018F5F809302015C
:10731000C53481F48CE393E79093AD018093AC0185
:1073200007B600FCFDCFF999FECF81E180935700AD
:10733000E89503C0C43521F4DFDE8DE0F4DEE2C160
:10734000CC34D9F3C035C9F3C43721F484E4EBDE7F
:1073500080E0F4CFC13611F489E5F0CFC13491F467
:10736000CBDEC82FC9DE90E0880F991F2C2F30E0AC
:10737000322F2227330F822B932B092E000CAA0BBE
:10738000BB0B94C1C03711F483E5D8CFC33549F4A2
:10739000C2EAD1E01C2F195F8991C5DE1C13FCCF16
:1073A000B1C1C63521F481E3BEDE80E3C7CFC33768
:1073B00031F487E8B8DE85E9B6DE8EE1BFCFC536A9
:1073C000B9F4E0E0F0E083E095E080935700E895C1
:1073D00007B600FCFDCF90935700E89507B600FC78
:1073E000FDCFE058FF4FE11520E7F20771F7A5CF79
:1073F000C23719F4E1E0F0E00EC0C63419F4E0E061
:10740000F0E009C0CE3419F4E3E0F0E004C0C13587
:1074100039F4E2E0F0E089E08093570084918ECF68
:10742000C23631F489E57FDE80E07DDE80E886CFFC
:10743000C23419F0C73609F0D1C01092AD011092D4
:10744000AC015ADE082F58DED82F56DE182F8BEBF2
:10745000810F823010F08FE371CF2D2F30E0302B71
:1074600010926F00C73609F043C081E18093570046
:10747000E895E90100E0BB24B394209709F4AAC081
:10748000C090AE01D090AF01E090B001F090B1019A
:107490001634B9F4E02FF0E0EC29FD29849143DEA5
:1074A000002369F082E0C80ED11CE11CF11CC092DF
:1074B000AE01D092AF01E092B001F092B1010B2584
:1074C00015C0D701C601B695A7959795879510D594
:1074D0002ADEE2E0CE0ED11CE11CF11CC092AE010E
:1074E000D092AF01E092B001F092B1012197C5CFE7
:1074F0008090AE019090AF01A090B001B090B1012A
:10750000163441F483E0F40180935700E89507B600
:1075100000FCFDCFE901712C00E066246394209704
:1075200009F44CC0163431F5002301F1C090AE01CE
:10753000D090AF01E090B001F090B101DDDD272DDA
:1075400030E0382BF601090160925700E8951124CC
:10755000F2E0CF0ED11CE11CF11CC092AE01D09222
:10756000AF01E092B001F092B10102C0C5DD782E0A
:10757000062522C0C1DD682F8091AE019091AF0138
:10758000A091B001B091B101B695A7959795879557
:10759000B7D48091AE019091AF01A091B001B091AC
:1075A000B1010296A11DB11D8093AE019093AF0170
:1075B000A093B001B093B1012197B1CF163441F43B
:1075C00085E0F40180935700E89507B600FCFDCFF5
:1075D0008DE0A9DD82E080936F0094C0C33471F424
:1075E000C091AE01D091AF0187DD90E021E0FE01B6
:1075F0000C0120935700E89511249FCEC33601F566
:10760000C090AE01D090AF01E090B001F090B10118
:1076100073DDF601E16090E021E00C01209357005A
:10762000E8951124F2E0CF0ED11CE11CF11CC092B0
:10763000AE01D092AF01E092B001F092B1017DCEE7
:10764000CD3661F4E091AE01F091AF0185E0809319
:107650005700E89507B600FCFDCF6FCEC23551F458
:10766000E091AE01F091AF01C591D4918D2F5BDD1A
:107670008C2F64CEC43419F53FDD682F8091AE01A4
:107680009091AF01A091B001B091B101B695A795CD
:107690009795879535D48091AE019091AF01A091D7
:1076A000B001B091B1010296A11DB11D8093AE0150
:1076B0009093AF01A093B001B093B1013ECEC43618
:1076C000F1F4C090AE01D090AF01E090B001F09025
:1076D000B101D701C601B695A7959795879508D4AE
:1076E00022DD22E0C20ED11CE11CF11CC092AE01D1
:1076F000D092AF01E092B001F092B10103C0CB3162
:1077000009F0A9CE83E08093E9009091E800809190
:10771000E8008E778093E80095FD11C08091E80025
:1077200080FD04C08EB38111F9CF15C08091E800AF
:107730008E778093E80003C08EB3882361F0809138
:10774000E80080FFF9CF84E08093E9008091E800B1
:107750008B778093E800DF91CF911F910F91FF907D
:10776000EF90DF90CF90BF90AF909F908F907F90E1
:107770006F900895CF938091000890910108109226
:10778000010810920008C4B714BE0FB6F894A8956B
:1077900080916000886180936000109260000FBE4D
:1077A00045D0D8DCE0E0F0E0859194910196D9F0E5
:1077B000C230C9F03E9A46988198809A899A8898F2
:1077C0008FE19EE40197F1F700C00000799B0AC0A9
:1077D0008FE39CE90197F1F700C00000799B02C09C
:1077E000469ADEDC469AEBDC78941092AD0110925A
:1077F000AC013F9A479A8091AC019091AD018033E2
:10780000954720F4ACDC66DD5CD3F5CF8FE99FE0D3
:107810000197F1F700C000008091E0008160809343
:10782000E000BEDC80E090E0CF91089584E080939A
:10783000BC0080E18093B8000895EFE9FFE0319744
:10784000F1F700C0000094EA9093BC009091BC0056
:1078500097FFFCCF9091B900983071F58E7F80939F
:10786000BB0084E88093BC008091BC0087FFFCCF04
:107870008091B900883101F54150FB0184E844232F
:1078800079F091919093BB008093BC009091BC00E3
:1078900097FFFCCF9091B900983271F44150EFCF2F
:1078A00080818093BB0084E88093BC008091BC0001
:1078B00087FFFCCF8091B90084E98093BC000895D4
:1078C000292F30E02230310559F02330310569F09D
:1078D0002130310531F582E190E020E931E025C029
:1078E0008EE390E022E531E020C0882359F081301A
:1078F00071F0823089F08330A1F48EE090E02EE0C8
:1079000031E013C084E090E02EE431E00EC084E169
:1079100090E028E331E009C088E190E02EE131E019
:1079200004C080E090E020E030E0FA013183208361
:1079300008958093E900EBEEF0E080818160808320
:10794000EDEEF0E010826093EC0040838091EE0059
:10795000881F8827881F08958091B40187FF0FC072
:107960008091E80082FD04C08EB38111F9CF10C070
:107970008091E8008B770AC08EB3882349F080910C
:10798000E80080FFF9CF8091E8008E778093E800CF
:1079900008950F931F93CF93DF9341D048D0C8ED44
:1079A000D0E088818F778883888180688883888108
:1079B0008F7D888319BC1EBA1092B20100EE10E0D0
:1079C000F80180818B7F808388818160888342E099
:1079D00060E080E0AEDFE1EEF0E080818E7F8083CA
:1079E000E2EEF0E080818160808380818860808326
:1079F000F80180818E7F8083888180618883DF9118
:107A0000CF911F910F910895E7EDF0E080818160A3
:107A100080838AE482BF81E08093B301BACFE8ED2E
:107A2000F0E080818E7F80831092E20008951092B2
:107A3000DA001092E10008951F920F920FB60F9294
:107A400011242F933F934F935F936F937F938F9363
:107A50009F93AF93BF93EF93FF938091DA0080FFE2
:107A60001BC08091D80080FF17C08091DA008E7F04
:107A70008093DA008091D90080FF0BC080E189BD3E
:107A800082E189BD09B400FEFDCF81E08EBB18D232
:107A900003C019BC1EBA14D28091E10080FF17C048
:107AA0008091E20080FF13C08091E2008E7F80937E
:107AB000E2008091E20080618093E2008091D80032
:107AC00080628093D80019BC85E08EBBF9D180918B
:107AD000E10084FF2CC08091E20084FF28C080E197
:107AE00089BD82E189BD09B400FEFDCF8091D80037
:107AF0008F7D8093D8008091E1008F7E8093E1009C
:107B00008091E2008F7E8093E2008091E2008160AC
:107B10008093E2008091B201811106C08091E30060
:107B200087FD02C081E001C084E08EBBC9D1809195
:107B3000E10083FF21C08091E20083FF1DC080919E
:107B4000E100877F8093E10082E08EBB1092B2015A
:107B50008091E1008E7F8093E1008091E2008E7F32
:107B60008093E2008091E20080618093E20042E035
:107B700060E080E0DEDEA4D1FF91EF91BF91AF9194
:107B80009F918F917F916F915F914F913F912F9135
:107B90000F900FBE0F901F9018952091BA01309151
:107BA000BB012617370748F06115710539F420919C
:107BB000E8002E772093E80001C0B90140E061158C
:107BC0007105A1F12EB3222309F440C0253009F438
:107BD0003FC02091E80023FD37C02091E80022FD3E
:107BE0002DC02091E80020FFEACF4091F3002091C2
:107BF000F20030E0342BFC01CF016115710559F022
:107C00002830310540F481918093F1006150710971
:107C10002F5F3F4FF1CF41E02830310509F040E0C0
:107C20002091E8002E772093E800C9CF4111CACFF8
:107C300005C08EB3882351F0853051F08091E80063
:107C400082FFF7CF80E0089581E0089582E00895F3
:107C500083E008956115710529F42091E8002B77E0
:107C60002093E800FC016115710531F18EB3882382
:107C700059F1853059F18091E80083FD23C080914E
:107C8000E80082FFF0CF2091F3008091F20090E0B5
:107C9000922B892B31F08091F10081936150710911
:107CA00091F78091E8008B778093E800DCCF8EB36A
:107CB000882351F0853051F08091E80080FFF7CFA4
:107CC00080E0089581E0089582E0089583E00895BA
:107CD0000F931F93CF93DF9300D0CDB7DEB7E4EBC4
:107CE000F1E088E08E0F9091F10091938E13FBCF1D
:107CF000C3DA8091E80083FFCEC08091B4019091F7
:107D0000B501492F50E04A30510508F0C4C0FA01CE
:107D1000EA5AF74CE7C0823809F0BDC08091B8013B
:107D200087708093E9008091EB001092E9009091B8
:107D3000E800977F9093E80085FB882780F980937F
:107D4000F1001092F10085C0282F2D7F09F0A3C00B
:107D5000823009F0A0C08091B601811127C08091C6
:107D6000B801877009F497C08093E9002091EB0077
:107D700020FF1CC0933021F48091EB00806214C07E
:107D80009091EB0090619093EB0021E030E0A9012D
:107D900002C0440F551F8A95E2F74093EA00109203
:107DA000EA008091EB0088608093EB001092E9007C
:107DB0008091E800877F50C081116DC01091B6019D
:107DC0001F770FB7F8948091E800877F8093E800D1
:107DD000C3DD8091E80080FFFCCF8091E3008078D4
:107DE000812B8093E30080688093E300111102C02F
:107DF00082E001C083E08EBB0FBF4DC0805882304F
:107E000008F049C0AE014F5F5F4F6091B8018091AB
:107E1000B6019091B70154DDBC01892B09F43BC038
:107E20009091E800977F9093E80089819A81B5DE70
:107E30008091E8008B778093E8002DC0803859F559
:107E40008091E800877F8093E8008091B201809361
:107E5000F1008091E8008E778093E8007DDD1BC003
:107E6000811119C09091B6019230A8F48091E80078
:107E7000877F8093E8009093B2016EDD8091B2011C
:107E8000811106C08091E30087FD02C081E001C03E
:107E900084E08EBBE5D98091E80083FF0AC0809121
:107EA000EB0080628093EB008091E800877F8093F5
:107EB000E8000F900F90DF91CF911F910F910895DF
:107EC0000895CF938EB3882359F0C091E900C7700D
:107ED0001092E9008091E80083FDFADEC093E9008A
:107EE000CF910895EE0FFF1F0590F491E02D0994B6
:107EF000F999FECF92BD81BDF89A992780B5089572
:107F0000262FF999FECF1FBA92BD81BD20BD0FB6B5
:107F1000F894FA9AF99A0FBE01960895F894FFCF53
:107F200077771803000000000000000000080E032F
:107F30006B00620069006F00300031000000180320
:107F40004B006500790062006F0061007200640000
:107F500069006F002000000014034D006F006400F2
:107F600065006C0020003000310020000000040398
:107F7000090409023E0002010080320904000001E8
:107F80000202010005240010010424020405240655
:107F90000001070582030800FF09040100020A002E
:107FA000000007050402100001070583021000010C
:107FB0001201100102000008091200230100020151
:0C7FC00003014341544552494E4100006A
:040000030000700089
:00000001FF
