:101C000013C022C021C020C01FC01EC01DC01CC0E8
:101C10001BC01AC019C018C017C016C015C014C008
:101C200013C012C011C010C011241FBECFEFD2E0EC
:101C3000DEBFCDBF21E0A0E0B1E001C01D92A23423
:101C4000B207E1F7CED093C1DBCFE0E0F1E08FEF58
:101C5000819391E0E034F907D9F70895F0E0E0E0EE
:101C600085919591A591B491809300019093010184
:101C7000A0930201B093030108959C01A0E0B1E09C
:101C800090E080E041E06D917D9107B600FCFDCFD2
:101C9000F901E80FF91F0B0140935700E895112453
:101CA00002968034910579F707B600FCFDCF85E0F8
:101CB000F90180935700E895089584E98093BC006A
:101CC0000895803849F084E88093BC008091BC007E
:101CD00087FFFCCFA895089584ECF6CFCF93C82F4B
:101CE000F0DF9091B9009C1729F0E7DF80E090E0E9
:101CF000CF9108958091BB00983819F494E890939F
:101D0000BC0091E0F5CFCF9380E8E8DFC82F99239E
:101D100011F080E8E3DF982F8C2FCF910895809306
:101D2000BB0080E8CEDF8091B900883B09F0C5CFC9
:101D3000089583B1880F8670806A8093BA0084E426
:101D40008093BC0008958627682F62956827062E29
:101D5000669566956025062E669560256770082E47
:101D6000892F669507946795902D86270694679529
:101D7000902586270895EF92FF920F931F93CF939C
:101D8000DF9387B7982F9170F92E80FF0AC095DFF7
:101D9000F12C8F2DDF91CF911F910F91FF90EF903C
:101DA0000895CEB3C295C07FD0E0C050DF4F0FEF93
:101DB0001FEFEC2E80E1E80E80E890DF682F89931A
:101DC000992331F3C801BFDF8C01EC12F5CF9BDF03
:101DD00080179107F1F68EB38F5F8EBBFF24F394CB
:101DE000D8CF14BE88E199E20FB6F894A8958093F5
:101DF00060000FBE909360003B9A43981AB88FEF33
:101E00008BB98DE08A95F1F7000089B1817809F0EE
:101E1000A2C08FDF88E1B82E99E2992E23E0A22E8E
:101E200010E000E0EE24EA94FE2C80E84ADF0FB6D2
:101E3000F894A895B09260000FBE909260008091D7
:101E4000B900803629F0883A09F47BC036DFEDCF3F
:101E500080E844DF992349F3833009F44DC060F4EE
:101E6000813071F1823091F780E491E084DF81115B
:101E70002FC080E833DFD9CF843009F447C08630E3
:101E800029F741DFEC013FDF6E01C80ED91EC114F6
:101E9000E0E2DE0650F6F0924101E0924001CC15FE
:101EA000DD0508F0C2CFFE01649180914001909160
:101EB000410149DF90934101809340012196EFCF8A
:101EC0001EBAC3DE20DF9093410180934001ADCF65
:101ED0008EB3843079F4C0914001D0914101C07C2F
:101EE000209721F4BBDECE01C8DE04C0C115ECE1B1
:101EF000DE07C8F388E8BECF88E00FB6F894A8954F
:101F0000B09260000FBE80936000FFCF9EDEA6DE21
:101F100007B600FCFDCFF801A0925700E89590E0CD
:101F200080E0ABDEE0E4F0E007B600FCFDCFA0927D
:101F30005700E895E05CFF4FE1158CE1F807A1F749
:101F400074CF81E0ECDE80914001E9DE80914101B7
:101F5000E6DEEFDE6ACF0FB6F894A89580916000B8
:101F6000886180936000109260000FBE5DC0F8949D
:021F7000FFCFA1
:0400000300001C00DD
:02000000FFCD32
:02000200FFCD30
:02000400FFCD2E
:02000600FFCD2C
:02000800FFCD2A
:02000A00FFCD28
:02000C00FFCD26
:02000E00FFCD24
:02001000FFCD22
:02001200FFCD20
:02001400FFCD1E
:02001600FFCD1C
:02001800FFCD1A
:02001A00FFCD18
:02001C00FFCD16
:02001E00FFCD14
:02002000FFCD12
:02002200FFCD10
:02002400FFCD0E
:02002600FFCD0C
:02002800FFCD0A
:00000001FF
