:020000040800F2
:1000000000800120AD1100082D0700082F0700080F
:100010002F0700082F0700082F0700080000000026
:100020000000000000000000000000002D07000894
:100030002D070008000000002D0700082D0700080C
:100040002F0700082F0700082F0700082F070008B8
:100050002F0700082F0700082F0700082F070008A8
:100060002F0700082F0700082F0700082F07000898
:100070002F0700082F0700082F0700082F07000888
:100080002F0700082F0700082F0700082F07000878
:100090002F0700082F0700082F0700082F07000868
:1000A0002F0700082F0700082F0700082F07000858
:1000B0002F0700082F0700082F0700082F07000848
:1000C0002F0700082F0700082F0700082F07000838
:1000D0002F0700082F0700082F0700082F07000828
:1000E0002F0700082F0700082F0700082F07000818
:1000F0002F0700082F0700082F0700082F07000808
:100100002F0700082F0700082F0700082F070008F7
:100110002F0700082F0700082F0700082F070008E7
:100120002F0700082F0700082F0700082F070008D7
:100130002F0700082F0700082F0700082F070008C7
:100140002F0700082F0700082F0700082F070008B7
:10015000224A70B540F2014314461568AD0703D535
:10016000013B9BB2002BF8D11D4A1368143243F4B3
:10017000807342F8143C40F2014315461668F607B6
:1001800005D52668F60702D52668B60703D4013BD5
:100190009BB2002BF2D1B023124A136040F201430C
:1001A0002E68B60703D4013B9BB2002BF8D123681D
:1001B000014410F8013B136040F201432C686407CE
:1001C00003D4013B9BB2002BF8D18842F1D1044A01
:1001D000136843F40073136070BD00BF18540040EF
:1001E00000540040105400401346D0F8E02010B4F2
:1001F000D4690A46A446002110BC6047D0F8E0301C
:100200000A465B6900211847F0B58C0004F1804470
:1002100004F5B8441846236803F44053B3F5405F2F
:1002200048D0254E254F3368CD009BB203EBC10368
:100230005B00FB58C3F30903834206DA33689BB2C1
:100240002B445B00F858C0F30900336800F0010745
:100250009BB21D441A4B6D005B5B45085B0003F1CC
:10026000804303F5C0431E4602EB450C62451CD19A
:1002700017B113F825301370236823F0F0031B0522
:100280001B0D43F0800323600E4B5B5C63B9226857
:1002900022F4804222F0700292B282F4405242F480
:1002A000004242F080022260F0BD36F804EB22F8F2
:1002B00002EBDBE70020F7E7505C00400C600040F9
:1002C0000860004018000020F7B53F4A0446136854
:1002D000164613F4806F9FB21CD04FF6FF331360A5
:1002E0004023002583830368D0F8E0204583DB7931
:1002F0000095294696682A46B047D4F8E03029464A
:100300005B6820469847236A002B42D003B0BDE8C3
:10031000F04018471A041CD503F00F018D0005F1B9
:10032000804513F0100305F5B84534D02B681B0544
:100330003AD5082300F13402FFF766FF022301EBF0
:100340004102134404EB8303DB6E002B2ED02046C6
:1003500098473A0505D54FF2FF733360636A03B1DE
:100360009847FB0405D54EF6FF733360A36A03B1CB
:10037000984717F4007F154D05D04FF6FF52E36AFA
:100380003260E3B19847E36ACBB12B6843F4007362
:100390002B6003B0F0BD2A6822F0F0021205120DA6
:1003A00042F400422A60CAE70123C8E72B6823F021
:1003B000F0031B051B0D43F080032B60C9E72B687E
:1003C00023F40073E4E700BF445C0040405C00405D
:1003D000F0B501F07F05AC0004F1804404F5B844A9
:1003E0001846236803F03003302B2FD0184EEB0053
:1003F000316889B201EBC501490001F1804101F585
:10040000C0410988451C490001F180416D1001F58A
:10041000C04102EB4505AA4213D1326892B213449F
:100420000C4A5B00D050226822F4E04222F04002E5
:1004300092B282F0300242F4004242F08002226026
:10044000F0BD32F8027B41F8047BE4E70020F7E7D7
:10045000505C0040046000400B0612D40B4B0C486B
:100460005A54890001F1804101F5B8410B680340FD
:100470009BB23AB183F4005343F4004343F080034A
:100480000B60704783F44053F6E700BF180000206C
:100490008FBFFFFF0B060ED501F07F01890001F130
:1004A000804101F5B841086800F03000102814BF01
:1004B000002001207047890001F1804101F5B84119
:1004C000086800F44050B0F5805FF0E710B50029EF
:1004D00033D1002A14BF102420242B48036823F4AE
:1004E000E04323F0400363401BB243F4004343F076
:1004F00080039BB20360890001F1804101F5B8419E
:100500003AB90B6823F4415323F030031B041B0C4E
:100510000B60002A14BF4FF480524FF440520B6816
:1005200023F4804323F0700353401BB243F4004391
:1005300043F080039BB20B6024E00B06DBD5002A5E
:1005400014BF1022202201F07F034FEA830303F13E
:10055000804303F5B843196821F4E04121F04001DC
:1005600082EA010212B242F4004242F0800292B2E8
:100570001A6007D11A6822F4E04222F03002120415
:10058000120C1A6010BD00BF005C004048F28001F0
:1005900070B50B4A0B4E0C4D0C4C136833400B439B
:1005A0009BB2136013682B400B439BB242F8043B91
:1005B000A242F2D10368DB7920335B00838370BDF4
:1005C000045C0040BF8FFFFF8FBFFFFF205C004037
:1005D000F7B54FF0C0644D4D0DF1080CCDE9005456
:1005E00001F07F05AC0004F1804404F5B8442668AE
:1005F0000CEB420226F4E04626F07F062E43B6B20C
:100600002660266832F8082C26F4EC4626F07006A0
:10061000164349B2B6B200292660089FDFF8F4C03D
:100620004FEAC50613DB95B1DCF80020818B92B24E
:10063000DFF8E4E0324452003E2B4EF8021034D88A
:1006400001335B084FEA430E1FFA8EFE37E0DCF8F9
:100650000020B0F81CE092B23244520002F1804215
:1006600002F5C042C2F800E01FB10C2202FB0502F5
:10067000D76622689E4422F4E04222F0300212043F
:10068000120C22602268002922F4E04222F040028B
:1006900092B282F0200242F4004242F080022260D4
:1006A000A0F81CE0C0DA03B0F0BD03F1FF3ECEF3CA
:1006B00044130EF4787E0EF1200E43F02003DCF894
:1006C00000209B0292B21644114A76009BB29351CD
:1006D0001FB10C2303FB05052F672368714423F426
:1006E000415323F030031B041B0C2360226822F4C7
:1006F000804222F0700292B282F4405242F40042F0
:1007000042F0800222608183CDE700BF0002000436
:100710000C600040505C004008600040024B41F01B
:1007200080011960704700BF4C5C00407047FEE7D5
:10073000044B05481B68184000F16043584258417B
:10074000704700BF002000080000FE2F094A0A4938
:1007500013680A4843F4000313600023A2F5D9325A
:10076000A2F5EE7213600B6041F80C3C4FF41C4391
:10077000136070471C100240505C004020000020B5
:1007800010B514461A88022A84BF02221A8089886A
:10079000D0F8E030C9B29B699847003818BF0120F3
:1007A000002223681870236801205A7010BD198830
:1007B0000120022984BF02211980002311680B70D7
:1007C00012685370704719880120022984BF0221E2
:1007D0001980002311680B7012685370704730B590
:1007E0000D24C57E40686C430D3C04448D882079FF
:1007F00085420CD2012018808B88D4F809001B0197
:100800001B5803B11B7801201268137030BD002003
:10081000FCE70D2270B51C46C37E5A4343680D3A6F
:1008200013441D798A88954219D9D3F809501601C5
:1008300005EB02124B8812799A4210D9AA5952B18B
:100840001370D0F8DC3013B14A88898898470023A8
:100850000120238070BD002BF3D01046FAE7002062
:10086000F8E719881268012984BF01211980C37E25
:100870002BB141680D2000FB031313F8083C012045
:1008800013707047F8B50D464988044679B103687E
:100890000D26587C0023984201D80020F8BD6268DC
:1008A00006FB032252798A4203D00133F3E74FF06B
:1008B000FF330133DBB2E3764BB9D4F8E0302046A6
:1008C000DB689847D4F8CC309BB90120E6E70D22CD
:1008D000534362680D3B134400221046197991423C
:1008E000EBD9D3F809101601715801B10870013223
:1008F000F4E7002304F1CC06E3646365E365636613
:1009000004F1DC0756F8043B13B120466988984788
:10091000B742F7D1D9E710B50B7873B94C887F2C63
:100920000CD8D0F8E030847693F830201AB149889A
:100930005B68C9B29847012300E00023184610BD48
:100940000346002210B500F1CC0454F8040B38B172
:1009500088420AD00132042AF7D14FF0FF3010BD8F
:1009600003EB8203C3F8CC10F9E70020F7E72DE989
:10097000F74F05460C46064600F1200900F13C07FA
:1009800000F1400A00F14408D6F84CB02378BBF1DE
:10099000000F05D1237813F0600018D0002013E079
:1009A00096F8511096F850200B409A4203D0083622
:1009B0004E45E9D1EEE753463A4621462846CDF862
:1009C0000080D8470128F2D803B0BDE8F08F03F0CB
:1009D0001F03012B30D0022B3BD0002BF4D16378C6
:1009E000092BDBD801A252F823F000BF310A00081E
:1009F0009D0900089D0900089D0900089D0900083F
:100A0000350A00082D0A00089D090008290A000877
:100A1000150A0008184E53463A4621462846B44661
:100A200003B0BDE8F04F6047144EF4E7144EF2E710
:100A3000144EF0E7144EEEE763780A2B05D00B2B2B
:100A400005D0002BC0D1114EE5E7114EE3E7114E62
:100A5000E1E76378012B05D0032B08D0002BB3D13D
:100A60000D4ED8E76388002BAED10C4ED3E76388D8
:100A7000002BA9D10A4ECEE78508000863080008BC
:100A8000F9150008AF07000817090008C707000894
:100A9000DF0700081308000881070008030B00089F
:100AA000130B000810B503680446DA79B0F840303B
:100AB000C16B9A420FD2FFF797FB022384F83030C4
:100AC0002368E26BD979B4F840300A445B1AE263D8
:100AD000A4F8403010BD1A46FFF786FB94F8483062
:100AE000002B14BF0223032384F83030002384F842
:100AF0004830A4F84030E363ECE7D0F8E0301B69FD
:100B0000184708B589880022C9B2FFF7F6FF01200F
:100B100008BD08B589880122C9B2FFF7EEFF0120A0
:100B200008BD10B5012200210446FFF7E6FF0023AF
:100B300084F8303010BD10B590F830300446032BE7
:100B400006D0042B0CD0022B21D1BDE81040A9E720
:100B5000072380F830300021BDE81040FFF74EBB7E
:100B6000436C13B100F13401984794F8343053B911
:100B700094F83530052B06D1E18ED4F8E0302046CC
:100B80005B68C9B29847002384F8303010BDBDE8D7
:100B90001040C6E738B543690446C3638B79CA7908
:100BA0000D4643EA0223A0F84030FFF7E0FEF8B11B
:100BB000EA88AAB1B4F8403021689A42C9790DD9BF
:100BC00033B1B3FBF1F201FB1233B3FA83F35B09E8
:100BD000204684F84830BDE8384063E70023F7E753
:100BE00011462046FFF700FB042384F8303038BD5F
:100BF0002046BDE8384094E770B500250446012141
:100C0000456400F13406FFF7F9FA628F22B93146E4
:100C10002046BDE87040BDE794F93430002BF6DB88
:100C2000238B934203D22046BDE8704079E7636985
:100C3000A4F84050E36323682946DB7920469342B9
:100C400034BF0523062384F83030BDE87040FFF739
:100C5000D5BAF8B50368B0F84020458FDB79AD1AF6
:100C60009D42A8BF1D46C16BD0F8E030AEB21F6AEE
:100C70000A44334600210446B847864205D0204640
:100C8000FFF74FFF4FF0FF30F8BDB4F84030A8B287
:100C90001E44A4F84060F7E738B590F830300446B9
:100CA000062B13D0072B26D0052B21D1FFF7D1FF20
:100CB00000280ADBB4F84020638F9B1A2268D2799F
:100CC000934202DC062384F8303038BDFFF7C1FFC1
:100CD0000028FADB204604F13401FFF748FE30B16A
:100CE000002220461146FFF77FFA0423EBE7204657
:100CF000BDE8384015E7D0F8E0301D6A00231A46F9
:100D00001946A847002384F83030636C1BB1204695
:100D100004F13401984700236364D6E72DE9F041DC
:100D20004FF00F0C00250768466843FA05F4E40706
:100D30001CD5072D94BFBE46B646ACB24FEA84041C
:100D40008ABF203CA4B2A4B20CFA04F82EEA080828
:100D500004F1020E02FA0EFE01FA04F44EEA040453
:100D600044EA0804072D94BF274626460135102D76
:100D7000DBD107604660BDE8F08110B5074B08493C
:100D80001A880848B2F5007F0B6884BF04682343C3
:100D900003F03503DB07F5D410BD00BFE0F7FF1FFC
:100DA0000C2002404C200240002300F14C0252F87B
:100DB000331019B10133042BF9D1704700EBC30094
:100DC000402380F85030602380F85130014BC364D9
:100DD000704700BFD90D0008487821280FD1087846
:100DE00010F01F000DD18988042907D10649116030
:100DF0001A88282A01D928221A8001207047022047
:100E000070470020704700BFB81E0008002300F1A3
:100E10004C0252F8331019B10133042BF9D1704749
:100E200000EBC300402380F850307F2380F851301E
:100E3000014BC364704700BF3D0E000810B54878F1
:100E400001280AD18C88022C09D14988012906D1B0
:100E50000449116037221A8010BD0220FCE70020EF
:100E6000FAE700BFE01E0008014B024A1A60FEE7E5
:100E70000CED00E00400FA05044B93F810311BB1AF
:100E8000034B044A1A60FEE7704700BF18000020B9
:100E90000CED00E00400FA05002300F14C0252F8CA
:100EA000331039B10133042BF9D10122074B83F8F8
:100EB0001021704700EBC300212380F850307F23BE
:100EC00080F85130024BC364EFE700BF18000020E8
:100ED0001719000838B5064C054694F811318342BD
:100EE00003D0D4F8143103B1984784F8115138BDB8
:100EF000180000200620EDE738B50B4C054694F8A5
:100F00001831834203D0D4F81C3103B198474DB94E
:100F100094F811310A2B02D10220FFF7DBFF84F88D
:100F2000185138BD0A20F8E71800002010B5094C08
:100F3000D4F820313BB1984784F8240130B9BDE89A
:100F400010400A20D8E7012384F824310620BDE8A8
:100F50001040BFE7180000200138FDD1704701287C
:100F600038B571F1000304460D4623DB032200234C
:100F700000F0CEFD002B08BF012A10D0002B08BFC7
:100F8000022A0ED0042C75F100030DDB002320464D
:100F90002946032200F0BCFDBDE83840DCE700BF75
:100FA000F0E700BF00BFEDE700BF00BF00BF00BF1C
:100FB00000BF00BF38BD032373B504210646684651
:100FC0000093FFF7C5F800211148FFF7C8FF04237D
:100FD000104D8DF800302C788DF801409EB14FF403
:100FE0007F43ADF8023000230134E4B205216846A6
:100FF0008DF80430FFF7ACF8032C8ABF00232C7067
:101000002B7002B070BDFF23ADF80260ECE700BFAB
:101010007A320200000000202DE9F84F5A4A5B4D59
:101020005B4BD5F828451A6002F188321A60D5F872
:101030002C3504F1006404F5005423F00103554EEF
:10104000554FDFF864B103EB040905F2251A4C454E
:1010500001D1012403E0B4F1016F16D3002420462E
:10106000FFF7A9FF4B4A136843F080031360002C7D
:1010700000F08680D5F82835D5F82C2505201344B6
:10108000C5F82835BDE8F84F24E7D5F830359C423F
:1010900003D2D5F834359C422CD224F4FF6828F0D2
:1010A000070808F50063C5F83035C5F83485FFF743
:1010B00064FE3A4B1B88B3F5007F47D9384B9845FF
:1010C00044D93B6843F002033B60364BC3F80080D1
:1010D0003B6843F040033B60FFF74FFE2F4B1B88FC
:1010E000B3F5007F3DD92E4B98453AD93B6823F0A4
:1010F00002033B60BAF80080FFF73FFE274B1B88D6
:10110000B3F5007F32D9264B9C422FD93B6843F080
:1011100001033B60A4F80080FFF72FFE1F4B1B88E4
:10112000B3F5007F27D91E4B9C4224D93B6823F09E
:1011300001033B602188BAF80020A31C9142C5F846
:1011400034358BD11C460AF1020A80E7336843F03C
:1011500002033360CBF80080336843F04003336010
:10116000BAE7336823F002033360C3E7336843F020
:1011700001033360CEE7336823F001033360D9E71E
:101180000720BDE8F84FB7E62301674518000020A7
:10119000042002401020024050200240E0F7FF1FD0
:1011A000FFFF0708542002401420024080B5BC4BCA
:1011B000BC4ABD4990B08B42C0F0C8810021BB4AF7
:1011C0009342C0F0C881BA4ABA4C1368BA4D43F48E
:1011D00000731360AC42C0F0C181B84CB84DAC4252
:1011E000C0F0C081B74D2B6843F001032B602B6822
:1011F0009907FCD5B44CB549226822F0030222605D
:10120000226822F0F0022260226842F4404222600A
:10121000226822F4E06242F480622260226822F4B2
:1012200060522260226842F4800222600A6822F042
:10123000070242F001020A60226822F4701242F4AE
:1012400020122260226822F4803222602A6842F052
:1012500080722A602B689A01FCD52368002123F054
:10126000030343F002032360994B9A481A689A4F8C
:1012700042F004021A601A68984E42F008021A609E
:101280004FF480430222FFF749FD4FF40043002250
:1012900001219048FFF742FD4FF400433B604FF0BF
:1012A00080433B604FF08073B046012133600022E1
:1012B0004FF480738A48FFF731FD8A4900BF013936
:1012C000FCD1894B1B685B0404D4FFF731FA00287A
:1012D00040F0578100238DF82430844B04AA03F199
:1012E0001005144618685968083303C4AB422246F7
:1012F000F7D109A8002201461B7823707C4B1B689C
:1013000001937C4B1B6802937B4B1B68039310ABD0
:1013100003EB620313F83C3C10AC04EB131414F819
:10132000304C03F00F03047010AC234413F8303C2E
:101330000232182A437000F10200E8D100256F4EF6
:10134000DFF8F49106F5A76000F0CEFB86F8505563
:10135000D9F8003043F40003C9F80030D9F8003060
:1013600023F40003C9F800304FF48073C8F800304C
:10137000FFF7ECF9DFF8C481044608F13403036099
:1013800008F14603436008F1530383605C4B5D49F9
:10139000C3600423036106F2525343614FF4806338
:1013A0000383594BC0E939554367584BC0E933555E
:1013B0000367574BC0E93555C366564BC0F8E0800C
:1013C000C6F82031544BC6F814510362C6F81C51BC
:1013D000FFF7B6FA02235149204686F8113186F804
:1013E0001851FFF7ADFAEE23C4F8E43008F15C03BE
:1013F000C4F8E83020464A49FFF7A2FA04F14C034A
:1014000053F83520002A00F0B1800135042DF7D1C2
:1014100001224FF4007311462E48FFF77FFC4FF076
:10142000007300213F483B60FFF799FD3E4A3F496A
:101430001368284843F400131360D9F800303C4A7D
:1014400043F40013C9F80030D9F8003023F4001336
:10145000C9F80030136823F0010313600B6823F010
:101460003F039BB243F030030B608B6923F40043CE
:101470008B618B6903F4704343F0F0038B6131217E
:101480002C4B1960136843F0010313600322C0233F
:101490001146FFF743FC0020FFF78DFD50E000BF31
:1014A00000000020CC1F0008180000206C0900205C
:1014B00014ED00E0C41F0008C41F0008C41F00088A
:1014C000C41F000800100240041002400020024027
:1014D00018100240000C0140100C0140100801409F
:1014E0000008014000F91500080C0140781E0008B2
:1014F000F0F7FF1FECF7FF1FE8F7FF1F18000020B1
:1015000004000020990E0008F90B0008990C00084F
:10151000370B000831070008790E00080D0E00088F
:10152000A90D00087A8D5B001C1002400454004095
:10153000005400402054004010100240181F0008C2
:10154000D4F8E03020465B6A9847F9E752F8040B7C
:1015500043F8040B2FE643F8041B31E654F8043B30
:10156000984737E654F8043B984738E6402304EBA5
:10157000C50585F85030602385F85130184BEB6471
:1015800046E74FF40052174B17481A604FF4804358
:101590000122FFF7C3FB4FF4004301221248FFF77B
:1015A000BDFB2B6843F001032B6022680F4B1340F7
:1015B00023602B6823F0847323F480332B602B6823
:1015C00023F480232B60236823F4FE032360084B5D
:1015D0001960084B1A6882F308885B689847FEE731
:1015E000D90D000808ED00E0000C01400000FFF8F4
:1015F00008100240002000082DE9F04F1D464B88DE
:101600000646180A0328174689B000F02B8105D832
:10161000012828D0022831D000202CE00F28FBD14F
:10162000B468002CF8D0D6F814902E88C2F8009038
:1016300027784FF0000AB74228BF374621463A467E
:10164000484600F03BFAF61B94F800B009EB07039C
:10165000B6B221791FFA8AF2914200F2E680A9F827
:1016600002B02F8031E0336813601B782A889342E0
:1016700028BF13462B8009B0BDE8F08F7269DBB23A
:101680003A600D275F43D6F804802C8818F807606D
:1016900008EB0703A64228BF2646039219463246A6
:1016A0000398049300F00AFA0022039BA41B18F885
:1016B00007703344A4B20292049A1179BDF808204D
:1016C000914204D8039B5F802E800120D3E7029AC9
:1016D000029912010692049AD2F8092002EB011233
:1016E000D2F80890B9F1000F14D099F8008018468C
:1016F000A04528BFA0464946424600F0DFF9034610
:1017000099F80020A4EB0804464417444344A4B2CB
:10171000B6B2BFB200220592049A0699D2F8092007
:101720000A441079BDF81410884202D8029A013296
:10173000C1E715200599D2F80C9000FB01F819F8C3
:1017400008A009EB0802A24528BFA246019218464C
:101750005246019900F0B2F9034619F80820A4EBAB
:101760000A041744019A5644D2F80D105344A4B207
:10177000B6B2BFB2B1B1D2F811901846A145A8BF18
:10178000A1461FFA89F8424600F098F90346019AEB
:10179000A4EB0804D2F81120464417444344A4B2F1
:1017A000B6B2BFB24FF00008019A11791FFA88F261
:1017B000914202D8059A0132ADE7019AC8EB081AA6
:1017C000D2F809B018461BF80A200BEB0A09A2420E
:1017D00028BF22464946079200F070F90346079A4F
:1017E000D9F80710A41A164413441BF80A20A4B20F
:1017F0001744B6B2BFB2A9B1D9F80BB01846A34589
:10180000A8BFA3461FFA8BFA524600F057F90346C9
:10181000D9F80B20A4EB0A04564417445344A4B24D
:10182000B6B2BFB208F10108BEE7D4F805201846E9
:1018300052F82A100AF1010A91F800800191B0458E
:1018400028BFB046424600F039F903460199A6EB9D
:1018500008060A78474493444344B6B2BFB21FFA1D
:101860008BFBF6E613F0FF0374690DD10923A37017
:101870000423E37023702B88042B28BF04232B80C0
:10188000032363703C6020E7D6F8E4209A4219D124
:10189000D6F8E860304600F01FF901304000C0B2D1
:1018A00020702B88984228BF1846002328802A8859
:1018B0005208013A9A42E3DDF15C04EB43025180A5
:1018C0000133F4E7F068013B00283FF4D4AE3269FD
:1018D0009A427FF7A1AE40F20942898891427FF493
:1018E0009BAE50F82360304600F0F6F8013040001F
:1018F000C0B220702B88984228BF18460023288049
:101900002A885208013A9A42BADDF15C04EB43029C
:1019100051800133F4E72DE9F8431E468B88814658
:101920001746DDF82080002B40F0BC804C78062C58
:1019300000F2AE80DFE804F0A841830E3D0476009B
:1019400001241368584A92F811211A7034802046F5
:10195000BDE8F883544F156897F81131032B03D075
:10196000062B17D0002206E00420FFF7B3FA64220A
:101970004E4BC8F8003097F818316A702B7000236E
:10198000AB70EB706B71062397F811212A713380CD
:101990000124DCE797F824411CB10220FFF79AFAF2
:1019A000E0E70720FFF796FA414B2246C8F80030DF
:1019B000E1E70020FFF7A0FAEAE73B4E96F8113185
:1019C000022B0ED0052BC2D1CA883AB3396806F271
:1019D0002510C6F82C2500F071F80320FFF77AFADD
:1019E000B5E7CD888DB14FF000082A46396806F278
:1019F0002510C6F82885C6F82C5500F05FF803209E
:101A0000FFF768FA86F82481A1E70F20FFF774FA40
:101A1000012229464846FFF770F898E7254BC8F899
:101A2000003094E7204B012493F81131092B8ED814
:101A300004FA03F313F41B7F89D00220CEE71A4C7B
:101A400094F81131022B1BD0092BA1D1CD88D4F8E9
:101A50002835EA18B2F57E2F85BFC3F56045022010
:101A60000920ADB2FFF736FAD4F82825358002F107
:101A7000006303F5005315443B60C4F8285587E71D
:101A80000023C4F82835E1E70B4BC8F800307FE7A6
:101A90000F20FFF731FA012200214846FFF72DF809
:101AA000002454E7022452E718000020191000080F
:101AB0002D0F0008F50E0008690E00080A44914237
:101AC00000F1FF3300D1704710B511F8014B91427E
:101AD00003F8014FF9D110BD034613F8012B002A7A
:101AE000FBD1181A01387047034610B5013932B1DD
:101AF00011F8014F013A03F8014B002CF7D10021F6
:101B00001A44934200D110BD03F8011BF9E700000D
:101B10007BB972B90029BEBF00204FF0004106E03A
:101B200008BF00281CBF6FF000414FF0FF3000F0ED
:101B3000A1B9ADF1080C6DE904CE002909DB002B39
:101B40001ADB00F035F8DDF804E0DDE9022304B02B
:101B50007047404261EB4101002B1BDB00F028F88D
:101B6000DDF804E0DDE9022304B0404261EB41010D
:101B7000524263EB43037047524263EB430300F06E
:101B800017F8DDF804E0DDE9022304B0404261EB20
:101B900041017047524263EB430300F009F8DDF85E
:101BA00004E0DDE9022304B0524263EB43037047D3
:101BB0002DE9F047089E0D4604468E46002B40F066
:101BC00083808A42174647D9B2FA82F34BB1C3F1F8
:101BD000200105FA03FE20FA01F19F4041EA0E0EB2
:101BE0009C404FEA1748BEFBF8FC1FFA87F908FB38
:101BF0001CE20CFB09F0210C41EA024290420AD996
:101C0000BA180CF1FF3180F01881904240F2158132
:101C1000ACF1020C3A44121AB2FBF8F008FB1022A5
:101C200000FB09F1A4B244EA0244A14209D93C19DB
:101C300000F1FF3280F00381A14240F200810238BE
:101C40003C44641A002140EA0C401EB10022DC40F2
:101C5000C6E90042BDE8F08702B9FFDEB2FA82F3BE
:101C6000002B4FD18D1A01214FEA124E1FFA82F834
:101C7000B5FBFEFC0EFB1C5508FB0CF0220C42EAE7
:101C80000545A84207D97D190CF1FF3202D2A842BE
:101C900000F2E98094462D1AB5FBFEF00EFB1055BC
:101CA00008FB00F8A4B244EA0544A04507D93C1952
:101CB00000F1FF3202D2A04500F2D9801046A4EB19
:101CC000080440EA0C40C0E78B4208D9002E00F01F
:101CD000B1800021C6E900050846BDE8F087B3FAE7
:101CE00083F100294BD1AB4202D3824200F2B9808A
:101CF000841A65EB030301209E46002EAAD0C6E994
:101D0000004EA7E79F40C3F12002D1404FEA174E93
:101D1000B1FBFEF01FFA87F80EFB101124FA02F255
:101D20009D4000FB08FC2A43150C45EA0145AC45E3
:101D300004FA03F409D97D1900F1FF3180F08F8096
:101D4000AC4540F28C8002383D44A5EB0C05B5FB58
:101D5000FEF10EFB115C01FB08F995B245EA0C455A
:101D6000A94507D97D1901F1FF3274D2A94572D96D
:101D700002393D44A5EB090541EA004178E7C1F18C
:101D800020078B4022FA07FC4CEA030C25FA07F4E3
:101D90004FEA1C4EB4FBFEF91FFA8CF80EFB1944F7
:101DA00020FA07F309FB08FA8D401D432B0C43EA88
:101DB0000444A24502FA01F200FA01F309D91CEB2E
:101DC000040409F1FF3048D2A24546D9A9F102091D
:101DD0006444A4EB0A04B4FBFEF00EFB104400FBC9
:101DE00008FAADB245EA0444A24508D91CEB040444
:101DF00000F1FF352DD2A2452BD90238644440EAC8
:101E00000940A0FB0289A4EB0A044C45C6464D4696
:101E100019D316D05EB1B3EB0E0264EB050404FADD
:101E200007F722FA01F31F43CC40C6E900740021F2
:101E3000BDE8F087314630460CE78C46EBE61046AD
:101E4000FFE64345E6D2B8EB020E69EB0C0501381C
:101E5000E0E72846D3E711468CE78146B9E7084614
:101E600073E7084649E7ACF1020C3D4413E702383A
:101E70003C4424E7704700BF3031323334353637C5
:101E80003839414243444546004B6579626F61727F
:101E900064696F004D6F64656C20313030202842DA
:101EA0006F6F746C6F616465722900444150426FBA
:101EB0006F74204446550000280000000001040013
:101EC0000100000000000000000157494E55534238
:101ED0000000000000000000000000000000000002
:101EE0003703016466752E6B6579626F6172642ECB
:101EF000696F3F7669643D3078333439363B7069B9
:101F0000643D3078303030353B76657273696F6E82
:101F10003D366662653766004D0700081D070008FC
:101F2000D10500088D050008CD04000859040008FB
:101F300095040008D103000809020008C90200083E
:101F4000000000000000000000000000120110026C
:101F5000000000409634050011010102030109024E
:101F60000000010100C032B41F0008050F1D000170
:101F7000140000204D534654313030210009210710
:101F8000FF00000410011810050038B60834A90934
:101F9000A0478BFDA0768815B665000101010904F4
:101FA000000000FE010204000000007D1F0008097F
:101FB000000000006A09002001000000000000008D
:041FC0009E1F000858
:081FC400ECFBFF7F01000000AF
:101FCC0003000000891E0008941E00085005002024
:081FDC00AB1E0008861F00087F
:04000005080011AD31
:00000001FF
