:020000040800F2
:1000000000800120AD1100082D0700082F0700080F
:100010002F0700082F0700082F0700080000000026
:100020000000000000000000000000002D07000894
:100030002D070008000000002D0700082D0700080C
:100040002F0700082F0700082F0700082F070008B8
:100050002F0700082F0700082F0700082F070008A8
:100060002F0700082F0700082F0700082F07000898
:100070002F0700082F0700082F0700082F07000888
:100080002F0700082F0700082F0700082F07000878
:100090002F0700082F0700082F0700082F07000868
:1000A0002F0700082F0700082F0700082F07000858
:1000B0002F0700082F0700082F0700082F07000848
:1000C0002F0700082F0700082F0700082F07000838
:1000D0002F0700082F0700082F0700082F07000828
:1000E0002F0700082F0700082F0700082F07000818
:1000F0002F0700082F0700082F0700082F07000808
:100100002F0700082F0700082F0700082F070008F7
:100110002F0700082F0700082F0700082F070008E7
:100120002F0700082F0700082F0700082F070008D7
:100130002F0700082F0700082F0700082F070008C7
:100140002F0700082F0700082F0700082F070008B7
:10015000224A70B540F2014314461568AD0703D535
:10016000013B9BB2002BF8D11D4A1368143243F4B3
:10017000807342F8143C40F2014315461668F607B6
:1001800005D52668F60702D52668B60703D4013BD5
:100190009BB2002BF2D1B023124A136040F201430C
:1001A0002E68B60703D4013B9BB2002BF8D123681D
:1001B000014410F8013B136040F201432C686407CE
:1001C00003D4013B9BB2002BF8D18842F1D1044A01
:1001D000136843F40073136070BD00BF18540040EF
:1001E00000540040105400401346D0F8E02010B4F2
:1001F000D4690A46A446002110BC6047D0F8E0301C
:100200000A465B6900211847F0B58C0004F1804470
:1002100004F5B8441846236803F44053B3F5405F2F
:1002200048D0254E254F3368CD009BB203EBC10368
:100230005B00FB58C3F30903834206DA33689BB2C1
:100240002B445B00F858C0F30900336800F0010745
:100250009BB21D441A4B6D005B5B45085B0003F1CC
:10026000804303F5C0431E4602EB450C62451CD19A
:1002700017B113F825301370236823F0F0031B0522
:100280001B0D43F0800323600E4B5B5C63B9226857
:1002900022F4804222F0700292B282F4405242F480
:1002A000004242F080022260F0BD36F804EB22F8F2
:1002B00002EBDBE70020F7E7505C00400C600040F9
:1002C0000860004018000020F7B53F4A0446136854
:1002D000164613F4806F9FB21CD04FF6FF331360A5
:1002E0004023002583830368D0F8E0204583DB7931
:1002F0000095294696682A46B047D4F8E03029464A
:100300005B6820469847236A002B42D003B0BDE8C3
:10031000F04018471A041CD503F00F018D0005F1B9
:10032000804513F0100305F5B84534D02B681B0544
:100330003AD5082300F13402FFF766FF022301EBF0
:100340004102134404EB8303DB6E002B2ED02046C6
:1003500098473A0505D54FF2FF733360636A03B1DE
:100360009847FB0405D54EF6FF733360A36A03B1CB
:10037000984717F4007F154D05D04FF6FF52E36AFA
:100380003260E3B19847E36ACBB12B6843F4007362
:100390002B6003B0F0BD2A6822F0F0021205120DA6
:1003A00042F400422A60CAE70123C8E72B6823F021
:1003B000F0031B051B0D43F080032B60C9E72B687E
:1003C00023F40073E4E700BF445C0040405C00405D
:1003D000F0B501F07F05AC0004F1804404F5B844A9
:1003E0001846236803F03003302B2FD0184EEB0053
:1003F000316889B201EBC501490001F1804101F585
:10040000C0410988451C490001F180416D1001F58A
:10041000C04102EB4505AA4213D1326892B213449F
:100420000C4A5B00D050226822F4E04222F04002E5
:1004300092B282F0300242F4004242F08002226026
:10044000F0BD32F8027B41F8047BE4E70020F7E7D7
:10045000505C0040046000400B0612D40B4B0C486B
:100460005A54890001F1804101F5B8410B680340FD
:100470009BB23AB183F4005343F4004343F080034A
:100480000B60704783F44053F6E700BF180000206C
:100490008FBFFFFF0B060ED501F07F01890001F130
:1004A000804101F5B841086800F03000102814BF01
:1004B000002001207047890001F1804101F5B84119
:1004C000086800F44050B0F5805FF0E710B50029EF
:1004D00033D1002A14BF102420242B48036823F4AE
:1004E000E04323F0400363401BB243F4004343F076
:1004F00080039BB20360890001F1804101F5B8419E
:100500003AB90B6823F4415323F030031B041B0C4E
:100510000B60002A14BF4FF480524FF440520B6816
:1005200023F4804323F0700353401BB243F4004391
:1005300043F080039BB20B6024E00B06DBD5002A5E
:1005400014BF1022202201F07F034FEA830303F13E
:10055000804303F5B843196821F4E04121F04001DC
:1005600082EA010212B242F4004242F0800292B2E8
:100570001A6007D11A6822F4E04222F03002120415
:10058000120C1A6010BD00BF005C004048F28001F0
:1005900070B50B4A0B4E0C4D0C4C136833400B439B
:1005A0009BB2136013682B400B439BB242F8043B91
:1005B000A242F2D10368DB7920335B00838370BDF4
:1005C000045C0040BF8FFFFF8FBFFFFF205C004037
:1005D000F7B54FF0C0644D4D0DF1080CCDE9005456
:1005E00001F07F05AC0004F1804404F5B8442668AE
:1005F0000CEB420226F4E04626F07F062E43B6B20C
:100600002660266832F8082C26F4EC4626F07006A0
:10061000164349B2B6B200292660089FDFF8F4C03D
:100620004FEAC50613DB95B1DCF80020818B92B24E
:10063000DFF8E4E0324452003E2B4EF8021034D88A
:1006400001335B084FEA430E1FFA8EFE37E0DCF8F9
:100650000020B0F81CE092B23244520002F1804215
:1006600002F5C042C2F800E01FB10C2202FB0502F5
:10067000D76622689E4422F4E04222F0300212043F
:10068000120C22602268002922F4E04222F040028B
:1006900092B282F0200242F4004242F080022260D4
:1006A000A0F81CE0C0DA03B0F0BD03F1FF3ECEF3CA
:1006B00044130EF4787E0EF1200E43F02003DCF894
:1006C00000209B0292B21644114A76009BB29351CD
:1006D0001FB10C2303FB05052F672368714423F426
:1006E000415323F030031B041B0C2360226822F4C7
:1006F000804222F0700292B282F4405242F40042F0
:1007000042F0800222608183CDE700BF0002000436
:100710000C600040505C004008600040024B41F01B
:1007200080011960704700BF4C5C00407047FEE7D5
:10073000044B05481B68184000F16043584258417B
:10074000704700BF002000080000FE2F094A0A4938
:1007500013680A4843F4000313600023A2F5D9325A
:10076000A2F5EE7213600B6041F80C3C4FF41C4391
:10077000136070471C100240505C004020000020B5
:1007800010B514461A88022A84BF02221A8089886A
:10079000D0F8E030C9B29B699847003818BF0120F3
:1007A000002223681870236801205A7010BD198830
:1007B0000120022984BF02211980002311680B70D7
:1007C00012685370704719880120022984BF0221E2
:1007D0001980002311680B7012685370704730B590
:1007E0000D24C57E40686C430D3C04448D882079FF
:1007F00085420CD2012018808B88D4F809001B0197
:100800001B5803B11B7801201268137030BD002003
:10081000FCE70D2270B51C46C37E5A4343680D3A6F
:1008200013441D798A88954219D9D3F809501601C5
:1008300005EB02124B8812799A4210D9AA5952B18B
:100840001370D0F8DC3013B14A88898898470023A8
:100850000120238070BD002BF3D01046FAE7002062
:10086000F8E719881268012984BF01211980C37E25
:100870002BB141680D2000FB031313F8083C012045
:1008800013707047F8B50D464988044679B103687E
:100890000D26587C0023984201D80020F8BD6268DC
:1008A00006FB032252798A4203D00133F3E74FF06B
:1008B000FF330133DBB2E3764BB9D4F8E0302046A6
:1008C000DB689847D4F8CC309BB90120E6E70D22CD
:1008D000534362680D3B134400221046197991423C
:1008E000EBD9D3F809101601715801B10870013223
:1008F000F4E7002304F1CC06E3646365E365636613
:1009000004F1DC0756F8043B13B120466988984788
:10091000B742F7D1D9E710B50B7873B94C887F2C63
:100920000CD8D0F8E030847693F830201AB149889A
:100930005B68C9B29847012300E00023184610BD48
:100940000346002210B500F1CC0454F8040B38B172
:1009500088420AD00132042AF7D14FF0FF3010BD8F
:1009600003EB8203C3F8CC10F9E70020F7E72DE989
:10097000F74F05460C46064600F1200900F13C07FA
:1009800000F1400A00F14408D6F84CB02378BBF1DE
:10099000000F05D1237813F0600018D0002013E079
:1009A00096F8511096F850200B409A4203D0083622
:1009B0004E45E9D1EEE753463A4621462846CDF862
:1009C0000080D8470128F2D803B0BDE8F08F03F0CB
:1009D0001F03012B30D0022B3BD0002BF4D16378C6
:1009E000092BDBD801A252F823F000BF310A00081E
:1009F0009D0900089D0900089D0900089D0900083F
:100A0000350A00082D0A00089D090008290A000877
:100A1000150A0008184E53463A4621462846B44661
:100A200003B0BDE8F04F6047144EF4E7144EF2E710
:100A3000144EF0E7144EEEE763780A2B05D00B2B2B
:100A400005D0002BC0D1114EE5E7114EE3E7114E62
:100A5000E1E76378012B05D0032B08D0002BB3D13D
:100A60000D4ED8E76388002BAED10C4ED3E76388D8
:100A7000002BA9D10A4ECEE78508000863080008BC
:100A8000F9150008AF07000817090008C707000894
:100A9000DF0700081308000881070008030B00089F
:100AA000130B000810B503680446DA79B0F840303B
:100AB000C16B9A420FD2FFF797FB022384F83030C4
:100AC0002368E26BD979B4F840300A445B1AE263D8
:100AD000A4F8403010BD1A46FFF786FB94F8483062
:100AE000002B14BF0223032384F83030002384F842
:100AF0004830A4F84030E363ECE7D0F8E0301B69FD
:100B0000184708B589880022C9B2FFF7F6FF01200F
:100B100008BD08B589880122C9B2FFF7EEFF0120A0
:100B200008BD10B5012200210446FFF7E6FF0023AF
:100B300084F8303010BD10B590F830300446032BE7
:100B400006D0042B0CD0022B21D1BDE81040A9E720
:100B5000072380F830300021BDE81040FFF74EBB7E
:100B6000436C13B100F13401984794F8343053B911
:100B700094F83530052B06D1E18ED4F8E0302046CC
:100B80005B68C9B29847002384F8303010BDBDE8D7
:100B90001040C6E738B543690446C3638B79CA7908
:100BA0000D4643EA0223A0F84030FFF7E0FEF8B11B
:100BB000EA88AAB1B4F8403021689A42C9790DD9BF
:100BC00033B1B3FBF1F201FB1233B3FA83F35B09E8
:100BD000204684F84830BDE8384063E70023F7E753
:100BE00011462046FFF700FB042384F8303038BD5F
:100BF0002046BDE8384094E770B500250446012141
:100C0000456400F13406FFF7F9FA628F22B93146E4
:100C10002046BDE87040BDE794F93430002BF6DB88
:100C2000238B934203D22046BDE8704079E7636985
:100C3000A4F84050E36323682946DB7920469342B9
:100C400034BF0523062384F83030BDE87040FFF739
:100C5000D5BAF8B50368B0F84020458FDB79AD1AF6
:100C60009D42A8BF1D46C16BD0F8E030AEB21F6AEE
:100C70000A44334600210446B847864205D0204640
:100C8000FFF74FFF4FF0FF30F8BDB4F84030A8B287
:100C90001E44A4F84060F7E738B590F830300446B9
:100CA000062B13D0072B26D0052B21D1FFF7D1FF20
:100CB00000280ADBB4F84020638F9B1A2268D2799F
:100CC000934202DC062384F8303038BDFFF7C1FFC1
:100CD0000028FADB204604F13401FFF748FE30B16A
:100CE000002220461146FFF77FFA0423EBE7204657
:100CF000BDE8384015E7D0F8E0301D6A00231A46F9
:100D00001946A847002384F83030636C1BB1204695
:100D100004F13401984700236364D6E72DE9F041DC
:100D20004FF00F0C00250768466843FA05F4E40706
:100D30001CD5072D94BFBE46B646ACB24FEA84041C
:100D40008ABF203CA4B2A4B20CFA04F82EEA080828
:100D500004F1020E02FA0EFE01FA04F44EEA040453
:100D600044EA0804072D94BF274626460135102D76
:100D7000DBD107604660BDE8F08110B5074B08493C
:100D80001A880848B2F5007F0B6884BF04682343C3
:100D900003F03503DB07F5D410BD00BFE0F7FF1FFC
:100DA0000C2002404C200240002300F14C0252F87B
:100DB000331019B10133042BF9D1704700EBC30094
:100DC000402380F85030602380F85130014BC364D9
:100DD000704700BFD90D0008487821280FD1087846
:100DE00010F01F000DD18988042907D10649116030
:100DF0001A88282A01D928221A8001207047022047
:100E000070470020704700BFB81E0008002300F1A3
:100E10004C0252F8331019B10133042BF9D1704749
:100E200000EBC300402380F850307F2380F851301E
:100E3000014BC364704700BF3D0E000810B54878F1
:100E400001280AD18C88022C09D14988012906D1B0
:100E50000449116037221A8010BD0220FCE70020EF
:100E6000FAE700BFE01E0008014B024A1A60FEE7E5
:100E70000CED00E00400FA05044B93F810311BB1AF
:100E8000034B044A1A60FEE7704700BF18000020B9
:100E90000CED00E00400FA05002300F14C0252F8CA
:100EA000331039B10133042BF9D10122074B83F8F8
:100EB0001021704700EBC300212380F850307F23BE
:100EC00080F85130024BC364EFE700BF18000020E8
:100ED0001719000838B5064C054694F811318342BD
:100EE00003D0D4F8143103B1984784F8115138BDB8
:100EF000180000200620EDE738B50B4C054694F8A5
:100F00001831834203D0D4F81C3103B198474DB94E
:100F100094F811310A2B02D10220FFF7DBFF84F88D
:100F2000185138BD0A20F8E71800002010B5094C08
:100F3000D4F820313BB1984784F8240130B9BDE89A
:100F400010400A20D8E7012384F824310620BDE8A8
:100F50001040BFE7180000200138FDD1704701287C
:100F600038B571F1000304460D4623DB032200234C
:100F700000F0CEFD002B08BF012A10D0002B08BFC7
:100F8000022A0ED0042C75F100030DDB002320464D
:100F90002946032200F0BCFDBDE83840DCE700BF75
:100FA000F0E700BF00BFEDE700BF00BF00BF00BF1C
:100FB00000BF00BF38BD032373B504210646684651
:100FC0000093FFF7C5F800211148FFF7C8FF04237D
:100FD000104D8DF800302C788DF801409EB14FF403
:100FE0007F43ADF8023000230134E4B205216846A6
:100FF0008DF80430FFF7ACF8032C8ABF00232C7067
:101000002B7002B070BDFF23ADF80260ECE700BFAB
:101010007A320200000000202DE9F84F5A4A5B4D59
:101020005B4BD5F828451A6002F188321A60D5F872
:101030002C3504F1006404F5005423F00103554EEF
:10104000554FDFF864B103EB040905F2251A4C454E
:1010500001D1012403E0B4F1016F16D3002420462E
:10106000FFF7A9FF4B4A136843F080031360002C7D
:1010700000F08680D5F82835D5F82C2505201344B6
:10108000C5F82835BDE8F84F24E7D5F830359C423F
:1010900003D2D5F834359C422CD224F4FF6828F0D2
:1010A000070808F50063C5F83035C5F83485FFF743
:1010B00064FE3A4B1B88B3F5007F47D9384B9845FF
:1010C00044D93B6843F002033B60364BC3F80080D1
:1010D0003B6843F040033B60FFF74FFE2F4B1B88FC
:1010E000B3F5007F3DD92E4B98453AD93B6823F0A4
:1010F00002033B60BAF80080FFF73FFE274B1B88D6
:10110000B3F5007F32D9264B9C422FD93B6843F080
:1011100001033B60A4F80080FFF72FFE1F4B1B88E4
:10112000B3F5007F27D91E4B9C4224D93B6823F09E
:1011300001033B602188BAF80020A31C9142C5F846
:1011400034358BD11C460AF1020A80E7336843F03C
:1011500002033360CBF80080336843F04003336010
:10116000BAE7336823F002033360C3E7336843F020
:1011700001033360CEE7336823F001033360D9E71E
:101180000720BDE8F84FB7E62301674518000020A7
:10119000042002401020024050200240E0F7FF1FD0
:1011A000FFFF0708542002401420024080B5BC4BCA
:1011B000BC4ABD4990B08B42C0F0C8810021BB4AF7
:1011C0009342C0F0C881BA4ABA4C1368BA4D43F48E
:1011D00000731360AC42C0F0C181B84CB84DAC4252
:1011E000C0F0C081B74D2B6843F001032B602B6822
:1011F0009907FCD5B44CB549226822F0030222605D
:10120000226822F0F0022260226842F4404222600A
:10121000226822F4E06242F480622260226822F4B2
:1012200060522260226842F4800222600A6822F042
:10123000070242F001020A60226822F4701242F4AE
:1012400020122260226822F4803222602A6842F052
:1012500080722A602B689A01FCD52368002123F054
:10126000030343F002032360994B9A481A689A4F8C
:1012700042F004021A601A68984E42F008021A609E
:101280004FF480430222FFF749FD4FF40043002250
:1012900001219048FFF742FD4FF400433B604FF0BF
:1012A00080433B604FF08073B046012133600022E1
:1012B0004FF480738A48FFF731FD8A4900BF013936
:1012C000FCD1894B1B685B0404D4FFF731FA00287A
:1012D00040F0578100238DF82430844B04AA03F199
:1012E0001005144618685968083303C4AB422246F7
:1012F000F7D109A8002201461B7823707C4B1B689C
:1013000001937C4B1B6802937B4B1B68039310ABD0
:1013100003EB620313F83C3C10AC04EB131414F819
:10132000304C03F00F03047010AC234413F8303C2E
:101330000232182A437000F10200E8D100256F4EF6
:10134000DFF8F49106F5A76000F0CEFB86F8505563
:10135000D9F8003043F40003C9F80030D9F8003060
:1013600023F40003C9F800304FF48073C8F800304C
:10137000FFF7ECF9DFF8C481044608F13403036099
:1013800008F14603436008F1530383605C4B5D49F9
:10139000C3600423036106F2525343614FF4806338
:1013A0000383594BC0E939554367584BC0E933555E
:1013B0000367574BC0E93555C366564BC0F8E0800C
:1013C000C6F82031544BC6F814510362C6F81C51BC
:1013D000FFF7B6FA02235149204686F8113186F804
:1013E0001851FFF7ADFAEE23C4F8E43008F15C03BE
:1013F000C4F8E83020464A49FFF7A2FA04F14C034A
:1014000053F83520002A00F0B1800135042DF7D1C2
:1014100001224FF4007311462E48FFF77FFC4FF076
:10142000007300213F483B60FFF799FD3E4A3F496A
:101430001368284843F400131360D9F800303C4A7D
:1014400043F40013C9F80030D9F8003023F4001336
:10145000C9F80030136823F0010313600B6823F010
:101460003F039BB243F030030B608B6923F40043CE
:101470008B618B6903F4704343F0F0038B6131217E
:101480002C4B1960136843F0010313600322C0233F
:101490001146FFF743FC0020FFF78DFD50E000BF31
:1014A00000000020CC1F0008180000206C0900205C
:1014B00014ED00E0C41F0008C41F0008C41F00088A
:1014C000C41F000800100240041002400020024027
:1014D00018100240000C0140100C0140100801409F
:1014E0000008014000F91500080C0140781E0008B2
:1014F000F0F7FF1FECF7FF1FE8F7FF1F18000020B1
:1015000004000020990E0008F90B0008990C00084F
:10151000370B000831070008790E00080D0E00088F
:10152000A90D00087A8D5B001C1002400454004095
:10153000005400402054004010100240181F0008C2
:10154000D4F8E03020465B6A9847F9E752F8040B7C
:1015500043F8040B2FE643F8041B31E654F8043B30
:10156000984737E654F8043B984738E6402304EBA5
:10157000C50585F85030602385F85130184BEB6471
:1015800046E74FF40052174B17481A604FF4804358
:101590000122FFF7C3FB4FF4004301221248FFF77B
:1015A000BDFB2B6843F001032B6022680F4B1340F7
:1015B00023602B6823F0847323F480332B602B6823
:1015C00023F480232B60236823F4FE032360084B5D
:1015D0001960084B1A6882F308885B689847FEE731
:1015E000D90D000808ED00E0000C01400000FFF8F4
:1015F00008100240002000082DE9F04F1D464B88DE
:101600000646180A0328174689B000F02B8105D832
:10161000012828D0022831D000202CE00F28FBD14F
:10162000B468002CF8D0D6F814902E88C2F8009038
:1016300027784FF0000AB74228BF374621463A467E
:10164000484600F03BFAF61B94F800B009EB07039C
:10165000B6B221791FFA8AF2914200F2E680A9F827
:1016600002B02F8031E0336813601B782A889342E0
:1016700028BF13462B8009B0BDE8F08F7269DBB23A
:101680003A600D275F43D6F804802C8818F807606D
:1016900008EB0703A64228BF2646039219463246A6
:1016A0000398049300F00AFA0022039BA41B18F885
:1016B00007703344A4B20292049A1179BDF808204D
:1016C000914204D8039B5F802E800120D3E7029AC9
:1016D000029912010692049AD2F8092002EB011233
:1016E000D2F80890B9F1000F14D099F8008018468C
:1016F000A04528BFA0464946424600F0DFF9034610
:1017000099F80020A4EB0804464417444344A4B2CB
:10171000B6B2BFB200220592049A0699D2F8092007
:101720000A441079BDF81410884202D8029A013296
:10173000C1E715200599D2F80C9000FB01F819F8C3
:1017400008A009EB0802A24528BFA246019218464C
:101750005246019900F0B2F9034619F80820A4EBAB
:101760000A041744019A5644D2F80D105344A4B207
:10177000B6B2BFB2B1B1D2F811901846A145A8BF18
:10178000A1461FFA89F8424600F098F90346019AEB
:10179000A4EB0804D2F81120464417444344A4B2F1
:1017A000B6B2BFB24FF00008019A11791FFA88F261
:1017B000914202D8059A0132ADE7019AC8EB081AA6
:1017C000D2F809B018461BF80A200BEB0A09A2420E
:1017D00028BF22464946079200F070F90346079A4F
:1017E000D9F80710A41A164413441BF80A20A4B20F
:1017F0001744B6B2BFB2A9B1D9F80BB01846A34589
:10180000A8BFA3461FFA8BFA524600F057F90346C9
:10181000D9F80B20A4EB0A04564417445344A4B24D
:10182000B6B2BFB208F10108BEE7D4F805201846E9
:1018300052F82A100AF1010A91F800800191B0458E
:1018400028BFB046424600F039F903460199A6EB9D
:1018500008060A78474493444344B6B2BFB21FFA1D
:101860008BFBF6E613F0FF0374690DD10923A37017
:101870000423E37023702B88042B28BF04232B80C0
:10188000032363703C6020E7D6F8E4209A4219D124
:10189000D6F8E860304600F01FF901304000C0B2D1
:1018A00020702B88984228BF1846002328802A8859
:1018B0005208013A9A42E3DDF15C04EB43025180A5
:1018C0000133F4E7F068013B00283FF4D4AE3269FD
:1018D0009A427FF7A1AE40F20942898891427FF493
:1018E0009BAE50F82360304600F0F6F8013040001F
:1018F000C0B220702B88984228BF18460023288049
:101900002A885208013A9A42BADDF15C04EB43029C
:1019100051800133F4E72DE9F8431E468B88814658
:101920001746DDF82080002B40F0BC804C78062C58
:1019300000F2AE80DFE804F0A841830E3D0476009B
:1019400001241368584A92F811211A7034802046F5
:10195000BDE8F883544F156897F81131032B03D075
:10196000062B17D0002206E00420FFF7B3FA64220A
:101970004E4BC8F8003097F818316A702B7000236E
:10198000AB70EB706B71062397F811212A713380CD
:101990000124DCE797F824411CB10220FFF79AFAF2
:1019A000E0E70720FFF796FA414B2246C8F80030DF
:1019B000E1E70020FFF7A0FAEAE73B4E96F8113185
:1019C000022B0ED0052BC2D1CA883AB3396806F271
:1019D0002510C6F82C2500F071F80320FFF77AFADD
:1019E000B5E7CD888DB14FF000082A46396806F278
:1019F0002510C6F82885C6F82C5500F05FF803209E
:101A0000FFF768FA86F82481A1E70F20FFF774FA40
:101A1000012229464846FFF770F898E7254BC8F899
:101A2000003094E7204B012493F81131092B8ED814
:101A300004FA03F313F41B7F89D00220CEE71A4C7B
:101A400094F81131022B1BD0092BA1D1CD88D4F8E9
:101A50002835EA18B2F57E2F85BFC3F56045022010
:101A60000920ADB2FFF736FAD4F82825358002F107
:101A7000006303F5005315443B60C4F8285587E71D
:101A80000023C4F82835E1E70B4BC8F800307FE7A6
:101A90000F20FFF731FA012200214846FFF72DF809
:101AA000002454E7022452E718000020191000080F
:101AB0002D0F0008F50E0008690E00080A44914237
:101AC00000F1FF3300D1704710B511F8014B91427E
:101AD00003F8014FF9D110BD034613F8012B002A7A
:101AE000FBD1181A01387047034610B5013932B1DD
:101AF00011F8014F013A03F8014B002CF7D10021F6
:101B00001A44934200D110BD03F8011BF9E700000D
:101B10007BB972B90029BEBF00204FF0004106E03A
:101B200008BF00281CBF6FF000414FF0FF3000F0ED
:101B3000A1B9ADF1080C6DE904CE002909DB002B39
:101B40001ADB00F035F8DDF804E0DDE9022304B02B
:101B50007047404261EB4101002B1BDB00F028F88D
:101B6000DDF804E0DDE9022304B0404261EB41010D
:101B7000524263EB43037047524263EB430300F06E
:101B800017F8DDF804E0DDE9022304B0404261EB20
:101B900041017047524263EB430300F009F8DDF85E
:101BA00004E0DDE9022304B0524263EB43037047D3
:101BB0002DE9F047089E0D4604468E46002B40F066
:101BC00083808A42174647D9B2FA82F34BB1C3F1F8
:101BD000200105FA03FE20FA01F19F4041EA0E0EB2
:101BE0009C404FEA1748BEFBF8FC1FFA87F908FB38
:101BF0001CE20CFB09F0210C41EA024290420AD996
:101C0000BA180CF1FF3180F01881904240F2158132
:101C1000ACF1020C3A44121AB2FBF8F008FB1022A5
:101C200000FB09F1A4B244EA0244A14209D93C19DB
:101C300000F1FF3280F00381A14240F200810238BE
:101C40003C44641A002140EA0C401EB10022DC40F2
:101C5000C6E90042BDE8F08702B9FFDEB2FA82F3BE
:101C6000002B4FD18D1A01214FEA124E1FFA82F834
:101C7000B5FBFEFC0EFB1C5508FB0CF0220C42EAE7
:101C80000545A84207D97D190CF1FF3202D2A842BE
:101C900000F2E98094462D1AB5FBFEF00EFB1055BC
:101CA00008FB00F8A4B244EA0544A04507D93C1952
:101CB00000F1FF3202D2A04500F2D9801046A4EB19
:101CC000080440EA0C40C0E78B4208D9002E00F01F
:101CD000B1800021C6E900050846BDE8F087B3FAE7
:101CE00083F100294BD1AB4202D3824200F2B9808A
:101CF000841A65EB030301209E46002EAAD0C6E994
:101D0000004EA7E79F40C3F12002D1404FEA174E93
:101D1000B1FBFEF01FFA87F80EFB101124FA02F255
:101D20009D4000FB08FC2A43150C45EA0145AC45E3
:101D300004FA03F409D97D1900F1FF3180F08F8096
:101D4000AC4540F28C8002383D44A5EB0C05B5FB58
:101D5000FEF10EFB115C01FB08F995B245EA0C455A
:101D6000A94507D97D1901F1FF3274D2A94572D96D
:101D700002393D44A5EB090541EA004178E7C1F18C
:101D800020078B4022FA07FC4CEA030C25FA07F4E3
:101D90004FEA1C4EB4FBFEF91FFA8CF80EFB1944F7
:101DA00020FA07F309FB08FA8D401D432B0C43EA88
:101DB0000444A24502FA01F200FA01F309D91CEB2E
:101DC000040409F1FF3048D2A24546D9A9F102091D
:101DD0006444A4EB0A04B4FBFEF00EFB104400FBC9
:101DE00008FAADB245EA0444A24508D91CEB040444
:101DF00000F1FF352DD2A2452BD90238644440EAC8
:101E00000940A0FB0289A4EB0A044C45C6464D4696
:101E100019D316D05EB1B3EB0E0264EB050404FADD
:101E200007F722FA01F31F43CC40C6E900740021F2
:101E3000BDE8F087314630460CE78C46EBE61046AD
:101E4000FFE64345E6D2B8EB020E69EB0C0501381C
:101E5000E0E72846D3E711468CE78146B9E7084614
:101E600073E7084649E7ACF1020C3D4413E702383A
:101E70003C4424E7704700BF3031323334353637C5
:101E80003839414243444546004B6579626F61727F
:101E900064696F004D6F64656C20313030202842DA
:101EA0006F6F746C6F616465722900444150426FBA
:101EB0006F74204446550000280000000001040013
:101EC0000100000000000000000157494E55534238
:101ED0000000000000000000000000000000000002
:101EE0003703016466752E6B6579626F6172642ECB
:101EF000696F3F7669643D3078333439363B7069B9
:101F0000643D3078303030353B76657273696F6E82
:101F10003D366662653766004D0700081D070008FC
:101F2000D10500088D050008CD04000859040008FB
:101F300095040008D103000809020008C90200083E
:101F4000000000000000000000000000120110026C
:101F5000000000409634050011010102030109024E
:101F60000000010100C032B41F0008050F1D000170
:101F7000140000204D534654313030210009210710
:101F8000FF00000410011810050038B60834A90934
:101F9000A0478BFDA0768815B665000101010904F4
:101FA000000000FE010204000000007D1F0008097F
:101FB000000000006A09002001000000000000008D
:041FC0009E1F000858
:081FC400ECFBFF7F01000000AF
:101FCC0003000000891E0008941E00085005002024
:081FDC00AB1E0008861F00087F
:020000040800F2
:1020000000800120050302084D0302084D03020869
:102010004D0302084D0302084D03020800000000B2
:102020000000000000000000000000004D03020856
:102030004D030208000000004D030208DD090208FC
:102040004D0302084D0302084D0302084D03020828
:102050004D0302084D0302084D0302084D03020818
:102060004D0302084D0302084D0302084D03020808
:102070004D0302084D0302084D0302084D030208F8
:102080004D0302084D0302084D03020879060208B9
:10209000850602084D0302084D0302084D0302089D
:1020A0004D0302084D0302084D0302084D030208C8
:1020B0004D0302084D0302084D03020851B7010801
:1020C00069B701082DB8010845B801084D03020899
:1020D0004D030208000000004D0302084D030208F2
:1020E0004D0302084D030208910602084D03020841
:1020F0004D0302084D0302084D0302084D03020878
:102100004D0302084D0302084D0302084D03020867
:102110004D0302084D0302084D0302084D03020857
:102120004D0302084D0302084D0302084D03020847
:1021300010F8012B11F8013B012A28BF9A42F7D071
:10214000D01A7047034613F8012B002AFBD1181A46
:10215000013870470000000000000000000000008F
:1021600001F0FF01102A2BDB10F0070F08D010F848
:10217000013B013A8B422DD010F0070F42B3F6D14C
:10218000F0B441EA012141EA014122F007047FF065
:1021900000070023F0E80256083C85EA010586EABC
:1021A000010685FA47F5A3FA87F586FA47F6A5FAF8
:1021B00087F68EB9EED1F0BC01F0FF0102F0070204
:1021C00032B110F8013B013A83EA010313B1F8D1AF
:1021D0000020704701387047002D06BF3546033890
:1021E000073815F0010F07D1013015F4807F02BFC9
:1021F000013015F4C03F0130F0BC0138704700BF1A
:1022000081F0004102E000BF83F0004330B54FEAA7
:1022100041044FEA430594EA050F08BF90EA020F14
:102220001FBF54EA000C55EA020C7FEA645C7FEAA7
:10223000655C00F0E2804FEA5454D4EB5555B8BFCA
:102240006D420CDD2C4480EA020281EA030382EA3B
:10225000000083EA010180EA020281EA0303362DCD
:1022600088BF30BD11F0004F4FEA01314FF4801CA0
:102270004CEA113102D0404261EB410113F0004FB2
:102280004FEA03334CEA133302D0524263EB430369
:1022900094EA050F00F0A780A4F10104D5F1200E07
:1022A0000DDB02FA0EFC22FA05F2801841F1000162
:1022B00003FA0EF2801843FA05F359410EE0A5F136
:1022C00020050EF1200E012A03FA0EFC28BF4CF067
:1022D000020C43FA05F3C01851EBE37101F000451D
:1022E00007D54FF0000EDCF1000C7EEB00006EEB2A
:1022F0000101B1F5801F1BD3B1F5001F0CD34908B4
:102300005FEA30004FEA3C0C04F101044FEA44520A
:1023100012F5800F80F09A80BCF1004F08BF5FEA91
:10232000500C50F1000041EB045141EA050130BD71
:102330005FEA4C0C404141EB0101013C28BFB1F583
:10234000801FE9D291F0000F04BF01460020B1FACE
:1023500081F308BF2033A3F10B03B3F120020CDAA1
:102360000C3208DD02F1140CC2F10C0201FA0CF07F
:1023700021FA02F10CE002F11402D8BFC2F1200CE4
:1023800001FA02F120FA0CFCDCBF41EA0C0190409A
:10239000E41AA2BF01EB0451294330BD6FEA0404E3
:1023A0001F3C1CDA0C340EDC04F11404C4F12002CE
:1023B00020FA04F001FA02F340EA030021FA04F3E0
:1023C00045EA030130BDC4F10C04C4F1200220FA37
:1023D00002F001FA04F340EA0300294630BD21FA75
:1023E00004F0294630BD94F0000F83F4801306BF3B
:1023F00081F480110134013D4EE77FEA645C18BF2F
:102400007FEA655C29D094EA050F08BF90EA020FC5
:1024100005D054EA000C04BF1946104630BD91EABD
:10242000030F1EBF0021002030BD5FEA545C05D1C0
:102430004000494128BF41F0004130BD14F58004FF
:102440003CBF01F5801130BD01F0004545F0FE4173
:1024500041F470014FF0000030BD7FEA645C1ABFA8
:10246000194610467FEA655C1CBF0B46024650EADF
:10247000013406BF52EA033591EA030F41F400210B
:1024800030BD00BF90F0000F04BF0021704730B591
:102490004FF4806404F132044FF000054FF0000166
:1024A00050E700BF90F0000F04BF0021704730B527
:1024B0004FF4806404F1320410F0004548BF4042FC
:1024C0004FF000013EE700BF42004FEAE2014FEA51
:1024D00031014FEA02701FBF12F07F4393F07F4F2C
:1024E00081F06051704732F07F4208BF704793F02F
:1024F0007F4F04BF41F40021704730B54FF4607442
:1025000001F0004521F000411CE700BF50EA010244
:1025100008BF704730B54FF000050AE050EA0102ED
:1025200008BF704730B511F0004502D5404261EB5D
:1025300041014FF4806404F132045FEA915C3FF49E
:10254000D8AE4FF003025FEADC0C18BF03325FEA3B
:10255000DC0C18BF033202EBDC02C2F1200300FAEC
:1025600003FC20FA02F001FA03FE40EA0E0021FA11
:1025700002F11444BDE600BF70B54FF0FF0C4CF4FF
:10258000E06C1CEA11541DBF1CEA135594EA0C0FB1
:1025900095EA0C0F00F0DEF82C4481EA030621EAEC
:1025A0004C5123EA4C5350EA013518BF52EA033527
:1025B00041F4801143F4801338D0A0FB02CE4FF0D9
:1025C0000005E1FB02E506F00042E0FB03E54FF009
:1025D0000006E1FB03569CF0000F18BF4EF0010E01
:1025E000A4F1FF04B6F5007F64F5407404D25FEAFD
:1025F0004E0E6D4146EB060642EAC62141EA5551B0
:102600004FEAC52040EA5E504FEACE2EB4F1FD0CF1
:1026100088BFBCF5E06F1ED8BEF1004F08BF5FEA6F
:10262000500E50F1000041EB045170BD06F0004621
:1026300046EA010140EA020081EA0301B4EB5C04CE
:10264000C2BFD4EB0C0541EA045170BD41F48011C6
:102650004FF0000E013C00F3AB8014F1360FDEBFEB
:10266000002001F0004170BDC4F10004203C35DAC7
:102670000C341BDC04F11404C4F1200500FA05F34A
:1026800020FA04F001FA05F240EA020001F00042EB
:1026900021F0004110EBD37021FA04F642EB060161
:1026A0005EEA430E08BF20EAD37070BDC4F10C048B
:1026B000C4F1200500FA04F320FA05F001FA04F24F
:1026C00040EA020001F0004110EBD37041F100013B
:1026D0005EEA430E08BF20EAD37070BDC4F1200546
:1026E00000FA05F24EEA020E20FA04F301FA05F2AE
:1026F00043EA020321FA04F001F0004121FA04F256
:1027000020EA020000EBD3705EEA430E08BF20EA25
:10271000D37070BD94F0000F0FD101F0004640005F
:1027200041EB010111F4801F08BF013CF7D041EAE1
:10273000060195F0000F18BF704703F000465200E5
:1027400043EB030313F4801F08BF013DF7D043EAB6
:102750000603704794EA0C0F0CEA135518BF95EA6C
:102760000C0F0CD050EA410618BF52EA4306D1D1F3
:1027700081EA030101F000414FF0000070BD50EA12
:10278000410606BF1046194652EA430619D094EA9C
:102790000C0F02D150EA013613D195EA0C0F05D186
:1027A00052EA03361CBF104619460AD181EA0301DA
:1027B00001F0004141F0FE4141F470014FF0000092
:1027C00070BD41F0FE4141F4780170BD70B54FF02D
:1027D000FF0C4CF4E06C1CEA11541DBF1CEA1355AD
:1027E00094EA0C0F95EA0C0F00F0A7F8A4EB05048F
:1027F00081EA030E52EA03354FEA013100F0888086
:102800004FEA03334FF0805545EA131343EA12634E
:102810004FEA022245EA111545EA10654FEA002603
:102820000EF000419D4208BF964244F1FD0404F5BC
:10283000407402D25B084FEA3202B61A65EB030518
:102840005B084FEA32024FF480104FF4002CB6EBD5
:10285000020E75EB030E22BFB61A754640EA0C0055
:102860005B084FEA3202B6EB020E75EB030E22BF95
:10287000B61A754640EA5C005B084FEA3202B6EBD6
:10288000020E75EB030E22BFB61A754640EA9C0095
:102890005B084FEA3202B6EB020E75EB030E22BF65
:1028A000B61A754640EADC0055EA060E18D04FEA23
:1028B000051545EA16754FEA06164FEAC30343EAC3
:1028C00052734FEAC2025FEA1C1CC0D111F4801F90
:1028D0000BD141EA00014FF000004FF0004CB6E789
:1028E00011F4801F04BF01430020B4F1FD0C88BF28
:1028F000BCF5E06F3FF6AFAEB5EB030C04BFB6EB33
:10290000020C5FEA500C50F1000041EB045170BD25
:102910000EF0004E4EEA113114EB5C04C2BFD4EB52
:102920000C0541EA045170BD41F480114FF0000ED6
:10293000013C90E645EA060E8DE60CEA135594EA52
:102940000C0F08BF95EA0C0F3FF43BAF94EA0C0F55
:102950000AD150EA01347FF434AF95EA0C0F7FF4CA
:1029600025AF104619462CE795EA0C0F06D152EA1E
:1029700003353FF4FDAE1046194622E750EA410602
:1029800018BF52EA43067FF4C5AE50EA41047FF413
:102990000DAF52EA43057FF4EBAE12E74FF0FF3C78
:1029A00006E000BF4FF0010C02E000BF4FF0010C49
:1029B0004DF804CD4FEA410C7FEA6C5C4FEA430CC2
:1029C00018BF7FEA6C5C1BD001B050EA410C0CBF11
:1029D00052EA430C91EA030F02BF90EA020F002073
:1029E000704710F1000F91EA030F58BF994208BFDA
:1029F00090422CBFD8176FEAE37040F00100704797
:102A00004FEA410C7FEA6C5C02D150EA013C07D1ED
:102A10004FEA430C7FEA6C5CD6D152EA033CD3D038
:102A20005DF8040B704700BF8446104662468C4632
:102A30001946634600E000BF01B5FFF7B7FF002865
:102A400048BF10F1000F01BD4DF808EDFFF7F4FF8E
:102A50000CBF012000205DF808FB00BF4DF808ED19
:102A6000FFF7EAFF34BF012000205DF808FB00BF3C
:102A70004DF808EDFFF7E0FF94BF012000205DF85E
:102A800008FB00BF4DF808EDFFF7CEFF94BF012013
:102A900000205DF808FB00BF4DF808EDFFF7C4FF0C
:102AA00034BF012000205DF808FB00BF4FEA410C55
:102AB0007FEA6C5C02D150EA013C0AD14FEA430C38
:102AC0007FEA6C5C02D152EA033C02D14FF0000075
:102AD00070474FF0010070474FEA410212F50012B3
:102AE00015D211D56FF47873B3EB625212D94FEA55
:102AF000C12343F0004343EA505311F0004F23FA3F
:102B000002F018BF404270474FF00000704750EA93
:102B1000013005D111F0004008BF6FF00040704750
:102B20004FF00000704700BF10B5054C237833B953
:102B3000044B13B10448AFF300800123237010BD90
:102B40003004002000000000643B020808B5034B7D
:102B50001BB103490348AFF3008008BD000000002B
:102B600034040020643B020880B483B000AF786076
:102B70000B46FB701346BB707B68FA781A707B6853
:102B8000BA785A707B6818460C37BD4680BC7047CF
:102B900080B483B000AF78600B46FB707B68FA7836
:102BA0005A7000BF0C37BD4680BC704780B483B0FC
:102BB00000AF78600B46FB707B68FA781A7000BF34
:102BC0000C37BD4680BC704780B483B000AF7860DE
:102BD0007B6818460C37BD4680BC704780B483B014
:102BE00000AF78600B46FB707B68FA781A7000BF04
:102BF0000C37BD4680BC704780B483B000AF7860AE
:102C000000BF0C37BD4680BC704780B483B000AFB6
:102C1000786000BF0C37BD4680BC704780B483B07D
:102C200000AF786000BF0C37BD4680BC704780B4F1
:102C300083B000AF7860397000BF0C37BD4680BCF0
:102C4000704780B582B000AF78607B681B681B68F6
:102C500078689847002318460837BD4680BD80B481
:102C600083B000AF786039603B6818460C37BD46CA
:102C700080BC704780B582B000AF78607B681B680D
:102C80001B687868984700BF0837BD4680BD80B490
:102C900083B000AF786000BF0C37BD4680BC704782
:102CA00080B400AF024B1846BD4680BC704700BFE1
:102CB0004C05002080B400AF024B1B681846BD468F
:102CC00080BC7047BC04002080B582B000AF786043
:102CD00039603968034813F09FF9034618460837EE
:102CE000BD4680BD0848002080B483B000AF786046
:102CF000044A7B681A607B6818460C37BD4680BC66
:102D0000704700BF9844020880B483B000AF786079
:102D1000084611461A460346FB700B46BB70134625
:102D20007B707B68FA781A707B68BA785A707B6817
:102D30007A789A707B6818460C37BD4680BC70471D
:102D400080B582B000AF786039607B681846FFF7C5
:102D5000CBFF054A7B681A607B683A685A607B68DB
:102D600018460837BD4680BD5C46020880B582B073
:102D700000AF786039607B681846FFF7B5FF074AF7
:102D80007B681A607B683A685A607B6800221A7216
:102D90007B6818460837BD4680BD00BF74460208F0
:102DA00080B582B000AF786039607B681846FFF765
:102DB0009BFF0B4A7B681A607B683A685A607B68A5
:102DC00000221A727B6801225A72FFF773FF0346D2
:102DD0009AB27B685A817B6818460837BD4680BD29
:102DE0008C46020880B582B000AF786039607B689D
:102DF0001846FFF779FF0B4A7B681A607B683A68D0
:102E00005A607B6800221A817B6801229A727B6873
:102E10000022DA727B68FF221A737B681846083733
:102E2000BD4680BDBC46020880B582B000AF786068
:102E300039607B681846FFF757FF0B4A7B681A60BA
:102E40007B683A685A607B6800221A817B6801229D
:102E50009A727B680022DA727B68FF221A737B68A1
:102E600018460837BD4680BDA446020880B582B02A
:102E700000AF786039607B681846FFF735FF054A78
:102E80007B681A607B683A685A607B681846083726
:102E9000BD4680BD6447020880B582B000AF78604F
:102EA00039603968034813F0B7F803461846083705
:102EB000BD4680BD0848002080B500AF00F0C4FAD0
:102EC00000BF80BD80B582B000AF78603960FFF789
:102ED000E7FE386800F0C0FA034618460837BD46DA
:102EE00080BD000080B582B000AF0346FB71FB7966
:102EF00003F00203002B0CD0FB7903F00103002B3D
:102F000007D10649064812F0E1FC0649044812F0D0
:102F1000DDFC00BF0837BD4680BD00BF803B020816
:102F200004480020A83B0208B0B584B000AF786028
:102F30007B685B7803F00203002B2ED07B685B7804
:102F400003F00103002B28D17B689D1C07F10C03C3
:102F5000002204211846FFF707FE07F10C0318466C
:102F6000FFF732FE03461C781DF068FC01460D4B4E
:102F7000A3FB0123DA081346DB0013449B00CA1AA3
:102F8000D3B22344DBB219462846FFF70FFE7B6815
:102F9000023300211846FFF7FBFD00BF1037BD4686
:102FA000B0BD00BF398EE33880B582B000AF0346B4
:102FB0003960FB71FB79002B02D0012B06D009E0B0
:102FC0003B685B781846FFF78DFF03E03868FFF732
:102FD000ABFF00BF002318460837BD4680BD000088
:102FE00080B582B000AF0346FB71034815F0AEF91F
:102FF00000BF0837BD4680BD5048002080B582B074
:1030000000AF0346FB7115F029F800BF0837BD4635
:1030100080BD80B400AF00231846BD4680BC704719
:1030200080B500AF00F028FA0346184680BD80B492
:1030300000AF00231846BD4680BC704780B500AF86
:1030400000F052FD0346184680BD80B400AF002357
:103050001846BD4680BC704780B500AF01F07CF8D3
:103060000346184680BD80B400AF01231846BD4614
:1030700080BC704780B582B000AF7860786801F09E
:10308000A3FB034618460837BD4680BD80B400AF99
:1030900001231846BD4680BC704780B582B000AFA2
:1030A0007860786801F0EEFE034618460837BD46A2
:1030B00080BD80B400AF01231846BD4680BC704778
:1030C00080B582B000AFB8803B1D184602F038FAD8
:1030D000034618460837BD4680BD80B400AF0123C3
:1030E0001846BD4680BC704780B582B000AF78609E
:1030F0003B1D184602F082FD034618460837BD46C0
:1031000080BD80B400AF00231846BD4680BC704728
:1031100080B500AF03F0D0F80346184680BD80B4F8
:1031200000AF00231846BD4680BC704780B500AF95
:1031300003F0FAFB0346184680BD80B400AF0023BD
:103140001846BD4680BC704780B500AF03F024FF31
:103150000346184680BD80B400AF01231846BD4623
:1031600080BC704780B582B000AF7860786804F0AA
:103170004BFA034618460837BD4680BD80B400AF01
:1031800000231846BD4680BC704780B582B000AFB2
:103190007860786804F096FD034618460837BD4607
:1031A00080BD80B400AF00231846BD4680BC704788
:1031B00080B500AF05F0E4F80346184680BD000076
:1031C00080B400AF024B1B781846BD4680BC7047E8
:1031D0008D44020880B582B000AF03463960FB71B0
:1031E000FB79DB00054A13440822194638681DF0B4
:1031F00077FC00BF0837BD4680BD00BF14440208FD
:1032000080B500AF3848FFF742FD3848FFF73FFD73
:103210003748FFF73CFD3748FFF739FD3648FFF7E1
:1032200036FD3648FFF733FD3548FFF730FD3548AA
:10323000FFF72DFD3448FFF71DFD3448FFF727FD4C
:103240003348FFF724FD3348FFF721FD3248FFF7ED
:103250001EFD3248FFF71BFD3148FFF718FD3148CE
:10326000FFF715FD3048FFF712FD3048FFF70FFD5F
:103270002F48FFF70CFD2F48FFF709FD2E48FFF7F9
:1032800006FD2E48FFF703FD2D48FFF700FD2D48F2
:10329000FFF7FDFC2C48FFF7FAFC2C48FFF7F7FC82
:1032A0002B48FFF7F4FC2B48FFF7F1FC2A48FFF707
:1032B000EEFC2A48FFF7EBFC2948FFF7E8FC294819
:1032C000FFF7E5FC2848FFF7E2FC2848FFF7DFFCA2
:1032D0002748FFF7DCFC2748FFF7D9FC2648FFF713
:1032E000D6FC00BF80BD00BFAC470020C447002013
:1032F000C8470020B4470020B847002020480020DD
:1033000048480020300500204005002040000020F3
:10331000440000203C0000204C0400205004002009
:1033200054040020580400205C04002060040020A5
:1033300064040020380000205400002048000020D1
:1033400030480020580000201C480020044800207D
:10335000EC4700204C48002064000020504800202A
:103360005448002068000020880000209448002075
:1033700040480020444800209848002080B500AF15
:103380001F4B1B6818460CF0EBF91E4B55221A70A8
:103390001D4B01221A701D4B00221A701B4B00227C
:1033A0005A701A4BFF229A70FF21194813F0E1F965
:1033B000FF21184813F07BFA372014F083FC164BDA
:1033C0001B6803F00103002B05D1144813F070FBB8
:1033D000114B01221A60124B104A1A6011480EF06C
:1033E00075F8082010F04EFE08210F4814F040FA3E
:1033F0004FF480610D4817F0DBFA00BF80BD00BFBD
:10340000A844020832000020184800204C00002088
:103410004000002044000020B8040020B404002034
:103420002448002040050020580000209848002033
:1034300080B500AF034B1B6818460CF0B9F900BF0C
:1034400080BD00BFA844020880B500AF05F0D8FBDE
:103450000346184680BD000080B582B000AF78609A
:103460000722044978681DF03BFB072318460837FC
:10347000BD4680BDCC3B020880B582B000AFB448E9
:1034800005F0F6FE0346FB71FFF7C3FD0346002B74
:1034900004D0FB79002B01D0012300E00023002B96
:1034A00001D0FB7919E3AB4805F0F2FE0346FB714E
:1034B000FFF7AFFD0346002B04D0FB79002B01D0B2
:1034C000012300E00023002B01D0FB7905E3A24893
:1034D00005F0EEFE0346FB71FFF79BFD0346002B54
:1034E00004D0FB79002B01D0012300E00023002B46
:1034F00001D0FB79F1E2994805F0EAFE0346FB7141
:10350000FFF787FD0346002B04D0FB79002B01D089
:10351000012300E00023002B01D0FB79DDE290487D
:1035200005F0E6FE0346FB71FFF773FD0346002B33
:1035300004D0FB79002B01D0012300E00023002BF5
:1035400001D0FB79C9E2874805F0E2FE0346FB7132
:10355000FFF75FFD0346002B04D0FB79002B01D061
:10356000012300E00023002B01D0FB79B5E27E4867
:1035700005F0DEFE0346FB71FFF74BFD0346002B13
:1035800004D0FB79002B01D0012300E00023002BA5
:1035900001D0FB79A1E2754805F0DAFE0346FB7124
:1035A000FFF737FD0346002B04D0FB79002B01D039
:1035B000012300E00023002B01D0FB798DE26C4851
:1035C00005F0D6FE0346FB71FFF723FD0346002BF3
:1035D00004D0FB79002B01D0012300E00023002B55
:1035E00001D0FB7979E2634805F0D2FE0346FB7116
:1035F000FFF70FFD0346002B04D0FB79002B01D011
:10360000012300E00023002B01D0FB7965E25A483A
:1036100005F0CEFE0346FB71FFF7FBFC0346002BD3
:1036200004D0FB79002B01D0012300E00023002B04
:1036300001D0FB7951E2514805F0CAFE0346FB7107
:10364000FFF7E7FC0346002B04D0FB79002B01D0E9
:10365000012300E00023002B01D0FB793DE2484824
:1036600005F0C6FE0346FB71FFF7D3FC0346002BB3
:1036700004D0FB79002B01D0012300E00023002BB4
:1036800001D0FB7929E23F4805F0B2FE0346FB7109
:10369000FFF7BFFC0346002B04D0FB79002B01D0C1
:1036A000012300E00023002B01D0FB7915E236480E
:1036B00005F09EFE0346FB71FFF7ABFC0346002BB3
:1036C00004D0FB79002B01D0012300E00023002B64
:1036D00001D0FB7901E22D4805F08AFE0346FB711B
:1036E000FFF797FC0346002B04D0FB79002B01D099
:1036F000012300E00023002B01D0FB79EDE12448F9
:1037000005F076FE0346FB71FFF783FC0346002BB2
:1037100004D0FB79002B01D0012300E00023002B13
:1037200001D0FB79D9E11B4805F062FE0346FB712D
:10373000FFF76FFC0346002B04D0FB79002B01D070
:10374000012300E00023002B26D0FB79C5E100BF58
:10375000AC470020C4470020C8470020B4470020E1
:10376000B8470020204800204848002030050020AD
:103770004005002040000020440000203C000020C4
:103780004C04002050040020540400205804002061
:103790005C04002060040020B34805F029FE0346C5
:1037A000FB71FFF736FC0346002B04D0FB79002B9E
:1037B00001D0012300E00023002B01D0FB798CE134
:1037C000AA4805F025FE0346FB71FFF722FC0346DD
:1037D000002B04D0FB79002B01D0012300E0002353
:1037E000002B01D0FB7978E1A14805F021FE0346CA
:1037F000FB71FFF70EFC0346002B04D0FB79002B76
:1038000001D0012300E00023002B01D0FB7964E10B
:10381000984805F01DFE0346FB71FFF7FAFB0346CF
:10382000002B04D0FB79002B01D0012300E0002302
:10383000002B01D0FB7950E18F4805F019FE0346BB
:10384000FB71FFF7E6FB0346002B04D0FB79002B4E
:1038500001D0012300E00023002B01D0FB793CE1E3
:10386000864805F015FE0346FB71FFF7D2FB0346C1
:10387000002B04D0FB79002B01D0012300E00023B2
:10388000002B01D0FB7928E17D4805F011FE0346AD
:10389000FB71FFF7BEFB0346002B04D0FB79002B26
:1038A00001D0012300E00023002B01D0FB7914E1BB
:1038B000744805F00DFE0346FB71FFF7AAFB0346B3
:1038C000002B04D0FB79002B01D0012300E0002362
:1038D000002B01D0FB7900E16B4805F009FE03469F
:1038E000FB71FFF796FB0346002B04D0FB79002BFE
:1038F00001D0012300E00023002B01D0FB79ECE094
:10390000624805F005FE0346FB71FFF782FB0346A4
:10391000002B04D0FB79002B01D0012300E0002311
:10392000002B01D0FB79D8E0594805F001FE034691
:10393000FB71FFF76EFB0346002B04D0FB79002BD5
:1039400001D0012300E00023002B01D0FB79C4E06B
:10395000504805F0FDFD0346FB71FFF75AFB034697
:10396000002B04D0FB79002B01D0012300E00023C1
:10397000002B01D0FB79B0E0474805F0F9FD034684
:10398000FB71FFF746FB0346002B04D0FB79002BAD
:1039900001D0012300E00023002B01D0FB799CE043
:1039A0003E4805F0F5FD0346FB71FFF732FB034689
:1039B000002B04D0FB79002B01D0012300E0002371
:1039C000002B01D0FB7988E0354805F0F1FD034676
:1039D000FB71FFF71EFB0346002B04D0FB79002B85
:1039E00001D0012300E00023002B01D0FB7974E01B
:1039F0002C4805F0EDFD0346FB71FFF70AFB03467B
:103A0000002B04D0FB79002B01D0012300E0002320
:103A1000002B01D0FB7960E0234805F0E9FD034667
:103A2000FB71FFF7F6FA0346002B04D0FB79002B5D
:103A300001D0012300E00023002B01D0FB794CE0F2
:103A40001A4805F0E5FD0346FB71FFF7E2FA03466D
:103A5000002B04D0FB79002B01D0012300E00023D0
:103A6000002B25D0FB7938E06404002038000020CA
:103A7000540000204800002030480020580000205A
:103A80001C48002004480020EC4700204C4800203F
:103A900064000020504800205448002068000020A6
:103AA000880000209448002040480020444800201E
:103AB0000C4805F0BDFD0346FB71FFF7AAFA03466B
:103AC000002B04D0FB79002B01D0012300E0002360
:103AD000002B01D0FB7900E0FB7918460837BD4682
:103AE00080BD00BF9848002080B582B000AFB448C8
:103AF00005F0AEFD0346FB71FFF799FA0346002B74
:103B000004D0FB79002B01D0012300E00023002B1F
:103B100001D0FB7919E3AB4805F0AAFD0346FB7120
:103B2000FFF785FA0346002B04D0FB79002B01D068
:103B3000012300E00023002B01D0FB7905E3A2481C
:103B400005F0A6FD0346FB71FFF771FA0346002B53
:103B500004D0FB79002B01D0012300E00023002BCF
:103B600001D0FB79F1E2994805F0A2FD0346FB7113
:103B7000FFF75DFA0346002B04D0FB79002B01D040
:103B8000012300E00023002B01D0FB79DDE2904807
:103B900005F09EFD0346FB71FFF749FA0346002B33
:103BA00004D0FB79002B01D0012300E00023002B7F
:103BB00001D0FB79C9E2874805F09AFD0346FB7105
:103BC000FFF735FA0346002B04D0FB79002B01D018
:103BD000012300E00023002B01D0FB79B5E27E48F1
:103BE00005F096FD0346FB71FFF721FA0346002B13
:103BF00004D0FB79002B01D0012300E00023002B2F
:103C000001D0FB79A1E2754805F092FD0346FB71F6
:103C1000FFF70DFA0346002B04D0FB79002B01D0EF
:103C2000012300E00023002B01D0FB798DE26C48DA
:103C300005F08EFD0346FB71FFF7F9F90346002BF3
:103C400004D0FB79002B01D0012300E00023002BDE
:103C500001D0FB7979E2634805F08AFD0346FB71E8
:103C6000FFF7E5F90346002B04D0FB79002B01D0C8
:103C7000012300E00023002B01D0FB7965E25A48C4
:103C800005F086FD0346FB71FFF7D1F90346002BD3
:103C900004D0FB79002B01D0012300E00023002B8E
:103CA00001D0FB7951E2514805F082FD0346FB71DA
:103CB000FFF7BDF90346002B04D0FB79002B01D0A0
:103CC000012300E00023002B01D0FB793DE24848AE
:103CD00005F07EFD0346FB71FFF7A9F90346002BB3
:103CE00004D0FB79002B01D0012300E00023002B3E
:103CF00001D0FB7929E23F4805F06AFD0346FB71DC
:103D0000FFF795F90346002B04D0FB79002B01D077
:103D1000012300E00023002B01D0FB7915E2364897
:103D200005F056FD0346FB71FFF781F90346002BB2
:103D300004D0FB79002B01D0012300E00023002BED
:103D400001D0FB7901E22D4805F042FD0346FB71ED
:103D5000FFF76DF90346002B04D0FB79002B01D04F
:103D6000012300E00023002B01D0FB79EDE1244882
:103D700005F02EFD0346FB71FFF759F90346002BB2
:103D800004D0FB79002B01D0012300E00023002B9D
:103D900001D0FB79D9E11B4805F01AFD0346FB7100
:103DA000FFF745F90346002B04D0FB79002B01D027
:103DB000012300E00023002B26D0FB79C5E100BFE2
:103DC000AC470020C4470020C8470020B44700206B
:103DD000B847002020480020484800203005002037
:103DE0004005002040000020440000203C0000204E
:103DF0004C040020500400205404002058040020EB
:103E00005C04002060040020B34805F0E1FC034698
:103E1000FB71FFF70CF90346002B04D0FB79002B54
:103E200001D0012300E00023002B01D0FB798CE1BD
:103E3000AA4805F0DDFC0346FB71FFF7F8F80346DE
:103E4000002B04D0FB79002B01D0012300E00023DC
:103E5000002B01D0FB7978E1A14805F0D9FC03469D
:103E6000FB71FFF7E4F80346002B04D0FB79002B2D
:103E700001D0012300E00023002B01D0FB7964E195
:103E8000984805F0D5FC0346FB71FFF7D0F80346D0
:103E9000002B04D0FB79002B01D0012300E000238C
:103EA000002B01D0FB7950E18F4805F0D1FC03468F
:103EB000FB71FFF7BCF80346002B04D0FB79002B05
:103EC00001D0012300E00023002B01D0FB793CE16D
:103ED000864805F0CDFC0346FB71FFF7A8F80346C2
:103EE000002B04D0FB79002B01D0012300E000233C
:103EF000002B01D0FB7928E17D4805F0C9FC034681
:103F0000FB71FFF794F80346002B04D0FB79002BDC
:103F100001D0012300E00023002B01D0FB7914E144
:103F2000744805F0C5FC0346FB71FFF780F80346B3
:103F3000002B04D0FB79002B01D0012300E00023EB
:103F4000002B01D0FB7900E16B4805F0C1FC034672
:103F5000FB71FFF76CF80346002B04D0FB79002BB4
:103F600001D0012300E00023002B01D0FB79ECE01D
:103F7000624805F0BDFC0346FB71FFF758F80346A5
:103F8000002B04D0FB79002B01D0012300E000239B
:103F9000002B01D0FB79D8E0594805F0B9FC034665
:103FA000FB71FFF744F80346002B04D0FB79002B8C
:103FB00001D0012300E00023002B01D0FB79C4E0F5
:103FC000504805F0B5FC0346FB71FFF730F8034697
:103FD000002B04D0FB79002B01D0012300E000234B
:103FE000002B01D0FB79B0E0474805F0B1FC034657
:103FF000FB71FFF71CF80346002B04D0FB79002B64
:1040000001D0012300E00023002B01D0FB799CE0CC
:104010003E4805F0ADFC0346FB71FFF708F8034688
:10402000002B04D0FB79002B01D0012300E00023FA
:10403000002B01D0FB7988E0354805F0A9FC034648
:10404000FB71FEF7F4FF0346002B04D0FB79002B35
:1040500001D0012300E00023002B01D0FB7974E0A4
:104060002C4805F0A5FC0346FB71FEF7E0FF034674
:10407000002B04D0FB79002B01D0012300E00023AA
:10408000002B01D0FB7960E0234805F0A1FC03463A
:10409000FB71FEF7CCFF0346002B04D0FB79002B0D
:1040A00001D0012300E00023002B01D0FB794CE07C
:1040B0001A4805F09DFC0346FB71FEF7B8FF034666
:1040C000002B04D0FB79002B01D0012300E000235A
:1040D000002B25D0FB7938E0640400203800002054
:1040E00054000020480000203048002058000020E4
:1040F0001C48002004480020EC4700204C480020C9
:10410000640000205048002054480020680000202F
:1041100088000020944800204048002044480020A7
:104120000C4805F075FC0346FB71FEF780FF034663
:10413000002B04D0FB79002B01D0012300E00023E9
:10414000002B01D0FB7900E0FB7918460837BD460B
:1041500080BD00BF9848002080B582B000AFB44851
:1041600005F066FC0346FB71FEF76FFF0346002B6C
:1041700004D0FB79002B01D0012300E00023002BA9
:1041800001D0FB7919E3AB4805F062FC0346FB71F3
:10419000FEF75BFF0346002B04D0FB79002B01D018
:1041A000012300E00023002B01D0FB7905E3A248A6
:1041B00005F05EFC0346FB71FEF747FF0346002B4C
:1041C00004D0FB79002B01D0012300E00023002B59
:1041D00001D0FB79F1E2994805F05AFC0346FB71E6
:1041E000FEF733FF0346002B04D0FB79002B01D0F0
:1041F000012300E00023002B01D0FB79DDE2904891
:1042000005F056FC0346FB71FEF71FFF0346002B2B
:1042100004D0FB79002B01D0012300E00023002B08
:1042200001D0FB79C9E2874805F052FC0346FB71D7
:10423000FEF70BFF0346002B04D0FB79002B01D0C7
:10424000012300E00023002B01D0FB79B5E27E487A
:1042500005F04EFC0346FB71FEF7F7FE0346002B0C
:1042600004D0FB79002B01D0012300E00023002BB8
:1042700001D0FB79A1E2754805F04AFC0346FB71C9
:10428000FEF7E3FE0346002B04D0FB79002B01D0A0
:10429000012300E00023002B01D0FB798DE26C4864
:1042A00005F046FC0346FB71FEF7CFFE0346002BEC
:1042B00004D0FB79002B01D0012300E00023002B68
:1042C00001D0FB7979E2634805F042FC0346FB71BB
:1042D000FEF7BBFE0346002B04D0FB79002B01D078
:1042E000012300E00023002B01D0FB7965E25A484E
:1042F00005F03EFC0346FB71FEF7A7FE0346002BCC
:1043000004D0FB79002B01D0012300E00023002B17
:1043100001D0FB7951E2514805F03AFC0346FB71AC
:10432000FEF793FE0346002B04D0FB79002B01D04F
:10433000012300E00023002B01D0FB793DE2484837
:1043400005F036FC0346FB71FEF77FFE0346002BAB
:1043500004D0FB79002B01D0012300E00023002BC7
:1043600001D0FB7929E23F4805F022FC0346FB71AE
:10437000FEF76BFE0346002B04D0FB79002B01D027
:10438000012300E00023002B01D0FB7915E2364821
:1043900005F00EFC0346FB71FEF757FE0346002BAB
:1043A00004D0FB79002B01D0012300E00023002B77
:1043B00001D0FB7901E22D4805F0FAFB0346FB71C1
:1043C000FEF743FE0346002B04D0FB79002B01D0FF
:1043D000012300E00023002B01D0FB79EDE124480C
:1043E00005F0E6FB0346FB71FEF72FFE0346002BAC
:1043F00004D0FB79002B01D0012300E00023002B27
:1044000001D0FB79D9E11B4805F0D2FB0346FB71D3
:10441000FEF71BFE0346002B04D0FB79002B01D0D6
:10442000012300E00023002B26D0FB79C5E100BF6B
:10443000AC470020C4470020C8470020B4470020F4
:10444000B8470020204800204848002030050020C0
:104450004005002040000020440000203C000020D7
:104460004C04002050040020540400205804002074
:104470005C04002060040020B34805F099FB03466B
:10448000FB71FEF7E2FD0346002B04D0FB79002B05
:1044900001D0012300E00023002B01D0FB798CE147
:1044A000AA4805F095FB0346FB71FEF7CEFD0346D7
:1044B000002B04D0FB79002B01D0012300E0002366
:1044C000002B01D0FB7978E1A14805F091FB034670
:1044D000FB71FEF7BAFD0346002B04D0FB79002BDD
:1044E00001D0012300E00023002B01D0FB7964E11F
:1044F000984805F08DFB0346FB71FEF7A6FD0346C9
:10450000002B04D0FB79002B01D0012300E0002315
:10451000002B01D0FB7950E18F4805F089FB034661
:10452000FB71FEF792FD0346002B04D0FB79002BB4
:1045300001D0012300E00023002B01D0FB793CE1F6
:10454000864805F085FB0346FB71FEF77EFD0346BA
:10455000002B04D0FB79002B01D0012300E00023C5
:10456000002B01D0FB7928E17D4805F081FB034653
:10457000FB71FEF76AFD0346002B04D0FB79002B8C
:1045800001D0012300E00023002B01D0FB7914E1CE
:10459000744805F07DFB0346FB71FEF756FD0346AC
:1045A000002B04D0FB79002B01D0012300E0002375
:1045B000002B01D0FB7900E16B4805F079FB034645
:1045C000FB71FEF742FD0346002B04D0FB79002B64
:1045D00001D0012300E00023002B01D0FB79ECE0A7
:1045E000624805F075FB0346FB71FEF72EFD03469E
:1045F000002B04D0FB79002B01D0012300E0002325
:10460000002B01D0FB79D8E0594805F071FB034637
:10461000FB71FEF71AFD0346002B04D0FB79002B3B
:1046200001D0012300E00023002B01D0FB79C4E07E
:10463000504805F06DFB0346FB71FEF706FD03468F
:10464000002B04D0FB79002B01D0012300E00023D4
:10465000002B01D0FB79B0E0474805F069FB034629
:10466000FB71FEF7F2FC0346002B04D0FB79002B14
:1046700001D0012300E00023002B01D0FB799CE056
:104680003E4805F065FB0346FB71FEF7DEFC034682
:10469000002B04D0FB79002B01D0012300E0002384
:1046A000002B01D0FB7988E0354805F061FB03461B
:1046B000FB71FEF7CAFC0346002B04D0FB79002BEC
:1046C00001D0012300E00023002B01D0FB7974E02E
:1046D0002C4805F05DFB0346FB71FEF7B6FC034674
:1046E000002B04D0FB79002B01D0012300E0002334
:1046F000002B01D0FB7960E0234805F059FB03460D
:10470000FB71FEF7A2FC0346002B04D0FB79002BC3
:1047100001D0012300E00023002B01D0FB794CE005
:104720001A4805F055FB0346FB71FEF78EFC034665
:10473000002B04D0FB79002B01D0012300E00023E3
:10474000002B25D0FB7938E06404002038000020DD
:10475000540000204800002030480020580000206D
:104760001C48002004480020EC4700204C48002052
:1047700064000020504800205448002068000020B9
:104780008800002094480020404800204448002031
:104790000C4805F02DFB0346FB71FEF756FC034663
:1047A000002B04D0FB79002B01D0012300E0002373
:1047B000002B01D0FB7900E0FB7918460837BD4695
:1047C00080BD00BF9848002080B584B000AF7860FD
:1047D0007968B24805F01CFB0346FB73FEF743FC07
:1047E0000346002B04D0FB7B002B01D0012300E00B
:1047F0000023002B01D0FB7B3AE37968A84805F041
:1048000019FB0346FB73FEF72EFC0346002B04D076
:10481000FB7B002B01D0012300E00023002B01D003
:10482000FB7B25E379689F4805F016FB0346FB7385
:10483000FEF719FC0346002B04D0FB7B002B01D0B4
:10484000012300E00023002B01D0FB7B10E37968FB
:10485000954805F013FB0346FB73FEF704FC034683
:10486000002B04D0FB7B002B01D0012300E00023B0
:10487000002B01D0FB7BFBE279688C4805F010FB34
:104880000346FB73FEF7EFFB0346002B04D0FB7BD4
:10489000002B01D0012300E00023002B01D0FB7B83
:1048A000E6E27968824805F00DFB0346FB73FEF7EC
:1048B000DAFB0346002B04D0FB7B002B01D0012345
:1048C00000E00023002B01D0FB7BD1E2796879481E
:1048D00005F00AFB0346FB73FEF7C5FB0346002BFE
:1048E00004D0FB7B002B01D0012300E00023002B30
:1048F00001D0FB7BBCE279686F4805F007FB0346FB
:10490000FB73FEF7B0FB0346002B04D0FB7B002BB0
:1049100001D0012300E00023002B01D0FB7BA7E2A4
:104920007968664805F004FB0346FB73FEF79BFBC2
:104930000346002B04D0FB7B002B01D0012300E0B9
:104940000023002B01D0FB7B92E279685C4805F0E4
:1049500001FB0346FB73FEF786FB0346002B04D0E6
:10496000FB7B002B01D0012300E00023002B01D0B2
:10497000FB7B7DE27968534805F0FEFA0346FB7342
:10498000FEF771FB0346002B04D0FB7B002B01D00C
:10499000012300E00023002B01D0FB7B68E2796853
:1049A000494805F0FBFA0346FB73FEF75CFB034640
:1049B000002B04D0FB7B002B01D0012300E000235F
:1049C000002B01D0FB7B53E27968404805F0F8FAF0
:1049D0000346FB73FEF747FB0346002B04D0FB7B2B
:1049E000002B01D0012300E00023002B01D0FB7B32
:1049F0003EE27968364805F0E3FA0346FB73FEF7BA
:104A000032FB0346002B04D0FB7B002B01D001239B
:104A100000E00023002B01D0FB7B29E279682D48C0
:104A200005F0CEFA0346FB73FEF71DFB0346002B91
:104A300004D0FB7B002B01D0012300E00023002BDE
:104A400001D0FB7B14E27968234805F0B9FA0346EC
:104A5000FB73FEF708FB0346002B04D0FB7B002B07
:104A600001D0012300E00023002B01D0FB7BFFE1FC
:104A700079681A4805F0A4FA0346FB73FEF7F3FAC7
:104A80000346002B04D0FB7B002B01D0012300E068
:104A90000023002B24D0FB7BEAE100BFAC470020C1
:104AA000C4470020C8470020B4470020B847002072
:104AB0002048002048480020300500204005002004
:104AC00040000020440000203C0000204C04002056
:104AD0005004002054040020580400205C040020EE
:104AE0007968B24805F06CFA0346FB73FEF7BBFA2F
:104AF0000346002B04D0FB7B002B01D0012300E0F8
:104B00000023002B01D0FB7BB2E17968A84805F0B7
:104B100057FA0346FB73FEF7A6FA0346002B04D0B0
:104B2000FB7B002B01D0012300E00023002B01D0F0
:104B3000FB7B9DE179689F4805F054FA0346FB73BF
:104B4000FEF791FA0346002B04D0FB7B002B01D02B
:104B5000012300E00023002B01D0FB7B88E1796872
:104B6000954805F051FA0346FB73FEF77CFA0346BD
:104B7000002B04D0FB7B002B01D0012300E000239D
:104B8000002B01D0FB7B73E179688C4805F04EFA6D
:104B90000346FB73FEF767FA0346002B04D0FB7B4A
:104BA000002B01D0012300E00023002B01D0FB7B70
:104BB0005EE17968824805F04BFA0346FB73FEF725
:104BC00052FA0346002B04D0FB7B002B01D00123BB
:104BD00000E00023002B01D0FB7B49E17968794894
:104BE00005F048FA0346FB73FEF73DFA0346002B37
:104BF00004D0FB7B002B01D0012300E00023002B1D
:104C000001D0FB7B34E179686F4805F045FA034633
:104C1000FB73FEF728FA0346002B04D0FB7B002B26
:104C200001D0012300E00023002B01D0FB7B1FE11A
:104C30007968664805F042FA0346FB73FEF713FAFB
:104C40000346002B04D0FB7B002B01D0012300E0A6
:104C50000023002B01D0FB7B0AE179685C4805F05A
:104C60003FFA0346FB73FEF7FEF90346002B04D020
:104C7000FB7B002B01D0012300E00023002B01D09F
:104C8000FB7BF5E07968534805F03CFA0346FB737B
:104C9000FEF7E9F90346002B04D0FB7B002B01D083
:104CA000012300E00023002B01D0FB7BE0E07968CA
:104CB000494805F039FA0346FB73FEF7D4F9034679
:104CC000002B04D0FB7B002B01D0012300E000234C
:104CD000002B01D0FB7BCBE07968404805F036FA29
:104CE0000346FB73FEF7BFF90346002B04D0FB7BA2
:104CF000002B01D0012300E00023002B01D0FB7B1F
:104D0000B6E07968364805F033FA0346FB73FEF7E0
:104D1000AAF90346002B04D0FB7B002B01D0012312
:104D200000E00023002B01D0FB7BA1E079682D4837
:104D300005F030FA0346FB73FEF795F90346002BA6
:104D400004D0FB7B002B01D0012300E00023002BCB
:104D500001D0FB7B8CE07968234805F02DFA0346EF
:104D6000FB73FEF780F90346002B04D0FB7B002B7E
:104D700001D0012300E00023002B01D0FB7B77E072
:104D800079681A4805F02AFA0346FB73FEF76BF9B7
:104D90000346002B04D0FB7B002B01D0012300E055
:104DA0000023002B24D0FB7B62E000BF60040020C6
:104DB0006404002038000020540000204800002037
:104DC00030480020580000201C48002004480020E3
:104DD000EC4700204C480020640000205048002090
:104DE00054480020680000208800002094480020DB
:104DF0007968214805F004FA0346FB73FEF733F99E
:104E00000346002B04D0FB7B002B01D0012300E0E4
:104E10000023002B01D0FB7B2AE07968174805F0BE
:104E200001FA0346FB73FEF71EF90346002B04D07C
:104E3000FB7B002B01D0012300E00023002B01D0DD
:104E4000FB7B15E079680E4805F0FEF90346FB731D
:104E5000FEF709F90346002B04D0FB7B002B01D0A1
:104E6000012300E00023002B01D0FB7B00E0FB7B53
:104E700018461037BD4680BD4048002044480020F9
:104E80009848002080B584B000AF78607968B24857
:104E900005F0ECF90346FB73FEF7F8F80346002B28
:104EA00004D0FB7B002B01D0012300E00023002B6A
:104EB00001D0FB7B3AE37968A84805F0E9F903469D
:104EC000FB73FEF7E3F80346002B04D0FB7B002BBB
:104ED00001D0012300E00023002B01D0FB7B25E360
:104EE00079689F4805F0E6F90346FB73FEF7CEF8B4
:104EF0000346002B04D0FB7B002B01D0012300E0F4
:104F00000023002B01D0FB7B10E37968954805F066
:104F1000E3F90346FB73FEF7B9F80346002B04D010
:104F2000FB7B002B01D0012300E00023002B01D0EC
:104F3000FB7BFBE279688C4805F0E0F90346FB73E4
:104F4000FEF7A4F80346002B04D0FB7B002B01D016
:104F5000012300E00023002B01D0FB7BE6E279680F
:104F6000824805F0DDF90346FB73FEF78FF8034630
:104F7000002B04D0FB7B002B01D0012300E0002399
:104F8000002B01D0FB7BD1E27968794805F0DAF992
:104F90000346FB73FEF77AF80346002B04D0FB7B35
:104FA000002B01D0012300E00023002B01D0FB7B6C
:104FB000BCE279686F4805F0D7F90346FB73FEF74A
:104FC00065F80346002B04D0FB7B002B01D00123A6
:104FD00000E00023002B01D0FB7BA7E27968664844
:104FE00005F0D4F90346FB73FEF750F80346002B97
:104FF00004D0FB7B002B01D0012300E00023002B19
:1050000001D0FB7B92E279685C4805F0D1F9034658
:10501000FB73FEF73BF80346002B04D0FB7B002B11
:1050200001D0012300E00023002B01D0FB7B7DE2B7
:105030007968534805F0CEF90346FB73FEF726F86E
:105040000346002B04D0FB7B002B01D0012300E0A2
:105050000023002B01D0FB7B68E27968494805F00A
:10506000CBF90346FB73FEF711F80346002B04D07F
:10507000FB7B002B01D0012300E00023002B01D09B
:10508000FB7B53E27968404805F0C8F90346FB739F
:10509000FDF7FCFF0346002B04D0FB7B002B01D067
:1050A000012300E00023002B01D0FB7B3EE2796866
:1050B000364805F0B3F90346FB73FDF7E7FF0346F7
:1050C000002B04D0FB7B002B01D0012300E0002348
:1050D000002B01D0FB7B29E279682D4805F09EF971
:1050E0000346FB73FDF7D2FF0346002B04D0FB7B86
:1050F000002B01D0012300E00023002B01D0FB7B1B
:1051000014E27968234805F089F90346FB73FDF73B
:10511000BDFF0346002B04D0FB7B002B01D00123F5
:1051200000E00023002B01D0FB7BFFE179681A48E7
:1051300005F074F90346FB73FDF7A8FF0346002B47
:1051400004D0FB7B002B01D0012300E00023002BC7
:1051500024D0FB7BEAE100BFAC470020C44700201D
:10516000C8470020B4470020B8470020204800204E
:105170004848002030050020400500204000002065
:10518000440000203C0000204C040020500400207B
:1051900054040020580400205C0400207968B248C0
:1051A00005F03CF90346FB73FDF770FF0346002B47
:1051B00004D0FB7B002B01D0012300E00023002B57
:1051C00001D0FB7BB2E17968A84805F027F90346D6
:1051D000FB73FDF75BFF0346002B04D0FB7B002B2A
:1051E00001D0012300E00023002B01D0FB7B9DE1D7
:1051F00079689F4805F024F90346FB73FDF746FFE5
:105200000346002B04D0FB7B002B01D0012300E0E0
:105210000023002B01D0FB7B88E17968954805F0DD
:1052200021F90346FB73FDF731FF0346002B04D041
:10523000FB7B002B01D0012300E00023002B01D0D9
:10524000FB7B73E179688C4805F01EF90346FB731C
:10525000FDF71CFF0346002B04D0FB7B002B01D085
:10526000012300E00023002B01D0FB7B5EE1796885
:10527000824805F01BF90346FB73FDF707FF034661
:10528000002B04D0FB7B002B01D0012300E0002386
:10529000002B01D0FB7B49E17968794805F018F9CA
:1052A0000346FB73FDF7F2FE0346002B04D0FB7BA5
:1052B000002B01D0012300E00023002B01D0FB7B59
:1052C00034E179686F4805F015F90346FB73FDF783
:1052D000DDFE0346002B04D0FB7B002B01D0012315
:1052E00000E00023002B01D0FB7B1FE179686648BA
:1052F00005F012F90346FB73FDF7C8FE0346002BC9
:1053000004D0FB7B002B01D0012300E00023002B05
:1053100001D0FB7B0AE179685C4805F00FF9034690
:10532000FB73FDF7B3FE0346002B04D0FB7B002B81
:1053300001D0012300E00023002B01D0FB7BF5E02E
:105340007968534805F00CF90346FB73FDF79EFEA0
:105350000346002B04D0FB7B002B01D0012300E08F
:105360000023002B01D0FB7BE0E07968494805F081
:1053700009F90346FB73FDF789FE0346002B04D0B1
:10538000FB7B002B01D0012300E00023002B01D088
:10539000FB7BCBE07968404805F006F90346FB73D8
:1053A000FDF774FE0346002B04D0FB7B002B01D0DD
:1053B000012300E00023002B01D0FB7BB6E07968DD
:1053C000364805F003F90346FB73FDF75FFE03461D
:1053D000002B04D0FB7B002B01D0012300E0002335
:1053E000002B01D0FB7BA1E079682D4805F000F986
:1053F0000346FB73FDF74AFE0346002B04D0FB7BFC
:10540000002B01D0012300E00023002B01D0FB7B07
:105410008CE07968234805F0FDF80346FB73FDF73F
:1054200035FE0346002B04D0FB7B002B01D001236B
:1054300000E00023002B01D0FB7B77E079681A485D
:1054400005F0FAF80346FB73FDF720FE0346002B38
:1054500004D0FB7B002B01D0012300E00023002BB4
:1054600024D0FB7B62E000BF6004002064040020C5
:105470003800002054000020480000203048002060
:10548000580000201C48002004480020EC47002061
:105490004C48002064000020504800205448002060
:1054A0006800002088000020944800207968214886
:1054B00005F0D4F80346FB73FDF7E8FD0346002B27
:1054C00004D0FB7B002B01D0012300E00023002B44
:1054D00001D0FB7B2AE07968174805F0D1F8034634
:1054E000FB73FDF7D3FD0346002B04D0FB7B002BA1
:1054F00001D0012300E00023002B01D0FB7B15E04D
:1055000079680E4805F0CEF80346FB73FDF7BEFD43
:105510000346002B04D0FB7B002B01D0012300E0CD
:105520000023002B01D0FB7B00E0FB7B18461037EB
:10553000BD4680BD404800204448002098480020D7
:1055400080B584B000AF78607968B24805F0BCF8E7
:105550000346FB73FDF7ADFD0346002B04D0FB7B38
:10556000002B01D0012300E00023002B01D0FB7BA6
:105570003AE37968A84805F0B9F80346FB73FDF7EC
:1055800098FD0346002B04D0FB7B002B01D00123A8
:1055900000E00023002B01D0FB7B25E379689F48C6
:1055A00005F0B6F80346FB73FDF783FD0346002BB9
:1055B00004D0FB7B002B01D0012300E00023002B53
:1055C00001D0FB7B10E37968954805F0B3F80346FA
:1055D000FB73FDF76EFD0346002B04D0FB7B002B15
:1055E00001D0012300E00023002B01D0FB7BFBE274
:1055F00079688C4805F0B0F80346FB73FDF759FD58
:105600000346002B04D0FB7B002B01D0012300E0DC
:105610000023002B01D0FB7BE6E27968824805F08D
:10562000ADF80346FB73FDF744FD0346002B04D0A1
:10563000FB7B002B01D0012300E00023002B01D0D5
:10564000FB7BD1E27968794805F0AAF80346FB7341
:10565000FDF72FFD0346002B04D0FB7B002B01D070
:10566000012300E00023002B01D0FB7BBCE2796822
:105670006F4805F0A7F80346FB73FDF71AFD0346D4
:10568000002B04D0FB7B002B01D0012300E0002382
:10569000002B01D0FB7BA7E27968664805F0A4F8EF
:1056A0000346FB73FDF705FD0346002B04D0FB7B8F
:1056B000002B01D0012300E00023002B01D0FB7B55
:1056C00092E279685C4805F0A1F80346FB73FDF7A8
:1056D000F0FC0346002B04D0FB7B002B01D0012300
:1056E00000E00023002B01D0FB7B7DE2796853486A
:1056F00005F09EF80346FB73FDF7DBFC0346002B29
:1057000004D0FB7B002B01D0012300E00023002B01
:1057100001D0FB7B68E27968494805F09BF80346B5
:10572000FB73FDF7C6FC0346002B04D0FB7B002B6C
:1057300001D0012300E00023002B01D0FB7B53E2CA
:105740007968404805F098F80346FB73FDF7B1FC13
:105750000346002B04D0FB7B002B01D0012300E08B
:105760000023002B01D0FB7B3EE27968364805F030
:1057700083F80346FB73FDF79CFC0346002B04D023
:10578000FB7B002B01D0012300E00023002B01D084
:10579000FB7B29E279682D4805F06EF80346FB7320
:1057A000FDF787FC0346002B04D0FB7B002B01D0C8
:1057B000012300E00023002B01D0FB7B14E2796879
:1057C000234805F059F80346FB73FDF772FC0346C6
:1057D000002B04D0FB7B002B01D0012300E0002331
:1057E000002B01D0FB7BFFE179681A4805F044F8F3
:1057F0000346FB73FDF75DFC0346002B04D0FB7BE7
:10580000002B01D0012300E00023002B24D0FB7BE0
:10581000EAE100BFAC470020C4470020C847002091
:10582000B4470020B8470020204800204848002006
:1058300030050020400500204000002044000020EA
:105840003C0000204C0400205004002054040020A0
:10585000580400205C0400207968B24805F00CF878
:105860000346FB73FDF725FC0346002B04D0FB7BAE
:10587000002B01D0012300E00023002B01D0FB7B93
:10588000B2E17968A84804F0F7FF0346FB73FDF71F
:1058900010FC0346002B04D0FB7B002B01D001231E
:1058A00000E00023002B01D0FB7B9DE179689F483D
:1058B00004F0F4FF0346FB73FDF7FBFB0346002BEC
:1058C00004D0FB7B002B01D0012300E00023002B40
:1058D00001D0FB7B88E17968954804F0F1FF03462D
:1058E000FB73FDF7E6FB0346002B04D0FB7B002B8C
:1058F00001D0012300E00023002B01D0FB7B73E1EA
:1059000079688C4804F0EEFF0346FB73FDF7D1FB8A
:105910000346002B04D0FB7B002B01D0012300E0C9
:105920000023002B01D0FB7B5EE17968824804F004
:10593000EBFF0346FB73FDF7BCFB0346002B04D0D3
:10594000FB7B002B01D0012300E00023002B01D0C2
:10595000FB7B49E17968794804F0E8FF0346FB7373
:10596000FDF7A7FB0346002B04D0FB7B002B01D0E7
:10597000012300E00023002B01D0FB7B34E1796898
:105980006F4804F0E5FF0346FB73FDF792FB034607
:10599000002B04D0FB7B002B01D0012300E000236F
:1059A000002B01D0FB7B1FE17968664804F0E2FF21
:1059B0000346FB73FDF77DFB0346002B04D0FB7B06
:1059C000002B01D0012300E00023002B01D0FB7B42
:1059D0000AE179685C4804F0DFFF0346FB73FDF7DA
:1059E00068FB0346002B04D0FB7B002B01D0012376
:1059F00000E00023002B01D0FB7BF5E079685348E1
:105A000004F0DCFF0346FB73FDF753FB0346002B5A
:105A100004D0FB7B002B01D0012300E00023002BEE
:105A200001D0FB7BE0E07968494804F0D9FF0346E8
:105A3000FB73FDF73EFB0346002B04D0FB7B002BE2
:105A400001D0012300E00023002B01D0FB7BCBE041
:105A50007968404804F0D6FF0346FB73FDF729FB45
:105A60000346002B04D0FB7B002B01D0012300E078
:105A70000023002B01D0FB7BB6E07968364804F0A8
:105A8000D3FF0346FB73FDF714FB0346002B04D042
:105A9000FB7B002B01D0012300E00023002B01D071
:105AA000FB7BA1E079682D4804F0D0FF0346FB732F
:105AB000FDF7FFFA0346002B04D0FB7B002B01D03F
:105AC000012300E00023002B01D0FB7B8CE07968F0
:105AD000234804F0CDFF0346FB73FDF7EAFA0346C3
:105AE000002B04D0FB7B002B01D0012300E000231E
