:101C000013C022C021C020C01FC01EC01DC01CC0E8
:101C10001BC01AC019C018C017C016C015C0FEC01E
:101C200013C012C011C010C011241FBECFEFD2E0EC
:101C3000DEBFCDBF21E0A0E0B1E001C01D92A33422
:101C4000B207E1F7F6D0D9C1DBCFE0E0F1E09FEFDA
:101C500080E48E0F91938E13FDCF0895E3E0F0E0C2
:101C60008491DF01A050BF4F8C933197C8F708953E
:101C700040E050E061E0FA01E050FF4F218130E0A8
:101C8000322F22277081272B07B600FCFDCFFA01E7
:101C9000E80FF91F090160935700E89511244E5F82
:101CA0005F4F4034510539F707B600FCFDCF25E002
:101CB000FC0120935700E895089584E98093BC00C7
:101CC0000895FC01603811F094E801C094EC909301
:101CD000BC008091BC0087FFFCCFA8958091B90023
:101CE000861719F0EADF80E008958091BB008083B9
:101CF000683819F484E88093BC0081E00895CF939C
:101D0000DF9300D0CDB7DEB760E8CE010296D9DF11
:101D100060E8CE010196D5DF898190E0982F882771
:101D20002A81822B0F900F90DF91CF91089580939D
:101D3000BB0084EC8093BC008091BC0087FFFCCF8B
:101D4000A8958091B900883B09F0B7CF089583B179
:101D500093B1282F2170892F8270822B8065880F84
:101D60008093BA0084E48093BC0008958627682F8E
:101D700062956827062E669566956025062E6695FF
:101D800060256770082E892F669507946795902DBA
:101D9000862706946795902586270895CF92DF922F
:101DA000EF92FF920F931F93CF93DF9387B7082F84
:101DB000017080FF03C081DF00E026C01091400168
:101DC000C12FD0E084E0CC0FDD1F8A95E1F7C05031
:101DD000DF4F6E0180E1C80ED11CEE24EA94FE2C88
:101DE00060E8CE016EDF882379F06991C701BEDF1C
:101DF0007C01CC15DD05A1F782DFE816F90621F498
:101E00001F5F1093400101E0802FDF91CF911F9160
:101E10000F91FF90EF90DF90CF9008951F920F9257
:101E20000FB60F9211241EBC0F900FBE0F901F9083
:101E30001895CF93DF9300D0CDB7DEB73F9A479A7E
:101E40008CE284B985B1837D85B981ED8CBD81E05B
:101E50008DBD84B714BE837009F4C2C078DF9AE0E8
:101E600088E10FB6F894A895809360000FBE909318
:101E7000600084EC982E98E1B92E29E2822E33E09E
:101E8000A32EE12CF12C48E0742ECC24CA94DC2C37
:101E90009092BC008091BC0087FFFCCFA8950FB644
:101EA000F894A895B09260000FBE80926000809177
:101EB000B900803669F0883A09F090C081E037DFD8
:101EC0008091410134DF8091420131DF40DFE0CF7A
:101ED00060E8CE010296F5DE8823D1F28A81833054
:101EE000A9F128F4813049F0823081F077C0843044
:101EF000B1F1863009F451C071C010924001A5DEE5
:101F0000FEDE9093420180934101C2CF81E491E0D3
:101F100045DF811102C060E815C080914001843026
:101F200081F40091410110914201007C01151105DD
:101F300011F494DE04C001158CE1180710F4C801F7
:101F400097DE68E8CE010196BCDEA2CF0FB6F8940A
:101F5000A895B09260000FBE70926000FFCF75DE52
:101F60007DDE07B600FCFDCFF701A0925700E89593
:101F700080E090E07DDE80E490E07ADEE0E4F0E076
:101F800007B600FCFDCFA0925700E895E05CFF4F3C
:101F9000E1158CE1F807A1F77BCFB1DE8C01AFDE54
:101FA0002C01400E511E4114E0E25E0608F070CF95
:101FB000D0924201C09241010415150508F068CF86
:101FC000F80164918091410190914201CFDE90939C
:101FD0004201809341010F5F1F4FEECF6EDE58CF5D
:101FE0000FB6F894A8958091600088618093600096
:0E1FF000109260000FBE20C0FFCFF894FFCF0C
:0400000300001C00DD
:02000000FFCD32
:02000200FFCD30
:02000400FFCD2E
:02000600FFCD2C
:02000800FFCD2A
:02000A00FFCD28
:02000C00FFCD26
:02000E00FFCD24
:02001000FFCD22
:02001200FFCD20
:02001400FFCD1E
:02001600FFCD1C
:02001800FFCD1A
:02001A00FFCD18
:02001C00FFCD16
:02001E00FFCD14
:02002000FFCD12
:02002200FFCD10
:02002400FFCD0E
:02002600FFCD0C
:02002800FFCD0A
:00000001FF
