:100000000C9482020C94AA020C94AA020C94AA02E8
:100010000C94AA020C94AA020C94AA020C94AA02B0
:100020000C94AA020C94AA020C94E4240C94872346
:100030000C94AA020C94AA020C94AA020C94AA0290
:100040000C94AA020C94AA020C94AA020C94AA0280
:100050000C94A4080C94AA020C94AA020C94DE1C22
:100060000C94AA020C94AA020C94AA020C94AA0260
:100070000C94AA020C94AA020C94AA020C94AA0250
:100080000C94AA020C94AA020C94AA020C94AA0240
:100090000C94AA020C94AA020C94AA020C94AA0230
:1000A0000C94AA020C94AA020C94AA02736B6574B5
:1000B00063683A3631653339313B6C69623A415491
:1000C000524555532D4D50312D52544D004B6579AD
:1000D000626F617264696F20417472657573202D5F
:1000E000204B616C6569646F73636F7065200014E9
:1000F000001A00080015001700000000001C00187E
:10010000000C001200130004001600070009000A8A
:1001100000000000000B000D000E000F0033001D5A
:10012000001B000600190005003500310011001009
:100130000036003700380029002B00E300E1002AD8
:1001400000E000E2002C002B442D00340028001EAB
:10015000081F08520021082208000000004B00245C
:1001600000250026002A002608500051004F0027D5
:1001700008000000004E00210022002300FFFF2F96
:1001800000300020082F0830082308240825081E06
:10019000001F0020002E0802444900E300E1004C4B
:1001A00000E000E2002C00FFFF370027002E00498E
:1001B000004A0052004D004B000000000052004079
:1001C000004100420043004C00500051004F004EDF
:1001D000000000000051003D003E003F00440001CF
:1001E00060E95C00000000FFFFFFFFFFFF00003A36
:1001F000003B003C0045005444EA5CFFFFFFFFFF6A
:10020000FFFFFFFFFFFFFF544446004700CD586348
:100210007573746F6D0064656661756C74006F6EE4
:100220006C79437573746F6D006B65796D61702EB9
:10023000006B65796D61702E637573746F6D0A6BF9
:1002400065796D61702E64656661756C740A6B65A5
:10025000796D61702E6F6E6C79437573746F6D007C
:10026000656570726F6D2E6672656500656570728A
:100270006F6D2E636F6E74656E747300656570725A
:100280006F6D2E636F6E74656E74730A6565707240
:100290006F6D2E66726565002F0063726300766570
:1002A0007273696F6E0076616C69643F00646566A5
:1002B00061756C744C617965720073657474696EF4
:1002C00067732E0073657474696E67732E64656658
:1002D00061756C744C617965720A73657474696ECA
:1002E00067732E76616C69643F0A73657474696E16
:1002F00067732E76657273696F6E0A7365747469BD
:100300006E67732E6372630066616C73650074724E
:1003100075650068656C700068656C70000D0A2E6C
:10032000001E08340820082108220824083400266A
:1003300008270825082E0836002D0037003800272A
:10034000003308330036082E00370838081F082FFE
:10035000003100300023082D0835002F0831083007
:1003600008350805010906A101050719E029E71567
:100370000025017501950881029501750881019597
:10038000057501050819012905910295017503916B
:100390000195067508150025FF0507190029FF813D
:1003A00000C0050C0901A1018504150026FF0319F1
:1003B000002AFF03950475108100C005010906A1FC
:1003C000018508050719E029E71500250175019544
:1003D000088102050819012908950875019102058F
:1003E00007750495018101190429DD1500250175A2
:1003F0000195D98102750395018101C005010902AA
:10040000A101850105091901290815002501950893
:100410007501810205010930093109381581257FEF
:10042000750895038106050C0A38021581257F752C
:100430000895018106C005010980A1018505150007
:1004400026FF00190029FF950175088100C00501EC
:100450000902A101050919012908150025019508BE
:100460007501810205010930093116000026FF7F60
:1004700075109502810209381581257F750895014F
:100480008106C0080B0002020200000904000001FE
:1004900002020000052400100105240101010424CA
:1004A0000206052406000107058103100040090427
:1004B0000100020A000000070502024000000705D3
:1004C000830240000012010002EF02014009120302
:1004D000230001010203014B6579626F6172646957
:1004E0006F00417472657573000403090400E31121
:1004F00069146116A3164318CA193B1A291B061C56
:10050000DA1CF21E11241FBECFEFDAE0DEBFCDBF32
:1005100011E0A0E0B1E0E4E2F2E502C005900D9246
:10052000A039B107D9F724E0A0E9B1E001C01D92DC
:10053000A53AB207E1F712E0C2E8D2E004C0219781
:10054000FE010E94AD28C737D107C9F70E94AD024E
:100550000C9410290C94000008950E94921D0E9492
:10056000AC028EE794E00E945C250E948A03C0E002
:10057000D0E00E9495032097E1F30E940000F9CF9C
:10058000089586E0E5E3F1E0DB0101900D928A95A4
:10059000E1F786E0089589E792E00E94390A82E750
:1005A00092E00E94FB088BEB92E00E94C80F90E063
:1005B00080E0089589E792E00E94420B90E080E09D
:1005C00008950F931F93CF93DF93EC01162F042F01
:1005D000242F462FBC0183EC92E00E94D810019793
:1005E00031F1202F412FBE0180E193E00E94E514FC
:1005F0000197E9F0202F412FBE018BEB92E00E9482
:10060000F70E0197A1F0202F412FBE0181EA92E061
:100610000E94FD0C019759F0202F412FBE018AEE58
:1006200092E0DF91CF911F910F910C949E1381E086
:1006300090E0DF91CF911F910F910895CF93DF93B9
:10064000EC01BC0182E792E00E948209019729F443
:1006500081E090E0DF91CF910895BE0180E892E0C3
:100660000E94440C0197A1F3BE0187E792E00E942B
:10067000C40B019769F3BE0188E792E00E944B0B1F
:1006800031E020E0019709F030E0832F922FE2CF94
:1006900090E080E0089580E892E00E94670C83EC8F
:1006A00092E00E9438108BEB92E00E949F0E81EA4C
:1006B00092E00E943C0E8AEE92E00C94171483ECB8
:1006C00092E00E9450108BEB92E00E94920E81EA21
:1006D00092E00E941B0D90E080E00895882329F0AD
:1006E000813039F090E080E0089580E00E94B20708
:1006F000F9CF61FFF7CF60FDF5CF6DEC70E081EAD7
:1007000092E00E94580D6CEA70E081EA92E00E944B
:10071000580DE8CF80913C0190913D010E94ED057C
:100720000E94E1148AE00C94130980913C0190919D
:100730003D010C94F30683E593E00E94BA1980E929
:1007400093E00E941F1B82E793E00E94391A85EF15
:1007500093E00C94EA1BEEE3F1E050E040E070E03F
:1007600060E000009191A92FB0E084E0B595A795D5
:100770008A95E1F790962C9130E09F7002C03595F4
:1007800027959A95E2F72095309521703327042E0E
:1007900002C0220F331F0A94E2F7622B732B4F5FC4
:1007A0005F4F4C305105E9F6CB010895EF92FF926F
:1007B0001F93CF93DF93CAE6D2E072E6E72E72E092
:1007C000F72E10E028813981F70180819181482F2F
:1007D000440F4270522F5170452B09F017C1AC01E4
:1007E00056954795440F427021FB552750F9452BEC
:1007F00009F000C1AC015695479556954795440FB1
:10080000427022FB552750F9452B09F0E7C0AC0197
:10081000569547955695479556954795440F42707E
:1008200023FB552750F9452B09F0CCC0AC0152955C
:1008300042954F7045275F704527440F427024FB57
:10084000552750F9452B09F0B1C0AC015695479595
:10085000529542954F7045275F704527440F42706F
:1008600025FB552750F9452B09F094C0AC01002415
:10087000440F551F001C440F551F001C452F502DC1
:10088000440F427026FB552750F9452B09F076C0DE
:10089000AC01440F452F441F550B5195440F427036
:1008A00027FB222720F9422B09F05DC0492F440F76
:1008B0004270232F2170422B09F04AC031FB2227BE
:1008C00020F9492F4270422BC1F5492F46954270BD
:1008D00032FB222720F9422B29F5292F2695269530
:1008E000227033FB442740F9422B79F48993999382
:1008F000F2E0EF0EF11C145F103309F063CFDF91CB
:10090000CF911F91FF90EF9008956BE0610F80E011
:1009100090E00E94A208F701819191917F01899353
:100920009993E9CF6AE0610F80E090E00E94A2080D
:100930003981F70180819181D0CF69E0610F80E03A
:1009400090E00E94A2083981F70180819181BDCF9A
:1009500068E0610F80E090E00E94A2083981F70111
:1009600080819181ABCF67E0610F80E090E00E94D1
:10097000A2083981F7018081918198CF66E0610FEB
:1009800080E090E00E94A20828813981F7018081EF
:1009900091817ECF65E0610F80E090E00E94A20827
:1009A00028813981F7018081918160CF64E0610FF6
:1009B00080E090E00E94A20828813981F7018081BF
:1009C000918143CF63E0610F80E090E00E94A20834
:1009D00028813981F7018081918128CF62E0610F00
:1009E00080E090E00E94A20828813981F70180818F
:1009F00091810DCF61E0610F80E090E00E94A2083C
:100A000028813981F70180819181F4CE612F80E0C6
:100A100090E00E94A20828813981F70180819181AC
:100A2000DECECF93C82F83E593E00E9415196C2F7B
:100A3000811105C083E593E0CF910C94541980E9AE
:100A400093E0CF910C94C91A1F93CF93DF93EC01DD
:100A50001D818C81182313FF03C081EE0E941105B4
:100A600010FF03C080EE0E94110511FF03C082EE4B
:100A70000E94110512FF03C086EE0E94110514FFAB
:100A800003C083EE0E94110583E593E00E941519CF
:100A90006E81811117C0662371F083E593E00E9497
:100AA0007B1983E593E00E9418196E8183E593E03A
:100AB0000E9454191E8283E593E0DF91CF911F912C
:100AC0000C941819662371F080E993E00E94F01AE3
:100AD00080E993E00E94691A6E8180E993E00E94A8
:100AE000C91A1E8280E993E00E94691A82E793E0A6
:100AF000DF91CF911F910C94131AFC01168215827D
:100B000083E593E00E941519811104C083E593E009
:100B10000C94B31980E993E00E94191B82E793E0DB
:100B20000C94001ACF930FB6F894A89580916000AA
:100B3000886180936000109260000FBEAEE3B1E068
:100B40004AE451E061E070E08D91E82FF0E024E0AC
:100B5000F595E7952A95E1F7C1A18F709B0101C03A
:100B6000220F8A95EAF7922F90959C2391A382A158
:100B7000822B82A34A175B0739F7AAE4B1E04EE45F
:100B800051E061E070E08D91E82FF0E094E0F595A0
:100B9000E7959A95E1F791A18F709B0101C0220F13
:100BA0008A95EAF7922B91A382A1822B82A34A17FE
:100BB0005B0749F780E1809381001092800080E616
:100BC00094E5909387008093860081E18093810073
:100BD00081E080936F00CF910895CF9340E855E274
:100BE00060E070E081E294E00E94EC1E0E94C0028E
:100BF0000E94CB020E949B038EE493E00E94920528
:100C00000E948207C0E08C2F0E942807CF5FC0336C
:100C1000D1F7CF9108953F924F925F926F927F925A
:100C20008F929F92AF92BF92CF92DF92EF92FF92FC
:100C30000F931F93CF93DF93CAE2D2E022E6822E76
:100C400022E0922E3AE4A32E31E0B32E4AE5442E60
:100C500042E0542E66246394712C63E0362E888122
:100C600003E010E021E0882329F08150888302E02E
:100C700010E020E090E08981882321F08150898371
:100C8000022F192F8A818111ABC004608B818111E1
:100C9000A4C008608C8181119DC000618D8181118B
:100CA00096C000628E8181118FC000648F81811196
:100CB00088C000688885811181C011608985811193
:100CC0007AC012608A85811173C014608B8581118E
:100CD0006CC01860F50181915F01E82EF12CF5944C
:100CE000E794F594E794F594E794F594E794F70185
:100CF00092A18F70630101C0CC0C8A95EAF7892F0D
:100D00008C2582A30E94AB03F401208131818227CC
:100D100093270823192302271327F70182A1C82646
:100D2000C2A2F401208131812027312720FD3882A1
:100D300021FD398222FD3A8223FD3B8224FD3C8243
:100D400025FD3D8226FD3E8227FD3F8230FD38860F
:100D500031FD398632FD3A8633FF1DC03B86F401F2
:100D6000019311934F012C96F2E0CA35DF0709F089
:100D700076CFDF91CF911F910F91FF90EF90DF9091
:100D8000CF90BF90AF909F908F907F906F905F902B
:100D90004F903F900895F401019311934F012C96C9
:100DA0004C165D0609F05BCFE4CF81508B8792CF64
:100DB00081508A878BCF8150898784CF81508887E3
:100DC0007DCF81508F8376CF81508E836FCF8150BE
:100DD0008D8368CF81508C8361CF81508B835ACFB4
:100DE00081508A8353CF0E94281D60939101709394
:100DF000920180939301909394010E94DA02809172
:100E00004E03882331F010924E038EE493E00E944B
:100E10000B060E94D6030E944B0385E493E00E94D8
:100E2000240585E493E00E947D050C945F0370E047
:100E300090E3899F600D711D1124660F771FFB01E0
:100E4000E151FF4F8491FB01E051FF4F94910895D0
:100E5000CF93DF93282F30E0E901CC0FDD1FCB5378
:100E6000DE4F2B563E4FE0910101F0910201682FB9
:100E7000D9018C91099599838883DF91CF91089549
:100E8000CF92DF92EF92FF92C0902602D09027027D
:100E9000E0902802F090290280910001815090E0BA
:100EA000282F0097A1F0B701A601082E04C076955F
:100EB0006795579547950A94D2F7019740FFF0CF71
:100EC00020932502FF90EF90DF90CF90089510922D
:100ED0002502F8CF0F931F934091260250912702CD
:100EE00060912802709129028A019B0104C0369505
:100EF0002795179507958A95D2F7C80181701F919C
:100F00000F9108950F931F93CF93DF93E5E9F1E0DD
:100F100080E3DF011D928A95E9F78F01D0E0D0339D
:100F2000E1F0C09125021C1694F48C2F0E946A07F0
:100F3000882389F0E0910101F09102016D2F8C2F3F
:100F400009958F3F11F49F3F31F0F801C083DF5FB7
:100F50000F5F1F4FE4CFC150E6CFDF91CF911F91BC
:100F60000F910895282F80910001281708F020E0A4
:100F700081E090E0A0E0B0E004C0880F991FAA1FB4
:100F8000BB1F2A95D2F78093260290932702A09345
:100F90002802B09329020E9440070E9482070C9405
:100FA00048030F931F93009126021091270220916E
:100FB000280230912902B901A801082E04C07695B3
:100FC0006795579547950A94D2F740FF28C041E0AE
:100FD00050E060E070E0082E04C0440F551F661F0B
:100FE000771F0A94D2F740955095609570954023ED
:100FF0005123622373234093260250932702609368
:1010000028027093290290912502981302C00E9431
:1010100040070E9482071F910F910C9448031F9173
:101020000F910895CF9390910001891780F5C82FF3
:101030000E946A0781112BC081E090E0A0E0B0E03F
:101040000C2E04C0880F991FAA1FBB1F0A94D2F749
:101050004091260250912702609128027091290246
:10106000842B952BA62BB72B8093260290932702D7
:10107000A0932802B0932902809125028C1710F4C6
:101080000E9440070E948207CF910C944803CF91A1
:101090000895809125028F5F0C941208809125029B
:1010A0000C94D107CF93962F9270843540F09923FA
:1010B000E1F160FD3AC08455CF910C94B207C82F7E
:1010C0008A3230F1CA52C13251F0C23281F46170B9
:1010D000992349F1611129C0CF910C94490861709D
:1010E000992329F1611121C0CF910C944E089923C5
:1010F00049F08C2F0E946A07811117C08C2FCF9165
:101100000C94120860FF11C08C2FCF910C94D10762
:10111000992359F060FD09C00E946A07882371F382
:10112000CC2361F3F1CF6111DFCFCF910895662316
:10113000E1F3D2CF943429F4642F0E94520880E066
:1011400090E008950C94F0251F920F920FB60F9225
:1011500011248F9381E080934E038F910F900FBEE7
:101160000F901F9018951F93CF93DF939091740267
:10117000891730F080E090E0DF91CF911F910895C2
:10118000C62FD0E090E3899FC00DD11D1124CC0F54
:10119000DD1F6091750270917602C60FD71FCE01D8
:1011A0000E94FA28182FCE0101960E94FA28912F4A
:1011B000E3CF90917302891710F40C941707891BE1
:1011C0000C94B308FF920F931F93CF93DF93EC011E
:1011D000F62E08811981C8010E94FA28F81621F01C
:1011E0006F2DC8010E940229CE01DF91CF911F917E
:1011F0000F91FF90089589E792E00E94390A80914B
:1012000000018093730290E080E00895809374025F
:1012100020E6829FC00111240E94930A90937602D7
:101220008093750208958093000190917C0223EBD6
:1012300038E097FD07C090917302980F90930001DA
:1012400029ED38E030930201209301010C94060946
:10125000FF920F931F93CF93DF9300D0CDB7DEB7EC
:10126000F62E672F8C01000F111F8091750290914F
:101270007602800F911F9A838983CE0101960E9486
:10128000E20880917502909176020196800F911F7D
:101290009A8389836F2DCE0101960E94E2080F90F8
:1012A0000F90DF91CF911F910F91FF900895FF92C2
:1012B0000F931F93CF93DF93F82E8B01C0E0CF15D0
:1012C000D9F0D0E06D2F8C2FF8010995692F70E0CF
:1012D000762F6627680F711D4AE050E081E294E0A6
:1012E0000E94932060E281E294E00E941620DF5F7A
:1012F000D03341F7CF5FE3CFDF91CF911F910F91B3
:10130000FF900895FF920F931F93CF93DF931F9247
:10131000CDB7DEB78B0141E352E080E892E00E9456
:101320002F0C811191C047E050E069E272E0C801E2
:101330000E94DF28892B09F087C0095F1F4F6EE1EB
:1013400072E0C8010E94D628892BD1F581E294E091
:101350000E94FE1D0A9799F460917C0267FB662744
:1013600060F94AE050E081E294E00E948C2060E263
:1013700081E294E00E94162081E090E067C041E0A5
:1013800070E060E081E294E00E940121162F698301
:10139000862F0E94070B90917402909300011123F5
:1013A00039F083EB98E09093020180930101E4CF40
:1013B00080917302890F8093000189ED98E0F3CF4B
:1013C00066E172E0C8010E94D628892B39F467E1F2
:1013D00077E0809173020E945709CECF6FE072E0F0
:1013E000C8010E94D628892B79F581E294E00E94F9
:1013F000FE1D0A9729F463EB78E080917402EBCF2D
:1014000010E000E090E3F92E81E294E00E94FE1DDE
:101410000A9709F4B1CF809174028F9DC001112405
:101420000817190708F0A8CF41E070E060E081E2FA
:1014300094E00E940121272F3327722FC8010E94B8
:1014400028090F5F1F4FE0CF90E080E00F90DF9101
:10145000CF911F910F91FF9008954AE050E0682FBF
:1014600081E294E00E948C2060E281E294E00C949E
:101470001620EF92FF920F931F93CF93DF9300D02C
:10148000CDB7DEB790E080E00E94FA28182F809355
:101490007C0281E090E00E94FA28082F80937D0270
:1014A00082E090E00E94FA2880937E0283E090E040
:1014B0000E94FA2880937F020F3FF1F4812F8F77EB
:1014C0008F3719F417FD10927C0281E080937D0222
:1014D0008CE7E82E82E0F82E10E000E01A83098302
:1014E000F70161917F01CE0101960E94E2080F5F32
:1014F0001F4F0430110591F790E080E00F900F909E
:10150000DF91CF911F910F91FF90EF9008958091FF
:101510007A02882329F080917E0290917F020895BB
:1015200090E080E008950F931F93CF93DF9300D056
:10153000CDB7DEB79A83898380917A0210E000E00C
:10154000811114C0009103011091040189819A81D5
:10155000800F911F909304018093030142E0BE012C
:101560006F5F7F4F87E393E00E947E16C8010F9064
:101570000F90DF91CF911F910F910895EF92FF92FD
:101580000F931F93CF93DF9300D0CDB7DEB78CE7D7
:10159000E82E82E0F82E10E000E01A830983F701BC
:1015A00061917F01CE0101960E94E2080F5F1F4FFB
:1015B0000430110591F781E080937B020F900F902A
:1015C000DF91CF911F910F91FF90EF900895CF93EE
:1015D000C82F80910001C81758F48C2F0E94B207C1
:1015E00080917C0280789C2F9F77892B80937C024E
:1015F000CE3730F080917C0280788E6780937C02B9
:101600000E94BE0A80917C028F77CF9108959091BD
:101610007C0280FB97F990937C02892F8F778F371C
:1016200021F490789E6790937C020C94BE0A81E02E
:1016300080937A0260E187E393E00E9465168091CF
:101640007D02813019F010927B02089520917E0274
:1016500030917F0280913703909138032F3F3207FA
:1016600069F490937F0280937E020E94BE0A80916B
:101670007C028F778E3728F40C94B207281739072D
:10168000B1F3089580917A02811102C00E94170B74
:1016900090E080E00895CF93DF93EB0144EC52E0BB
:1016A00080E892E00E942F0C81116BC049E050E06D
:1016B0006AEB72E0CE010E94DF28892B09F061C03D
:1016C00029966DEA72E0CE010E94D628892B59F442
:1016D00081E294E00E94FE1D0A9709F047C08091C4
:1016E0007C028F7736C066EA72E0CE010E94D6286F
:1016F000892B91F16EE972E0CE010E94D628892BE8
:1017000031F16AE972E0CE010E94D628892BC9F531
:101710000E94870AEC0160913703709138034AE018
:1017200050E081E294E00E94932068E972E081E257
:1017300094E00E94F21F4AE050E0BE0181E294E092
:101740000E94932081E090E0DF91CF9108958091F5
:101750007D020E942D0AF6CF80917B020E944B0CE5
:1017600060E281E294E00E941620ECCF41E070E05C
:1017700060E081E294E00E940121862F0E94E70A46
:10178000E1CF90E080E0E0CF0F931F93CF93DF9302
:1017900000D0CDB7DEB78B014CE752E080E892E095
:1017A0000E942F0C811158C06CE672E0C8010E94A3
:1017B000D628892B11F581E294E00E94FE1D10E0ED
:1017C00000E00A97E9F181E294E00E94FE1D0A9789
:1017D00071F141E070E060E081E294E00E9401215B
:1017E0001A830983CE0101960E94E2080F5F1F4F02
:1017F000011584E0180739F71AC060E672E0C801E5
:101800000E94D628892B41F5809103019091040113
:1018100060E074E0681B790B4AE050E081E294E0FC
:101820000E94932060E281E294E00E94162081E011
:1018300090E00F900F90DF91CF911F910F9108953D
:10184000C8010E94FA280E942D0A0F5F1F4F011540
:1018500084E01807A9F7EBCF90E080E0EACFCF93C0
:10186000DF93CB01EA0168E173E00E94D628892B5F
:1018700049F4BE0181E294E00E94212081E0DF91E1
:10188000CF91089580E0FBCF43E153E00E942F0CFD
:1018900090E080E0089568E073E0882311F06EE046
:1018A00073E081E294E00C94F21F81E294E00E94E4
:1018B000171E892B59F081E294E00E94FE1D0A97C1
:1018C00029F081E294E00E94271EF5CF08950F933E
:1018D0001F93CF9381E294E00E94171E892BB9F1E8
:1018E00001E812E0C0E081E294E00E94271ECF5F91
:1018F000F80181938F0181E294E00E94FE1D0A9716
:1019000039F0F80131978081803211F0C03259F7F7
:101910008C2F90E0FC01E058FD4F20812032E9F44B
:10192000108281E892E00E941E036DE173E081E283
:1019300094E00E9421200E94550C81E294E00E94D4
:10194000FE1D0A9721F481E294E00E94271E90E098
:1019500080E0CF911F910F9108958F579D4FFC010B
:10196000DFCFFC018491319694910895862F90E009
:101970006134E0F46A33B0F5603269F170F46A30D2
:1019800039F130F482E2683050F590E080E008955B
:101990006B31D9F790E089E208956133F8F4880F4C
:1019A000991F81529D4F0E94B10C0895613638F401
:1019B0006B35E8F0880F991F87569D4FF4CF6B3732
:1019C000D0F06F3710F7880F991F8B599D4FEBCFD1
:1019D00090E088E2089590E08CE208958DEE860F05
:1019E00090E00895880F991F83539D4FDCCF83ECBF
:1019F000860F98E0089583EAF2CFFB01818180365B
:101A0000B9F48091A202883080F49081682F70E050
:101A1000FB01EE0FFF1FE60FF71FED55FD4F908303
:101A2000418322838F5F8093A20281E090E008953A
:101A300090E080E008951092A20290E080E0089586
:101A4000CF93C42F462F40686FEF0E94F025C1113D
:101A500009C085E493E00E94240588ED93E0CF91CE
:101A60000C94541BCF9108950F931F93CF93DF9342
:101A7000EC01062F142F61FF03C062E00E94200DCD
:101A800000FF09C0412F61E0CE01DF91CF911F918E
:101A90000F910C94200DDF91CF911F910F9108951C
:101AA000362F642FFC018491422F932F0C94340D18
:101AB000EF92FF920F931F93CF93DF937C018B01E3
:101AC000F80164916623C1F0C7010E94B60CD82FBB
:101AD000C92F811102C0992361F040E062E08D2F8F
:101AE0009C2F0E94200D40E061E08D2F9C2F0E94D2
:101AF000200D0F5F1F4FE4CF90E080E0DF91CF918A
:101B00001F910F91FF90EF9008958F929F92AF9247
:101B1000BF92EF92FF920F931F93CF93DF93CB016E
:101B2000009709F49EC0F12CE12CEC012196FC01F8
:101B30002491EFEFE20FED3008F093C0F0E0ED55A7
:101B4000F24F0C94AD28F00DF50D010E0B0E120E98
:101B5000190E230E290EDD0D2F0EE70DB00DC80D49
:101B60008E2C912CB12CA12CFE0104913196229641
:101B7000149140E063E0812F902F0E94340DC50145
:101B8000B4010E94591D0111EFCF1111EDCF17C003
:101B90008E2C912CB12CA12C2196FE013197149101
:101BA00040E063E0812F90E00E94340DC501B40154
:101BB0000E94591D1111F0CF02C0FF24F3946E2D25
:101BC00070E090E080E00E94591DCE01AECF85E428
:101BD00093E00E94240588ED93E00E94541BEFCF10
:101BE0000296FE01E490EC01EACF8C010E5F1F4FDC
:101BF000FE01649170E090E080E00E94591DE801D0
:101C0000DECFFE016491EC0123962F2D42E0029677
:101C10000E94500DD4CFFE016491EC0123962F2D2C
:101C200041E0F5CFFE016491EC01239620E043E012
:101C3000EECF8C010E5F1F4F2F2D42E060E0CE01F2
:101C40000E94500DDCCF8C010E5F1F4F2F2D41E005
:101C5000F5CF8C010E5F1F4F20E043E0EFCFF12C5A
:101C6000AECFDF91CF911F910F91FF90EF90BF907A
:101C7000AF909F908F900895CF93C0E08091A20283
:101C8000C817B8F48C2F90E0FC01EE0FFF1FE80F8F
:101C9000F91FED55FD4F818180930501628180819F
:101CA0000E946E03BC0181EA92E00E94850DCF5F25
:101CB000E5CF90E080E0CF9108950F9320919101BE
:101CC000309192014091BC025091BD02B901641B58
:101CD000750BAB01609106017091070164177507E0
:101CE000F8F43093BD022093BC0200E0209108017B
:101CF00080FD10C020910801219500E081FD0AC0FF
:101D000000910801019582FD04C083FF09C0009184
:101D1000080120E040E060E088ED93E00E942D1B88
:101D20000F91089588ED93E00E94541B88ED93E095
:101D30000E94351B1092C20290E080E008959091BD
:101D4000C202911105C010923B0390E080E008951B
:101D500020919101309192014091C0025091C102B5
:101D6000B901641B750BAB0160910C0170910D0101
:101D70006417750750F73093C1022093C002409159
:101D8000BE025091BF02B901641B750BAB0160919B
:101D9000090170910A016417750790F480913B0363
:101DA00060910B014FEF50E0461B51098417150657
:101DB0001CF4860F80933B033093BF022093BE0236
:101DC00060910E01619590FF60E091FF03C08091EA
:101DD0000E01680F80910E01819592FF80E093FFC4
:101DE00003C090910E01890F0E949C17AECF0F93F4
:101DF0001F93CF93DF93CDB7DEB72A970FB6F89432
:101E0000DEBF0FBECDBFFB018181803509F07DC0F3
:101E10006081962F9072822F8270362F307466FF09
:101E200010C0911110C0162F1F7B2170811126C088
:101E300071F1612F88ED93E00E94401B0E94F11622
:101E400026C0992339F1882311F120FD20C091E0AB
:101E5000311101C090E082E060FF80E0892B94E0C6
:101E600061FF90E0892B98E062FF90E0892B90E180
:101E700063FF90E0892B0E94FA1609C0211102C06D
:101E80000E94F416612F88ED93E00E943B1B81E0D5
:101E900090E03DC02170882309F444C0211116C090
:101EA00080919101909192019093C1028093C00220
:101EB0009093BF028093BE022091060130910701EA
:101EC000821B930B9093BD028093BC02808184FFA0
:101ED00003C00E945D0EDBCF9091C202892B8093DC
:101EE000C202D5CF84FF08C080E091E02CC084FFFF
:101EF00007C081E090E027C080E090E031E024C09E
:101F000080E090E030E051E020C090E080E02A9650
:101F10000FB6F894DEBF0FBECDBFDF91CF911F91FA
:101F20000F910895222309F4B2CF60958091C202E7
:101F300068236093C2028081982F937099F6982F3E
:101F40009C70A9F680E030E050E025E0E8EDF3E099
:101F5000DE01119601900D922A95E1F725E0FE0130
:101F60003196DE01169601900D922A95E1F76F8168
:101F7000488529850A85511160E0311140E09111B1
:101F800020E0811100E088ED93E00E942D1B7FCFBF
:101F9000CF93DF9300D000D000D0CDB7DEB788ED6F
:101FA00093E00E94861BE4E0F4E0108A8685978522
:101FB0002485358519823B832A839D838C831E82E9
:101FC0000284F385E02D0190F081E02D46E050E0A1
:101FD000BE016F5F7F4F8EE094E0099590E080E056
:101FE00026960FB6F894DEBF0FBECDBFDF91CF911E
:101FF000089520919101309192018091E802909191
:10200000E902281B390B81E0409113015091140122
:102010004217530708F080E00895292F30E0322F4F
:102020002227F901E80FF11DEE0FFF1FEA53FD47CC
:10203000808182FB882780F90895883038F48052A7
:1020400090E0462F40686FEF0C94F0258E5D94E48D
:10205000F8CF62E00C941D10E82FF0E0EE0FFF1FA8
:10206000E853FD4F90819E7F908361E00C941D109A
:10207000CF93DF93D0E0C0E0FE01EE0FFF1FE853E7
:10208000FD4F808180FF03C08C2F0E942910219674
:10209000C830D10589F790E080E0DF91CF910895B5
:1020A000FF920F931F93CF93DF9390E080E0FC01AA
:1020B000EE0FFF1FE853FD4F208120FD3FC001962A
:1020C00080319105A1F7D0E0C0E090E08091C50299
:1020D0008823B9F08E01000F111F08531D4FF8011E
:1020E000808183FF20C0F090C402FF2051F0877FE1
:1020F00080838C2F0E942C10F80180818D7F80833B
:102100009F2D2196C031D10509F7992321F0109216
:10211000C5021092C40290E080E0DF91CF911F9140
:102120000F91FF900895182F117080FFEACF81FD65
:10213000E8CF8C2F0E942C10912FE3CF0E94F90F33
:10214000882309F281E08093C5021092C402BBCFBC
:10215000FF920F931F93CF93DF93D0E0C0E08E01E7
:10216000000F111FF801E853FD4F808180FBFF2411
:10217000F0F880FF04C00E94F90F882391F0F80165
:10218000E853FD4F808181FBFF24F0F881FD09C0F9
:1021900083FBFF24F0F883FD04C02196C031D105F4
:1021A000F1F68F2DDF91CF911F910F91FF90089540
:1021B0008F929F92AF92BF92DF92EF92FF920F9316
:1021C0001F93CF93DF9327FDD2C0D22FD42E8B0144
:1021D000DB011196EC9011978E2D90E0982F8827B7
:1021E000EC90E80EF92EF11CCFEFCE0D0E94A81056
:1021F000B1E0EB1AB0ECFB0A811121C0E0E1EE1670
:10220000F10408F0B4C08D2F8270D0FFBBC08111E3
:1022100008C0D0E0CC0FDD1FC853DD4F88818D7F13
:10222000888381E090E0DF91CF911F910F91FF9023
:10223000EF90DF90BF90AF909F908F9008959D2F6B
:102240009270B0E1EB16F10408F07AC0EC2EF12C9C
:10225000EE0CFF1CF701E853FD4F808183FF13C094
:102260009923F9F2D0FDDDCFD8012D913C91309327
:10227000C7022093C602877F80838C2F0E942C1078
:102280001092C502CECFD0FD3AC0992351F28260A0
:1022900080839091C602F801808180909101909096
:1022A0009201981343C09091C702818198133EC058
:1022B000A080B180C5010E940D108823B9F18091E2
:1022C0000F01909110018F3F980721F48091130125
:1022D000909114012091E8023091E902821A930A48
:1022E0008815990508F49DCFF701E853FD4F8081CB
:1022F00088608083B092C702A092C60292CF9111EB
:1023000090CF8D7F80838091910190919201209157
:10231000E8023091E902821B930B20911101309168
:1023200012012817390708F07CCFA7CF9092E90255
:102330008092E802F701E853FD4FD182808136C0D8
:102340009923A9F0F801808191819093C70280932D
:10235000C6024181242F30E0322F22278081820F54
:10236000932F911D803E910528F4443439F490E078
:1023700080E059CF883E9105C0F7F9CF81E0809386
:10238000C502F5CF882309F44CCF8091910190913B
:1023900092019093E9028093E802EC2FF0E0EE0FB7
:1023A000FF1FE853FD4FD18280818260816080836E
:1023B000D8018D919C919093C7028093C6028C2F77
:1023C0000E9429102ECF90E080E0FC01EE0FFF1F4D
:1023D000E853FD4F208124602083019680319105D0
:1023E000A1F70895EF92FF920F931F93CF93DF937E
:1023F000EC018B016C812C8D42E020FD41E09B8142
:1024000091509B83DE011496FE013C9630E0391713
:1024100050F411968C9111978D93E280F380E192A4
:10242000F1923F5FF4CF30E0359527952C8F81E016
:1024300089A3C8010E94F02519A2DF91CF911F91B5
:102440000F91FF90EF900895FC01872F90E0982F57
:102450008827680F792F711D613180EC7807E0F0D3
:10246000623188EC780750F46151704C62A313A27A
:1024700015A280EE870F84A381E00895633180ED7B
:10248000780750F46251784C62A313A28AE2870F56
:1024900084A384E485A3F0CF80E008958F929F9277
:1024A000AF92BF92CF92DF92EF92FF920F931F9362
:1024B000CF93DF9300D000D0CDB7DEB78C01C62E0E
:1024C000862F90E09C012B563E4F7901E09101014F
:1024D000F0910201D9018C9109955C01BC01C80100
:1024E0000E942412D82E811138C0F7018080F12C6F
:1024F000EE24EA94912CD80112968C91F81608F0EB
:1025000040C0B4E0FB9EC0011124F80160817181DC
:10251000680F791FEA8244E050E0CE0101960E94E4
:10252000CD2889819A813B812C81C91228C0482FEE
:10253000082E000C550B4815590511F08F3FF9F482
:10254000D8019396BC92AE929297C90194969C93AF
:10255000949795962C93DD24D3948D2D0F900F9006
:102560000F900F90DF91CF911F910F91FF90EF90FF
:10257000DF90CF90BF90AF909F908F900895F3948D
:10258000BACFF801B3A2A2A28FEF84A385A3E5CFAF
:10259000CF93DF93FC01EB019A01261B370BA4E6D6
:1025A000B0E00E94B328268D30E050E040E00E9469
:1025B0008B288091910190919201BC016C1B7D0B45
:1025C00081E02617370708F480E0DF91CF91089566
:1025D000FC01349690E0941729F08191861721F040
:1025E0009F5FF9CF80E0089581E00895292F207C36
:1025F00031F4805E91E0883038F090E005C094348A
:10260000E1F791E08A32C8F3892F08957F928F9283
:102610009F92AF92BF92CF92DF92EF92FF920F9371
:102620001F93CF93DF93FC012381222309F475C00C
:10263000EC01848D60E070E080FD6CC08480682DCA
:10264000CF010E944E12AAA0BBA0882309F461C04A
:102650001D8D112309F45DC0C5010E94F612782E6C
:102660009B806E01EE24E394F12C00E02E2DE91402
:1026700008F05FC08C8D90E00E2C02C09595879578
:102680000A94E2F780FD0CC0711043C0002309F4E6
:102690004EC0FFEFCF1ADF0A8FEFE81AF80AE6CF35
:1026A000F6019581FE01359681E0891238C000233C
:1026B00019F08E8D811119C0772019F06CA17DA1C0
:1026C00002C06AA17BA1CE010E94F211812FDF918D
:1026D000CF911F910F91FF90EF90DF90CF90BF901F
:1026E000AF909F908F907F900895F701EE0FFF1F9E
:1026F000EC0FFD1F44855585E02FF0E0EE0FFF1F26
:10270000EC0FFD1F64857585CE010E94C8128111F2
:10271000C0CFB501CE010E94F21111E0D7CF8217D0
:1027200008F0B7CF3191931749F28F5FF8CF0E2D94
:10273000B0CFE8E010E09E12C9CFEBCF0F931F930C
:10274000CF93DF934033C0F427FD16C0FC0131A1C5
:10275000311112C08B01EC01858D811110C0FB017C
:1027600060817181CE010E942412882329F08AA100
:102770009BA1F8019183808390E080E01FC0A22F8D
:10278000A170B22FB27021FF1EC0AA23F1F05B81AD
:10279000FE01349690E080E0851770F7282F319184
:1027A00001964313F9CF8C8D90E002C095958795E3
:1027B0002A95E2F78095909581709927DF91CF91C6
:1027C0001F910F910895AA2311F38B81282F30E0D8
:1027D000FE01E20FF31F4483220F331FFE01E20FBD
:1027E000F31F20919101309192013587248741E0B8
:1027F00050E060E070E0082E04C0440F551F661FD3
:10280000771F0A94D2F79C8DAA2371F0B1110CC0E6
:10281000942B9C8F8F5F8B83883019F4CE010E949C
:10282000061381E090E0CACF40959423F2CFFF9247
:102830000F931F93CF93DF93EC0110E0FF24F394E9
:102840008B811817F8F48C8D90E0E12FF0E0012EC9
:1028500002C0959587950A94E2F780FF11C0EC0FAE
:10286000FD1F0481412F602FCE010E94E8128111CB
:1028700007C0F9A243E0602F90E00E94F02519A262
:102880001F5FDECFCE010E94061381111AC0809116
:102890009101909192012C853D85821B930B2F8D88
:1028A00038A12817390768F40AA11BA1C8010E94A2
:1028B000F612B801811102C06CA17DA1CE010E9467
:1028C000F21190E080E0DF91CF911F910F91FF9086
:1028D0000895CF93DF93CAEED2E0198218821A824C
:1028E0001B8288E0EDE2F1E0AEEEB2E001900D92E5
:1028F0008A95E1F781E08D8F80E58E8F8AEF90E0F9
:1029000098A38F8F19A28FEF8AA38BA38CA38DA37B
:10291000DF91CF910895FC019081DB018C91981398
:1029200005C081E0218111969C91291380E00895D2
:102930008091110381113EC010921F031092210358
:102940001092200381EE8093190310921A0386E2FD
:1029500080931B0388E080931C0310921E03109247
:102960001D031092280310922A031092290395EE5A
:10297000909322031092230397E290932403809371
:102980002503109227031092260310923103109210
:1029900033031092320310922B0310922C031092E7
:1029A0002D0310922E031092300310922F0381E01A
:1029B0008093110389E193E090933603809335036C
:1029C000089581E08093340308954F925F926F924F
:1029D0007F928F929F92AF92BF92CF92DF92EF92AF
:1029E000FF920F931F93CF93DF9300D000D0CDB70A
:1029F000DEB76B01B42E022FFB01818190E0982F8E
:102A00008827208130E02855314D820F931F02978F
:102A100028F401FD0AC081E090E0E0C08091340319
:102A2000882311F190E080E0D9C000FDF4CF88E563
:102A3000898381ED8A83BE016F5F7F4FC6010E944B
:102A40008B14882319F010923403E5CF89E589832C
:102A5000BE016F5F7F4FC6010E948B148823D9F29D
:102A600081E080933403D7CF07FDDCCF19821A822F
:102A7000BE016F5F7F4FC6010E948B14182F81111A
:102A8000D1CFF02FF1707F2E802F8270682E01FF42
:102A90004FC0FF2309F44FC0512CA12C412C09E059
:102AA0001B821C82E0903503F09036034701A09E04
:102AB000800C911C1124BE016D5F7F4FC4010E94E8
:102AC0008B14882309F4D3C019821A82BE016F5F68
:102AD0007F4FC40102960E948B14882309F4C7C05B
:102AE000F40184819581892B09F0C1C0112309F477
:102AF00099CF409E80011124F701E00FF11F24813E
:102B000035812115310521F42091150130911601EF
:102B1000809191019091920147815085841B950B82
:102B20002817390708F0B5C01682108617827ACFA9
:102B3000F111B2CF77CF00E099E0B92E1B821C8251
:102B4000E0903503F09036030B9DE00CF11C11244E
:102B5000BE016D5F7F4FC7010E948B14882309F46B
:102B600052C019821A82BE016F5F7F4FC701029661
:102B70000E948B14882309F446C0F7018481958153
:102B8000892B09F040C0912C00E089E0882E772441
:102B900073941B821C82089D50011124E090350320
:102BA000F0903603EA0CFB1CBE016D5F7F4FC7013E
:102BB0000E948B148823A1F119821A82BE016F5FD3
:102BC0007F4FC70102960E948B14882349F1F701B9
:102BD00084819581892B21F5812F90E00F900F90B2
:102BE0000F900F90DF91CF911F910F91FF90EF9079
:102BF000DF90CF90BF90AF909F908F907F906F901D
:102C00005F904F900895F7019680992039F0B601B2
:102C1000C7010E948B14882309F4B6CF0F5F8ECFB3
:102C2000B701C6010E948B14882369F0911009C076
:102C3000F7017682209191013091920130872783AC
:102C4000182F0F5FA6CFF7018681882331F042E865
:102C50006FEF808191810E94F025E0913503F09122
:102C60003603EA0DFB1D168210861782EACFF401A7
:102C7000F680F1100CC0F12EB601C4010E948B1435
:102C8000811101C0852DA394582E1F2D09CF4A2CE8
:102C9000F3CF552009F4C6CE772009F4BCCE6110DD
:102CA000BACE42E86B2D828193810E94F025E0919B
:102CB0003503F0913603E00FF11F1682108617825C
:102CC000AACE80E193E00C949814FC01208131811C
:102CD0002170332781E0861770F440815181569529
:102CE000479551834083220F331F41705527242B72
:102CF000352B8F5FF0CF318320830895DC01FB01FA
:102D0000415000F181912D913C91119768E070E064
:102D100051E0982F952399F4932F991F9927991F84
:102D2000220F331F992319F095E029273058550FAA
:102D30006150710971F711963C932E93E1CF932F57
:102D40009095EBCF089510923803109237030895B1
:102D5000CF93DF9300D000D000D0CDB7DEB736954B
:102D60002795820F931F56954795640F751FE4E0D2
:102D7000F4E09587848777876687208929839B83FA
:102D80008A837D836C831E820284F385E02D01900B
:102D9000F081E02D46E050E0BE016F5F7F4F8EE096
:102DA00094E0099526960FB6F894DEBF0FBECDBF0E
:102DB000DF91CF91089510923E0310923D0310923F
:102DC000400310923F038FEF9FE79093440380935B
:102DD0004303909342038093410381E080933C033B
:102DE000089510923C03089580913C0381110C9446
:102DF000DB1608950F931F93CF93C82F80913C0348
:102E0000811102C00E94DB16C0FF06C010923C0375
:102E1000CF911F910F910895E09119010E2F10E0AD
:102E20008091430390914403B8010E9463289B0161
:102E30007093440360934303809141039091420354
:102E4000B8010E946328AB01709342036093410371
:102E50006C2F6470E0913F03F091400380913D033B
:102E600090913E037C2F7670763091F4820F931F01
:102E700090933E0380933D03BA016E0F7F1F7093C2
:102E8000400360933F03CF911F910F910C94A816BC
:102E9000662349F1D8011197A49FB001A59F700D39
:102EA000B49F700D1124E60FF71FF0934003E093D9
:102EB0003F03C4FF1DC001501109029FB001039FD1
:102EC000700D129F700D1124860F971F90933E0373
:102ED00080933D0360913F037091400380913D03D7
:102EE00090913E03D0CFC1FDE4CFE40FF51FDDCFBD
:102EF000C3FDF0CF820F931FE9CF482F50E087FD2D
:102F00000AC0889FC0011124880F892F881F990B40
:102F100091958F5F089520E031E0241B350B229FAF
:102F2000C001239F900D900D1124880F892F881FB9
:102F3000990B919580950895EF92FF920F931F93AF
:102F4000CF93DF93182F062F80911801C82FD0E060
:102F5000112309F492C0662389F123E6829FC00100
:102F600011246CE870E00E9477286115710509F062
:102F7000EB01212F012E000C330B43E61402C0019C
:102F800011246CE870E00E9477286115710509F042
:102F90009B01122F202F002E000C330B43E604025E
:102FA000C00111246CE870E00E947728611571055A
:102FB00009F09B01022F112309F45FC080913B03AC
:102FC0000E947D1720913A03382F1303C00111246A
:102FD000820F911D27FD9A957E01C817D90744F0ED
:102FE000EE24FF24EC1AFD0AE816F9060CF47C0125
:102FF000002309F445C080913B030E947D17209176
:103000003903482F0403C0011124820F911D27FDAD
:103010009A95C817D9073CF0D195C195D109C81721
:10302000D9070CF4EC0110923C032091170130E019
:10303000CE01B9010E947728462FC701B9010E942D
:10304000772800E020E088ED93E00E942D1B20917E
:10305000170130E0C701B9010E94772880933A0335
:10306000CE01B9010E94772880933903DF91CF9177
:103070001F910F91FF90EF900895F12CE12CB8CFA4
:10308000D0E0C0E0D0CFE5E4F3E0148215821682F0
:103090000895FC0182818F5BFB01808381E00895AC
:1030A000CF93DF93CDB7DEB769970FB6F894DEBF45
:1030B0000FBECDBFFC01DB019C919F5F9C939E01E5
:1030C0002D5F3F4F81E1D9011D928A95E9F729E0F3
:1030D000298384E08A8391E09D8383E08E839F83AC
:1030E00098872A8721E22B879C879D879F8722E2EA
:1030F000288B2FE3298B27E02B8B25E02C8B8E8BC5
:1031000020E430E0388F2F8B998F82818B838381ED
:1031100080688D8B49E150E0BE016F5F7F4F80E09A
:103120000E94362369960FB6F894DEBF0FBECDBF5E
:10313000DF91CF910895FC01DB018C918138A9F4D6
:1031400013968C911397823281F4228114968D917B
:103150009C912817190649F48285848F4FE350E02B
:1031600063E673E080E80C94362390E080E00895F5
:10317000FC01DB01228114968D919C9115972817F3
:10318000190681F511968C9111979C91913A69F4E9
:10319000813029F0833029F4848D8093F10081E01F
:1031A00008958230F9F4858DF8CF9132D9F48B30BF
:1031B00021F412968C91848FF2CF8A3011F4158EFF
:1031C000EECF893079F4CF0116962D913C91179767
:1031D00013964C91423041F461E070E04E962130FC
:1031E000310551F080E008954130E1F72830310594
:1031F000C9F768E070E00B960E945C23D0CFFC0119
:1032000081E0848385839F01255E3F4F378326833A
:103210001186108622E531E0318320838287848FF6
:10322000858F168E81EC838F0895FC01848D08951F
:10323000EF92FF920F931F93CF93DF938C01EC01DA
:103240002B967C0183E1E80EF11C48E050E0BE01C2
:10325000C7010E94ED28892B21F1F801838148E004
:1032600050E0BE0180640E9485228C01E091A3049D
:10327000F091A404309731F09C0148E050E0BE0189
:1032800082E0099588E0FE01D70101900D928A95B0
:10329000E1F7C801DF91CF911F910F91FF90EF905F
:1032A00008950FEF1FEFF5CFFC0180E2860F883005
:1032B00070F4605E770B21E030E001C0220F6A9568
:1032C000EAF78385822B838781E090E00895DF0110
:1032D0001D9690E080E02D912617B1F3211104C0D6
:1032E000E80FF91F6587F0CF01968630910599F7B1
:1032F00090E080E00895CF93DF9320E2260F2830FE
:1033000090F4605E770B21E030E001C0220F6A95F7
:10331000EAF72095FC0133852323238781E090E0A1
:10332000DF91CF910895DC011D969C012D5E3F4FEA
:10333000FD014191461303C0EF0121971882E21766
:10334000F307B9F720E03D91332349F0EC01C20FB8
:10335000D11D4D853D87ED01219748832F5FAE1725
:10336000BF0789F7DBCF0B9628E0FC0111922A9565
:10337000E9F70895CF93DF93EC010E94CF1FBE01C0
:103380000E948B1FCE010E94B319CE01DF91CF9115
:103390000C94181983E593E00C94FF188091820334
:1033A000811113C010928B0310928A0382EA93E07A
:1033B00090938D0380938C0389E190E090938F0329
:1033C00080938E0381E0809382030E9447286AE8FD
:1033D00073E00C94B427FC0130E020E0419151915E
:1033E000452B41F4220F331F280F391FF901718338
:1033F000608308952F5F3F4F2430310579F708959A
:1034000028E0FC0111922A95E9F70895CF93DF9304
:10341000EC010E94472828E030E0AE0164E0DF9133
:10342000CF910C9404280F931F93CF93DF93EC015B
:103430008C01085F1F4F48E050E0BC01C8010E94AA
:10344000ED28892B51F0CE010E94061A88E0FE017A
:10345000D80101900D928A95E1F7DF91CF911F91EC
:103460000F91089528E0FC0111922A95E9F70C9438
:10347000131A0C94321A82E793E00C94CE198091BF
:10348000CA03811113C01092D3031092D2038BEBA5
:1034900093E09093D5038093D40381E490E09093DC
:1034A000D7038093D60381E08093CA030E94472804
:1034B00062ED73E00C94B427CF93DF93EC010E948C
:1034C00047282DE130E0AE0168E0DF91CF910C9408
:1034D0000428EF92FF920F931F93CF93DF93EC0199
:1034E0007C018DE1E80EF11C4DE150E0BE01C70109
:1034F0000E94ED28892B09F449C00D8D1881802F79
:103500008095812349F14CE150E0BE016F5F7F4F10
:10351000CE014E960E94ED28892BF1F01D8F0E945E
:1035200047282DE130E0A70168E00E9404280D8FB4
:10353000CE010E945C1A181619063CF42DE1FE011A
:10354000D70101900D922A95E1F7DF91CF911F915C
:103550000F91FF90EF900895812F8095802341F384
:103560004CE150E0BE016F5F7F4FCE014E960E944E
:10357000ED28892BE9F208830E9447282DE130E0ED
:10358000AE0168E00E9404281883D2CF8FEF9FEF2E
:10359000DCCF6E3DA0F4E62FE695E695E695E80FC4
:1035A000F92FF11D677021E030E001C0220F6A950C
:1035B000EAF78181822B818381E090E00895605E4B
:1035C000683058F441E050E001C0440F6A95EAF7D2
:1035D000FC012081242B2083EFCF90E080E0089530
:1035E0006E3DA8F4E62FE695E695E695E80FF92FEF
:1035F000F11D677021E030E001C0220F6A95EAF703
:10360000209581812823218381E090E00895605EE8
:10361000683060F421E030E001C0220F6A95EAF7DB
:103620002095FC01308123232083EECF90E080E0C1
:1036300008952DE1FC0111922A95E9F70895CF93A1
:10364000DF93EC010E94191BCE01DF91CF910C9406
:103650005C1A80E993E00C943F1A0F93FC0161839C
:103660004283238304830F91089525E0FC01119286
:103670002A95E9F70895FC019081692B60830895EC
:10368000FC01962F90956081692360830895CF9304
:10369000DF93EC010E94472825E030E0AE0161E0B5
:1036A000DF91CF910C9404280F931F93CF93DF9356
:1036B000EC018C010B5F1F4F45E050E0BC01C801DD
:1036C0000E94ED28892B49F445E050E062EE73E05A
:1036D000CE010E94ED28892B51F0CE010E94471B9C
:1036E00085E0FE01D80101900D928A95E1F7DF9106
:1036F000CF911F910F910895CF93DF93EC010E941A
:10370000351BCE01DF91CF910C94541BCF93DF93E7
:10371000EC018091E703811113C01092F003109225
:10372000EF038CEF93E09093F2038093F1038AE32D
:1037300090E09093F4038093F30381E08093E70398
:103740000E9447286FEE73E00E94B427CE01DF91FC
:10375000CF910C947C1B8091F603811113C01092C1
:10376000FF031092FE0386E394E09093010480939C
:10377000000488E190E0909303048093020481E0C8
:103780008093F6030E9447286EEF73E00C94B427F1
:103790000F931F93CF93DF93EB018A010E94472879
:1037A0009801AE0165E0DF91CF911F910F910C94CC
:1037B0000428CF93DF931F92CDB7DEB7198241E083
:1037C00050E0BE016F5F7F4F0E94C81B0F90DF91DA
:1037D000CF9108950C94D91B0C94D91BCF93DF93F0
:1037E0001F92CDB7DEB76983633841F48EE794E06A
:1037F0000E946F250F90DF91CF91089541E050E036
:10380000BE016F5F7F4F0E94C81BF4CF85EF93E02E
:103810000C94AB1BCF93DF93CDB7DEB769970FB690
:10382000F894DEBF0FBECDBFFC01DB019C919F5F12
:103830009C939E012D5F3F4F81E1D9011D928A9596
:10384000E9F729E0298384E08A8391E09D8383E07E
:103850008E832A8721E22B879C879D879F8722E280
:10386000288B25E3298B27E02B8B25E02C8B8E8B57
:1038700020E430E0388F2F8B998F82818B83838176
:1038800080688D8B49E150E0BE016F5F7F4F80E023
:103890000E94362369960FB6F894DEBF0FBECDBFE7
:1038A000DF91CF9108950F931F93CF93DF93EB0197
:1038B0008A01FC01838180640E948522E091A30437
:1038C000F091A404309749F09C01A801BE0187E063
:1038D000DF91CF911F910F910994DF91CF911F91AB
:1038E0000F9108950A970C94531CDC01FB0112966A
:1038F0002C911297848195812817190641F49181A2
:103900008081813A31F49D7F81E0913009F080E03F
:1039100008958132E1F79B3029F4828152968C938D
:1039200081E008959A3099F7828153968C93F8CF6D
:10393000FB0120812138B1F42381223299F4DC018A
:1039400012964C911297248135814217130651F437
:1039500021E052962C9345E350E06EE474E080E859
:103960000C94362390E080E00895CF93DF93EC0130
:1039700081E08C838D839E012F5E3F4F3F832E839A
:10398000198618861D861C861F861E86188A2EE5B7
:1039900031E0398328832CE631E03B872A878A8B04
:1039A0008B8B81EC898B0E94CF1FBE01DF91CF9161
:1039B0000C948B1F84E094E00C94B51C1F920F9222
:1039C0000FB60F9211242F933F938F939F93AF9332
:1039D000BF938091190490911A04A0911B04B09197
:1039E0001C043091180423E0230F2D3758F501965D
:1039F000A11DB11D209318048093190490931A04FB
:103A0000A0931B04B0931C0480911D0490911E048C
:103A1000A0911F04B09120040196A11DB11D8093B7
:103A20001D0490931E04A0931F04B0932004BF9123
:103A3000AF919F918F913F912F910F900FBE0F905B
:103A40001F90189526E8230F0296A11DB11DD2CF15
:103A50002FB7F8946091190470911A0480911B0497
:103A600090911C042FBF08953FB7F89480911D04D6
:103A700090911E04A0911F04B091200426B5A89B2C
:103A800005C02F3F19F00196A11DB11D3FBFBA2FF0
:103A9000A92F982F8827BC01CD01620F711D811DB0
:103AA000911D42E0660F771F881F991F4A95D1F735
:103AB00008958F929F92AF92BF92CF92DF92EF9232
:103AC000FF926B017C010E94341D4B015C01C1140B
:103AD000D104E104F104E9F00E9456280E94341D4B
:103AE000681979098A099B09683E73408105910527
:103AF00070F321E0C21AD108E108F10888EE880EBF
:103B000083E0981EA11CB11CC114D104E104F1048E
:103B100029F7FF90EF90DF90CF90BF90AF909F90EC
:103B20008F900895789484B5826084BD84B5816057
:103B300084BD85B5826085BD85B5816085BDEEE6B5
:103B4000F0E0808181608083E1E8F0E01082808194
:103B500082608083808181608083E0E8F0E0808102
:103B600081608083E1E9F0E08081826080838081F0
:103B700081608083E0E9F0E0808181608083E1EC16
:103B8000F0E0808184608083808182608083808196
:103B900081608083E3ECF0E0808181608083E0ECF1
:103BA000F0E0808182608083E2ECF0E080818160DF
:103BB0008083EAE7F0E08081846080838081826096
:103BC0008083808181608083808180688083089584
:103BD000CF93DF931F92CDB7DEB76983DC01ED9100
:103BE000FC910280F381E02D41E050E0BE016F5F67
:103BF0007F4F09950F90DF91CF910895CF93DF9379
:103C0000EC018C859D8597FF05C082E00E945422BF
:103C10009D878C878C859D85DF91CF91089583E06A
:103C20000E946B2290E0089583E00C94DA24FC015A
:103C30008485958597FD06C082E00E94042290E06D
:103C40000196089582E00E94042290E00895FC010C
:103C50008485958597FD05C02FEF3FEF3587248735
:103C6000089582E00C945422CF93DF93EC0180916D
:103C70002501882331F083E00E9485221816190659
:103C800034F081E090E09B838A8380E090E0DF91D4
:103C9000CF910895EEEFFFE72591349181E02B3F1E
:103CA0003C4D09F080E00895FC0190819E5F908377
:103CB00042E450E063E874E080E80C943623FC01B1
:103CC00081819081913A61F4813209F083C047E0AB
:103CD00050E06EE171E080E00E94362381E00895BB
:103CE000913209F077C0833269F482819381B0E028
:103CF000A0E080931A0190931B01A0931C01B09344
:103D00001D01ECCF803239F467E070E08EE191E084
:103D10000E945C23E3CF823209F7828180932501E0
:103D20000E944A1EE0E0F8E0882311F0EEEFFAE08E
:103D300080911E0190911F01A0912001B09121015D
:103D4000803B9440A105B105D9F48091250180FD07
:103D500017C0EE3F8AE0F80771F587E797E7918390
:103D60008083809160008093710488E19BE00FB6AE
:103D7000F894A895809360000FBE90936000AECF3A
:103D8000808191818737974709F0A8CFA8958091C6
:103D9000600088618093600080917104809360006E
:103DA000EE3F8AE0F80789F08091FE0A9091FF0AC1
:103DB0009183808393CF808191818737980769F2BF
:103DC0009093FF0A8093FE0AC8CF1092FF0A1092C8
:103DD000FE0A84CF80E008952FEF3FEFFC01358786
:103DE00024870895E1E2F4E01382128288EE93E0E2
:103DF000A0E0B0E084839583A683B78382E791E057
:103E0000918380838FEF9FEF958784870895EF924A
:103E1000FF920F931F93CF93DF937B01FC01C2812D
:103E2000D38110E000E0209791F0E881F9810280D1
:103E3000F381E02DB701CE01099597FD06C0080F6B
:103E4000191F0884D985C02DEECF0FEF1FEFC801D1
:103E5000DF91CF911F910F91FF90EF9008950F93F5
:103E60001F93CF93DF938B01FC01C281D3812097F5
:103E700071F0E881F9810480F581E02DB801CE016F
:103E80000995009731F40884D985C02DF0CF90E0D2
:103E900080E0DF91CF911F910F9108950F931F93B1
:103EA000CF93DF938B01FC01C281D381209771F006
:103EB000E881F9810680F781E02DB801CE010995EE
:103EC000080F111D0884D985C02DF0CFF80110828C
:103ED000DF91CF911F910F9108950F931F93CF936F
:103EE000DF938B01FC01C281D381209771F0E881BF
:103EF000F9810190F081E02DB801CE010995811181
:103F000005C00884D985C02DF0CF80E0DF91CF9126
:103F10001F910F910895CF93DF93FC01DB01218165
:103F200014968C911497820F9927991F08978CF5F6
:103F3000C281D381209731F5738362839081129679
:103F40009C93129713962C93139715968C91159713
:103F5000890F808380E014969C9114978917E8F468
:103F60001696CD91DC911797C80FD11D9881C1810C
:103F7000D0E0CA5DDE4F988391819F5F91838F5F10
:103F8000EACFEC01888599850097D9F7B987A8878A
:103F9000D5CF80E0DF91CF91089581E0FBCF809174
:103FA000720481110DC082E080937A0484E08093D2
:103FB0007B0410927D0410927C0481E08093720453
:103FC0008AE794E00895FB0101900020E9F731971A
:103FD000AF01461B570BDC01ED91FC910280F38190
:103FE000E02D0994EF92FF920F931F93CF93DF93ED
:103FF0008C017B01D0E0C0E0F701EC0FFD1F649164
:10400000662361F0D801ED91FC910190F081E02DE3
:10401000C8010995892B11F02196EECFCE01DF91D1
:10402000CF911F910F91FF90EF900895DC01ED91DA
:10403000FC910190F081E02D099460E871E00C940E
:10404000E31F0F931F93CF93DF93EC010E94F21FA6
:104050008C01CE010E941D20800F911FDF91CF9116
:104060001F910F9108958F929F92AF92BF92EF92FE
:10407000FF920F931F93CF93DF93CDB7DEB7A19736
:104080000FB6F894DEBF0FBECDBF7C01FA01CB01A5
:1040900019A2223008F42AE08E010F5D1F4F822EF4
:1040A000912CB12CA12CBF01A50194010E948B2859
:1040B000F901CA016A300CF5605DD8016E938D017B
:1040C000232B242B252B79F790E080E0109721F00B
:1040D000BD01C7010E94E31FA1960FB6F894DEBF91
:1040E0000FBECDBFDF91CF911F910F91FF90EF9049
:1040F000BF90AF909F908F900895695CDECF21159F
:10410000310541F4DC01ED91FC910190F081E02D4D
:10411000642F09940C9433209A01462F50E070E0EC
:1041200060E00C947F209A01AB0170E060E00C9499
:104130007F200F931F93CF93DF93EC010E94281DE4
:10414000688779878A879B87E881F9810484F58568
:10415000E02DCE01099597FF15C00E94281D088506
:1041600019852A853B85601B710B820B930B0C8193
:104170001D812E813F81601771078207930720F30D
:104180008FEF9FEFDF91CF911F910F910895FF92D5
:104190000F931F93CF93DF93EC018B01F42ECE018D
:1041A0000E94992097FD1DC08D329105D1F09C0190
:1041B000205331092A303105A0F0FF2019F08E324A
:1041C000910579F00130110551F00230110589F4A3
:1041D0008D30910571F05CF40997029750F08FEFE4
:1041E0009FEFDF91CF911F910F91FF9008958097DE
:1041F000B1F7E881F9810284F385E02DCE010995BC
:10420000CECFBF92CF92DF92EF92FF920F931F9388
:10421000CF93DF938C01C42F40E00E94C720FC01A4
:10422000C12CD12C760197FD3EC0B12C0C2E000C78
:10423000DD0BCE17DF07D9F0ED32F10509F43FC0F1
:10424000CF01C0970A9798F4AAE0B0E0A7019601C1
:104250000E94C2286F01FF0FEE08FF08C60ED71E8E
:10426000E81EF91E80E3C81AD108E108F108D80158
:10427000ED91FC910284F385E02DC8010995C801F8
:104280000E949920FC01C0970A9798F2CE17DF0789
:1042900081F2BB2041F0F094E094D094C094C11C12
:1042A000D11CE11CF11CC701B601DF91CF911F9118
:1042B0000F91FF90EF90DF90CF90BF900895BB24B7
:1042C000B394D5CF409181045091820420917F0412
:1042D0003091800442175307B4F49091E800957030
:1042E000E1F39091E80092FD19C08093F100809174
:1042F00081049091820401968F739927892B19F478
:104300008EEF8093E8008091810490918204019661
:10431000909382048093810481E0089580E0089561
:10432000EF92FF920F931F93CF93DF93F82E192FE5
:10433000E62E042F81E0860F880F0E94622183E021
:104340000E946221CF2DD12FEC0EFD2EF11CCE1537
:10435000DF05B9F007FF13C0FE0184910E946221BE
:10436000182F80E00E946221812321968111EFCFD6
:10437000DF91CF911F910F91FF90EF900895888169
:10438000EDCF81E0F5CF8091D70081608093D70099
:1043900080EA8093D80089B5806189BD89B5826043
:1043A00089BD09B400FEFDCF61E070E080E090E0DF
:1043B0000E94591D8091D8008F7C80618093D80025
:1043C0008091E000807F8093E0000895CF93DF9399
:1043D0001F92CDB7DEB71982CE0101960E94541EFE
:1043E0000E94CF1FBE016F5F7F4F0E94071F898110
:1043F0000F90DF91CF9108952FB7FC012083F8949F
:1044000067706093E9000895CF93DF931F92CDB753
:10441000DEB7682FCE0101960E94FC218091F20048
:1044200099819FBF0F90DF91CF910895EF92FF92F6
:104430000F931F93CF93DF931F92CDB7DEB7909169
:104440008504992371F157FD2CC08A017B01682FE7
:10445000CE0101960E94FC218091F20090E00817A5
:1044600019070CF4C801282FF70144E6215030F059
:10447000409386043091F1003193F8CF009739F0E2
:104480002091F200211103C02BE62093E80029813E
:104490002FBF0F90DF91CF911F910F91FF90EF9061
:1044A00008958FEF9FEFF5CFCF93DF931F92CDB796
:1044B000DEB741E050E0BE016F5F7F4F0E941622E1
:1044C000019731F4898190E00F90DF91CF910895A9
:1044D0008FEF9FEFF9CFCF93DF931F92CDB7DEB76A
:1044E000682FCE0101960E94FC219091E800892F4F
:1044F000807295FF04C09091F20080E4891B99813D
:104500009FBF0F90DF91CF9108955F926F927F923E
:104510008F929F92AF92BF92CF92DF92EF92FF92D3
:104520000F931F93CF93DF931F92CDB7DEB7982ED3
:104530006B01B42E052F80918504811113C08FEF7C
:104540009FEF0F90DF91CF911F910F91FF90EF9010
:10455000DF90CF90BF90AF909F908F907F906F90A3
:104560005F9008958091830480FF05C08091E000F2
:1045700082608093E000EB2CF02EA12C8AEF882E35
:10458000892D8072682E892D8074582E9AE3792E99
:10459000E114F10419F4AA2009F457C0892D0E94EE
:1045A0006B22182F81110AC08A94882041F261E0A1
:1045B00070E080E090E00E94591DEACF8E151F0444
:1045C00011F00CF01E2D692DCE0101960E94FC21E8
:1045D0008091E80085FD03C089818FBFD9CF812FED
:1045E00090E0E81AF90A662029F01150A0F0109224
:1045F000F100FBCFF60197FC0AC0115050F0219159
:104600002093F100FACF24912093F10031961150BC
:10461000D0F7C80ED91EAA2021F07092E800A12C74
:10462000DBCF8091E80085FD08C07092E800AA24E5
:10463000A394E114F10481F2F2CFE114F10461F6E4
:10464000552051F27092E800C7CF84E6809387042A
:104650008B2D902F76CF1092E90010928204109249
:1046600081049093800480937F040895DF92EF92F9
:10467000FF920F931F93CF93DF93D82E8A01EB0104
:104680007B01E40EF51ECE15DF0559F0D7FE12C0F2
:10469000FE0184910E94622121968111F4CF0FEFD7
:1046A0001FEFC801DF91CF911F910F91FF90EF9005
:1046B000DF9008958881EECFCF93DF93EC019B01CB
:1046C000B4E6ABEF21153105F1F0A9012134310534
:1046D00014F040E450E08091E80082FFFCCF942F7A
:1046E000FB01E21BF30BEC0FFD1F915028F08091B2
:1046F000F10080833196F9CFB0938604A093E8004F
:10470000241B350BDFCFCB01DF91CF9108951F9292
:104710000F920FB60F921124CF92DF92FF920F9358
:104720001F932F933F934F935F936F937F938F9339
:104730009F93AF93BF93EF93FF93CF93DF93CDB747
:10474000DEB76C97DEBFCDBF1092E9008091E80024
:1047500083FF2FC089E0FE017596FE2E0F2F81503A
:1047600029F09091F10090833196F9CF84E68093FF
:10477000860482EF8093E8008D8987FF38C090918E
:10478000E80090FFFCCF982F907609F000C19E8939
:104790004F89588D2F89188D911130C0803859F567
:1047A000809184048093F1001092F1008EEF809349
:1047B000E8006C960FB6F894DEBF0FBECDBFDF9158
:1047C000CF91FF91EF91BF91AF919F918F917F9189
:1047D0006F915F914F913F912F911F910F91FF909A
:1047E000DF90CF900F900FBE0F901F9018959EEF07
:1047F0009093E800C8CF1092F100D6CF913059F4D1
:104800008111D4CF4130510589F6809184048D7F88
:1048100080938404CBCF933049F48111C7CF4130CA
:10482000510521F6809184048260F2CF953041F4E5
:104830008091E80080FFFCCF20682093E300B6CF92
:10484000963009F076C0CB8CDC8C123039F590E0D4
:1048500080E00E942B230E94E6211F8299E0998329
:104860001A8391E09E8390EA98879CE09987209133
:10487000810430918204275F3F4F3C832B838D83DB
:10488000C6010E942B2349E050E0BE016F5F7F4FBD
:1048900080E00E9436230E94E62188CFC6010E9454
:1048A0002B230E94CF1F6F2D702F0E942F1F009768
:1048B00031F00CF07BCF81E28093EB007ACF1130A6
:1048C00061F11330C1F78F89882381F1823049F477
:1048D00040E866E082EE94E00E949021882359F33C
:1048E00065CF813029F440E86AE087ED94E0F4CFA9
:1048F000833009F70E94CF1F8E010F5F1F4FB80151
:104900000E944E1FF80101900020E9F73197BF0186
:10491000601B710B40E0C801DFCF65EC74E0FB0168
:10492000449150E080E80E94362340CF69EE74E065
:10493000F6CF973009F4BFCF983021F481E080930F
:10494000F10034CF993009F031CF837009F0B3CF43
:10495000E7E2F1E081E031E096E32191222371F07A
:104960008093E9003093EB00DF0111972C912093A5
:10497000EC009093ED008F5F873079F78EE780939E
:10498000EA001092EA008F89809385040FCF8B8D07
:104990009C8D0E942B23898D811105C08F2D902F16
:1049A0000E945F1E9BCF0E94CF1F6F2D702F0E9411
:1049B0006D1F94CF8093E9008091F200882319F055
:1049C0008AE38093E80008951F920F920FB60F922A
:1049D00011242F933F934F935F936F937F938F9304
:1049E0009F93AF93BF93CF93EF93FF93C091E10059
:1049F0008091E100837F8093E100C3FF0FC010929C
:104A0000E90081E08093EB001092EC0082E3809358
:104A1000ED001092850488E08093F000C2FF15C07D
:104A200083E00E94DA2480918704882329F0809112
:104A3000870481508093870480918604882329F01D
:104A400080918604815080938604C4FF23C08091A6
:104A5000E2008E7E81608093E2008091E1008F7E93
:104A60008093E100809183048E7E80618093830433
:104A7000FF91EF91CF91BF91AF919F918F917F91D6
:104A80006F915F914F913F912F910F900FBE0F90BB
:104A90001F901895C0FFECCF8091E2008E7E806160
:104AA0008093E2008091E1008E7E8093E10080910E
:104AB00083048E7E8160DACF109285041092840484
:104AC000109283040E94C321E1EEF0E080818E7E8B
:104AD00080838DE08093E200559A209A089580911A
:104AE000E0008D7F8093E0008091E00081FD11C0A7
:104AF0008091830480FF0DC08091840481FF09C0F0
:104B00000E94C3218091E00082608093E00081E0F8
:104B1000089580E00895CF93C82F83E593E00E9425
:104B200015196C2F811105C083E593E0CF910C948A
:104B30007B1980E993E0CF910C94F01ACF93C82FA2
:104B400083E593E00E9415196C2F811105C083E560
:104B500093E0CF910C94541980E993E0CF910C9499
:104B6000C91ACF93DF93FC01D62FC72F972F907CC4
:104B7000442371F08681811101C0148284818C2BC1
:104B80008483911104C080E28D0F883018F0D683A1
:104B9000911122C080E28D0F8830F0F4C3FF03C072
:104BA00081EE0E949E25C0FF03C080EE0E949E25DC
:104BB000C1FF03C082EE0E949E25C2FF03C086EEA5
:104BC0000E949E25C4FF03C083EE0E949E258D2F68
:104BD000DF91CF910C949E258581C82BC583F7CF9B
:104BE000FF920F931F93CF93DF9300D0CDB7DEB723
:104BF0009A838983162F042F603308F04DC0842FC9
:104C00008270F82E41FF0BC040FD09C089818111DF
:104C100076C09A81911173C0812F0E942807812F3D
:104C20006CE00E945728492FE82FF0E0EE0FFF1F9D
:104C3000E65AFD4F20813181C901042E02C09695AC
:104C400087950A94E2F780FF17C000FF50C0F1106B
:104C50004EC081E090E0A0E0B0E004C0880F991F52
:104C6000AA1FBB1F4A95D2F780959095A095B09545
:104C70008223932391838083898181110DC08A814E
:104C800081110AC0E12FF0E0EE0FFF1FEB53FE4F42
:104C90008181908199838A83402F612FCE01019673
:104CA0000E94E102892B19F5402F612F89819A8199
:104CB0000E949A0889839A83F82E811102C0992351
:104CC000B1F069817A811A8116FF33C017FD0FC0D8
:104CD00013FF21C001FF0BC0612F70E0762F662704
:104CE0006F0D711D737082E793E00E94EB190F90B6
:104CF0000F90DF91CF911F910F91FF90089506FDC6
:104D00008BCF9A81E12FF0E0EE0FFF1FEB53FE4FA8
:104D10008083918384CF10FFEACF802F817001FFC1
:104D20004CC08111E4CF6F2D85EF93E00E94EE1B04
:104D3000DECF802F817001FF08C041E0811140E08B
:104D400085E493E00E94B125D2CF882381F207FF4A
:104D5000CECF80914903812780934903812F807CA6
:104D600021F480E28F0D883058F080914B03F812C7
:104D700002C010924B0380914A03812780934A031B
:104D800013FF03C081EE0E948B2510FF03C080EE4D
:104D90000E948B2511FF03C082EE0E948B2512FF1B
:104DA00003C086EE0E948B2514FF03C083EE0E9491
:104DB0008B258F2D0E948B259ACF882309F497CFBE
:104DC00085EF93E00E94EC1B92CFCF93DF93CDB79A
:104DD000DEB769970FB6F894DEBF0FBECDBFFC01FA
:104DE000DB018C918F5F8C939E012D5F3F4F8DE097
:104DF000D9011D928A95E9F729E0298384E08A8305
:104E000091E09D8383E08E832A8721E22B879C8714
:104E10009D879F8722E2288B27E02B8B25E02C8B18
:104E20008E8B20E430E0388F2F8B998F82818B839B
:104E300095858685998B8A8B838180688D8B49E1E6
:104E400050E0BE016F5F7F4F80E00E94362369967D
:104E50000FB6F894DEBF0FBECDBFDF91CF9108959E
:104E6000EF92FF920F931F93CF93DF93FB0120816B
:104E70002138A1F52381223289F5DC0112964C916B
:104E8000248135814217130649F5EC0181E00E9427
:104E900055280B851C85F12CE12C0115110589F095
:104EA000F801448155816281738180E80E94362334
:104EB0008F3F980761F0E80EF91ED8010D911C9103
:104EC000ECCF81E08F8780E00E945528C701DF91F9
:104ED000CF911F910F91FF90EF90089590E080E0A7
:104EE000F6CFCF93DF93EC01DB012A8114968D91ED
:104EF0009C9115972817190659F411968C911197C2
:104F00009C91913A39F4982F9D7F81E0913051F036
:104F100080E008C09132E1F78B3039F412968C9121
:104F20008F8781E0DF91CF9108958A3021F4129626
:104F30008C91888BF6CF893059F716968D919C917C
:104F40008230910539F462E070E0CE0141960E9412
:104F50005C23DECF0197E1F661E070E0CE0142967E
:104F60000E945C23198AD4CFFC01A385B4851097D5
:104F700071F47487638785859685DB0114962D917E
:104F80003C91820F931F968785870895DC018D9150
:104F90009C9111970097D1F76D937C93ECCFAF92D2
:104FA000BF92CF92DF92EF92FF920F931F93CF9316
:104FB000DF931F92CDB7DEB77C0169836A01590187
:104FC00041E050E0BE016F5F7F4FFC0183810E9492
:104FD00085228C0197FD0BC0F7018381A501B601E5
:104FE00080640E948522080F191F97FD8C01C8015B
:104FF0000F90DF91CF911F910F91FF90EF90DF9075
:10500000CF90BF90AF900895CF92DF92EF92FF9232
:105010001F93CF93DF93162F7A0169010E94CF2748
:10502000EC01E091A304F091A404309729F09C01D5
:10503000A601B701812F0995CE01DF91CF911F9174
:10504000FF90EF90DF90CF900895CF93DF93EC0126
:1050500081E08C838D839E01265F3F4F3F832E83AB
:105060001986188627E831E0398328831C861B8639
:105070001E861D868F87888B198A1A8A81EC8A87FB
:105080000E94CF1FBE01DF91CF910C948B1F8091A6
:105090008804811107C080E994E00E94252881E0FE
:1050A0008093880480E994E0089508950895991BF9
:1050B00079E004C0991F961708F0961B881F7A950F
:1050C000C9F780950895AA1BBB1B51E107C0AA1F11
:1050D000BB1FA617B70710F0A61BB70B881F991F99
:1050E0005A95A9F780959095BC01CD01089597FB3D
:1050F000072E16F4009407D077FD09D00E9463288C
:1051000007FC05D03EF4909581959F4F08957095CA
:1051100061957F4F0895A1E21A2EAA1BBB1BFD01CA
:105120000DC0AA1FBB1FEE1FFF1FA217B307E40786
:10513000F50720F0A21BB30BE40BF50B661F771FDE
:10514000881F991F1A9469F76095709580959095BE
:105150009B01AC01BD01CF010895EE0FFF1F05902B
:10516000F491E02D0994A29FB001B39FC001A39FC9
:10517000700D811D1124911DB29F700D811D112490
:10518000911D08950E94B328A59F900DB49F900D86
:10519000A49F800D911D11240895FB01DC0102C024
:1051A00005900D9241505040D8F70895FB01DC0165
:1051B0008D91059080190110D9F3990B0895FB0189
:1051C000DC014150504030F08D910590801919F468
:1051D0000020B9F7881B990B0895FB01DC0104C07E
:1051E0008D910190801921F441505040C8F7881BDF
:1051F000990B0895F999FECF92BD81BDF89A992730
:1052000080B50895262FF999FECF1FBA92BD81BDB2
:1052100020BD0FB6F894FA9AF99A0FBE0196089538
:04522000F894FFCF30
:105224000317070400FF320001400001010001FFE1
:10523400FFFA00C409E803107F02FFFFFFFF00E14B
:1052440000000000000000C18081000000FFFFFF9B
:10525400FFFFFFFFFF617472657573009001F7C271
:1052640067663635979694959392F6F5F4F10000B7
:105274000000B81850189B18491800000000751C4D
:105284000A1C981C4918531CF6FF0000721C0000ED
:105294000000E81D341E0F1E141E171E271EFE1DBF
:1052A4000D0A00000000007127E5263027C1020026
:1070000055C000006EC000006CC000006AC00000E7
:1070100068C0000066C0000064C0000062C00000DC
:1070200060C000005EC0000078C400005AC00000CC
:1070300058C0000056C0000054C0000052C00000FC
:1070400050C00000B7C000004CC000004AC00000A3
:1070500048C0000046C0000044C0000042C000001C
:1070600040C000003EC000003CC000003AC000002C
:1070700038C0000036C0000034C0000032C000003C
:1070800030C000002EC000002CC000002AC000004C
:1070900028C0000026C0000024C0000022C000005C
:1070A00020C000001EC000001CC0000011241FBE34
:1070B000CFEFDAE0DEBFCDBF11E0A0E0B1E0E6EF58
:1070C000FDE702C005900D92A63BB107D9F721E07C
:1070D000A6EBB1E001C01D92A63CB207E1F710D3C8
:1070E00088C68ECF84E08093E9008091E80085FF18
:1070F00003C08091F10008958091E8008B77809320
:10710000E8008091E80082FDF0CF8EB38111F9CFC5
:1071100080E0089593E09093E9009091E80095FF56
:1071200003C08093F10008959091E8009E779093BA
:10713000E8009091E80090FDF4CF9EB39111F9CF53
:107140000895F89410926F001092810010928500BB
:107150001092840081E085BF15BE0C940000089554
:1071600084B7877F84BF0FB6F894A895809160009C
:10717000886180936000109260000FBE90E880E00C
:107180000FB6F89490936100809361000FBE81E088
:1071900085BF82E085BFE1E6F0E090831082109227
:1071A00089009AEF9093880080936F0083E080932A
:1071B00081009BC31F920F920FB60F9211242F9341
:1071C0008F939F93EF93FF9310928500109284000A
:1071D000F0E0E0E085919491019649F08091B6014C
:1071E0009091B70101969093B7018093B601FF91FA
:1071F000EF919F918F912F910F900FBE0F901F9045
:10720000189542E061EC82E005D342E161E883E059
:1072100001D342E160E884E0FDC28091BE01982F75
:107220009F779132B9F49091BF019032A1F09132E1
:1072300089F4813A79F48091E800877F8093E800AF
:1072400067E070E082E091E019D48091E8008B77EC
:107250008093E80008958132E9F78091E800877F04
:107260008093E80067E070E082E091E060D4809174
:10727000E8008E77EDCF6F927F928F929F92AF92C0
:10728000BF92CF92DF92EF92FF920F931F93CF9313
:10729000DF9384E08093E9008091E80082FF21C2BF
:1072A00021DFC82F853451F58CE393E79093B70124
:1072B0008093B60107B600FCFDCFF999FECF81E1BE
:1072C00080935700E8958DE025DF83E08093E90007
:1072D0009091E8008091E8008E778093E80095FF18
:1072E000F3C18091E80080FFF9C184E08093E90058
:1072F0008091E8008B778093E800F3C1843511F426
:10730000F1DEE1CF8C34F9F28035E9F2843721F4F3
:1073100084E400DF80E0D8CF89E5C136A9F2C1342A
:10732000D1F4E0DEC82FDEDE2C2F30E0322F222712
:10733000330F90E0880F991F822B932B092E000C9E
:10734000AA0BBB0B8093B8019093B901A093BA012B
:10735000B093BB01B8CF83E5C03709F4B5CFC335CF
:1073600049F4CDEAD1E08991D5DE21E0C43BD207D2
:10737000D1F7ABCFC63521F481E3CCDE80E3A4CFD7
:10738000C33731F487E8C6DE85E9C4DE8EE19CCFE1
:10739000C536B9F4F0E0E0E083E095E08093570073
:1073A000E89507B600FCFDCF90935700E89507B627
:1073B00000FCFDCFE058FF4FE11520E7F20771F721
:1073C00082CF89E0E1E0F0E0C23779F089E0F0E0D7
:1073D000E0E0C63451F089E0E3E0F0E0CE3429F09B
:1073E000C13539F489E0E2E0F0E080935700849100
:1073F0006BCFC23631F489E58DDE80E08BDE80E82C
:1074000063CFC23419F0C73609F0CEC01092B7016D
:107410001092B60167DE082F10E0102F002762DE01
:10742000082B60DED82F8BEB8D0F823010F08FE3AE
:107430004BCF10926F00C73609F045C081E18093B1
:107440005700E895C0E0BB24B3940150110920F423
:1074500082E080936F0039CFC090B801D090B9011D
:10746000E090BA01F090BB01D634B9F4EC2FF0E013
:10747000EC29FD2984914EDECC2369F082E0C80E10
:10748000D11CE11CF11CC092B801D092B901E0926C
:10749000BA01F092BB01CB25D8CFD701C601B69572
:1074A000A795979587958FD435DEE2E0CE0ED11C57
:1074B000E11CF11CC092B801D092B901E092BA016E
:1074C000F092BB01C2CF8090B8019090B901A0901A
:1074D000BA01B090BB01D63441F483E0F40180934B
:1074E0005700E89507B600FCFDCF712CC0E066247C
:1074F000639424C0D63409F034C0CC2379F1C09011
:10750000B801D090B901E090BA01F090BB01EADD7A
:10751000982F872DF6010C0160925700E8951124F1
:10752000F2E0CF0ED11CE11CF11CC092B801D09248
:10753000B901E092BA01F092BB01C62501501109D0
:10754000C8F6D63441F485E0F40180935700E895FD
:1075500007B600FCFDCF8DE0DDDD7ACFC3DD782EF0
:10756000ECCFC0DD682F8091B8019091B901A09156
:10757000BA01B091BB01B695A795979587952BD485
:107580008091B8019091B901A091BA01B091BB016D
:107590000296A11DB11D8093B8019093B901A093EB
:1075A000BA01B093BB01CACFC33471F4C091B80122
:1075B000D091B90197DD90E021E0FE010C0120930C
:1075C0005700E89511247FCEC33601F5C090B8016D
:1075D000D090B901E090BA01F090BB0183DDF601D3
:1075E000E16090E021E00C0120935700E895112420
:1075F000F2E0CF0ED11CE11CF11CC092B801D09278
:10760000B901E092BA01F092BB015DCECD3661F4D2
:10761000E091B801F091B90185E080935700E895B9
:1076200007B600FCFDCF4FCEC23551F4E091B80152
:10763000F091B901C591D4918D2F6CDD8C2F44CE82
:10764000C434D9F44FDD682F8091B8019091B9010D
:10765000A091BA01B091BB01B695A7959795879572
:10766000BAD38091B8019091B901A091BA01B091BB
:10767000BB010296A11DB11D65CEC436F1F4C090C8
:10768000B801D090B901E090BA01F090BB01D701E8
:10769000C601B695A7959795879595D33BDD22E0D2
:1076A000C20ED11CE11CF11CC092B801D092B901EC
:1076B000E092BA01F092BB0108CECB3109F405CEBD
:1076C000B6CE8EB3882369F08091E80080FFF9CFB1
:1076D0008091E8008E778093E80003CE8EB381110D
:1076E00000CEDF91CF911F910F91FF90EF90DF902F
:1076F000CF90BF90AF909F908F907F906F900895A4
:1077000080910008909101081092010810920008E1
:1077100084B714BE0FB6F894A89590916000986154
:1077200090936000109260000FBEF0E0E0E02591C1
:1077300034912F3F3F4FB1F08230A1F08798819A6A
:107740008F9A89988FE19EE40197F1F700C00000BD
:107750007F9B08C08FE39CE90197F1F700C0000010
:107760007F99EFDCFDDC78941092B7011092B6019E
:107770008091B6019091B7018033954778F08FE9F9
:107780009FE00197F1F700C000008091E000816068
:107790008093E000D6DC90E080E008956CDDFCD2C0
:1077A000E7CF292F30E02230310571F02330310549
:1077B00081F02130310549F582E190E02BE931E09B
:1077C000FA013183208308958EE390E02DE531E0C6
:1077D000F7CF882359F0813071F0823089F08330FF
:1077E000A1F48EE090E029E031E0EACF84E090E07F
:1077F00029E531E0E5CF86E290E023E331E0E0CF18
:1078000088E190E029E131E0DBCF90E080E030E0FA
:1078100020E0D6CF8093E900EBEEF0E0808181603C
:107820008083EDEEF0E010826093EC004083809165
