:1070000055C000006EC000006CC000006AC00000E7
:1070100068C0000066C0000064C0000062C00000DC
:1070200060C000005EC0000078C400005AC00000CC
:1070300058C0000056C0000054C0000052C00000FC
:1070400050C00000B7C000004CC000004AC00000A3
:1070500048C0000046C0000044C0000042C000001C
:1070600040C000003EC000003CC000003AC000002C
:1070700038C0000036C0000034C0000032C000003C
:1070800030C000002EC000002CC000002AC000004C
:1070900028C0000026C0000024C0000022C000005C
:1070A00020C000001EC000001CC0000011241FBE34
:1070B000CFEFDAE0DEBFCDBF11E0A0E0B1E0E6EF58
:1070C000FDE702C005900D92A63BB107D9F721E07C
:1070D000A6EBB1E001C01D92A63CB207E1F710D3C8
:1070E00088C68ECF84E08093E9008091E80085FF18
:1070F00003C08091F10008958091E8008B77809320
:10710000E8008091E80082FDF0CF8EB38111F9CFC5
:1071100080E0089593E09093E9009091E80095FF56
:1071200003C08093F10008959091E8009E779093BA
:10713000E8009091E80090FDF4CF9EB39111F9CF53
:107140000895F89410926F001092810010928500BB
:107150001092840081E085BF15BE0C940000089554
:1071600084B7877F84BF0FB6F894A895809160009C
:10717000886180936000109260000FBE90E880E00C
:107180000FB6F89490936100809361000FBE81E088
:1071900085BF82E085BFE1E6F0E090831082109227
:1071A00089009AEF9093880080936F0083E080932A
:1071B00081009BC31F920F920FB60F9211242F9341
:1071C0008F939F93EF93FF9310928500109284000A
:1071D000F0E0E0E085919491019649F08091B6014C
:1071E0009091B70101969093B7018093B601FF91FA
:1071F000EF919F918F912F910F900FBE0F901F9045
:10720000189542E061EC82E005D342E161E883E059
:1072100001D342E160E884E0FDC28091BE01982F75
:107220009F779132B9F49091BF019032A1F09132E1
:1072300089F4813A79F48091E800877F8093E800AF
:1072400067E070E082E091E019D48091E8008B77EC
:107250008093E80008958132E9F78091E800877F04
:107260008093E80067E070E082E091E060D4809174
:10727000E8008E77EDCF6F927F928F929F92AF92C0
:10728000BF92CF92DF92EF92FF920F931F93CF9313
:10729000DF9384E08093E9008091E80082FF21C2BF
:1072A00021DFC82F853451F58CE393E79093B70124
:1072B0008093B60107B600FCFDCFF999FECF81E1BE
:1072C00080935700E8958DE025DF83E08093E90007
:1072D0009091E8008091E8008E778093E80095FF18
:1072E000F3C18091E80080FFF9C184E08093E90058
:1072F0008091E8008B778093E800F3C1843511F426
:10730000F1DEE1CF8C34F9F28035E9F2843721F4F3
:1073100084E400DF80E0D8CF89E5C136A9F2C1342A
:10732000D1F4E0DEC82FDEDE2C2F30E0322F222712
:10733000330F90E0880F991F822B932B092E000C9E
:10734000AA0BBB0B8093B8019093B901A093BA012B
:10735000B093BB01B8CF83E5C03709F4B5CFC335CF
:1073600049F4CDEAD1E08991D5DE21E0C43BD207D2
:10737000D1F7ABCFC63521F481E3CCDE80E3A4CFD7
:10738000C33731F487E8C6DE85E9C4DE8EE19CCFE1
:10739000C536B9F4F0E0E0E083E095E08093570073
:1073A000E89507B600FCFDCF90935700E89507B627
:1073B00000FCFDCFE058FF4FE11520E7F20771F721
:1073C00082CF89E0E1E0F0E0C23779F089E0F0E0D7
:1073D000E0E0C63451F089E0E3E0F0E0CE3429F09B
:1073E000C13539F489E0E2E0F0E080935700849100
:1073F0006BCFC23631F489E58DDE80E08BDE80E82C
:1074000063CFC23419F0C73609F0CEC01092B7016D
:107410001092B60167DE082F10E0102F002762DE01
:10742000082B60DED82F8BEB8D0F823010F08FE3AE
:107430004BCF10926F00C73609F045C081E18093B1
:107440005700E895C0E0BB24B3940150110920F423
:1074500082E080936F0039CFC090B801D090B9011D
:10746000E090BA01F090BB01D634B9F4EC2FF0E013
:10747000EC29FD2984914EDECC2369F082E0C80E10
:10748000D11CE11CF11CC092B801D092B901E0926C
:10749000BA01F092BB01CB25D8CFD701C601B69572
:1074A000A795979587958FD435DEE2E0CE0ED11C57
:1074B000E11CF11CC092B801D092B901E092BA016E
:1074C000F092BB01C2CF8090B8019090B901A0901A
:1074D000BA01B090BB01D63441F483E0F40180934B
:1074E0005700E89507B600FCFDCF712CC0E066247C
:1074F000639424C0D63409F034C0CC2379F1C09011
:10750000B801D090B901E090BA01F090BB01EADD7A
:10751000982F872DF6010C0160925700E8951124F1
:10752000F2E0CF0ED11CE11CF11CC092B801D09248
:10753000B901E092BA01F092BB01C62501501109D0
:10754000C8F6D63441F485E0F40180935700E895FD
:1075500007B600FCFDCF8DE0DDDD7ACFC3DD782EF0
:10756000ECCFC0DD682F8091B8019091B901A09156
:10757000BA01B091BB01B695A795979587952BD485
:107580008091B8019091B901A091BA01B091BB016D
:107590000296A11DB11D8093B8019093B901A093EB
:1075A000BA01B093BB01CACFC33471F4C091B80122
:1075B000D091B90197DD90E021E0FE010C0120930C
:1075C0005700E89511247FCEC33601F5C090B8016D
:1075D000D090B901E090BA01F090BB0183DDF601D3
:1075E000E16090E021E00C0120935700E895112420
:1075F000F2E0CF0ED11CE11CF11CC092B801D09278
:10760000B901E092BA01F092BB015DCECD3661F4D2
:10761000E091B801F091B90185E080935700E895B9
:1076200007B600FCFDCF4FCEC23551F4E091B80152
:10763000F091B901C591D4918D2F6CDD8C2F44CE82
:10764000C434D9F44FDD682F8091B8019091B9010D
:10765000A091BA01B091BB01B695A7959795879572
:10766000BAD38091B8019091B901A091BA01B091BB
:10767000BB010296A11DB11D65CEC436F1F4C090C8
:10768000B801D090B901E090BA01F090BB01D701E8
:10769000C601B695A7959795879595D33BDD22E0D2
:1076A000C20ED11CE11CF11CC092B801D092B901EC
:1076B000E092BA01F092BB0108CECB3109F405CEBD
:1076C000B6CE8EB3882369F08091E80080FFF9CFB1
:1076D0008091E8008E778093E80003CE8EB381110D
:1076E00000CEDF91CF911F910F91FF90EF90DF902F
:1076F000CF90BF90AF909F908F907F906F900895A4
:1077000080910008909101081092010810920008E1
:1077100084B714BE0FB6F894A89590916000986154
:1077200090936000109260000FBEF0E0E0E02591C1
:1077300034912F3F3F4FB1F08230A1F08798819A6A
:107740008F9A89988FE19EE40197F1F700C00000BD
:107750007F9B08C08FE39CE90197F1F700C0000010
:107760007F99EFDCFDDC78941092B7011092B6019E
:107770008091B6019091B7018033954778F08FE9F9
:107780009FE00197F1F700C000008091E000816068
:107790008093E000D6DC90E080E008956CDDFCD2C0
:1077A000E7CF292F30E02230310571F02330310549
:1077B00081F02130310549F582E190E02BE931E09B
:1077C000FA013183208308958EE390E02DE531E0C6
:1077D000F7CF882359F0813071F0823089F08330FF
:1077E000A1F48EE090E029E031E0EACF84E090E07F
:1077F00029E531E0E5CF86E290E023E331E0E0CF18
:1078000088E190E029E131E0DBCF90E080E030E0FA
:1078100020E0D6CF8093E900EBEEF0E0808181603C
:107820008083EDEEF0E010826093EC004083809165
:10783000EE00881F8827881F08958091BE0187FF6A
:1078400011C08091E80082FF06C08091E8008B772C
:107850008093E80003C08EB38111F3CF08958EB3F7
:107860008823E1F38091E80080FFF9CF8091E80060
:107870008E77EECF0F931F93CF93DF9341D048D0F5
:10788000C8EDD0E088818F7788838881806888837D
:1078900088818F7D888319BC1EBA1092BC0100EECE
:1078A00010E0F80180818B7F8083888181608883EC
:1078B00042E060E080E0AEDFE1EEF0E080818E7FCC
:1078C0008083E2EEF0E08081816080838081886047
:1078D0008083F80180818E7F8083888180618883A6
:1078E000DF91CF911F910F910895E7EDF0E0808136
:1078F000816080838AE482BF81E08093BD01BACF3A
:10790000E8EDF0E080818E7F80831092E2000895A0
:107910001092DA001092E10008951F920F920FB6B4
:107920000F9211242F933F934F935F936F937F9305
:107930008F939F93AF93BF93EF93FF938091DA0060
:1079400080FF17C08091D80080FF13C08091DA00BB
:107950008E7F8093DA008091D90080FF4EC080E155
:1079600089BD82E189BD09B400FEFDCF81E08EBBF7
:1079700012D28091E10080FF17C08091E20080FF69
:1079800013C08091E2008E7F8093E2008091E2003C
:1079900080618093E2008091D80080628093D8005B
:1079A00019BC85E08EBBF7D18091E10084FF30C027
:1079B0008091E20084FF2CC080E189BD82E189BD15
:1079C00009B400FEFDCF8091D8008F7D8093D80050
:1079D0008091E1008F7E8093E1008091E2008F7EB4
:1079E0008093E2008091E20081608093E2008091C8
:1079F000BC01882331F084E009C019BC1EBACBD188
:107A0000B8CF8091E30087FDF6CF81E08EBBC3D174
:107A10008091E10083FF21C08091E20083FF1DC0BF
:107A20008091E100877F8093E10082E08EBB10921D
:107A3000BC018091E1008E7F8093E1008091E200A3
:107A40008E7F8093E2008091E20080618093E2006B
:107A500042E060E080E0DEDE9ED1FF91EF91BF91D9
:107A6000AF919F918F917F916F915F914F913F91D6
:107A70002F910F900FBE0F901F901895FC018091D1
:107A8000C4019091C50186179707A0F06115710593
:107A900029F49091E8009E779093E80090E06115BA
:107AA000710551F4911108C08091E80082FF34C043
:107AB00080E00895BC01F2CF8EB38823B1F1853008
:107AC00081F18091E80083FD2EC08091E80082FD65
:107AD000EBCF8091E80080FFE2CF2091F30080910E
:107AE000F200322F282F6115710519F02830310569
:107AF00058F091E02830310509F090E02091E8003D
:107B00002E772093E800CBCF81918093F1006150D4
:107B100071092F5F3F4FE7CF8EB3882331F0853057
:107B200019F683E0089581E0089582E00895FC014C
:107B30006115710529F49091E8009B779093E80016
:107B40006115710531F48091E80080FF1EC080E06E
:107B500008958EB3882311F18530E1F08091E8001B
:107B600083FD1AC08091E80082FFEACF2091F300E4
:107B70008091F200322F282F232BE9F28091F1001F
:107B800081936150710991F7D6CF8EB3882331F07C
:107B90008530C9F683E0089581E0089582E0089574
:107BA0000F931F93CF93DF9300D0CDB7DEB7EEEBEB
:107BB000F1E08091F100819381E0E63CF807C9F79C
:107BC0002CDB8091E80083FF8AC08091BE019091F8
:107BD000BF019A3008F083C0E92FF0E0EF50F24C7B
:107BE000ECC0FB3D173E6F3E173E6F3E503E843E5D
:107BF0006F3EA23EAE3E823809F071C08091C20154
:107C000087708093E9008091EB0085FB882780F9DD
:107C10001092E9009091E800977F9093E80080939C
:107C2000F1001092F1008091E8008E7722C0282F99
:107C30002D7F09F054C0823009F051C08091C001FD
:107C4000811112C08091C201877009F448C08093ED
:107C5000E9002091EB0020FF07C0933071F4809180
:107C6000EB0080628093EB001092E9008091E800C5
:107C7000877F8093E800E1DD32C09091EB00906156
:107C80009093EB0021E030E001C0220F8A95EAF7E3
:107C90002093EA001092EA008091EB008860E2CF26
:107CA00081111DC01091C0011F770FB7F89480910A
:107CB000E800877F8093E800C0DD8091E80080FFC6
:107CC000FCCF8091E3008078812B8093E300806873
:107CD0008093E30082E0111183E08EBB0FBF80919F
:107CE000E80083FF0AC08091EB0080628093EB0084
:107CF0008091E800877F8093E8000F900F90DF91DC
:107D0000CF911F910F9108958058823040F7AE01B6
:107D10004F5F5F4F6091C2018091C0019091C1019E
:107D200040DDBC01892BD9F29091E800977F9093B8
:107D3000E80089819A81A2DE8091E8008B778093A8
:107D4000E800CDCF803859F68091E800877F809396
:107D5000E8008091BC018093F10065CF8111BFCF15
:107D60009091C001923008F0BACF8091E800877FEF
:107D70008093E8009093BC0160DD8091BC01882372
:107D800011F084E005C08091E30087FDFACF81E027
:107D90008EBB37DAA4CF0895CF938EB3882359F0E2
:107DA000C091E900C7701092E9008091E80083FD5E
:107DB000F7DEC093E900CF910895EE0FFF1F059005
:107DC000F491E02D0994F999FECF92BD81BDF89A06
:107DD000992780B50895262FF999FECF1FBA92BD35
:107DE00081BD20BD0FB6F894FA9AF99A0FBE01969C
:067DF0000895F894FFCF96
:107DF6007777000000000000080E0361007400722F
:107E060000650075007300000018034B00650079DB
:107E16000062006F0061007200640069006F00205C
:107E260000000026034100740072006500750073AF
:107E360000200042006F006F0074006C006F00614C
:107E46000064006500720000000403090409023E94
:107E5600000201008032090400000102020100054F
:107E660024001001042402040524060001070582EB
:107E7600030800FF09040100020A000000070504C8
:107E86000210000107058302100001120110010211
:107E960000000809120223010002010301434154B4
:067EA6004552494E410067
:040000030000700089
:00000001FF
