:10000000ffcd35c034c033c032c031c030c02fc086
:100010002ec0c7c12cc02bc02ac029c028c058c1bf
:1000200026c025c024c0ccc132c033c039c03ec0b8
:1000300023c042c047c04dc011241fbecfefd2e045
:10004000debfcdbf11e0a0e0b1e0e2ecf6e002c01f
:1000500005900d92a031b107d9f721e0a0e1b1e000
:1000600001c01d92ad3db207e1f76cd228c3c8cfe5
:1000700090e08830910538f081ed8cbd9db581e030
:1000800089278dbd0895fc01ec5eff4f09941cbccf
:10009000089583ed8cbd9db581e089278dbd0895c0
:1000a00083ed8cbd8db581608dbd089582ed8cbdd5
:1000b0008db581608dbd089581ed8cbd8db581605c
:1000c0008dbd089580ed8cbd9db581e089278dbde6
:1000d000089580ed8cbd8db581608dbd0895e09152
:1000e0003701e03470f49091360121e02e0f209317
:1000f0003701f0e0e90ff11def73ff27ea5cfe4fd7
:1001000082830895fc019081892f807f8038c1f41b
:10011000f8949f70a92fb0e0a90fb11da90fb11dd0
:10012000aa0fbb1faa0fbb1faa0fbb1fa758be4f0a
:1001300088e1319601900d928a95e1f778940895bf
:10014000933089f118f1963031f0973009f440c0be
:10015000943039f00895623009f443c090937801e7
:1001600008956530b9f72181f894822f90e0820fcd
:10017000911d820f911ddc01a758be4f2281338152
:1001800044812d933d934c9378940895913031f3ad
:10019000923031f5623011f7818190e090938900bf
:1001a0008093880008956430a9f6f8948fe190e078
:1001b000dc01aa0fbb1fa80fb91fa758be4f218192
:1001c000328143812d933d934c93019788f7dccf87
:1001d0008181803208f0becf805280930e01089555
:1001e0000895818180930c0143cf8091370188234a
:1001f00079f090913601e92ff0e0ea5cfe4f228120
:100200008150809337019f5f9f7390933601822fb7
:1002100008950f931f93cf93df93fc01db018c9123
:10022000882389f090917801913051f1a0f19230ba
:10023000c1f0963069f480910c01808381e0fb016c
:10024000808310927801df91cf911f910f910895d3
:1002500081e08083db018c93df91cf911f910f911f
:1002600008958091880090918900808381e0db016e
:100270008c9310927801df91cf911f910f91089587
:1002800083e08083fb01908310927801df91cf910e
:100290001f910f91089580913701811109c010823b
:1002a00081e0fb018083df91cf911f910f91089531
:1002b0008b01ef0181e0808398df898396df8a8359
:1002c00094df8b8392df8c8385e0d8018c93bbcf46
:1002d0001f920f920fb60f9211248f939f93ef935b
:1002e000ff938091db019091dc018130910531f128
:1002f000a0f0029749f41ebc8091da018f5f8093d1
:10030000da01883009f43fc0ff91ef919f918f91fe
:100310000f900fbe0f901f9018951ebc8091da01b0
:100320008f5f8093da01883079f781e090e09093d5
:10033000dc018093db011092da01e6cf8091d901d4
:100340008f5f8093d901813029f1e091da0181e05a
:100350008e0f8093da01f0e0e758fe4f80818ebd6a
:100360008091d9018430d1f08091da01803661f634
:1003700082e090e09093dc018093db011092da013f
:100380001092d901c1cf1092dc011092db011092c2
:10039000da01bacf80910e018ebde6cf1092d9015d
:1003a000e3cf1f920f920fb60f9211248f9381e02b
:1003b00080930d018f910f900fbe0f901f90189595
:1003c0001f920f920fb60f9211242f933f934f93ca
:1003d0005f936f937f938f939f93af93bf93ef93ad
:1003e000ff938091b900883909f477c0c8f1883b40
:1003f00009f483c070f5883a09f446c0803b09f4db
:1004000043c0803ac9f585ed8093bc008091bc0063
:1004100084fdfccfe0911001f0911101309729f09b
:100420006091350182e191e0099585ec8093bc00f3
:10043000ff91ef91bf91af919f918f917f916f91bc
:100440005f914f913f912f910f900fbe0f901f9092
:100450001895883c51f3883f59f3803c69f4e5cf07
:10046000883709f444c0e8f18838b9f1803909f4d3
:100470004ac0803809f447c085ed8093bc00809164
:10048000bc0084fdfccfd4cf10923501e091330144
:10049000f0913401309709f448c080e28093320132
:1004a00062e371e082e191e0099580913201e0918f
:1004b0003501882309f442c081e08e0ff0e080937b
:1004c0003501ee5efe4f80818093bb009091350137
:1004d00080913201981708f4a8cf85e88093bc007a
:1004e000a7cf883621f0803711f0803629f6109298
:1004f000350185ec8093bc009bcfe091350181e014
:100500008e0ff0e0dccfe0913501e03230f781e092
:100510008e0f809335018091bb00f0e0ee5efe4fc0
:10052000808385ec8093bc0083cfe0e0f0e081e045
:1005300091e09093320110921201c1cf81e08e0fb1
:10054000f0e0f6cf87b18f6087b988b18f6088b946
:100550001ab85fef5bb9479a3f9a809181008c602f
:1005600080938100109285001092840082e390e0d5
:10057000909389008093880080916f0082608093bf
:100580006f00789482e890e09093110180931001bd
:1005900089e091e0909334018093330193b183b16a
:1005a00091708270892b8865880f8093ba00509370
:1005b000bb008091b9008e7f8093b9008091b90013
:1005c0008d7f8093b90085ec8093bc007894f8947b
:1005d0008fe190e020e030e040e0fc01ee0fff1ff3
:1005e000e80ff91fe758fe4f2083318342830197bc
:1005f00088f778948ce284b985b1837d85b9809140
:100600000c0136dd1092dc011092db011ebc81e092
:100610008093da011092d901ee24e394f12c8091b9
:100620000d018823e1f362e071e0a0e0b1e0e1e0d8
:10063000f1e040e050e010e088b19701042e01c0e5
:10064000220f0a94eaf7922f9095892388b9000027
:1006500089b198b1292b28b9eb01388183272c91d6
:100660009081922798239083209528232c9380951e
:10067000822b892b809538273883180f4f5f5f4f67
:100680006d5f7f4f1396339644305105a9f61111d3
:1006900003c010920d01c3cff894809102018095a0
:1006a0001edd8091050180951add809108018095fd
:1006b00016dd80910b01809512dd7894b0cff8940f
:0206c000ffcf6a
:1006c2000000ff0000ff0000ff0000ff0401ff0028
:101c000013c022c021c020c01fc01ec01dc01cc0e8
:101c10001bc01ac019c018c017c016c015c0fec01e
:101c200013c012c011c010c011241fbecfefd2e0ec
:101c3000debfcdbf21e0a0e0b1e001c01d92a33422
:101c4000b207e1f7f6d0d9c1dbcfe0e0f1e09fefda
:101c500080e48e0f91938e13fdcf0895e3e0f0e0c2
:101c60008491df01a050bf4f8c933197c8f708953e
:101c700040e050e061e0fa01e050ff4f218130e0a8
:101c8000322f22277081272b07b600fcfdcffa01e7
:101c9000e80ff91f090160935700e89511244e5f82
:101ca0005f4f4034510539f707b600fcfdcf25e002
:101cb000fc0120935700e895089584e98093bc00c7
:101cc0000895fc01603811f094e801c094ec909301
:101cd000bc008091bc0087fffccfa8958091b90023
:101ce000861719f0eadf80e008958091bb008083b9
:101cf000683819f484e88093bc0081e00895cf939c
:101d0000df9300d0cdb7deb760e8ce010296d9df11
:101d100060e8ce010196d5df898190e0982f882771
:101d20002a81822b0f900f90df91cf91089580939d
:101d3000bb0084ec8093bc008091bc0087fffccf8b
:101d4000a8958091b900883b09f0b7cf089583b179
:101d500093b1282f2170892f8270822b8065880f84
:101d60008093ba0084e48093bc0008958627682f8e
:101d700062956827062e669566956025062e6695ff
:101d800060256770082e892f669507946795902dba
:101d9000862706946795902586270895cf92df922f
:101da000ef92ff920f931f93cf93df9387b7082f84
:101db000017080ff03c081df00e026c01091400168
:101dc000c12fd0e084e0cc0fdd1f8a95e1f7c05031
:101dd000df4f6e0180e1c80ed11cee24ea94fe2c88
:101de00060e8ce016edf882379f06991c701bedf1c
:101df0007c01cc15dd05a1f782dfe816f90621f498
:101e00001f5f1093400101e0802fdf91cf911f9160
:101e10000f91ff90ef90df90cf9008951f920f9257
:101e20000fb60f9211241ebc0f900fbe0f901f9083
:101e30001895cf93df9300d0cdb7deb73f9a479a7e
:101e40008ce284b985b1837d85b981ed8cbd81e05b
:101e50008dbd84b714be837009f4c2c078df9ae0e8
:101e600088e10fb6f894a895809360000fbe909318
:101e7000600084ec982e98e1b92e29e2822e33e09e
:101e8000a32ee12cf12c48e0742ecc24ca94dc2c37
:101e90009092bc008091bc0087fffccfa8950fb644
:101ea000f894a895b09260000fbe80926000809177
:101eb000b900803669f0883a09f090c081e037dfd8
:101ec0008091410134df8091420131df40dfe0cf7a
:101ed00060e8ce010296f5de8823d1f28a81833054
:101ee000a9f128f4813049f0823081f077c0843044
:101ef000b1f1863009f451c071c010924001a5dee5
:101f0000fede9093420180934101c2cf81e491e0d3
:101f100045df811102c060e815c080914001843026
:101f200081f40091410110914201007c01151105dd
:101f300011f494de04c001158ce1180710f4c801f7
:101f400097de68e8ce010196bcdea2cf0fb6f8940a
:101f5000a895b09260000fbe70926000ffcf75de52
:101f60007dde07b600fcfdcff701a0925700e89593
:101f700080e090e07dde80e490e07adee0e4f0e076
:101f800007b600fcfdcfa0925700e895e05cff4f3c
:101f9000e1158ce1f807a1f77bcfb1de8c01afde54
:101fa0002c01400e511e4114e0e25e0608f070cf95
:101fb000d0924201c09241010415150508f068cf86
:101fc000f80164918091410190914201cfde90939c
:101fd0004201809341010f5f1f4feecf6ede58cf5d
:101fe0000fb6f894a8958091600088618093600096
:0e1ff000109260000fbe20c0ffcff894ffcf0c
:00000001ff
